:020000040800F2
:10000000E0390020F5030008410000084100000825
:1000100000000000000000000000000000000000E0
:100020000000000000000000000000006D0000085B
:100030000000000000000000000000004500000873
:10004000FEE700BF01B515480068EFF3098020E91D
:10005000F00F80F3098807F01BFCBDE80140EFF3C7
:100060000980B0E8F00F80F30988704700B500F010
:100070009EFA5DF804EB1EF0040F0CBFEFF308804E
:10008000EFF30980816911F8021C29B900F1200001
:10009000B0E8F00F80F309887047000010E000E03E
:1000A00010B501214FF4807006F0BCFB0120014621
:1000B00006F0C4FB032000F0C1FD042000F0BEFDEB
:1000C000052000F0BBFD062000F0B8FD03200E2146
:1000D0000B2200F057FD03200F210B2200F052FDF0
:1000E000032000210B2200F04DFD032001210B22F3
:1000F00000F048FD04200B22072100F043FD0420FE
:1001000008210B2200F03EFD042009210B2200F003
:1001100039FD04200A210B2200F034FD0B210420BC
:100120000A4600F02FFD04200C210B2200F02AFDCE
:1001300004200D210B2200F025FD04200E210B22AE
:1001400000F020FD04200F210B2200F01BFD0320F6
:1001500008210B2200F016FD032009210B2200F0DC
:1001600011FD03200A210B2200F00CFD05200021C7
:100170000B2200F007FD052001210B2200F002FDFB
:10018000052002210B2200F0FDFC052003210B229B
:1001900000F0F8FC052004210B2200F0F3FC052000
:1001A00001460B2200F0EEFC05200C210B2200F092
:1001B000E9FC05200D210B2200F0E4FC05200E21B6
:1001C0000B2200F0DFFC05200F210B2200F0DAFCEF
:1001D000062000210B2200F0D5FC062001210B2275
:1001E00000F0D0FC062002210B2200F0CBFC062000
:1001F00003210B2200F0C6FC062004210B2200F094
:10020000C1FC062005210B2200F0BCFC0B210320C1
:100210000A4600F0B7FC03200C210B2200F0B2FCD0
:1002200003200D210B2200F0ADFC042003210B2242
:1002300000F0A8FC042001460B2200F0A3FC0420DF
:1002400005210B2200F09EFC03200B22052100F06B
:1002500099FC032004210B2200F094FC03200721C9
:100260000B2200F08FFC062009210B2200F08AFCF3
:1002700006200A210B2200F085FC06200C210B220F
:1002800000F080FC042000210B2200F07BFC042005
:1002900001210B22BDE8104000F074BC30B50223F0
:1002A00097B01193DB1802930C3303934FF48053F0
:1002B00000240125099368460FAB0F951094129402
:1002C0001394149515940094019404940594069441
:1002D000079408940A940B940C940D930E9306F0D3
:1002E000B9F92046294606F04DFA17B030BD30B5B1
:1002F000022297B0002311920E3201241093129320
:10030000139314931593042501930293039204937A
:1003100005930693079308934FF480520A930B9327
:100320000C9368460FAB0F94009509920D930E93B2
:1003300006F090F92846214606F024FA17B030BDA1
:1003400010B503228EB00B9206320C92073A0023AE
:1003500002923E320A930D934FF4807403930492F9
:1003600006934FF40032079301A80AAB019405925B
:100370000893099306F0D2F92046012106F014FAF9
:100380000EB010BD30B5022397B004221193029233
:10039000023B0C320124159306250193039204932A
:1003A00005930693079308934FF480520A930B9397
:1003B0000C9368460FAB0F941094129413941494FA
:1003C000009509920D930E9306F044F928462146B4
:1003D00006F0D8F917B030BD10B5FFF761FEFFF792
:1003E0005DFFFFF784FFFFF7ABFFBDE81040FFF7AD
:1003F000C9BF000010B5304806F0D2FA012006F05F
:10040000D2FA012006F0D2FA002006F0D2FA2B4BE5
:100410002B491A688A4202D02A498A4203D15A6972
:1004200042F400725A61284B1B681A6822F01F02BE
:100430001A601A6842F002021A601A6842F010024A
:100440001A60224B224A1B68196801EA02022149FC
:100450008A4206D15968204A01EA02021F498A42AB
:1004600024D01A6842F001021A6059681C4A01EA55
:1004700002025A601A6822F0847222F480321A60F2
:100480001A6822F480221A605A6822F4FE025A6026
:1004900000229A60134A5A600E4A1A60124B1B6877
:1004A000002BFBD0114B1B68002BFBD0FFF794FFF8
:1004B000BDE8104000F01EB8E039002000ED00E07B
:1004C00031C20F4131C21F41E4690008E0690008F0
:1004D00001000F0300000B03FC3F3F0008041F0056
:1004E0000000FFF802C41D0744004242640042427B
:1004F00000ED00E073B5134B00210193124B1D4634
:1005000019E05A699C68012AD8680AD1A04210D023
:10051000013A02E01659165004321E69B242F9D36C
:1005200007E032B902E00024145004321C69A242F0
:10053000F9D3013110336A689142E2D3019B9847A5
:0C0540007CBD00BF99050008C8910008B0
:10054C00114B70B500211D4619E05A699C68012AAF
:10055C00D8680AD1A04210D0013A02E016591650C0
:10056C0004321E69B242F9D307E032B902E000242A
:10057C00145004321C69A242F9D3013110336A6859
:10058C009142E2D370BD00BF0092000810B500F09C
:10059C00BFF800F0D1FAFFF7D3FFBDE8104005F02B
:1005AC0040BE4FF0000080F3118870474FF0FF0001
:1005BC0080F31188704762B6704772B670470000BE
:1005CC003B280DD8084B1B5CFF2B0BD0420900F0CD
:1005DC001F01012010FA01F1044B43F8221070475F
:1005EC0000207047002070475001002000E100E01F
:1005FC003B280ED8094B1B5CFF2B0CD0420900F09A
:10060C001F01012010FA01F1054B203243F8221092
:10061C007047002070470020704700BF5001002039
:10062C0000E100E03B280ED8094B1B5CFF2B0CD0E3
:10063C00420900F01F01012010FA01F1054B603254
:10064C0043F822107047002070470020704700BF0D
:10065C005001002000E100E03B280ED8094B1B5C48
:10066C00FF2B0CD0420900F01F01012010FA01F100
:10067C00054B403243F82210704700207047002091
:10068C00704700BF5001002000E100E0034B4FF029
:10069C00FF32C3F88021C3F88421704700E100E0E9
:1006AC003B2830B521D8134B1B5CFF2B1FD0124AB3
:1006BC00182101FB03230022DA6000F01F04013231
:1006CC0012FA04F40D4B410953F8215025EA0404A5
:1006DC0043F821400A490B4B43F820100A4BFF21E9
:1006EC00C31883F80013104630BD002030BD002025
:1006FC0030BD00BF500100208C01002030010020D3
:10070C00C50A00084000002000E100E061B6704717
:10071C0070B5FFF752FFFFF7B9FF284B1B685A69FA
:10072C0042F002025A61264A00232649FF205854FF
:10073C00254801333C2B42F8040F0D46F5D1234BD1
:10074C0000221C78224B16E02248105C295401210F
:10075C0043F8181C013943F8141C1F4843F81C1C9F
:10076C001E4943F8200C51184FF0FF3023F80E0CA3
:10077C00013281F80003D1B21833A142E4D3184CF2
:10078C00164B00254FF0FF32C3F88020C3F88021B0
:10079C0025602561C3F88420C3F884210123E3611B
:1007AC0065606561A560E560FFF700FFA561FFF777
:1007BC0002FFBDE87040FFF7A9BF00BFF0040008BE
:1007CC003C00002050010020C50A0008460B000820
:1007DC0094010020470B0008655E000800E100E072
:1007EC0030010020F8B5154D154FEB68154E01334F
:1007FC00EB60AB6918220133AB613B5C044602FB36
:10080C0003631B7C0BB9FFF7D8FE2046FFF70AFFEA
:10081C003B5D18225343F3580BB1204698473B5D80
:10082C00182202FB0366337C0BB9FFF7C4FEEB689E
:10083C00013BEB60AB69013BAB61F8BD30010020C3
:10084C00500100208C0100202DE9F0412E4C2F4D41
:10085C0000232B70A36886B00133A3608DF81700BA
:10086C002B4FFFF7DFFE9DF8170018223B5C294E3B
:10087C005343F3580BB1984700E018469DF81730D6
:10088C004FF01808FB5C08FB03635A68B2B1B2F86E
:10089C004E305064A2F84C3092F84F3010466FF343
:1008AC00410382F84F3004F095F99DF81730184A3F
:1008BC00D25C184B08FB023300225A609DF81730AB
:1008CC001822FB5C02FB0366708A4FF6FF7398429A
:1008DC0009D00021012300930A460DF11703019161
:1008EC00029104F0FBFBA368013BA3600A4B1A685E
:1008FC000A4B1B689A4201D003F0A0FF01232B7016
:10090C0006B0BDE8F08100BF300100205C1B002068
:10091C00500100208C0100206C1B0020601B00206B
:10092C0010B5074CA36853B9FFF740FEE369B3F168
:10093C00FF3F01D00133E361024B00221A7010BD5E
:10094C00300100205C1B002008B5FFF72FFE024B86
:10095C000122DA6108BD00BF300100200E4B9A68FD
:10096C00002A18D1DA690AB1013ADA61DB69002B85
:10097C000FD1094B9B6953B9084B01221A70084BD4
:10098C001A68084B1B689A4201D004F0FDB8FFF7B7
:10099C0008BEFFF70BBE7047300100205C1B002027
:1009AC00601B00206C1B0020014B0022DA61704799
:1009BC00300100203B282DE9F04104462AD8DFF80D
:1009CC00688018F80020FF2A24D0154DEB680BBB6B
:1009DC00144E182707FB0262D268012A1DD0FFF7BC
:1009EC0007FE18F8043007FB0366B368B3F1FF3F4A
:1009FC0001D00133B3606309012004F01F0410FA25
:100A0C0004F4043355F8232022EA040445F8234067
:100A1C00BDE8F0810020BDE8F0811846BDE8F0810A
:100A2C00300100208C010020500100203B2870B5C3
:100A3C0025D8164B1B5CFF2B21D01549CC68F4B97B
:100A4C00144D182202FB0352D668012E19D094685B
:100A5C000CB1013C9460182202FB03539B6893B9C0
:100A6C00012400F01F0214FA02F24309043351F876
:100A7C0023502A4341F82320FFF7A2FD01E0002078
:100A8C0070BD204670BD012070BD00BF500100201C
:100A9C00300100208C0100203B2807D8044B1B5C44
:100AAC00FF2B03D018225343024AD150704700BF8A
:100ABC00500100208C01002001B5EFF3098020E9E2
:100ACC00F00F80F30988EFF30580A0F11000FFF719
:100ADC00BBFEBDE80140EFF30980B0E8F00F80F3F6
:100AEC000988704701B5EFF3098020E9F00F80F316
:100AFC000988EFF30580A0F11000FFF773FEBDE845
:100B0C000140EFF30980B0E8F00F80F309887047DB
:100B1C00EFF311804FF0FF0181F31188704700BF94
:100B2C0080F31188704700BFEFF3108072B67047E6
:100B3C0080F31088704700BF70473C00010203042B
:100B4C0005060708090A0B0C0D0E0F1011121314D1
:100B5C0015161718191A1B1C1D1E1F2021222324C1
:100B6C0025262728292A2B2C2D2E2F3031323334B1
:100B7C0035363738393A3B000628F0B534D80729D2
:100B8C001A4B0FD88D000F26AE4053F82040276823
:100B9C0027EA060602F00F0717FA05F546EA0505DF
:100BAC00256010E0A1F10805AD000F26AE4053F80A
:100BBC002040676827EA060602F00F0717FA05F5CA
:100BCC0046EA05056560182A06D1173A12FA01F1B2
:100BDC0053F820301961F0BD082A05D1073A12FAF2
:100BEC0001F153F820305961F0BD00BFB86900081D
:100BFC00062804D8034B53F820309868704700201F
:100C0C00704700BFB8690008062804D8024B89B2A7
:100C1C0053F8203019617047B8690008062803D8CA
:100C2C00024B53F820305961704700BFB869000877
:100C3C0006281BD8DFE800F004070A0D1013170074
:100C4C0001220B4B0DE001220A4B0AE001220A4B58
:100C5C0007E00122094B04E00122094B01E0094B9A
:100C6C0001221A607047084B01221A60704700BFBE
:100C7C00080342420C034242100342421403424214
:0C0C8C00180342421C0342422003424273
:100C9800000000000000000000000000000000004C
:100CA800000000000000000000000000000000003C
:100CB800000000000000000000000000000000002C
:100CC800000000000000000000000000000000001C
:100CD800000000000000000000000000000000000C
:100CE80000000000000000000000000000000000FC
:100CF80000000000000000000000000000000000EC
:100D080000000000000000000000000000000000DB
:100D180000000000000000000000000000000000CB
:100D280000000000000000000000000000000000BB
:100D380000000000000000000000000000000000AB
:100D4800000000000000000000000000000000009B
:100D5800000000000000000000000000000000008B
:100D6800000000000000000000000000000000007B
:100D7800000000000000000000000000000000006B
:100D8800000000000000000000000000000000005B
:100D9800000000000000000000000000000000004B
:100DA800000000000000000000000000000000003B
:100DB800000000000000000000000000000000002B
:100DC80008B502204FF4A871FFF72AFF02204FF45C
:100DD8000071FFF71BFF144804F084F802204FF459
:100DE8001471FFF71DFF02204FF48071FFF70EFF0B
:100DF8000D4804F077F802204FF45071FFF710FF08
:100E080010210220FFF702FF074804F06BF80220C8
:100E18004FF44471FFF704FF02204021FFF7F6FE6C
:100E2800014804F05FF8CCE720A107001FB50220B5
:100E3800FFF700FF022006210246FFF79FFE02206F
:100E480004210246FFF79AFE022008210246FFF716
:100E580095FE022009210246FFF790FE0D4B012066
:100E68000193642302930C4BC82103930022034689
:100E7800009003F007FD4FF6FF73984207D000215A
:100E88000A460B4600910191029104F029F905B038
:100E980000BD00BFC90D0008A80E0008FFF7C6BFB7
:100EA80068656C6C6F206C656400FFF7F7BF000025
:100EB8001FB5002005F026FB002005F0F5FD0020F9
:100EC80000F0E8F8002006F0AFFA002005F080FFF7
:100ED800002000F063FF1B48002103F09BFB044641
:100EE800B8B100221346022103F0ECFB04214FF4B1
:100EF80061420023204603F0E5FB204600F02EFB6C
:100F0800114803F085FD002102460B46204603F0F8
:100F1800D9FB022300930D4B002201934FF4806309
:100F280002930B4BC82103930120134603F0AAFC3C
:100F380000210A460B4600910191029104F0D0F875
:100F48001FBD00BF5C0F0008620F0008B30E000849
:100F58006C0F00087561727431007465726D5F738F
:100F680063616E006D61696E2066756E6374696F8A
:100F78006E0000002DE9F04F454885B002F00AF9EF
:100F8800074605462946384602F044F90546002832
:100F980077D0037E012BF5D1846A23689847A3682C
:100FA800984202D0A060002304E02369E2689342DB
:100FB80001D20A3323616368A2689342E2D02169AF
:100FC800E2689142DED34FEA13284FEA134A5FFAE8
:100FD80083F95FFA88F85FFA8AFA4FEA136B0026FA
:100FE800A268F30032FA03F3DBB2B3B1994514D027
:100FF800984512D09A4510D09B450ED0019306F023
:1010080083FB019B00228DF80D208DF80C30029097
:1010180002A9E869083200F0A9FB0136042EDFD1E5
:10102800A368043E4FEA13284FEA134A5FFA83F98C
:101038005FFA88F85FFA8AFA4FEA136B6268F3007E
:1010480032FA03F3DBB2B3B1994514D0984512D004
:101058009A4510D09B450ED0019306F055FB019B95
:10106800F0228DF80D208DF80C30029002A9E86965
:10107800E83A00F07BFB0136042EDFD1A3686360F9
:1010880080E742F2107003F02DFF3D467AE700BF7B
:10109800121100087FB5144802F07CF810B3134B06
:1010A800002201934FF400730293114B0125C821CC
:1010B800039328461346009503F0E4FB00242346D7
:1010C80021462246064600940194029404F008F84A
:1010D8004FF6FF73984204D1304603F04FFE204686
:1010E80000E0284604B070BD121100087D0F00080A
:1010F800251100080A4608B5012100F0E7FA002882
:101108000CBF4FF0FF30002008BD737464696E2077
:10111800696E70757420646576696365006B6579BE
:10112800626F6172640000007FB50E4B0021186881
:1011380002AA102303F0AEFA019040B106F0E4FAD7
:10114800094B009069461868182200F00FFB019BB4
:10115800102BEAD004F0F0FA01214FF0FF3203F02F
:1011680039FFE2E7500800204C080020F0B5002ABB
:1011780085B008DA5242002805DA2D238DF80030B0
:1011880040422C3B00E00023102A2FD100E02346E8
:1011980000F00F0204ADEC180009092A04F8102C1D
:1011A80001D8303200E0573204F8102C5C1CE4B24D
:1011B8000028ECD19DF800502D2D04D10A4602F8E4
:1011C800015B013000E00A46201AC0B20446154609
:1011D80009E004AFFE1816F8106C013B013C05F855
:1011E800016BDBB2E4B2002CF3D12DE00A2A2CD13A
:1011F80000E023460A2404AAD518B0FBF4F204FB45
:1012080012005C1C303005F8100CE4B21046002ABD
:10121800EFD19DF800502D2D04D10A4602F8015B4C
:10122800013000E00A46201AC0B20446154609E01B
:1012380004AFFE1816F8106C013B013C05F8016B71
:10124800DBB2E4B2002CF3D11454084605B0F0BD6B
:1012580010B503780146302B08D14378782B03D199
:10126800763B07E0022305E0582BFBD0002326E05D
:101278000133DBB2CA5C302AFAD0002019E0A2F1AF
:101288003004E4B2092C02D8000130380EE0A2F193
:101298004104E4B2052C02D80001373806E0A2F177
:1012A8006104E4B2052C1DD80001573801338018B9
:1012B800DBB2CA5C002AE2D110BD0133DBB2CA5CE2
:1012C800302AFAD000200AE0A2F13004E4B2092C56
:1012D80008D80A246043013330388018DBB2CA5C6E
:1012E800002AF1D110BD03460068F0B5A0B102464E
:1012F800944612F8014B0E46154616F8017BA74294
:1013080007D11CB100228CF8002000E025461D60A2
:10131800F0BD002FF1D1EBE7F0BD000010B50020C3
:1013280004F0D6F938B904F007FA012144F620622E
:1013380003F050FEF3E7074B1A6881180C7CC1686C
:1013480001328A421A6003D10020186004F07EFB43
:10135800204610BD4808002007B5054B02A901F832
:10136800010D00221868012303F0A0F90EBD00BF8B
:10137800500800200FB4F0B587B00CAB53F8046BDD
:101388000593A4E0252806F1010303D01E46FFF7C4
:10139800E3FF9CE075781A46202D01D0302D01D14D
:1013A8005A1C00E020251346002403E030380A22A6
:1013B80002FB040418781E46A0F13102D2B20133B0
:1013C800082AF3D9732808D002D864287CD13CE0D5
:1013D80075281BD0782877D157E0059B1D681A1D02
:1013E8002846059207F014FEA042074604D308E0F9
:1013F8002020FFF7B1FF013CBC42F9D101E0FFF723
:10140800ABFF15F8010B0028F9D15FE0059B01A996
:101418001A1D059218680A22FFF7A8FE01A807F00E
:10142800F7FDA042074606D30DF1030408E028465D
:10143800FFF792FF013CBC42F9D1F5E7FFF78CFFBB
:1014480014F8010F0028F9D140E0059B01A91A1DE5
:10145800059218686FF00902FFF788FE01A807F0E7
:10146800D7FDA042074606D30DF1030408E028463D
:10147800FFF772FF013CBC42F9D1F5E7FFF76CFFBB
:1014880014F8010F0028F9D120E0059B01A91A1DC5
:10149800059218681022FFF769FE01A807F0B8FD49
:1014A800A042054606D30DF1030408E03020FFF7FB
:1014B80053FF013CAC42F9D1F5E7FFF74DFF14F8B3
:1014C800010F0028F9D101E0FFF746FF0136307817
:1014D80000287FF457AF013007B0BDE8F04004B0F2
:1014E80070470000F8B5194D0C4628684FF0FF31D9
:1014F80002F0EEFD04F020F90146154800F028F945
:101508000026FFF70BFFC7B20D2F01D00A2F09D114
:101518000023A3550F48FFF72DFF286802F09CFD14
:101528003046F8BD082F07D1002EEAD0013E0A4800
:10153800F6B2FFF71FFFE4E7FF2EE2D03846FFF7C9
:101548000BFFA7550136F6B2DBE700BF54080020B1
:1015580038160008F461000842160008F0B587B094
:101568000590002849D0002126480A4600F0AEF828
:10157800254DB0F1FF3F286041D0012001460022EF
:1015880002F03AFD214F3860002833D0204B00226A
:1015980001934FF4806302931E4B01200393822131
:1015A8001346009003F06EF94FF6FF76B0420446FA
:1015B8001DD00021042300930A4605AB0191029136
:1015C80003F08EFDB0420FD0134B059A13481A60F2
:1015D800FFF7D0FE1249134A1348FFF7CBFE134812
:1015E800FFF7C8FE28680AE0204603F0C7FB054855
:1015F80000F002F9386802F0FDFD4FF0FF3007B047
:10160800F0BD00BF381600084C0800205408002020
:1016180031110008620F0008500800204616000823
:101628007916000885160008611600088E1600084D
:10163800636861725F7465726D00082008000D0AA6
:10164800BBB6D3ADCAB9D3C3B6BCBDADD1DFB2D971
:10165800D7F7CFB5CDB30D0A002020B0E6B1BEB1A3
:10166800E0D2EBCAB1BCE4A3BA25732025730D0AF6
:10167800004E6F7620323720323031320030303A27
:1016880031333A3134003E0007B52C21094A0A4863
:1016980001F008FD094B0A4A186003210023019252
:1016A80008482C22009301F0EFFE074B1860012038
:1016B8000EBD00BF12110008600800205808002065
:1016C80030180008900800208C0800202DE9F84305
:1016D800DFF8789080460F46D9F800004146164654
:1016E80001F0BCFD054610BB134B2946186801F0F4
:1016F80061FE044698B14346D9F8000021462C22E1
:1017080001F0F4FC0D4B27761B88A662A3840C4BD2
:101718002562186801301860E061BDE8F88309485F
:10172800094903F015F84FF0FF30BDE8F8834FF092
:10173800FF30BDE8F88300BF8C0800202C0700208C
:101748005C08002003000003CD5E00085808002054
:10175800054A034610B510680C46194601F07EFD8F
:1017680008B18484012010BD58080020F0B5204B32
:101778000F461D688DB00646294603E0E369B3426B
:1017880007D02146284601F045FD04460028F5D13A
:101798002CE0236AA58C013323624FF6FF739D4228
:1017A80003D1144A15889D421FD006AE0FCF0FC62D
:1017B80097E8030086E80300237E8DF81030E3697C
:1017C80005932023002100931E3B0193284604AB78
:1017D8000A46029103F084FC4FF6FF73984204D145
:1017E80042F2107003F07EFBEBE701200DB0F0BD74
:1017F800580800202C070020094B10B5014618682E
:1018080001F02CFD044648B101F098FC30B1054BBD
:101818002146186801F078FE012010BD10BD00BFF8
:10182800580800208C080020CAE4C8EBC9E8B1B801
:10183800BFD8D6C6BFE9C4DAB4E6B3D80000000002
:1018480008B503490348FFF795FD012008BD00BF0F
:10185800F7250008F025000830B587B0042506AC48
:1018680044F8045D074803F0D3F800214FF0FF3235
:10187800234600950191029103F032FC012007B044
:1018880030BD00BF1926000810B586B0032306AC8A
:10189800084844F8043D03F0BBF8042300210093F2
:1018A8004FF0FF3223460191029103F019FC012009
:1018B80006B010BD1926000810B586B0022306AC84
:1018C800084844F8043D03F0A3F8042300210093DA
:1018D8004FF0FF3223460191029103F001FC0120F1
:1018E80006B010BD1926000830B587B0012406AD32
:1018F800084845F8044D03F08BF8042300210093B1
:101908004FF0FF322B460191029103F0E9FB20468C
:1019180007B030BD1926000830B587B0002506ACE1
:10192800084844F8045D03F073F80423009329463B
:101938004FF0FF3223460195029503F0D1FB0120B9
:1019480007B030BD192600082DE9F0410020D0B0BD
:1019580004F0DAFD02460B4641A804F0B7FC4399AF
:10196800429A419B3048449C459D469EFFF702FDA4
:101978002E48FFF7FFFC002001A9FFF7B3FD05384B
:10198800032849D850AF4FF0000807F8188D01A96F
:10199800384607F0DFFA0A224EA930468DF804804F
:1019A800FFF7E4FB4EA901A807F03CF9204901A87C
:1019B80007F038F90A224EA92846FFF7D7FB4EA9A7
:1019C80001A807F02FF91A4901A807F02BF90A22F4
:1019D8004EA92046FFF7CAFB4EA901A807F022F935
:1019E800144901A807F01EF9394601A807F01AF9A9
:1019F80001A804F0E1FC10F1050F08D010F1040F64
:101A080003D010F1060F07D103E00B4802E00B48A2
:101A180000E00B48FFF7AEFC0A48FFF7ABFC0120DB
:101A280050B0BDE8F08100BF242600083F2600081A
:101A38004E26000850260008522600085D26000899
:101A480068260008F461000870B50020CEB004F0E4
:101A58005BFD02460B4643A804F038FC499A2C4B20
:101A6800489903EBC2030093479A469B2948439C35
:101A7800449D459EFFF77EFC2748FFF77BFC00202E
:101A880003A9FFF72FFD083802283AD8234903A8ED
:101A980007F0C8F80A224CA93046FFF767FB4CA9A3
:101AA80003A807F0BFF81E4903A807F0BBF80A22ED
:101AB8004CA92846FFF75AFB4CA903A807F0B2F82F
:101AC800174903A807F0AEF80A224CA92046FFF7E9
:101AD8004DFB4CA903A807F0A5F803A804F06CFC7B
:101AE80010F1020F08D0B0F1FF3F03D010F1030F3F
:101AF80007D103E00B4802E00B4800E00B48FFF772
:101B080039FC0B48FFF736FC01204EB070BD00BF12
:101B180008080020732600088F26000850260008B1
:101B2800C42600089E260008A9260008B426000836
:101B3800F4610008F7B502AC44F8040D27492046C3
:101B4800FFF7D1FBFFF784FB244905462046FFF742
:101B5800CAFBFFF77DFB214906462046FFF7C3FB7A
:101B6800FFF776FB1D4907462046FFF7BCFBFFF74A
:101B78006FFB022F04460ED0042F1AD0012F27D155
:101B880017482946FFF7F6FB002301E05C550133AF
:101B9800B342FBD11AE025F0010511482946FFF7A9
:101BA800E9FB002302E025F8024B0133B342FAD1E6
:101BB8000CE025F003050A482946FFF7DBFB002364
:101BC80002E045F8044B0133B342FAD1012003E0A7
:101BD8000448FFF7CFFB0020FEBD00BF8961000865
:101BE800BF260008C6260008F7B502AC44F8040D65
:101BF80052492046FFF777FB504907462046FFF732
:101C080072FB4E4905462046FFF76DFB4B490646D9
:101C18002046FFF768FB17B10DB106B108B1484877
:101C280082E03846FFF714FB04462846FFF710FB0E
:101C380005463046FFF70CFB0138072873D8DFE864
:101C480000F0041D7238727272533E482146FFF745
:101C580091FB00260FE014F8011B3B48FFF78AFBB5
:101C680014F0070F06D13948FFF784FB35482146A1
:101C7800FFF780FB0136AE42EDD159E024F00104B4
:101C880030482146FFF776FB00260FE034F8021BA8
:101C98002F48FFF76FFB14F00F0F06D12B48FFF703
:101CA80069FB28482146FFF765FB0136AE42EDD1B6
:101CB8003EE024F0030423482146FFF75BFB00269F
:101CC8000FE054F8041B2348FFF754FB14F01F0FD0
:101CD80006D11E48FFF74EFB1A482146FFF74AFB7C
:101CE8000136AE42EDD123E024F007041548214621
:101CF800FFF740FB002613E021681748FFF73AFB7F
:101D0800616814480834FFF735FB14F03F0F06D11B
:101D18000E48FFF72FFB0B482146FFF72BFB013638
:101D2800AE42E9D104E00D48FFF724FB002003E0B0
:101D38000648FFF71FFB0120FEBD00BF89610008B0
:101D4800D3260008BF2600080B270008F461000806
:101D5800102700088A5F00082C5F0008C6260008C4
:101D680008B5042005F0F8FC01460948FFF702FB16
:101D7800022005F0F1FC01460648FFF7FBFA0120B6
:101D880005F0EAFC01460448FFF7F4FA012008BD13
:101D980015270008292700083D2700087FB5134BA1
:101DA800012401934FF440530293114B00228221E6
:101DB800039320461346009402F064FD4FF6FF7625
:101DC800B04205464FF000010CD00A460B46009180
:101DD8000191029103F084F9B04204D1284602F03F
:101DE800CDFF00E00C46204604B070BDD1250008A8
:101DF8005027000870B5002386B005462D2101AA9A
:101E0800D1540133142BF9D12C462146284601F030
:101E180001FA044620B90E48FFF7ACFA06B070BDC7
:101E280001F0DAF906AB1E18002306F8143C01A9E4
:101E38000848FFF79FFA2D2306F8143C616919B189
:101E48000548FFF797FAE0E70448FFF793FADCE75D
:101E5800F46100088C260008F225000856270008BF
:101E680010B501F091F9BDE81040FFF7C3BF0000BD
:101E780010B5044610B9FFF7F3FF09E001F08AF93D
:101E880020B921460348FFF775FA01E0FFF7B2FFD2
:101E9800012010BD612700082DE9F0410F46C0B0B0
:101EA8001646054630B3002414602B5D202B03D062
:101EB80013B10134FF2CF8D129466846224606F0B2
:101EC800AFFD4FF00008684639460DF8048006F06B
:101ED80053FF80B92C1907E0202B05D00A2B0CD012
:101EE8000D2B0AD0326008E0224614F8013B002B83
:101EF800F2D102E002E0404600E0012040B0BDE837
:101F0800F081000010B51048FFF734FA0F48FFF7CA
:101F180031FA0F48FFF72EFA0E48FFF72BFA0E4852
:101F2800FFF728FA0D48FFF725FA0D48FFF722FAC0
:101F38000C48FFF71FFA0C48FFF71CFA0B48BDE8DE
:101F48001040FFF717BA00BF74270008A127000840
:101F5800D32700080D280008472800087E28000815
:101F6800A4280008C6280008EC280008242900082E
:101F780010B50B48FFF7FEF90A48FFF7FBF90A48C6
:101F8800FFF7F8F90948FFF7F5F90948FFF7F2F9FB
:101F98000848FFF7EFF90848BDE81040FFF7EAB92D
:101FA80070290008AE2E00089C290008DE290008C8
:101FB800112A0008482A0008832A000810B50A4890
:101FC800FFF7D8F90848FFF7D5F90748FFF7D2F91E
:101FD8000548FFF7CFF90448FFF7CCF90248BDE8F8
:101FE8001040FFF7C7B900BFF461000810B50A48F0
:101FF800FFF7C0F90848FFF7BDF90748FFF7BAF936
:102008000548FFF7B7F90448FFF7B4F90248BDE8F7
:102018001040FFF7AFB900BFF461000810B50A48D7
:10202800FFF7A8F90848FFF7A5F90748FFF7A2F94D
:102038000548FFF79FF90448FFF79CF90248BDE8F7
:102048001040FFF797B900BFF461000810B50A48BF
:10205800FFF790F90848FFF78DF90748FFF78AF965
:102068000548FFF787F90448FFF784F90248BDE8F7
:102078001040FFF77FB900BFF461000810B50A48A7
:10208800FFF778F90848FFF775F90748FFF772F97D
:102098000548FFF76FF90448FFF76CF90248BDE8F7
:1020A8001040FFF767B900BFF461000810B50A488F
:1020B800FFF760F90848FFF75DF90748FFF75AF995
:1020C8000548FFF757F90448FFF754F90248BDE8F7
:1020D8001040FFF74FB900BFF46100080148FFF74F
:1020E80049B900BFE62A000810B50A48FFF742F9C7
:1020F8000848FFF73FF90748FFF73CF90548FFF79D
:1021080039F90448FFF736F90248BDE81040FFF7EF
:1021180031B900BFF461000810B50A48FFF72AF981
:102128000848FFF727F90748FFF724F90548FFF79C
:1021380021F90448FFF71EF90248BDE81040FFF7EF
:1021480019B900BFF461000810B50A48FFF712F981
:102158000848FFF70FF90748FFF70CF90548FFF79C
:1021680009F90448FFF706F90248BDE81040FFF7EF
:1021780001B900BFF461000810B50A48FFF7FAF882
:102188000848FFF7F7F80748FFF7F4F80548FFF79E
:10219800F1F80448FFF7EEF80248BDE81040FFF7F1
:1021A800E9B800BFF461000810B50A48FFF7E2F883
:1021B8000848FFF7DFF80748FFF7DCF80548FFF79E
:1021C800D9F80448FFF7D6F80248BDE81040FFF7F1
:1021D800D1B800BFF461000810B50A48FFF7CAF883
:1021E8000848FFF7C7F80748FFF7C4F80548FFF79E
:1021F800C1F80448FFF7BEF80248BDE81040FFF7F1
:10220800B9B800BFF461000810B53248FFF7B2F85A
:102218003148FFF7AFF83148FFF7ACF83048FFF71F
:10222800A9F83048FFF7A6F82F48FFF7A3F82F487A
:10223800FFF7A0F82E48FFF79DF82E48FFF79AF809
:102248002D48FFF797F82D48FFF794F82C48FFF72B
:1022580091F82C48FFF78EF82B48FFF78BF82B489E
:10226800FFF788F81C48FFF785F82948FFF782F838
:102278002848FFF77FF82848FFF77CF82748FFF73A
:1022880079F82748FFF776F82648FFF773F82648C5
:10229800FFF770F82548FFF76DF82548FFF76AF84B
:1022A8002448FFF767F82448FFF764F80A48FFF75F
:1022B80061F82248FFF75EF82148FFF75BF82148EC
:1022C800FFF758F82048FFF755F82048BDE81040B8
:1022D800FFF750B8112B0008F4610008432B0008E1
:1022E800742B0008972B0008B42B0008D52B000886
:1022F800FA2B0008352C00086A2C00088D2C0008E1
:10230800AC2C0008D22C0008F42C0008172D00086B
:10231800482D0008772D0008962D0008B52D0008D7
:10232800D42D0008F32D0008122E0008452E0008B1
:10233800662E0008872E0008AA2E0008DD2E000849
:10234800002F00082E2F00084B2F00086C2F0008C4
:1023580013B5534901AA0446FFF79EFD012802D18F
:10236800FFF7D0FD99E020464E4901AAFFF794FDFA
:10237800012802D1FFF7FCFD8FE020464A4901AA57
:10238800FFF78AFD012806D02046484901AAFFF731
:1023980083FD012802D1FFF711FE7EE02046444963
:1023A80001AAFFF779FD012802D1FFF71FFE74E0AB
:1023B8002046404901AAFFF76FFD012802D1FFF727
:1023C8002DFE6AE020463C4901AAFFF765FD012879
:1023D80002D1FFF73BFE60E02046384901AAFFF72B
:1023E8005BFD012802D1FFF749FE56E0204634493B
:1023F80001AAFFF751FD012802D1FFF757FE4CE073
:102408002046304901AAFFF747FD012802D1FFF70E
:1024180065FE42E020462C4901AAFFF73DFD012850
:1024280002D1FFF761FE38E02046284901AAFFF7EC
:1024380033FD012802D1FFF79FFE2EE020462449F4
:1024480001AAFFF729FD012802D1FFF7ADFE24E01C
:102458002046204901AAFFF71FFD012802D1FFF7F6
:102468005BFE1AE020461C4901AAFFF715FD01286A
:1024780002D1FFF769FE10E02046184901AAFFF7CC
:102488000BFD012802D1FFF7A7FE06E014B9FFF7FC
:10249800BBFE02E01248FEF76DFF01201CBD00BF25
:1024A800932F0008962F00082B1100089A2F000878
:1024B8009E2F0008A12F0008A92F0008AD2F0008A3
:1024C800B22F0008B72F000870740008BE2F00084C
:1024D800C32F0008C82F0008CD2F0008D42F0008EC
:1024E800C826000802460BE0A3F14101C9B2192928
:1024F80002D8203300F8013C12F8013F202B03D00A
:1025080010F8013B002BEFD1704710B5044606F0D8
:102518007FFD002309E0E25C3A2A05D1E4186078DF
:10252800003818BF012010BD01338342F3D10120C8
:1025380010BD00002DE9F3414FF48071054606F007
:1025480097FDFF2802DD1B48FEF714FF2846FFF71A
:10255800C9FF2846FFF7D9FF18B91748FEF70AFF41
:1025680025E0164C002627462846216801AAFFF7D1
:1025780093FC0128A04605D107EBC6035B680198C8
:10258800984705E0D8F80800013608340028EBD150
:1025980057F8363063B90A4B1C681CB12846A04767
:1025A800044620B90748FEF7E5FE204600E0012072
:1025B800BDE8FC81D82F0008E92F0008300700206B
:1025C80014090020F92F000800B5C1B000206946A1
:1025D800FEF788FF9DF8003013B16846FFF7AAFFA1
:1025E8003E20FEF7B9FEF1E70D0A25730D0A0044F7
:1025F8004A594F53A3A8323030342D32303132A3E8
:10260800A920312E302E302E323031323037303151
:102618000064656275675F696E666F000D0AB5B123
:10262800C7B0CAB1BCE4A3BA253032643A25303207
:10263800643A25303264000D0ACAE4C8EBD0C2CA35
:10264800B1BCE4A3BA002F002C00D0A1CAB1B4EDEC
:10265800CEF3A1A300B7D6D6D3B4EDCEF3A1A30091
:10266800C3EBD6D3B4EDCEF3A1A3000D0AB5B1C721
:10267800B0C8D5C6DAA3BA25642F253032642F2511
:10268800303264202573000D0ACAE4C8EBD0C2C8F2
:10269800D5C6DAA3BA00C4EAB7DDB4EDCEF3A1A378
:1026A80000D4C2B7DDB4EDCEF3A1A300C8D5C6DA15
:1026B800B4EDCEF3A1A30030782538783A000D0A9E
:1026C800B2CECAFDB4EDCEF30D0A000D0AB8F1CAB8
:1026D800BDB4EDCEF3A3ACD5FDC8B7B8F1CABDCA39
:1026E800C7A3BA0D0A3E6420B5D8D6B720B5A5D47D
:1026F800AACAFD20C3BFB5A5D4AAD7D6BDDACAFDDC
:102708000D0A00253278200025347820003332CE97
:10271800BBD1ADBBB7B1E4C1BF2025646E530D0A70
:10272800003136CEBBD1ADBBB7B1E4C1BF20256403
:102738006E530D0A0038CEBBD1ADBBB7B1E4C1BFF3
:102748002025646E530D0A007368656C6C00CEDE3C
:10275800C3FBD7CAD4B40D0A00C3BBD5D2B5BD20BC
:10276800257320D7CAD4B4CAF70D0A004442585F6B
:102778006E616D655B3A5D2020202020202020209E
:10278800BDF8C8EBD6B8B6A8CEC4BCFEB9F1C3FB39
:10279800B8F9C4BFC2BC0D0A002020202020202088
:1027A80020202020202020202020202020C0FDC8FC
:1027B800E7A3BA44A3BA20BDF8C8EB44CEC4BCFE14
:1027C800B9F1B8F9C4BFC2BC0D0A0063642F6368CD
:1027D8006469725BCEC4BCFEB9F1A3BA5DC2B7BE70
:1027E800B620CFD4CABEB5B1C7B0C4BFC2BCB5C489
:1027F800C3FBB3C6BBF2B8C4B1E4B5B1C7B0C4BF7C
:10280800C2BC0D0A002020202020202020202020CB
:10281800202020202020202020C0FDC8E73A203199
:1028280029636420433A5C666F6C64657220BDF866
:10283800C8EB666F6C646572C4BFC2BC0D0A002029
:102848002020202020202020202020202020202080
:102858002020202020202020203229636420666F39
:102868006C64657220BDF8C8EB666F6C646572C4F1
:10287800BFC2BC0D0A0063642F63686469725B5D44
:1028880028BFD5D7D6B7FB2920CFD4CABEB5B1C784
:10289800B0C4BFC2BCC3FBB3C60D0A0063642F63D8
:1028A800686469725B5C5D2020202020202020B8AD
:1028B800FCBBBBB5BDB8F9C4BFC2BC0D0A0063649C
:1028C8002F63686469725B2E2E5D202020202020F3
:1028D80020B8FCBBBBB5BDC9CFD2BBBCB6C4BFC258
:1028E800BC0D0A002020202020202020202020208D
:1028F80020202020202020C0FDC8E73A203129636D
:1029080064202E2E5C2E2E20BDF8C8EBC9CFC1BD89
:10291800BCB6B5C4C4BFC2BC200D0A00202020200C
:10292800202020202020202020202020202020209F
:10293800202020202032296364202E2E5C666F6CB4
:1029480064657220BDF8C8EBC9CFD2BBBCB6C4BFA2
:10295800C2BCD6D0BAACD3D0666F6C646572B5C44D
:10296800C4BFC2BC200D0A00646972095BCEC4BC36
:10297800FEB9F1A3BA5DC2B7BEB620205BCEC4BC17
:10298800FEB9F1A3BA5DC2B7BEB62E2E2E202E2EEA
:102998002E0D0A00646972095BCEC4BCFEB9F1A3AE
:1029A800BA5D5BBAACD3D0CDA8C5E4B7FBC2B7BE9D
:1029B800B65D5BCEC4BCFEB9F1A3BA5D5BBAACD35D
:1029C800D0CDA8C5E4B7FBC2B7BEB65D2E2E2E206B
:1029D8002E2E2E0D0A00202020202020202020200E
:1029E8002020CFD4CABED6B8B6A8C4BFC2BCCFC2F6
:1029F800C6A5C5E4B5C4CEC4BCFEBACDD7D3C4BF42
:102A0800C2BCC1D0B1ED0D0A00646972095B5C5D9E
:102A18005B5C5D2E2E2E202E2E2E09CFD4CABEB87A
:102A2800F9C4BFC2BCCFC2D2BBBCB6B5C4CEC4BC4D
:102A3800FEBACDD7D3C4BFC2BCC1D0B1ED0D0A0018
:102A4800646972095B2E2E5D5B2E2E5D2E2E2E2064
:102A58002E2E2E09CFD4CABEB5B1C7B0C4BFC2BCD2
:102A6800C9CFD2BBBCB6B5C4CEC4BCFEBACDD7D3D1
:102A7800C4BFC2BCC1D0B1ED0D0A00646972095B64
:102A88005D28BFD5D7D6B7FB29202020202020CF0E
:102A9800D4CABEB5B1C7B0C4BFC2BCCFC2B5C4CE1C
:102AA800C4BCFEBACDD7D3C4BFC2BCC1D0B1ED0D32
:102AB8000A0052656E2F72656E616D65205BCEC42B
:102AC800BCFEB9F13A5D5BC2B7BEB65DCEC4BCFE12
:102AD800C3FB3120CEC4BCFEC3FB320D0A006368C1
:102AE8006B64627820CEC4BCFEC3FB20CFD4CABEC0
:102AF800B8C3CEC4BCFEB9F1CFC2B5C4CEC4BCFE07
:102B0800B9F1CAF4D0D40D0A000D0AD3D0B9D8C48B
:102B1800B3B8F6C3FCC1EEB5C4CFEACFB8D0C5CFC1
:102B2800A2A3ACC7EBCAE4C8EB68656C70205BC4B1
:102B3800B3B8F6C3FCC1EE5D0D0A006C6973742D61
:102B48007273632020202020202020C1D0B3F6CF2C
:102B5800B5CDB3D6D0B5C4D7CAD4B4C3FBD7D6BACB
:102B6800CDB2E3B4CEB9D8CFB50D0A0073706565A0
:102B7800642020202020202020202020B2E2C1BF75
:102B8800D1ADBBB7D4CBD0D0CBD9B6C80D0A006570
:102B980076656E742020202020202020202020CF41
:102BA800D4CABECAC2BCFEB1ED0D0A006576747403
:102BB800202020202020202020202020CFD4CABE62
:102BC800CAC2BCFEC0E0D0CDB1ED0D0A0068656197
:102BD80070202020202020202020202020CFD4CA90
:102BE800BECFB5CDB3B6D1CAB9D3C3C7E9BFF60D09
:102BF8000A00737461636B2020202020202020208D
:102C08002020CFD4CABECFB5CDB3D6D0CBF9D3D040
:102C1800D2D1BEADB7D6C5E4CFDFB3CCB5C4CAC236
:102C2800BCFEB5C4D5BBD0C5CFA20D0A006C6F637E
:102C38006B202020202020202020202020CFD4CA34
:102C4800BECFB5CDB3D6D0CBF9D3D0D0C5BAC5C1D8
:102C5800BFBACDBBA5B3E2C1BFB5C4D0C5CFA20D25
:102C68000A0064202020202020202020202020204E
:102C78002020B6C1C8A1C4DAB4E6C0EFB5C4CAFD05
:102C8800BEDD0D0A006620202020202020202020E4
:102C98002020202020D0B4CAFDBEDDB5BDC4DAB4E2
:102CA800E60D0A0068656C70202020202020202076
:102CB80020202020444A594F53B5C4C3FCC1EEB06C
:102CC800EFD6FAD0C5CFA20D0A0076657220202073
:102CD80020202020202020202020CFD4CABE646AB3
:102CE800796F73B5C4B0E6B1BE0D0A00646174654E
:102CF800202020202020202020202020CFD4CABE21
:102D0800BBF2D5DFC9E8D6C3C8D5C6DA0D0A007448
:102D1800696D65202020202020202020202020CF21
:102D2800D4CABEB5B1C7B0CAB1BCE4BBF2D5DFC91D
:102D3800E8D6C3CAE4C8EBD0C2CAB1BCE40D0A00E5
:102D480063642020202020202020202020202020F4
:102D5800CFD4CABEB5B1C7B0C4BFC2BCB5C4C3FB2B
:102D6800B3C6BBF2BDABC6E4B8FCB8C40D0A006D6F
:102D7800642020202020202020202020202020B473
:102D8800B4BDA8D2BBB8F6C4BFC2BC0D0A006D6BF7
:102D98006469722020202020202020202020B4B424
:102DA800BDA8D2BBB8F6C4BFC2BC0D0A007264206D
:102DB80020202020202020202020202020C9BEB331
:102DC800FDD2BBB8F6C4BFC2BC0D0A00726D6469FF
:102DD800722020202020202020202020C9BEB3FDE2
:102DE800D2BBB8F6C4BFC2BC0D0A00636F707920AD
:102DF8002020202020202020202020B8B4D6C6D291
:102E0800BBB8F6CEC4BCFE0D0A006D6F76652020F7
:102E180020202020202020202020BDABD2BBB8F6C7
:102E2800BBF2B6E0B8F6CEC4BCFED2C6B6AFB5BDEE
:102E3800D6B8B6A8C4BFC2BCCFC20D0A0072656EB0
:102E480020202020202020202020202020D6D8C369
:102E5800FCC3FBD2BBB8F6CEC4BCFE0D0A0072653B
:102E68006E616D6520202020202020202020D6D8CB
:102E7800C3FCC3FBD2BBB8F6CEC4BCFE0D0A0064CB
:102E8800656C20202020202020202020202020C900
:102E9800BEB3FDD6C1C9D9D2BBB8F6CEC4BCFE0DEF
:102EA8000A00646972202020202020202020202071
:102EB8002020CFD4CABED6B8B6A8C4BFC2BCCFC221
:102EC800B5C4CEC4BCFEBACDD7D3C4BFC2BCC1D072
:102ED800B1ED0D0A00CEC4BCFECFB5CDB3B2C1B3BF
:102EE800FDD3EBD6D8BDA8C3FCC1EEA3A8C9F7D3C0
:102EF800C3A3A1A3A90D0A00636869702D65726157
:102F08007365202020202020B2C1B3FD4E414E44DD
:102F1800464C415348D0BEC6ACD6D0CBF9D3D0C46A
:102F2800DAC8DD0D0A006372656174652D64627824
:102F3800202020202020B4B4BDA8CEC4BCFEB9F106
:102F48000D0A00666F726D617420202020202020F9
:102F5800202020B8F1CABDBBAFCEC4BCFECFB5CDD2
:102F6800B30D0A0063686B6462782020202020205B
:102F780020202020CFD4CABECEC4BCFEB9F1BFD514
:102F8800BCE4B5C4B2CECAFD0D0A0063640064692E
:102F9800720072656E006D640064656C74726565BC
:102FA8000064656C00636F7079006D6F766500630F
:102FB800686B6462780074696D65006461746500AB
:102FC8006368637000666F726D617400636C730090
:102FD800CAE4C8EBD7D6B7FBB4AECCABB3A40D0AE2
:102FE800006E6F742066696C652073797374656D03
:102FF800000D0ACEDEB4CBC3FCC1EE0D0A006C692D
:1030080073742D727363007370656564006576650B
:103018006E7400657674740068656170007374611D
:10302800636B006C6F636B0068656C700000000078
:10303800064B074A1B605A610022DA609A60183210
:103048001A61044A5B601360012070471C09002064
:103058002633000818090020012108B503480A464C
:10306800034B00F0E9FF012008BD00BF3409002030
:103078001833000810B590B1094B01611C68002392
:10308800C360E368846042611BB9E060006040602F
:1030980010BD5A68036042605A685860106010BDDD
:1030A8001809002038B50446C8B10E4D01612B68D7
:1030B800426183600023C3604FF0FF310A4801F08A
:1030C80007F858B12B680848DB685A6823606260C3
:1030D8005A685C60146000F0BFFF00E004462046B8
:1030E80038BD00BF1809002034090020F8B50C4687
:1030F80015461F460646E0B1E1B10F484FF0FF31D3
:1031080000F0E6FFA8B10023E360F368256167617A
:1031180023B9F460A6602460646006E05A682360FE
:1031280062605A68A66014605C60034800F094FF0F
:1031380000E004462046F8BD3409002038B50446AE
:10314800E8B110484FF0FF3100F0C2FFB8B1E368B2
:1031580083B92568A54202D1AA68D3600BE0A368A9
:10316800DA68A24208BFDD6063681D6022682546F0
:10317800536000E00025034800F06EFF00E00546BC
:10318800284638BD34090020014B1868704700BF35
:103198001809002070B50546B8B10D4E0D483368C2
:1031A8004FF0FF31DC6800F093FF70B16069294689
:1031B80005F0E2FD28B133682468DB689C42F5D14C
:1031C8000024044800F048FF00E00446204670BD93
:1031D800180900203409002038B5044688B10B4886
:1031E8004FF0FF3100F074FF58B1094B00251B6800
:1031F80000E00135A4689C42FBD1044800F02CFF94
:1032080001E04FF0FF35284638BD00BF34090020E3
:103218001809002070B50C460546D0B1B9B10E4862
:103228004FF0FF3100F054FF98B1AC42E66800D18E
:103238004EB146B92368A468E268934202D1AC4211
:10324800F8D100E01E46044800F006FF02E00E46F2
:1032580000E00646304670BD34090020F8B5064641
:103268000F46C1B1C8B10E484FF0FF3100F030FF32
:1032780098B1F56855B12C466069394605F07CFD72
:1032880028B12468AC42F7D1002400E02C46044859
:1032980000F0E2FE02E00C4600E004462046F8BDDD
:1032A8003409002038B504460D46002929D00028E5
:1032B8002AD016484FF0FF3100F00AFF18B3E4682F
:1032C800DCB161690023EA5CBAB15C2A05D1EA186D
:1032D800527892B1E46864B90FE0C85C904202D1B8
:1032E8000133FF2BEFD12468A368DB689C42E8D147
:1032F80002E00133ED18E4E70024044800F0ACFED6
:1033080002E00C4600E00446204638BD340900209F
:1033180073656D6170686F726520666F7220726583
:10332800736F7563652071756575650010B50C4B15
:103338000C4C0022A36103F5F073A3640A4B6021CF
:10334800E2611C602046094AE164FFF7ABFE0521F3
:1033580004F120000A46054B00F06EFE012010BD66
:10336800C0090020600900205C09002050350008D1
:1033780070B516468161C36406FB0311049B069D64
:103388000365059B04464365094B0022C2618164BD
:10339800C2652146603218682B46FFF7A7FE04F184
:1033A8002000314632462B4600F046FE204670BDCE
:1033B8005C0900202DE9F84F8846044600285FD0B4
:1033C80000F120052846002100F082FE064600286C
:1033D8003CD1FDF7A7FA284600F024FF636D984218
:1033E8002DD2E36C206D31465843083000F08CFB39
:1033F800064620B300F0E0F8E36C0838B0FBF3F7BA
:10340800284600F00FFF8346284600F00EFFD4F848
:1034180034908246284600F0DBFE07EB0B0107EBF1
:103428000A024B46284600F007FE06F10803A3618E
:10343800E36C03FB0767E36DA7643360E665FDF79C
:103448008FFA2846414600F043FEC0B1FDF762FB03
:10345800E36963B15A689A4203D10023E3611446D1
:103468000AE01968E261116019684A6003E0A26C19
:10347800E36CD31AA3641C46FDF754FB00E0044632
:103488002046BDE8F88F00002DE9F84F0B9E0D4649
:1034980017469B46804600B969BB072F2DD917F000
:1034A80003042AD118F0030928D1DFF858A04946A7
:1034B800DAF80000FFF77EFF0446F8B105FB078342
:1034C80083640A9BC0F81880C0F81C90C764C0F8D1
:1034D80050B04365C0F85C90214660223346DAF864
:1034E8000000FFF703FE04F1200029462A46334670
:1034F80000F0A2FD02E0044600E000242046BDE8FA
:10350800F88F00BF5C09002070B50C460546A8B1CD
:10351800FDF700FBEB691BB9EC616460246005E012
:103528001A68636022601A681C605460FDF7FAFA32
:1035380005F12000BDE8704000F08EBD70BD10B1EF
:10354800203000F072BE7047B9CCB6A8BFE9B7D634
:10355800C5E4B3D800000000084B00221A73084ADB
:1035680001201268073222F007021A605A60054AE1
:10357800126822F007029A60704700BFC40B00204F
:1035880040920008449200080A4A10B551689468AD
:1035980001F10B0323F00703E41A844201D200204F
:1035A80010BD43F8040C1818073020F007005060CD
:1035B800184610BDC40B002008B51A4B1A68904273
:1035C8002BD39A6890422AD25A68904202D250F875
:1035D800040C08BD9B6A801A400933F8102003EBDD
:1035E8004001A2F57E43A3F5FE73032B07D8DFE85D
:1035F80003F00410020E0B790CE08B780AE0B2F5A8
:10360800804F06D30848002101F0A2F805E0012305
:1036180000E000232020984008BD002008BD0020BD
:1036280008BD00BFC40B00200100000310B501391C
:103638000346C9B200205A5C054CA25C082A01D096
:10364800801810BD083011B10139C9B2F3E710BDB7
:10365800743E000813B502AB43F8040D1846042164
:10366800FFF7E4FF019CC0F12001C9B201EB44005F
:10367800033020F0030000EB8100002309E034FA56
:1036880003F21F32520900EB82000430012AF8D8F5
:103698000133DAB28A42F2D31CBD000082B0019035
:1036A8000323002001AAD25C06498A5C082A01D0BB
:1036B800801804E0083013B1013BDBB2F2E702B036
:1036C800704700BF743E000813B5202801900446D7
:1036D8000DD9042101A8FFF7A9FF4FF00043C3400B
:1036E800A34218BF0138C0F11A00C0B200E00020A0
:1036F8001CBD00002DE9F0470446884604F00AF88E
:10370800002781462D4D2B6AA34253D22C4EFDF73C
:1037180009F9306801F044F83368002229691A6011
:103728005A6005F110029C645A6219B99B60DB600B
:103738002B610CE00A46906CA04202D292688A4241
:10374800F9D1D1689A60D960D168D3608B60336849
:10375800B8F1FF3FB3F84E20A3F84C2093F84E2061
:1037680042F0400283F84E2008D0D2B242F0020262
:1037780083F84E20C7EB080001F07CFBFDF7F0F85A
:10378800336893F84E2002F04006F6B236B16FF374
:10379800861283F84E200020BDE8F08703F0BAFFB8
:1037A800C9EB00074745ADD32B6AA342AAD23046DE
:1037B800BDE8F0870120BDE8F08700BFC40B0020FA
:1037C800601B0020094B816C53F8102F10B5536211
:1037D80013469C6C8C4202D29B689342F9D1DA68FA
:1037E8008360C260DA68D860906010BDC40B0020A6
:1037F800704700002DE9F7434D4C0123A268666825
:103808002373961B73095901761A921B012B019396
:10381800A26040F289804748474900F009FD019FAE
:103828003846FFF717FF86421CD2C6F11F0900EB86
:1038380009056D09C5EB070800220AE04046FFF7B5
:1038480009FF00EB09025209AA4208F1010802D255
:10385800013D002DF2D1A1685301BF1ACB1A01977F
:10386800A36000E0002202AD55F8043D52016361F7
:10387800A36192190021A06805F07AF9284604216D
:10388800FFF7D4FEC0F12000C0B2431E202212FA76
:1038980003F30021E361236284F82400019D0B46B1
:1038A80007E035FA03F21F3252090131012AFAD82A
:1038B80001338342F5D3A368019FA36203EB470753
:1038C8003D18033525F00305E762256305EB800401
:1038D80004EB8101002223E0019B4FF0000CD34050
:1038E80045F8044B5E0913F01F030BD04FF0FF3867
:1038F80008FA03F351F8268048EA030341F8263012
:10390800731C00E033460CF1010C012B44F8041B36
:103918005FFA8CFC01EB8301E4D807F802C001329E
:103928008242D9D3012000E00020BDE8FE8300BF19
:10393800C40B0020A00B0020743F00082DE9F84FAD
:10394800012383405B4F0446FE6ABA6916F800906B
:103958003D6B09F1FF39D31A55F820A05FFA89F9B0
:10396800BB614FF000085AF8293009F1FF3953F8C4
:1039780028005FFA89F9C043FFF790FE4FEA48181C
:10398800C0EB0808B9F1FF0F08F11F08EBD108FADE
:1039980004FC0023E21A01212CFA03F911FA02F2BD
:1039A80055F823B04FF000083AE01F2A5BF8040BE3
:1039B8004FEA59110FD901F1FF3900EB890052097B
:1039C8004FF0000909F101094FF0FF3A914540F81D
:1039D80004AFF7D321E009F01F097AB1DFF8D8A0C6
:1039E8005AF8222002FA09F950F8212049EA02027D
:1039F800B2F1FF3F40F821200ED014E04FF0010A49
:103A08000AFA09FA50F821904AEA0909B9F1FF3F80
:103A180040F8219001D006E0002208F1010889460B
:103A2800F15C8845C1D30133DBB2A342B2D922E0AD
:103A380020482CFA03F24069D84082421FD255F838
:103A48002300002112E002F01F044FF0010909FAD7
:103A580004F950F8048B520958F8224049EA040442
:103A6800B4F1FF3F48F8224003D10131F45CA14290
:103A7800E9D30133DBB297F824108B42D8D34B1E1D
:103A8800DBB2F15C55F82320013952F82120126885
:103A9800B2F1FF3F04D0202212FA03F33B6202E0A6
:103AA8000BB1013BECE778684FEA4C1C6044BDE879
:103AB800F88F00BFC40B0020F03D000870B5114C12
:103AC800227B1AB9BDE87040FFF75EBD226A8242C8
:103AD80016D3FFF7F9FD0546FFF730FF6268A36AC2
:103AE800821A520903EB420125B94FF6FD7123F8FA
:103AF800121070BD4FF6FC7423F812404D8070BD53
:103B0800002070BDC40B00202DE9F0411D4E054674
:103B1800337B0C4637461BB9BDE8F041FFF734BD8F
:103B2800194800F0E7FB48B301F02AF8336AAB42C2
:103B380001D2FCB1E8B128462146FFF7DBFDC0B150
:103B48002846FFF7C1FD0546FFF7F8FE7A68BB6A0D
:103B5800821A5209044603EB420125B94FF6FD705B
:103B680023F8120006E04FF6FC7023F812004D808F
:103B780000E00446044800F06DFB00E004462046DF
:103B8800BDE8F081C40B0020A00B00202DE9F84F00
:103B9800002800F01D818F4C237B002B00F017813B
:103BA8006568A84202D3A368984204D38A480021D2
:103BB80000F0CEFD23E0451B4FF0FF31874800F0B1
:103BC80099FBA36A6D0933F8152003EB4501A2F5AB
:103BD8007E43A3F5FE73032B07D8DFE803F0041533
:103BE80002130A7911E08A780FE0B2F5804F0BD3FF
:103BF8007948002100F0ACFD784800F02BFB00204C
:103C0800BDE8F88F012200E0002201239340A1695A
:103C1800276B5B18D4F82CC0A3610023D11A0120AC
:103C280025FA03FE10FA01F157F823904FF0000827
:103C38003DE01F2959F8046B4FEA5E1010D9490975
:103C48004FF0000E09E00EEB000A4FF0000B0EF1EA
:103C5800010E46F82AB05FFA8EFE8E45F3D323E0B4
:103C68000EF01F0E81B1DFF87CA15AF8211001FA7D
:103C78000EFE56F820106FEA0E0E0EEA010171458D
:103C880046F820100FD016E04FF0010A0AFA0EFE8F
:103C980056F820A06FEA0E0E0EEA0A0AF24546F818
:103CA80020A001D007E0002108F1010886461CF891
:103CB80003008045BDD30133DBB29342AED933E074
:103CC80035FA03F24FEA420E03260EF01E0116FAE9
:103CD80001F15E1E57F826604FEA5E1E366856F8F8
:103CE8002E60314024D13B4E7669DE40B2421FD26D
:103CF80057F8230012E002F01F064FF0010E0EFAEB
:103D080006F650F8048B520958F822E0F64306EA02
:103D18000E0EB64548F822E004D101311CF80360C4
:103D2800B142E8D30133DBB294F824008342C7D30D
:103D3800431EDBB21CF8031057F82320013952F850
:103D480021201268B2F1FF3F04D0202212FA03F3B7
:103D5800236202E00BB1013BEBE7204800F07AFA5E
:103D68001F4B1B68DA6D013ADA65FCF7DBFD256944
:103D780045B3184B1E6AA86CFFF7A6FC4701B7426B
:103D880020D8B5F84E30A5F84C3000236B6295F872
:103D98004E3003F00203DBB213B1284600F0D2FF25
:103DA800AB68E96800228B42A5F84E2001D1226158
:103DB80008E02361DB60EB6828469B60F61B00F097
:103DC8000BFFD8E7FCF7CCFD0120BDE8F88F0120F8
:103DD800BDE8F88FC40B002001000003A00B0020F1
:103DE800601B0020F03D00080000000001000000FA
:103DF80003000000070000000F0000001F00000083
:103E08003F0000007F000000FF000000FF010000ED
:103E1800FF030000FF070000FF0F0000FF1F000066
:103E2800FF3F0000FF7F0000FFFF0000FFFF0100D1
:103E3800FFFF0300FFFF0700FFFF0F00FFFF1F004A
:103E4800FFFF3F00FFFF7F00FFFFFF00FFFFFF01B5
:103E5800FFFFFF03FFFFFF07FFFFFF0FFFFFFF1F2E
:103E6800FFFFFF3FFFFFFF7FFFFFFFFF080706067B
:103E780005050505040404040404040403030303FA
:103E880003030303030303030303030302020202FE
:103E980002020202020202020202020202020202FA
:103EA80002020202020202020202020201010101EE
:103EB80001010101010101010101010101010101EA
:103EC80001010101010101010101010101010101DA
:103ED80001010101010101010101010101010101CA
:103EE80001010101010101010101010100000000BE
:103EF80000000000000000000000000000000000BA
:103F080000000000000000000000000000000000A9
:103F18000000000000000000000000000000000099
:103F28000000000000000000000000000000000089
:103F38000000000000000000000000000000000079
:103F48000000000000000000000000000000000069
:103F58000000000000000000000000000000000059
:103F680000000000000000000000000064796E619D
:103F78006D6963206D656D6F727920616C6C6F631C
:103F88006174696F6E00000008B52821074A084867
:103F9800FFF770F8074B28211860074A0748FFF712
:103FA80069F8074B1860012008BD00BF30440008BD
:103FB800F80B0020200C00203A440008A80F00202D
:103FC800440F00201FB5002300930193064B0749B7
:103FD8000293142228230648FFF7CAF9054B1860F4
:103FE800012005B000BD00BF40440008240C00209B
:103FF800480F0020CC0F00208142F8B506460D4638
:10400800174612D80A4B00211868FFF7D3F904465F
:1040180060B100234362074BC661056221461868F8
:1040280028223B46FFF762F800E000242046F8BD4E
:10403800CC0F0020200C002010B502620022426242
:10404800044A0446C161106821462822BDE8104090
:10405800FFF74CB8200C002070B50546002836D074
:10406800FCF760FC6C6A6CB9EA692B6AB2F1FF3F35
:1040780003D1B3F1FF3F02D125E0934223D20133AC
:104088002B6220E0A2680023A242636201D16B6226
:1040980006E0E1686A62D160E168E3608A60A36073
:1040A800B4F84E30A4F84C3094F84E3003F00203C4
:1040B800DBB213B1204600F045FE0023A4F84E30D1
:1040C800204600F089FDBDE87040FCF749BC70BD92
:1040D800F8B50E460446002872D0FCF71BFDE369CC
:1040E800256AB3F1FF3F01D11DB100E015B1013DD3
:1040F80025620125FCF716FD012D63D000F040FD77
:10410800002862D0002E5FD0304DFCF70BFC2868E9
:1041180000F046FB2B6800225A601A6004F1240262
:104128005A62626A12B99B60DB6016E0217EB1B9FF
:1041380093F85000114691F85070874202D8896868
:104148009142F8D1CF689960DF60CF68CB60BB60DF
:1041580092F85030834208D9D368636205E0D16889
:104168009A60D960D168D3608B602B68B6F1FF3F45
:10417800B3F84E20A3F84C2093F84E2042F080026A
:1041880083F84E2007D0D2B242F0020283F84E20C4
:10419800304600F06FFEFCF7E3FBFCF7C3FB2B682F
:1041A80093F84E2002F08001C9B239B16FF3C712FB
:1041B80083F84E20FCF7D4FB0020F8BDFCF7D0FBB9
:1041C8000120F8BD2846F8BD3046F8BD601B002028
:1041D80010B5044658B1FCF7A5FB636A23B920461D
:1041E800FEF7ACFF012400E00024FCF7B9FB2046F1
:1041F80010BD000010B5044680B1FCF793FB636A5C
:104208004BB92046FEF79AFF054B21461868FFF781
:104218007BF9012400E00024FCF7A2FB204610BD36
:10422800CC0F002000B1C069704700B1006A704728
:104238000B4601210246017601390162D161FF2056
:1042480003495076086811462422FEF74FBF00BF85
:10425800440F002070B50546002847D0244EC26997
:1042680033689A4242D1FCF75DFB2C6A1CB90123E2
:10427800EC612B7636E0A2680023A2426362EC610F
:1042880001D12B6206E0E1682A62D160E168E3604F
:104298008A60A360B4F84E30A4F84C3094F84E30DD
:1042A80003F00203DBB213B1204600F04BFD0023FC
:1042B800A4F84E30204600F08FFC6B7EFF2B11D007
:1042C800306894F8503090F850209A4208D100F0A5
:1042D80067FA074B18686B7E80F8503000F07CFC5A
:1042E800FF236B76BDE87040FCF73ABB70BD00BF9A
:1042F800601B0020F8B50E460446002800F08B80AD
:10430800484DC3692A689A4200F08580FCF702FC90
:10431800277E0023012F05D12376FF3363762B6890
:10432800E36100E01F46FCF7FDFB012F75D000F0AC
:1043380027FC002874D0002E71D0FCF7F3FA286807
:1043480000F02EFA2B680022216A5A601A6004F1E4
:1043580020025A6211B99B60DB6014E093F85000A8
:104368000A4692F85070874202D892688A42F8D179
:10437800D7689A60DF60D768D360BB6091F8503027
:10438800834201D9CB6823622B68B6F1FF3FB3F8AB
:104398004E20A3F84C2093F84F2042F0010283F8F6
:1043A8004F2008D093F84E20304642F0020283F89E
:1043B8004E2000F05FFDE6692B6896F8502093F8D0
:1043C80050309A4213D9B6F84E3083B9304600F0CF
:1043D800E7F9637E3046FF2B04BF96F850306376CA
:1043E8002B6893F8503086F8503000F0F5FBFCF756
:1043F800B7FAFCF797FA2B6893F84F2012F0010FE1
:1044080007D06FF3000283F84F20FCF7A9FA0020C9
:10441800F8BDFCF7A5FA0120F8BD3846F8BD3046CE
:10442800F8BD00BF601B002073656D6170686F7216
:1044380065006D7574657800CBF8BFD8D6C6BFE93E
:10444800B3D8000007B53C210B4A0C48FEF72AFEFA
:104458000B4B0C4A18600A21002301920A483C229F
:104468000093FFF711F8094B094918600948FFF74D
:10447800DFFE01200EBD00BFDE460008D40F00207D
:10448800D00F0020E2460008141000201010002071
:10449800F14600086C1200202DE9F84FDDF828805D
:1044A8000D4616461F46DDF82C90DDF830A08346F1
:1044B800002854D0002954D008465C2104F0D6FBCB
:1044C800044600284FD14FF0FF312948FFF712FF6B
:1044D80029465846FEF7C2FE014610B1254826492E
:1044E80037E0264B1868FEF765FF044600282ED0F3
:1044F800584621463C222B46FEF7F8FD27636663A3
:10450800B8F1000F02D0C4F8248001E01C4B6362AC
:10451800B9F1000F02D0C4F8289001E0184BA3624B
:10452800BAF1000F02D0C4F82CA001E0144BE362EA
:104538000D9B03B9124BA3610E9B03B9104BE361AA
:104548000F9B03B90E4B2362109BA36303E00D4836
:104558000D4900F0FDF80648FFF77CFE04E004462C
:1045680002E00C4600E000242046BDE8F88F00BFBA
:104578006C12002002000004FD4600081010002004
:10458800655E000803000003CD5E000870B54FF0BB
:10459800FF3104461948FFF7ADFE206B50B1FFF715
:1045A80041FE0546206BFFF740FE2B1A5D4245EBA6
:1045B800030500E00125606B38B1FFF733FE0646BE
:1045C800606BFFF732FE86420ED16DB12046FEF7D2
:1045D800B5FD48B10948FFF73DFE094B214618686B
:1045E800FEF792FF012070BD0448FFF733FE05482F
:1045F800002100F0ADF8002070BD00BF6C12002053
:104608001010002003000004014B1868704700BF19
:10461800D00F002070B506460C480D46FFF76AFE1D
:1046280088B10B4B31461868FEF73CFE044630B1A2
:10463800006B2946FFF74CFD002808BF00240348FB
:10464800FFF708FE00E00446204670BD6C1200200B
:10465800D00F002070B506460C480D46FFF74AFEFD
:1046680088B10B4B31461868FEF71CFE044630B182
:10467800406B2946FFF72CFD002808BF002403489B
:10468800FFF7E8FD00E00446204670BD6C120020EC
:10469800D00F002010B510B1C469A04710BD10BDDF
:1046A80010B510B1846AA04710BD10BD10B510B187
:1046B8008469A04710BD10BD10B510B1446AA04769
:1046C80010BD10BD10B510B1046AA04710BD10BDD3
:1046D80000B1806B704764657600B7BAC9E8B1B8B5
:1046E800BFD8D6C6BFE9B3D80064657669636520CC
:1046F8007472656500C9E8B1B8D6D8C3FB0000007C
:10470800114B602202FB0033196982B0B9B15A68B3
:104718000E4B9A4213D0CB680A689B090193019B00
:10472800521AB3EBA20F0CD8002305E04A690431F2
:10473800B2F1643F05D10133019A9342F6D30120C7
:1047480000E0002002B0704714210020541B002014
:10475800034B1B68186411B10846FCF70BBE704781
:10476800601B002010B5002486B020B2FFF7C8FFF8
:1047780060B969460A222046FCF7F8FC06496846F3
:1047880004F050FA05486946FFF7E2FF0134132C9C
:1047980088BF0024E9E700BF665E0008100000013A
:1047A800104A13689842036806D08168426829B99C
:1047B8005A60426813607047136042685A604268E2
:1047C800136090F8502093F850109142C26805D1B8
:1047D8009360DA608268D3609A607047DA60C26872
:1047E800936070476C1B002070B51EE0B5F852400E
:1047F800114B24F48044482202FB043463681BB143
:104808002B619B68636010E0204602F037FE286148
:1048180035682B6933B92846FFF7C2FF2846FEF7EB
:10482800D1FF02E0238E01332386044E35682B69BD
:10483800002BDBD070BD00BF741B00206C1B002058
:1048480070B50D4D0D4EFFF7CFFF2C683368A342AE
:1048580010D002F067FF0A4BE16A1A6818603368E3
:104868008A1A121821691869E2622B60BDE8704043
:1048780002F0C6BF70BD00BF601B00206C1B00208B
:10488800681B00202DE9F74F9B464B1EDBB2F82B27
:1048980004460D460192DDF83C80BDF830A004D9ED
:1048A80052485349FFF754FF19E0FCF73BF800233F
:1048B8001E46482202FB03F14E4F17F80190C9F338
:1048C8004009B9F1000F0DD00136B6B20133142EEC
:1048D800EFD149484949FFF73BFFFCF741F84FF64C
:1048E800FF7081E0B8F1000F3ED0482000FB09F0CE
:1048F8003B5C13F0020F09D03E4B083018184146B4
:1049080004F03AFA10B93E483E49E4E709F10109D2
:10491800B9F1140FE9D12021404604F0A9FB1F2862
:104928004FF0480207DC02FB0672414602F108001C
:1049380004F010FB1CE002FB06724346083208F143
:10494800180E186859680833734503C2F9D11868F6
:10495800106099889B7991809371482303FB0673B3
:10496800002283F8272003E002FB067282F8088001
:104978004FF0480808FB067202F1280382F8285015
:1049880000225A80A3F806B00CB9019A00E0002270
:1049980008FB06F89A800D9B47447B630E9B002515
:1049A800BB63FD633D647D643D86A7F832A038464D
:1049B80002F064FDDFF83C90786010B912481349A2
:1049C80089E701233B8619F8083064F30003DBB25A
:1049D80043F0020303F0FB0365F3C30309F808304F
:1049E800FBF7BEFF46F48040BDE8FE8F06000001DD
:1049F800795E0008741B0020030000018C5E00082B
:104A0800090000019F5E000803000003AC5E000877
:104A180070B5054690B100240A4B482000FB0430CD
:104A28002946A6B204F0A8F910B946F4804070BD32
:104A38000134142CF0D14FF6FF7070BD4FF6FF70A3
:104A480070BD00BF7C1B0020414B00222DE9F041C6
:104A58001A600132482151433E4B132A585C6FF3C8
:104A680041005854F5D13C4A00200121144613292D
:104A780003D10025C4F8205704E0851C602606FBF6
:104A880005451566A2F8B810344D013189B255664E
:104A9800013060321429EAD1314A00202A600246E6
:104AA80091B227292F4903D10025C1F8885804E07D
:104AB800551C382606FB05150D5001323830282ABA
:104AC800EED1294A234F11601A784FF0000842F0BE
:104AD80007026FF3C3021A7001225A85DA851A8613
:104AE800224AFA265A634FF48062C3F8048083F896
:104AF800088083F82860A3F82C809A63DC63C3F8E5
:104B08004080C3F84480384602F0B8FC054630B906
:104B180017481849FFF71CFE3D86BDE8F08120467E
:104B28004146602204F024F84FF0807323644FF468
:104B38008043A4F85230104B24601C600F4B646013
:104B4800A460E46084F8506025611C60BDE8F081D1
:104B5800701B0020741B002014210020541B00200F
:104B68007421002090120020501B00206D4700087F
:104B780003000003C35E00086C1B0020601B0020BC
:104B8800014B1878704700BF5C1B002070B5FFF719
:104B9800F7FFC8B10D4D0E4EFFF726FE2C6833689F
:104BA800A34210D002F0BEFD0A4BE16A1A681860F1
:104BB8008A1A33681218E262186921692B6002F0B8
:104BC8000DFE012070BD002070BD00BF601B0020DD
:104BD8006C1B0020681B002070B50446FBF79AFF89
:104BE800164994F850200D682B4693F85060964269
:104BF80002D89B68AB42F8D15D68236065605D6848
:104C08005C602C60656895F85050954205D0DA686C
:104C18009460E260A360DC6002E00023A360E360CC
:104C28000B6894F8502093F850309A423CBF034BDD
:104C38001C60BDE87040FBF775BF00BF6C1B00200F
:104C480038B53B4D3B4C2B68206801332B6000285E
:104C580041D0C26B2B689A423DD1436A93B11A681E
:104C6800824208D18268824204D100221A6082609E
:104C7800C26005E01A608268C3689A608268D3607F
:104C8800002343620368834210D1B0F84E300022FB
:104C98002260A0F84C3090F84E3003F0FE0362F327
:104CA800410380F84E30FFF797FF14E04268236015
:104CB8005A6042681360B0F84E30A0F84C3090F853
:104CC8004E3003F0FE036FF3410380F84E30FFF7D8
:104CD80083FF2068BDE7184B1968002926D0174BB9
:104CE8001B681A6893F8504092F8500084421DD10E
:104CF80093421BD02868B0FBF1F401FB1400A8B95B
:104D08009968DC68A260D4609160CA609860D860D5
:104D18000B4804689C4208BF0260586850600260F3
:104D28004A6819605A604A684B60136038BD00BF12
:104D3800641B0020701B0020A0070020601B0020BF
:104D48006C1B00200C4B10B51A6804461168914280
:104D580002D100221A6007E0904208BF1960426839
:104D680003685A604268136000232360636002F09E
:104D7800CBFCE06310BD00BF701B00202DE9F041A3
:104D88004BF6FF7500EA0505132D6BDCFBF7CAFD32
:104D980048236B43364EF21816F80380146CC8F398
:104DA80040080CB91EE03C46B4F84E30A4F84C302C
:104DB80094F84E3003F00203DBB213B12046FFF73C
:104DC800C1FF482202FB0562A768116C00238F42CD
:104DD800A4F84E3004BF1F4613642046FFF7FCFEBC
:104DE800002FE0D1482303FB05635C6C0CB91EE07F
:104DF8003C46B4F84E30A4F84C3094F84E3003F0EA
:104E08000203DBB213B12046FFF79CFF482202FBE6
:104E18000562A768116C00238F42A4F84E3004BFC6
:104E28001F4653642046FFF7D7FE002FE0D14823E2
:104E38005D43725D0E4802F0040371191BB142F024
:104E4800080242550BE063F34102425548680B7271
:104E580003E08468FEF79AFE20460028F9D1FBF7A4
:104E68007FFD01E04FF000084046BDE8F08100BF3B
:104E7800741B002070B5194C0546266802F044FCE6
:104E880005F57875073523684FF47A72B5F57A7F9A
:104E980038BF4FF0FF35B063B5FBF2F5104A996B98
:104EA80010686D18DD63144618B91B605B601360E9
:104EB80070BD6D1A0246D66B761AAE4202D81268D9
:104EC8008242F8D156681A605E6056685360C26BB9
:104ED8003360511AA94288BF236070BD601B00204F
:104EE800701B0020F8B50546FFF74AFE044628B9AE
:104EF80035482146FFF72CFC2046F8BDFBF712FD8C
:104F0800324CBDB925682B6895F8501093F850209D
:104F180091420BD19D4209D002F0F6FBA8632068AC
:104F2800FFF73EFC2068FFF757FE42E0FBF718FD4D
:104F38000020F8BD266802F0E7FB05F57875B06338
:104F4800073520684FF47A73B5F57A7F38BF4FF08C
:104F5800FF35B5FBF3F5836BED18C563FFF720FC50
:104F68002368B3F84E20A3F84C2093F84E2042F063
:104F7800010283F84E20164A1168164619B91B60BB
:104F88005B60136015E0986BDD6B0A462D1AD76BD2
:104F98003F1AAF4202D812688A42F8D157681A609D
:104FA8005F6057685360CA6B3B60101AA84288BF9D
:104FB8003360FBF7D5FC02F0A7FB23689C6B041B4E
:104FC8004FF47A706043F8BD05000001601B0020B3
:104FD800701B00202DE9F04704460D461646FFF7E2
:104FE800CFFD002871D0002D6FD0002E71D024F491
:104FF800804A4FF0480808FB0AF8FBF793FC364B49
:1050080013F8082003EB080402F00A02022A994662
:1050180002D0FBF7A5FC58E0304FC8443868FFF7CA
:10502800BFFB3B680022616C1A605A6008F14402B9
:10503800A3F854505A62B1B10A46B2F85400A842D3
:1050480002D292688A42F8D1D0689A60D860D06853
:10505800D360B1F854208360AA4207D9482404FBDE
:105068000A94636402E063649B60DB603B68B6F1AA
:10507800FF3FB3F84E20A3F84C2093F84E2042F09F
:10508800100283F84E2007D0D2B242F0020283F811
:105098004E203046FFF7EEFEFBF762FCFBF742FCC2
:1050A8003B6893F84E2002F01004E4B244B16FF369
:1050B800041283F84E20FBF753FC0120BDE8F0876B
:1050C800FBF74EFC2046BDE8F0874FF0FF30BDE807
:1050D800F0870120BDE8F087741B0020601B0020CA
:1050E8002DE9F04F89B003929DF850209B469DF81A
:1050F8004C308DF81E20B0F5804FD2B205460C46D4
:10510800DDF848A0059306920FD34BF6FF7800EA26
:105118000808B8F1130F1FD9A0480021FFF718FBA2
:10512800002C00F0A0829D4B43E0132808D99C482E
:105138000021FFF70DFB002C00F09582984B38E01A
:10514800984B602202FB0033B3F8528028F4804861
:105158004FEA08484FEA1848FFF712FD039B01463B
:1051680043B138B99048FFF7F3FA002C00F07B827E
:105178008D4B1EE0482202FB08F28C4B9E189A5C6D
:10518800994602F00A02022A08D089480021FFF74E
:10519800DFFA002C00F06782854B0AE0069AF92AAC
:1051A80009D984480021FFF7D3FA002C00F05B826C
:1051B800804B236057E2059A131E18BF01238DF810
:1051C8001F30DBB20493FBF7ADFB766C002E40D0AA
:1051D80015F4804F0BD0482303FB08F319F803306C
:1051E80013F0010F03D1B6F85830AB422BD1B6F803
:1051F8005430012B23D1013B736296F84E30B6F838
:105208004E2003F00203DBB2A6F84C2013B130465F
:10521800FFF798FDB7680023BE42A6F84E3005D1C7
:10522800482202FB08921F46536403E0F3689F601C
:10523800B268D3603046FFF7CFFC3E4603E0013B3F
:10524800A6F85430B668482303FB08935B6C9E426B
:10525800BED1482303FB08F319F8033003F0040216
:10526800D2B23AB113F0010F40F0C98015F4804F63
:1052780000F0C580504F3E6836B1504A116871B988
:10528800BAF1000F09D10AE04D483146FFF760FA3C
:10529800002C00F0E3814A4BD9E04A48D1E013F0F2
:1052A80001010ED1482303FB0893188EDB8D984229
:1052B80007D94548FFF74CFA002C00F0CF81424B44
:1052C800C5E0482505FB08F5336800213B6009EB7C
:1052D8000503588D0130588531607160B160F16007
:1052E80031617161B1613162716201910092029321
:1052F80002F00AFA0199B06248F48040A6F84C100E
:10530800A6F84E10F16231637163B163F1633164E1
:10531800B164A6F85200A6F85410A6F85610F16524
:1053280019F8050040F0040009F80500029B009AEE
:10533800DE63BAF1000F4BD015680123A6F856308A
:105348002B68BAF1200F13602974A9601AD9049A3E
:10535800AAB15046FEF7D8FB0146686140B91B4820
:10536800FFF7F6F9002C00F06981184B236065E11E
:105378005946524603F054FB01232B7409E0C5F843
:1053880014B006E005F1180068615946524603F06A
:1053980047FBB36A4FF0010AEB601AE00C0000010A
:1053A8000A0000011421002005000001741B0020E0
:1053B8000D00000106000001541B0020501B0020B6
:1053C8000200000104000001080000010F000001B4
:1053D8005546069A0023F5617361B36112B19DF8D1
:1053E8001E3004E0482303FB089393F8283086F81E
:1053F80050303046FFF7F0FBB6F8587075E0482398
:1054080003FB0893DE6BB6F85870BAF1000F68D04A
:1054180015F4804F03D1974B602606FB0536059A95
:1054280012B9B369002B55D1934B1D683DB1482182
:1054380001FB0891B6F85620498E914209D88F4849
:105448000021FFF785F9002C00F008818B4B2360C1
:1054580004E10132A6F856202A681A600023AB60DE
:10546800B3691BB92D606D60B56105E05A682B60A2
:105478006A605A685D60156002F046F90021BAF169
:10548800200FE86029741DD9049BC3B15046FEF76C
:105498003BFB0146686140B97948FFF759F9002C90
:1054A80000F0D880764B2360D4E05246594603F08A
:1054B800B7FA9DF81F202A74DDF810A015E0C5F88A
:1054C80014B010E005F1180068615946524603F01F
:1054D800A7FA08E05D682B7C2BB16869FEF756FBDC
:1054E80001E0554601E04FF0010A039B002B00F054
:1054F800B780DFF89481BAF1000F52D0D8F80000D5
:10550800FFF74EF9D8F8003005F108025A62AA6888
:1055180032B1D1689A60D960D168D3608B6002E0FB
:10552800AB609B60DB60D8F80030B3F84E20A3F87E
:105538004C2093F84F2042F0200283F84F20039A22
:10554800B2F1FF3F08D093F84E2042F0020283F8F0
:105558004E200398FFF78EFCFBF702FAFBF7E2F9FF
:10556800D8F8003093F84F2002F02001C9B221B1D9
:105578006FF3451283F84F2051E093F84E0000F086
:105588000802D2B24AB1024661F3C30283F84E2040
:10559800002C65D03B4B236062E0002C60D0226079
:1055A8005EE0D8F80000FFF7FBF8D8F8003006F105
:1055B80020025A62326A32B1D1689A60D960D168E1
:1055C800D3608B6002E033629B60DB60D8F8003008
:1055D800B3F84E20A3F84C2093F84E2042F0040272
:1055E80083F84E20039AB2F1FF3F08D093F84E207B
:1055F80042F0020283F84E200398FFF73BFCFBF7CA
:10560800AFF9FBF78FF9D8F8002092F84E3003F085
:105618000400C0B230B16FF3820382F84E30FCB19F
:105628000123B8E703F00801C9B221B160F3C3034D
:1056380082F84E30ACE79CB1216011E03B6877609E
:105648003360482303FB0898B8F82A203E60013AE3
:10565800A8F82A20084B1A681D602A604FF6FF77C1
:10566800FBF77EF901E04FF6FF77384609B0BDE851
:10567800F08F00BF14210020501B002004000001FF
:105688000F0000010E000001601B00201FB50E4B2B
:10569800012001934FF4967302930C4B002203935D
:1056A800014613460090FFF7EDF84FF6FF73984256
:1056B80007D000210A460B46009101910291FFF79D
:1056C8000FFD05B000BD00BFE55A00081926000807
:1056D80070B5184D0646FBF71DFA2A68D469ECB96F
:1056E800536973B11968994201D1546105E05C6846
:1056F8004C605C682160196851612A685C69D361F3
:105708000DE094695CB12168A14204D063684B60E4
:1057180063681960236893612B68DC616469FBF72F
:1057280001FA24B11EB12B68DB69DB6833602046BF
:1057380070BD00BF601B0020024B1B68B3F852000D
:10574800704700BF601B002010B5FBF7FFF801F0A1
:10575800CBFFFFF749F8064B064A1B680121136087
:10576800054A11701869BDE8104002F025B800BF5D
:105778006C1B0020601B00205C1B002038B5044611
:1057880000B3C36800229A6000E02C46B4F84E309B
:10579800A4F84C3000236364636294F84E3003F03D
:1057A8000203DBB213B12046FFF7CCFA0023A4F8BA
:1057B8004E30A568082384F84E302046FFF70CFACF
:1057C800002DE2D138BD000070B50546002836D05E
:1057D800436800221A6000E01D46AC6804B3E36821
:1057E80000229A6000E03446B4F84E30A4F84C30F9
:1057F80000236364636294F84E3003F00203DBB263
:1058080013B12046FFF79EFA0023A4F84E30A6688D
:10581800082384F84E302046FFF7DEF9002EE2D147
:105828002B7C012B02D16869FEF7B0F90022AA602F
:10583800034A2B68116815602960002BCCD170BD14
:10584800501B00202DE9F047794DFBF77FF82B68B6
:10585800186AFFF793FF2B68DB6913B19868FFF7A5
:105868008DFF2B685869FFF7AFFF2B689869FFF722
:10587800ABFF2B68DA6D1AB1B3F85800FDF7B8FF23
:105888002868FEF78DFF6B4A2B6811685A6019600B
:105898001360694A69499A1A52114A43B3F8527017
:1058A800674EA3F8582027F48047482303FB076373
:1058B800598D1C6C01395985002C3AD0B4F85430F4
:1058C800012B06D05BBB483303FB07631B8E012B00
:1058D80028D10023636294F84E30B4F84E1003F0D8
:1058E8000203DBB2A4F84C1013B12046FFF72AFAE2
:1058F800D4F8088000234445A4F84E3005D1482246
:1059080002FB07629846536404E0E368C3F8088022
:10591800A268D3602046FFF75FF9444603E0013BE5
:10592800A4F85430A468482303FB07631B6C9C420B
:10593800C4D148237B43F15C414A11F0010E06EBC8
:10594800030007D00021A4F85610D15C6FF3820140
:10595800D1540EE0048EB0F82AC02830A44508D2ED
:105968008088A04205D2012C05D16EF38201D15462
:1059780002E0012400E0022448237B43F15CF21892
:1059880001F00C0008280ED12D4C6FF3410150682E
:10599800E1540023137203E08468FEF7F7F8204609
:1059A8000028F9D10324FEF71FFF022CDFF894909A
:1059B800DFF8948016D12B681869FEF7E7F84823BA
:1059C80003FB0766338E013B3386D9F800302B6022
:1059D80001F0A8FE2B68C8F800001869BDE8F04778
:1059E80001F0F6BE012C0FD1482202FB07662C6895
:1059F800726823699A607360D9F800302B6001F0EF
:105A080091FEC8F800000AE0D9F800302C682B6035
:105A180001F088FE482303FB0766C8F800002B68DE
:105A2800706B19692269BDE8F04701F0B3BE00BF89
:105A3800601B0020541B002014210020ABAAAAAA36
:105A4800741B00206C1B0020681B00202DE9F0410E
:105A5800204F8046FAF766FF3B68DD69002D34D099
:105A6800AC68F4B1E36800229A6000E03446B4F808
:105A78004E30C4F84480A4F84C300023636294F894
:105A88004E3003F00203DBB213B12046FFF75AF998
:105A98000023A668A4F84E302046FFF79DF8002E94
:105AA800E4D12B7C012B02D16869FEF76FF80A4B11
:105AB8001A681D603B682A600022AA60DA61B3F8A0
:105AC800562012B1013AA3F85620BDE8F041FAF782
