:100000000010001041010000C1000000C10000000C
:1000100000000000000000000000000000000000E0
:1000200000000000000000000000000001010000CE
:10003000000000000000000000000000C5000000FB
:10004000A5190000B1190000BD190000C919000070
:10005000D5190000E1190000ED190000F9190000A0
:10006000051A0000111A00001D1A0000291A0000CC
:10007000351A0000411A00004D1A0000591A0000FC
:10008000651A0000711A00007D1A0000891A00002C
:10009000951A0000A11A0000AD1A0000B91A00005C
:1000A000C51A0000D11A0000DD1A0000E91A00008C
:1000B000F51A0000011B00000D1B0000191B0000B9
:1000C000FEE7C04601B51D480068EFF309802038FF
:1000D00080F30988F0C041464A4653465C461EC03C
:1000E00009F0CEFF03BC8E46EFF30980F0C80CC8C0
:1000F000904699460CC892469B4680F30988704703
:1001000001B500F0C5F903BC8E460420014202D1BE
:10011000EFF3088001D0EFF3098081690239097893
:10012000002909D12030F0C80CC8904699460CC867
:1001300092469B4680F309887047000010E000E07B
:1001400080B582B000AF5F4B181C08F0FBFD5D4B23
:10015000181C08F003FE012008F012FE002008F031
:1001600027FE594B1B6802221A60574B1B68564AE0
:1001700012685168554A0A405A60554B1B68002264
:100180001A60534B1B68AA229A60514B1B68552278
:100190009A60504B1A68C0235B00D3584D4B1A68C5
:1001A000C0235B0001214942D150474B1A6880238C
:1001B0001F21D150444B1B6800221A62424B1A681F
:1001C000414B19688E239B00CB582021181C884373
:1001D000011C8E239B00D1503B4B1B6800221A62EE
:1001E00000237B6002E07B6801337B607A683A4BD6
:1001F0009A42F8D9344B1B6801221A64324B1B68AF
:1002000001225A64304B1B6800225A642E4B1B6833
:1002100001225A64C0462C4B1B685A6C01231340C0
:10022000002BF8D0284B1B6843229A60264B1A6893
:10023000254B19688E239B00CB588021181C8843BE
:10024000011C8E239B00D150C0461F4B1B68DA68EF
:1002500001231340002BF8D01B4B1B6803221A67A5
:10026000194B1B6801225A67174B1B6800225A67FB
:10027000154B1B6801225A67C046134B1B685A6F07
:1002800001231340002BF8D00F4B1B6801229A6703
:100290000D4B1A68E0230321D1500B4B1A68E82359
:1002A0000121D150084B1A68074B19688023CB589D
:1002B0008021490219438023D15000F0DDF8BD466A
:1002C00002B080BD00100010388E0000FF7FFFFFDD
:1002D000448E0000889F00008F01000080B586B02A
:1002E00000AF314B7B600023FB6053E02F4AFB687B
:1002F0001B01D31808331B687B612C4AFB681B0168
:10030000D3180C331B683B61284AFB6801331B017F
:10031000D31804331B68012B1CD17A693B699A42BC
:1003200035D00023BB600CE07B691A683B691A601A
:10033000BB680433BB607B6904337B613B69043376
:100340003B611A4BFA6801321201D258BB689A42DB
:10035000EAD81CE0154AFB6801331B01D3180433AB
:100360001B68002B13D10023BB6008E03B6900220F
:100370001A60BB680433BB603B6904333B610B4BC1
:10038000FA6801321201D258BB689A42EED8FB6873
:100390000133FB60054B5A68FB689A42A6D87B681C
:1003A0009847BD4606B080BD790400008CBA0000B5
:1003B00080B584B000AF00237B6053E02D4A7B689A
:1003C0001B01D31808331B68FB602A4A7B681B019A
:1003D000D3180C331B68BB60264A7B6801331B01B2
:1003E000D31804331B68012B1CD1FA68BB689A42EE
:1003F00035D000233B600CE0FB681A68BB681A60CC
:100400003B6804333B60FB680433FB60BB68043328
:10041000BB60184B7A6801321201D2583B689A428D
:10042000EAD81CE0134A7B6801331B01D31804335C
:100430001B68002B13D100233B6008E0BB6800223F
:100440001A603B6804333B60BB680433BB60094BF4
:100450007A6801321201D2583B689A42EED87B6822
:1004600001337B60034B5A687B689A42A6D8BD462D
:1004700004B080BDC4BA000080B500AFFFF798FF9C
:1004800000F016FB01F08EFB07F010FFBD4680BDAB
:1004900080B582B000AF00F053F8031C7B600C4BBA
:1004A0001B680C4A1268D1430A4AD2680A401A6093
:1004B000094B1B68084A1268126802210A431A6035
:1004C0007B68181C00F048F8BD4602B080BDC046ED
:1004D000889F000080000010809F000080B582B0DF
:1004E00000AF00F02DF8031C7B600C4B1A680C4B1E
:1004F0001B68D9430A4BDB6819408023D150094B54
:100500001B68084A1268126802218A431A607B68D5
:10051000181C00F021F8BD4602B080BD889F000085
:1005200080000010809F000080B500AF62B6BD461D
:1005300080BDC04680B500AF72B6BD4680BDC04626
:1005400090B583B000AFEFF3108072B67C607B682B
:10055000181CBD4603B090BD80B582B000AF786076
:100560007B6883F31088BD4602B080BD90B585B02E
:1005700000AF041CFFF7E4FF031CFB60134B1B6878
:100580001A683B1D1A60124B1B681A6802231A4036
:100590003B1D5A600D4B1A680E4B1B68D9438023D4
:1005A000D1500B4B1B680A4A1268126802218A4319
:1005B0001A60FB68181CFFF7CFFF3A1D231C03CA03
:1005C00003C3201CBD4605B090BDC046889F0000F7
:1005D000809F00008000001080B584B000AF3B1CFD
:1005E00018605960FFF7ACFF031CFB600D4B1B68E4
:1005F0000D4A1268D1433A1C12680A401A600B4B2C
:100600001B680A4A126811683A1C506802220240AC
:100610000A431A60FB68181CFFF79EFFBD4604B032
:1006200080BDC046889F000080000010809F0000B1
:1006300080B582B000AF021CFB1D1A70FB1D1B7839
:100640001F2B05D8FB1D1B78184AD35CFF2B01D14B
:10065000002326E0FB1D1B78144AD35C1A1C1449A6
:10066000131C5B009B18DB00CB180C331B68002BA2
:100670000DD1104B5B69002B12D10F4B1B68FA1D7B
:1006800012780121081C9040021C1A6008E00A4BF5
:100690001B68FA1D12780121081C9040021C1A6088
:1006A0000123181CBD4602B080BDC0469800001052
:1006B000B800001080000010889F000080B582B054
:1006C00000AF021CFB1D1A70FB1D1B781F2B05D8E9
:1006D000FB1D1B78094AD35CFF2B01D1002308E0E6
:1006E000074B1A68FB1D1B78012199408023D150CC
:1006F0000123181CBD4602B080BDC0469800001002
:10070000889F000080B582B000AF021CFB1D1A70EC
:10071000FB1D1B781F2B05D8FB1D1B780B4AD35CD8
:10072000FF2B01D100230CE0094B1A68FB1D1B783D
:100730000121081C9840031C191CC0235B00D150E8
:100740000123181CBD4602B080BDC04698000010B1
:10075000889F000080B582B000AF021CFB1D1A709C
:10076000FB1D1B781F2B05D8FB1D1B780B4AD35C88
:10077000FF2B01D100230CE0094B1A68FB1D1B78ED
:100780000121081C9840031C191C80235B00D150D8
:100790000123181CBD4602B080BDC0469800001061
:1007A000889F000080B500AF044B1A68C0235B002F
:1007B00001214942D150BD4680BDC046889F0000FE
:1007C00080B582B000AF021CFB1D1A70FB1D1B78A8
:1007D0001F2B05D8FB1D1B78134AD35CFF2B01D1BF
:1007E00000231CE0114B1A6880235B00D358FA1DCC
:1007F00012780121081C9040021C1340002B0DD0E0
:100800000A4B1A68FB1D1B780121081C9840031C29
:10081000191CC0235B00D150012300E00023181CE9
:10082000BD4602B080BDC04698000010889F000001
:1008300090B583B000AF021CFB1D1A70FB1D1B7826
:100840001F2B05D8FB1D1B781C4AD35CFF2B01D145
:1008500000232EE0FB1D1B78184AD35C1A1C184994
:10086000131C5B009B18DB00CB180C3300221A60B2
:10087000FB1D1B785B09DBB21A1C191C114B89008C
:10088000CB58F91D097802204042041C8C40211CE1
:1008900019400C4B9200D150FB1D1B78181C0321F2
:1008A00000F094F8FB1D1A78074B92000749D150CD
:1008B0000123181CBD4603B090BDC046980000102F
:1008C000B800001080000010000000106D1900003A
:1008D00090B583B000AF021CFB1D1A70FB1D1B7886
:1008E0001F2B05D8FB1D1B78294AD35CFF2B01D198
:1008F000002348E0FB1D1B78254AD35C1A1C2549C0
:10090000131C5B009B18DB00CB1804331B68002B07
:1009100001D0002337E0FB1D1B781D4AD35C1A1C55
:100920001C49131C5B009B18DB00CB180C33012205
:100930001A60FB1D1B785B09DBB21A1C191C164BD5
:100940008900C958FB1D1B780120041C9C40231CF6
:100950001943114B9200D150FB1D1B78181C00212C
:1009600000F034F8FB1D1878FB1D1B78084AD35C97
:100970001A1C0849131C5B009B18DB005958074BD5
:100980008200D1500123181CBD4603B090BDC04663
:1009900098000010B8000010800000100000001047
:1009A00080B582B000AF021CFB1D1A700023181C1A
:1009B000BD4602B080BDC04680B582B000AF021C0B
:1009C000FB1D1A70BD4602B080BDC046B0B584B0F4
:1009D00000AF021C3960FB1D1A70FB1D1B782B4AEF
:1009E000D35C1A1C2A49131C5B009B18DB00CB1834
:1009F00014333A681A60FB1D1A7803231340DAB2E5
:100A00003B1C0F3352001A703B1C0F331B783A68A3
:100A10009A403B1C0E331A701E4B1A68FB1D1B7844
:100A20009B08DBB2181C1B4B1B68F91D0978890851
:100A3000C9B2C0318900CB58391C0F310978032461
:100A4000251C8D40291CC9B2C9431940031CC03361
:100A50009B0099500F4B1A68FB1D1B789B08DBB25B
:100A6000181C0C4B1B68F91D09788908C9B2C031E4
:100A70008900C9583B1C0E331B781943031CC03333
:100A80009B009950BD4604B0B0BDC0469800001010
:100A9000B8000010889F000080B582B000AF021C33
:100AA0003960FB1D1A700023181CBD4602B080BDC2
:100AB00080B582B000AFFFF73DFDFFF773FEFB1D71
:100AC00000221A700FE0FB1D1B784E4AFF21D15403
:100AD000FB1D1A784C4B92004C49D150FB1DFA1D5E
:100AE000127801321A70FB1D1B781F2BEBD9FB1DEE
:100AF00000221A7043E0FB1D1B78454AD35C414A33
:100B0000F91D0978D154FB1D1A784249131C5B006A
:100B10009B18DB00CB18083301221A60FB1D1A78E2
:100B20003C49131C5B009B18DB00CB180C330022E4
:100B30001A60FB1D1A7838483649131C5B009B1855
:100B4000DB005850FB1D1A783249131C5B009B18C0
:100B5000DB00CB18043300221A60FB1D1A782D48E5
:100B60001021131C5B009B18DB00C3185B180122CB
:100B700052425A80FB1DFA1D127801321A70274B1F
:100B80001B78FA1D12789A42B5D3FB1D00221A7009
:100B90000DE0234B1B68FA1D1278C0329200012130
:100BA0004942D150FB1DFA1D127801321A70FB1D0B
:100BB0001B78072BEDD91A4B1A6880230121494273
:100BC000D150174B1A68C0235B0001214942D15014
:100BD000144B00221A60134B0022DA60114B0022E2
:100BE0005A60104B00229A600E4B01225A61FFF7A7
:100BF00075FC0C4B00221A61FFF796FCBD4602B053
:100C000080BDC04698000010000000106D19000063
:100C1000AC1B0000B8000010957F0000B31B000063
:100C2000889F00008000001080B582B000AF021CD9
:100C3000FB1D1A70FB1D1B78074AD35C1A1C074961
:100C4000131C5B009B18DB005B58FA1D1278101C0C
:100C50009847BD4602B080BD98000010B800001053
:100C600080B588B004AF021CFB1D1A704C4B0022EB
:100C70001A704C4B5B685A1C4A4B5A60FB1D1B7820
:100C8000181CFFF73FFDFB1D1B78474AD35C1A1C5D
:100C90004649131C5B009B18DB005B58002B10D0EF
:100CA000FB1D1B78404AD35C1A1C4049131C5B0097
:100CB0009B18DB005B58FA1D1278101C9847031C28
:100CC000FB60FB1D1B78384AD35C1A1C3749131C88
:100CD0005B009B18DB00CB1804331B68BB60BB6850
:100CE000002B1ED0BB68DA8FBB689A87BA683F2397
:100CF000D15C02208143D154BB68FA685A63BB6857
:100D0000181C05F06BFAFB1D1B78274AD35C1A1CD4
:100D10002649131C5B009B18DB00CB180433002210
:100D20001A60FB1D1B78204AD35C1A1C1F48102137
:100D3000131C5B009B18DB00C3185B185A881C4B04
:100D40009A4219D0FB1D1B78174AD35C1A1C17480E
:100D50001021131C5B009B18DB00C3185B185A881A
:100D6000FB1D012100910021019100210291101C25
:100D70000021002205F0E4FE0A4B5B685A1E094B75
:100D80005A600C4B1A680C4B1B689A4201D004F055
:100D9000BBFD034B01221A70BD4604B080BDC046A6
:100DA000E80700108000001098000010B800001044
:100DB000FFFF0000F8070010EC07001080B582B0BC
:100DC00000AF021CFB1D1A70FB1D1B780D4AD35C83
:100DD0001A1C0D49131C5B009B18DB00CB180C334D
:100DE0001B68012B05D1FB1D1B78181CFFF71CFF8E
:100DF00004E0FB1D1B78181CFFF732FFBD4602B054
:100E000080BDC04698000010B800001080B500AF4B
:100E10000B4B9B68002B0FD1FFF78CFB084B1B691A
:100E2000013304D0064B1B695A1C054B1A61054B54
:100E300000221A70C04600E0C046BD4680BDC046D4
:100E400080000010E807001080B500AF174B9B68CA
:100E5000002B23D1154B1B69002B04D0134B1B69AE
:100E60005A1E124B1A61114B1B69002B13D1FFF74D
:100E70005BFB0E4B5B69002B12D10D4B01221A70EC
:100E80000C4B1A680C4B1B689A420BD0FFF726FBE1
:100E900004F00CFD07E0FFF74DFB04E0C04602E064
:100EA000C04600E0C046BD4680BDC0468000001080
:100EB000E8070010EC070010F807001080B500AF3D
:100EC000044B1B69002B01D1012300E00023181CF7
:100ED000BD4680BD8000001080B500AF0B4B5B6845
:100EE000002B0FD1FFF7FAFA084B5B69013304D0EE
:100EF000064B5B695A1C054B5A61054B00221A7060
:100F0000C04600E0C046BD4680BDC046800000101F
:100F1000E807001080B500AFFFF7E0FA024B0122AE
:100F20005A61BD4680BDC0468000001080B500AF4C
:100F3000164B5B68002B25D1144B5B69002B04D04A
:100F4000124B5B695A1E114B5A61104B5B69002BA7
:100F500015D10E4B1B69002B0ED10D4B01221A70BF
:100F60000C4B1A680C4B1B689A4202D004F09EFC92
:100F700009E0FFF78DFA06E0FFF78AFA03E0FFF7D2
:100F8000ADFA00E0C046BD4680BDC04680000010FE
:100F9000E8070010EC070010F807001080B500AF5C
:100FA000024B00225A61BD4680BDC0468000001041
:100FB00080B500AF044B5B69002B01D1012300E039
:100FC0000023181CBD4680BD8000001090B583B082
:100FD00000AF021CFB1D1A70FB1D1B781F2B09D8CC
:100FE000FB1D1B78324AD35CFF2B03D0314B9B682F
:100FF000002B01D0002356E0FB1D1B782C4AD35C4C
:101000001A1C2D49131C5B009B18DB00CB180C33FA
:101010001B68012B01D1002345E0FB1D1B78181C28
:10102000FFF74CFBFB1D1B78214AD35C1A1C22499D
:10103000131C5B009B18DB00CB1808331B680133C3
:1010400015D0FB1D1B781A4AD35C1A1C1A49131CB5
:101050005B009B18DB00CB1808331B68591C164833
:10106000131C5B009B18DB00C31808331960FB1DC1
:101070001B785B09DBB2181C0E4A02339B00D318A5
:1010800004331B68FA1D11781F220A4001210C1C31
:101090009440221CD2431A400649831C9B00CB1863
:1010A00004331A600123181CBD4603B090BDC0462E
:1010B0009800001080000010B800001090B583B0B8
:1010C00000AF021CFB1D1A70FB1D1B781F2B05D8DF
:1010D000FB1D1B78304AD35CFF2B01D1002356E067
:1010E000FB1D1B782C4AD35C1A1C2C49131C5B007B
:1010F0009B18DB00CB180C331B68002B01D100239D
:1011000045E0FB1D1B78181CFFF7D8FAFB1D1B7868
:10111000214AD35C1A1C2149131C5B009B18DB007D
:10112000CB1808331B68013315D0FB1D1B781A4AF6
:10113000D35C1A1C1949131C5B009B18DB00CB18ED
:1011400008331B68591C1548131C5B009B18DB00F7
:10115000C31808331960FB1D1B785B09DBB2181C30
:101160000F4A02339B00D31804331B68FA1D117811
:101170001F220A4001210C1C9440221CD2431A4019
:101180000749831C9B00CB1804331A600123181CE9
:10119000BD4603B090BDC04698000010B8000010D6
:1011A0008000001090B583B000AF021CFB1D1A70C8
:1011B000FB1D1B781F2B09D8FB1D1B78394AD35CFC
:1011C000FF2B03D0384B9B68002B01D0002364E039
:1011D000FB1D1B78334AD35C1A1C3449131C5B007B
:1011E0009B18DB00CB180C331B68012B01D10023AB
:1011F00053E0FB1D1B782B4AD35C1A1C2B49131C94
:101200005B009B18DB00CB1808331B68002B15D044
:10121000FB1D1B78234AD35C1A1C2449131C5B005A
:101220009B18DB00CB1808331B68591E1F48131C82
:101230005B009B18DB00C31808331960FB1D1B788B
:10124000184AD35C1A1C1949131C5B009B18DB005D
:10125000CB1808331B68002B1ED1FB1D1B785B09C4
:10126000DBB2181C104A02339B00D31804331A68EF
:10127000FB1D19781F230B4001210C1C9C40231CD3
:101280001A430949831C9B00CB1804331A60FB1DC9
:101290001B78181CFFF7CCF90123181CBD4603B0BE
:1012A00090BDC0469800001080000010B8000010EB
:1012B00090B583B000AF021CFB1D1A70FB1D1B789C
:1012C0001F2B05D8FB1D1B78374AD35CFF2B01D1A0
:1012D000002364E0FB1D1B78334AD35C1A1C33499E
:1012E000131C5B009B18DB00CB180C331B68002B16
:1012F00001D1002353E0FB1D1B782B4AD35C1A1C41
:101300002A49131C5B009B18DB00CB1808331B68B1
:10131000002B15D0FB1D1B78234AD35C1A1C2349D4
:10132000131C5B009B18DB00CB1808331B68591E8D
:101330001E48131C5B009B18DB00C31808331960A0
:10134000FB1D1B78184AD35C1A1C1849131C5B0040
:101350009B18DB00CB1808331B68002B1ED1FB1D2C
:101360001B785B09DBB2181C114A02339B00D318AF
:1013700004331A68FB1D19781F230B4001210C1C34
:101380009C40231C1A430A49831C9B00CB1804333E
:101390001A60FB1D1B78181CFFF74AF90123181C63
:1013A000BD4603B090BDC04698000010B8000010C4
:1013B0008000001090B583B000AF021CFB1D1A70B6
:1013C000FB1D1B781F2B09D8FB1D1B78264AD35CFD
:1013D000FF2B03D0254B9B68002B01D000233FE05F
:1013E000FB1D1B78204AD35C1A1C2149131C5B008F
:1013F0009B18DB00CB180C331B68012B01D1002399
:101400002EE0FB1D1B78181CFFF758F9FB1D1B78FD
:10141000154AD35C1A1C1649131C5B009B18DB0091
:10142000CB18083301221A60FB1D1B785B09DBB265
:10143000181C0E4A02339B00D31804331B68FA1D94
:1014400011781F220A4001210C1C9440221CD24317
:101450001A400649831C9B00CB1804331A600123F1
:10146000181CBD4603B090BD98000010800000100D
:10147000B800001090B583B000AF021CFB1D1A70BD
:10148000FB1D1B781F2B05D8FB1D1B78244AD35C42
:10149000FF2B01D100233FE0FB1D1B78204AD35CCA
:1014A0001A1C2049131C5B009B18DB00CB180C3363
:1014B0001B68002B01D100232EE0FB1D1B78181C9C
:1014C000FFF7FCF8FB1D1B78154AD35C1A1C154965
:1014D000131C5B009B18DB00CB18083301221A6039
:1014E000FB1D1B785B09DBB2181C0F4A02339B0003
:1014F000D31804331B68FA1D11781F220A400121FA
:101500000C1C9440221CD2431A400749831C9B00A8
:10151000CB1804331A600123181CBD4603B090BDDC
:1015200098000010B80000108000001090B583B043
:1015300000AF021CFB1D1A70FB1D1B781F2B09D866
:10154000FB1D1B78264AD35CFF2B03D0254B9B68E1
:10155000002B01D000233EE0FB1D1B78204AD35C0A
:101560001A1C2149131C5B009B18DB00CB180C33A1
:101570001B68012B01D100232DE0FB1D1B78184AAD
:10158000D35C1A1C1849131C5B009B18DB00CB189A
:10159000083300221A60FB1D1B785B09DBB2181CA4
:1015A000104A02339B00D31804331A68FB1D1978C4
:1015B0001F230B4001210C1C9C40231C1A4309498A
:1015C000831C9B00CB1804331A60FB1D1B78181C6E
:1015D000FFF72EF80123181CBD4603B090BDC0468E
:1015E0009800001080000010B800001090B583B083
:1015F00000AF021CFB1D1A70FB1D1B781F2B05D8AA
:10160000FB1D1B78244AD35CFF2B01D100233EE055
:10161000FB1D1B78204AD35C1A1C2049131C5B005D
:101620009B18DB00CB180C331B68002B01D1002367
:101630002DE0FB1D1B78184AD35C1A1C1749131C9C
:101640005B009B18DB00CB18083300221A60FB1DDF
:101650001B785B09DBB2181C114A02339B00D318BC
:1016600004331A68FB1D19781F230B4001210C1C41
:101670009C40231C1A430A49831C9B00CB1804334B
:101680001A60FB1D1B78181CFEF7D2FF0123181CE3
:10169000BD4603B090BDC04698000010B8000010D1
:1016A0008000001080B582B000AF021CFB1D1A70D4
:1016B000FB1D1B78094AD35C1A1C0949131C5B00EB
:1016C0009B18DB00CB1808331B68002B01D10123CA
:1016D00000E00023181CBD4602B080BD9800001039
:1016E000B800001080B582B000AF021C3960FB1D4D
:1016F0001A70FB1D1B781F2B13D8FB1D1B780C4A7F
:10170000D35CFF2B0FD0FB1D1B78094AD35C1A1C3E
:101710000849131C5B009B18DB003A685A50C0460E
:1017200002E0C04600E0C046BD4602B080BDC046F3
:1017300098000010B800001080B582B000AF0A1CFD
:10174000FB1D011C19703B1D1A80FB1D1B781F2BF4
:1017500017D8FB1D1B780E4AD35CFF2B13D0FB1D43
:101760001B780B4AD35C1A1C0A481021131C5B001F
:101770009B18DB00C3185B183A1D12885A80C046BC
:1017800002E0C04600E0C046BD4602B080BDC04693
:1017900098000010B800001080B582B000AF021CA5
:1017A000FB1D1A70FB1D1B781F2B13D8FB1D1B780C
:1017B0000B4AD35CFF2B0FD0FB1D1B78084AD35C70
:1017C0001A1C0849131C5B009B18DB0000225A50AE
:1017D000C04602E0C04600E0C046BD4602B080BD43
:1017E00098000010B800001080B582B000AF021C55
:1017F000FB1D1A70FB1D1B781F2B17D8FB1D1B78B8
:101800000D4AD35CFF2B13D0FB1D1B780A4AD35C17
:101810001A1C0A481021131C5B009B18DB00C3181C
:101820005B18012252425A80C04602E0C04600E0E6
:10183000C046BD4602B080BD98000010B800001040
:1018400080B582B000AF021CFB1D1A70FB1D1B7817
:101850001F2B05D8FB1D1B78404AD35CFF2B01D101
:10186000002376E004F0B0FC031C002B06D13C4BB7
:10187000181C002103F0F8FE00236AE0FFF72CFBA0
:10188000FB1D1B78354AD35C1A1C3649131C5B00C0
:101890009B18DB00CB180C331B68012B0ED0FB1DF3
:1018A0001B782E4AD35C1A1C2E49131C5B009B1814
:1018B000DB00CB1804331B68002B03D0FFF736FB8B
:1018C000002346E0FB1D1B78181CFEF779FF031C64
:1018D000012B08D1FB1D1B78181CFEF713FFFFF727
:1018E00025FB012335E0204B1B68181C03F0E0FEAC
:1018F0001D4B1B6800221A601B4B1B6800225A609C
:10190000194B1A68184B1B68DB8F9387164B1A68A4
:101910003F23D15C02200143D154FB1D1B780F4AA9
:10192000D35C1A1C104B19680E48131C5B009B18E3
:10193000DB00C31804331960FB1D1B78181CFFF76C
:10194000F5FDFFF7F3FAFB1D1B78181CFFF732FDBE
:101950000123181CBD4602B080BDC046980000108F
:1019600005000001B8000010EC07001001B5EFF30E
:101970000981203981F30988F0C142464B4654461B
:101980005D463CC1FFF76CF903BC8E46EFF309805E
:10199000F0C80CC8904699460CC892469B4680F306
:1019A0000988704701B500205E490968884701BD74
:1019B00001B501205C490968884701BD01B50220D5
:1019C0005A490968884701BD01B50320584909688B
:1019D000884701BD01B5042056490968884701BD03
:1019E00001B5052054490968884701BD01B50620A5
:1019F00052490968884701BD01B507205049096867
:101A0000884701BD01B508204E490968884701BDD6
:101A100001B509204C490968884701BD01B50A2074
:101A20004A490968884701BD01B50B204849096842
:101A3000884701BD01B50C2046490968884701BDAA
:101A400001B50D2044490968884701BD01B50E2044
:101A500042490968884701BD01B50F20404909681E
:101A6000884701BD01B510203E490968884701BD7E
:101A700001B511203C490968884701BD01B5122014
:101A80003A490968884701BD01B5132038490968FA
:101A9000884701BD01B5142036490968884701BD52
:101AA00001B5152034490968884701BD01B51620E4
:101AB00032490968884701BD01B5172030490968D6
:101AC000884701BD01B518202E490968884701BD26
:101AD00001B519202C490968884701BD01B51A20B4
:101AE0002A490968884701BD01B51B2028490968B2
:101AF000884701BD01B51C2026490968884701BDFA
:101B000001B51D2024490968884701BD01B51E2083
:101B100022490968884701BD01B51F20204909688D
:101B2000884701BD000000100400001008000010EC
:101B30000C0000101000001014000010180000101D
:101B40001C000010200000102400001028000010CD
:101B50002C0000103000001034000010380000107D
:101B60003C0000104000001044000010480000102D
:101B70004C000010500000105400001058000010DD
:101B80005C0000106000001064000010680000108D
:101B90006C0000107000001074000010780000103D
:101BA0007C00001080B500AFBD4680BD1512131635
:101BB0001E0F000780B584B000AFF860B9607A608E
:101BC000FB68032B1AD8BB68202B19D80E4B1A6858
:101BD000FB685901BB68CB180C49CB5C9B00D31840
:101BE0007A68D2B2111C07220A40D1B207220A40F9
:101BF0001978072081430A431A7002E0C04600E0CA
:101C0000C046BD4604B080BD581E0000F81D00004F
:101C100080B586B000AFF860B9607A60FB68032BCE
:101C200029D8BB68202B28D8FB685A01BB68D31879
:101C30007B617B683B61134B1A6813497B69CB1846
:101C40001B789B00D3181B685B075B0FD9B23B1C4A
:101C5000103307220A401978072081430A431A707B
:101C6000084B1A6808497B69CB181B789B00D3186E
:101C70003A691A6002E0C04600E0C046BD4606B0C0
:101C800080BDC046581E0000F81D000080B582B01F
:101C900000AF786039607B68032B0DD8084B7A68F9
:101CA0009200D358064A796889008A58126A3968BE
:101CB000C9430A401A6200E0C046BD4602B080BD7A
:101CC000288E000080B582B000AF786039607B68F4
:101CD000032B0CD8084B7A689200D358064A7968CF
:101CE00089008A58116A3A680A431A6200E0C046BD
:101CF000BD4602B080BDC046288E000080B582B0CF
:101D000000AF78607B68032B01D9002304E0044B0B
:101D10007A689200D3585B68181CBD4602B080BD3B
:101D2000288E000080B582B000AF786039607B6893
:101D3000032B06D8054B7A689200D3583A685A604C
:101D400000E0C046BD4602B080BDC046288E0000FF
:101D500080B582B000AF786039607B68032B06D80D
:101D6000054B7A689200D3583A68DA6000E0C046C2
:101D7000BD4602B080BDC046288E000080B582B04E
:101D800000AF786039607B68032B06D8054B7A6812
:101D90009200D3583A681A6100E0C046BD4602B0CE
:101DA00080BDC046288E000080B582B000AF78604C
:101DB0007B68012B09D004D3022B0AD0032B0CD053
:101DC0000FE01F2007F06CF80BE01E2007F068F80A
:101DD00007E01D2007F064F803E01C2007F060F81E
:101DE000C046BD4602B080BD80B582B000AF78600D
:101DF000BD4602B080BDC046111213151617181942
:101E00001A1B2425262728292A2B2C020304050621
:101E10000708090A0F102D2E2F303132333435FFC9
:101E2000FFFFFFFFFFFFFFFFFFFFFFFFFFFFFFFFC2
:101E3000FFFFFFFFFFFFFFFF1C1D1E1F20212223AE
:101E400038393A3B0B0C0D0EFFFFFFFFFFFFFFFF82
:0C1E5000FFFFFFFF0001FFFF0040044007
:101E600080B500AF00F038F8BD4680BD80B500AF4A
:101E7000FFF7F6FFBD4680BD90B587B004AF0020E8
:101E800007F01AF9002007F047FBBC1D022300935E
:101E90000F4B019380235B0002930E4B03930120B1
:101EA000C8210022002303F051FD031C2380BB1D29
:101EB0001B88002200920022019200220292181C2C
:101EC00000210022002304F03BFEBD4603B090BD7C
:101ED0006D1E0000E01E000080B500AFBD4680BD55
:101EE0006D61696E2066756E6374696F6E000000C7
:101EF00090B58DB000AFF860B9607A60BB68BB6226
:101F00003B1C273300221A707B68002B1ADA7B688F
:101F10005B427B60FB68002B11DAFB685B42FB6273
:101F20003B1C27331B783A1C14322D21D1543B1C07
:101F300027333A1C2732127801321A7004E0FB680A
:101F4000FB6201E0FB68FB627B68102B00D09BE02A
:101F50003B1C27331B78FA6AD1B20F220A40D1B258
:101F60003A1C1432D154FB6A1B09FB623B1C273319
:101F70001B783A1C1432D35C092B0ED83B1C273338
:101F80001B783A1C27321278391C14318A5C3032A3
:101F9000D1B23A1C1432D1541DE03B1C27331B78BC
:101FA0003A1C1432D35C092B15D93B1C27331B7800
:101FB0003A1C1432D35C0F2B0DD83B1C27331B78F3
:101FC0003A1C27321278391C14318A5C5732D1B24C
:101FD0003A1C1432D1543B1C27333A1C2732127856
:101FE00001321A70FB6A002BB2D13B1C27333A1C1A
:101FF00027321278013A1A703B1C14331B782D2BB0
:102000000AD1BB6A2D221A70BB6A0133BB623B1C2A
:10201000263301221A7003E03B1C263300221A707B
:102020003B1C2533391C27313A1C2632097812789B
:102030008A1A1A703B1C25333A1C25321278013259
:102040001A7018E03B1C27331B783A1C1432D25C00
:10205000BB6A1A70BB6A0133BB623B1C27333A1C54
:1020600027321278013A1A703B1C25333A1C25326C
:102070001278013A1A703B1C25331B78002BE1D1F2
:10208000BB6A00221A7070E07B680A2B6DD13B1C82
:1020900027331C78FB6A181C0A2108F069F80B1C0E
:1020A000DBB23033DAB23B1C14331A553B1C2733F6
:1020B0003A1C2732127801321A70FB6A181C0A2166
:1020C00008F012F8031CFB62FB6A002BDFD13B1CFB
:1020D00027333A1C27321278013A1A703B1C14330A
:1020E0001B782D2B0AD1BB6A2D221A70BB6A0133D3
:1020F000BB623B1C263301221A7003E03B1C2633D3
:1021000000221A703B1C2533391C27313A1C263219
:10211000097812788A1A1A703B1C25333A1C25322A
:10212000127801321A7018E03B1C27331B783A1CD6
:102130001432D25CBB6A1A70BB6A0133BB623B1CAF
:1021400027333A1C27321278013A1A703B1C253388
:102150003A1C25321278013A1A703B1C25331B7841
:10216000002BE1D1BB6A00221A70BB68181CBD4667
:102170000DB090BD80B584B000AF78600023BB6027
:102180007B681B78302B00D085E07B6801331B789F
:10219000782B05D07B6801331B78582B00D07AE070
:1021A0003B1C0F3302221A7006E03B1C0F333A1C13
:1021B0000F32127801321A703B1C0F331B787A6889
:1021C000D3181B78302BF0D05CE03B1C0F331B780E
:1021D0007A68D3181B782F2B13D93B1C0F331B782D
:1021E0007A68D3181B78392B0BD8BB681A013B1CB3
:1021F0000F331B787968CB181B78D318303BBB6042
:1022000039E03B1C0F331B787A68D3181B78402BBE
:1022100013D93B1C0F331B787A68D3181B78462BD5
:102220000BD8BB681A013B1C0F331B787968CB189D
:102230001B78D318373BBB601DE03B1C0F331B786A
:102240007A68D3181B78602B13D93B1C0F331B788B
:102250007A68D3181B78662B0BD8BB681A013B1C15
:102260000F331B787968CB181B78D318573BBB60AA
:1022700001E0BB6856E03B1C0F333A1C0F3212786A
:1022800001321A703B1C0F331B787A68D3181B7805
:10229000002B9AD145E03B1C0F3300221A7006E058
:1022A0003B1C0F333A1C0F32127801321A703B1C60
:1022B0000F331B787A68D3181B78302BF0D028E0C6
:1022C0003B1C0F331B787A68D3181B782F2B1ED931
:1022D0003B1C0F331B787A68D3181B78392B16D820
:1022E000BA68131C9B009B185B001A1C3B1C0F3325
:1022F0001B787968CB181B78D318303BBB603B1C2C
:102300000F333A1C0F32127801321A7001E0BB68A9
:1023100008E03B1C0F331B787A68D3181B78002B1E
:10232000CED1BB68181CBD4604B080BD80B588B056
:1023300000AF786039607B681B68FB61FB69002B2C
:1023400001D100232AE0FB697B61FB691B783B61BB
:10235000FB690133FB613B68BB61BB691B78FB60B8
:10236000FA683B69D31A5A425341DBB2BA69013267
:10237000BA61002B0ED03B69002B02D10023FB6118
:1023800003E0FB69013B00221A707B68FA691A605E
:102390007B6903E0FB68002BDFD1D6E7181CBD4644
:1023A00008B080BD80B500AF0023181CBD4680BDBD
:1023B00080B582B000AF78600023181CBD4602B023
:1023C00080BDC04680B582B000AF78603960002320
:1023D000181CBD4602B080BD80B582B000AF021CA3
:1023E000FB1D1A70BD4602B080BDC0460FB480B55B
:1023F00000AF0023181CBD4680BC08BC04B01847C1
:1024000080B582B000AF78600C4B0D4A5A610B4B1F
:102410000022DA60094B094A1A60084B074A5A60E1
:10242000064B00229A60054B18221A61054B034A9D
:102430001A600123181CBD4602B080BD6C0100105B
:10244000C03300008401001080B582B000AF786016
:10245000054A064B101C0121012201F023FB012338
:10246000181CBD4602B080BD88010010D0330000AA
:1024700080B586B000AFF860B9607A60FB68002B69
:1024800001D100232FE01A4B1A68FB689A60FB68A1
:102490000022DA60FB68BA681A61FB687A685A61E0
:1024A000134B1B68DB68002B0AD1114B1B68FA68C1
:1024B000DA60FB68FA681A60FB68FA685A6011E033
:1024C0000B4B1B68DB687B61FB687A691A607B6970
:1024D0005A68FB685A607B695B68FA681A607B69B6
:1024E000FA685A60FB68181CBD4606B080BDC0463D
:1024F0008401001080B582B000AF78607B68002254
:10250000DA607B6800229A607B6800221A607B6830
:1025100000225A60BD4602B080BDC04680B586B07C
:1025200000AFF860B9607A60FB68002B01D100232E
:102530002FE01A4B1A68FB689A60FB680022DA6089
:10254000FB68BA681A61FB687A685A61144A012309
:102550005B42101C191C01F02DFB031C002B01D148
:10256000002316E00D4B1B68DB687B61FB687A6912
:102570001A607B695A68FB685A607B695B68FA6815
:102580001A607B69FA685A60054B181C01F0AAFAB8
:10259000FB68181CBD4606B080BDC0468401001013
:1025A0008801001080B584B000AFF860B9607A602F
:1025B0003B60FB68002B02D0BB68002B01D10023DD
:1025C0002BE0184A01235B42101C191C01F0F2FA9F
:1025D000031C002B01D100231FE0BB68FA681A60BE
:1025E000FB685A68BB685A60FB689A68BB689A6067
:1025F000BB680022DA60BB687A681A61BB683A6817
:102600005A61FB685B68BA681A60FB68BA685A600E
:10261000044B181C01F066FABB68181CBD4604B0D8
:1026200080BDC0468801001080B584B000AFF8605E
:10263000B9607A603B60FB68002B02D0BB68002B5E
:1026400001D100232BE0184A01235B42101C191C06
:1026500001F0B0FA031C002B01D100231FE0BB687E
:10266000FA685A60FB681A68BB681A60FB689A6867
:10267000BB689A60BB680022DA60BB687A681A613E
:10268000BB683A685A61FB681B68BA685A60FB68A5
:10269000BA681A60044B181C01F024FABB68181CB5
:1026A000BD4604B080BDC0468801001080B586B02C
:1026B00000AFF860B9607A603B60FB68002B02D025
:1026C000BB68002B01D100233EE0214A01235B427D
:1026D000101C191C01F06EFA031C002B01D1002301
:1026E00032E0BB687A681A61BB683A685A61BB68B5
:1026F0000022DA60FB68DB68002B0CD1FB68BA684B
:10270000DA60BB68FA689A60BB68BA681A60BB682E
:10271000BA685A6013E0FB68DB687B61BB687A6962
:102720001A607B695A68BB685A60BB68FA689A602D
:102730007B695B68BA681A607B69BA685A60044B47
:10274000181C01F0CFF9BB68181CBD4606B080BD4F
:102750008801001080B586B000AFF860B9607A607B
:102760003B60FB68002B02D0BB68002B01D100232B
:1027700043E0244A01235B42101C191C01F01AFAA1
:10278000031C002B01D1002337E0BB687A681A6173
:10279000BB683A685A61BB680022DA60FB68DB6894
:1027A000002B0CD1FB68BA68DA60BB68FA689A60E3
:1027B000BB68BA681A60BB68BA685A6018E0FB6800
:1027C000DB687B61BB687A691A607B695A68BB68A1
:1027D0005A60BB68FA689A607B695B68BA681A607D
:1027E0007B69BA685A60FB68DB685A68FB68DA6024
:1027F000044B181C01F076F9BB68181CBD4606B0E6
:1028000080BDC0468801001080B584B000AF7860FC
:102810003960244A01235B42101C191C01F0CAF9DB
:10282000031C002B01D1002337E07B68DB68BB6011
:10283000BB68002B0BD0BB68FB60FB683A689A60F2
:10284000FB681B68FB60FA68BB689A42F5D13B687D
:10285000BA68DA607B681A683B681A607B685A68F5
:102860003B685A607B689A683B689A607B681B6823
:102870003A685A607B685B683A681A607B689B6854
:10288000DA687B689A4203D17B689B683A68DA60B1
:10289000044B181C01F026F90123181CBD4604B096
:1028A00080BDC0468801001080B584B000AF78605C
:1028B0007B68002B01D1002331E01B4A01235B42DE
:1028C000101C191C01F076F9031C002B01D1002308
:1028D00025E07B681A687B689A4204D17B689B6814
:1028E0000022DA6014E07B689B68DA687B689A42B1
:1028F00004D17B689B687A681268DA607B685B68E1
:102900007A6812681A607B681B687A6852685A6035
:102910007B68FB60044B181C01F0E4F8FB68181C92
:10292000BD4604B080BDC0468801001080B584B0AB
:1029300000AF78607B68002B01D1002338E01E4A8D
:1029400001235B42101C191C01F034F9031C002BFD
:1029500001D100232CE07B68DB68002B02D0002330
:10296000FB6020E07B681A687B689A4204D17B6830
:102970009B680022DA6014E07B689B68DA687B68F9
:102980009A4204D17B689B687A681268DA607B6837
:102990005B687A6812681A607B681B687A6852689C
:1029A0005A607B68FB60044B181C01F09BF8FB68C5
:1029B000181CBD4604B080BD8801001080B582B0EF
:1029C00000AF786039600123181CBD4602B080BD9D
:1029D00080B584B000AF78607B68002B01D1002304
:1029E00039E01F4A01235B42101C191C01F0E2F878
:1029F000031C002B01D100232DE07B689B68002B7A
:102A000024D07B689B68DB68FB60FA687B689A422D
:102A100004D17B689B687A681268DA607B681B68FF
:102A20007A6852685A607B685B687A6812681A60D4
:102A30007B68FA681A60FB685A687B685A60FB68B2
:102A40005B687A681A60FB687A685A60044B181CE5
:102A500001F048F80123181CBD4604B080BDC046F3
:102A60008801001080B582B000AF78607B68002BD1
:102A700001D100231CE0104A01235B42101C191CE9
:102A800001F098F8031C002B01D1002310E07B68B3
:102A90009B68002B07D07B68181CFFF799FF7B68A9
:102AA0009B687A68DA60044B181C01F01BF800235D
:102AB000181CBD4602B080BD8801001080B582B0F0
:102AC00000AF786039607B68002B02D03B68002B38
:102AD00001D1002328E0164A01235B42101C191C77
:102AE00001F068F8031C002B01D100231CE03B68B7
:102AF0001B683A6852685A603B685B683A681268BB
:102B00001A603B687A685A607B681A683B681A608A
:102B10007B681B683A685A607B683A681A60044BA5
:102B2000181C00F0DFFF0023181CBD4602B080BD5A
:102B30008801001080B582B000AF786039607B6892
:102B4000002B02D03B68002B01D1002328E0164A5D
:102B500001235B42101C191C01F02CF8031C002BF4
:102B600001D100231CE03B681B683A6852685A6038
:102B70003B685B683A6812681A603B687A681A605A
:102B80007B685A683B685A607B685B683A681A6081
:102B90007B683A685A60044B181C00F0A3FF0023BE
:102BA000181CBD4602B080BD8801001080B582B0FF
:102BB00000AF78607B68002B01D1002319E00F4A39
:102BC00001235B42101C191C00F0F4FF031C002BB6
:102BD00001D100230DE07B68DB68002B04D07B680B
:102BE000DB685A687B68DA60044B181C00F07AFFD7
:102BF0000023181CBD4602B080BDC04688010010ED
:102C000080B582B000AF78607B68002B01D10023D3
:102C100019E00F4A01235B42101C191C00F0CAFF87
:102C2000031C002B01D100230DE07B68DB68002B27
:102C300004D07B68DB681A687B68DA60044B181C78
:102C400000F050FF0023181CBD4602B080BDC046F6
:102C50008801001080B582B000AF786039607B6871
:102C6000002B02D03B68002B01D1002303E07B68DE
:102C70003A685A610023181CBD4602B080BDC046A8
:102C800080B584B000AF78607B68FB60FB68002B88
:102C900001D100231BE0104A01235B42101C191CC8
:102CA00000F088FF031C002B05D100230FE0FB6818
:102CB0009B68FB6000E0C046FB689A68074B1B6896
:102CC0009A42F4D1044B181C00F00CFFFB68181C4E
:102CD000BD4604B080BDC0468801001084010010CC
:102CE00080B500AF024B1B68181CBD4680BDC046B6
:102CF0008401001080B584B000AF78600023BB6011
:102D00007B68002B01D100232AE0174B1B68DB688E
:102D1000FB60164A01235B42101C191C00F04AFF9D
:102D2000031C002B01D100231AE0FB685A697B6861
:102D3000101C191C08F078FE031C002B02D1FB6844
:102D4000BB6008E0FB681B68FB60074B1B68DA6828
:102D5000FB689A42E9D1054B181C00F0C3FEBB6822
:102D6000181CBD4604B080BD84010010880100100D
:102D700080B584B000AF78607B68002B01D1002360
:102D800013E00C4A01235B42101C191C00F012FFD7
:102D9000031C002B01D1002307E07B689B68FB60CC
:102DA000044B181C00F09EFEFB68181CBD4604B0C6
:102DB00080BDC0468801001080B584B000AF786047
:102DC0007B68002B01D1002313E00C4A01235B42F6
:102DD000101C191C00F0EEFE031C002B01D1002377
:102DE00007E07B68DB68FB60044B181C00F07AFE90
:102DF000FB68181CBD4604B080BDC04688010010A9
:102E000080B584B000AF78607B68002B01D10023CF
:102E100013E00C4A01235B42101C191C00F0CAFE8F
:102E2000031C002B01D1002307E07B685B68FB607B
:102E3000044B181C00F056FEFB68181CBD4604B07D
:102E400080BDC0468801001080B584B000AF7860B6
:102E50007B68002B01D1002313E00C4A01235B4265
:102E6000101C191C00F0A6FE031C002B01D100232E
:102E700007E07B681B68FB60044B181C00F032FE07
:102E8000FB68181CBD4604B080BDC0468801001018
:102E900080B584B000AF78607B68002B01D100233F
:102EA00014E00C4A01235B42101C191C00F082FE46
:102EB000031C002B01D1002308E07B689B68DB68C2
:102EC000FB60044B181C00F00DFEFB68181CBD468F
:102ED00004B080BD8801001080B584B000AF786078
:102EE0000023FB607B68002B01D1002323E0144A00
:102EF00001235B42101C191C00F05CFE031C002B1C
:102F000001D1002317E07B68BB6002E0BB68DB688F
:102F1000BB60BB68DB68002BF8D1BA687B689A425B
:102F200002D10023FB6001E0BB68FB60044B181C6E
:102F300000F0D8FDFB68181CBD4604B080BDC0463B
:102F40008801001080B584B000AF78600023FB607A
:102F50007B68BB60BB68002B02D101235B421FE092
:102F6000114A01235B42101C191C00F023FE031CB4
:102F7000002B09D101235B4212E0BB689B68BB6058
:102F8000FB680133FB6000E0C046BB689A68074BF2
:102F90001B689A42F1D1044B181C00F0A3FDFB689A
:102FA000181CBD4604B080BD8801001084010010CB
:102FB00080B582B000AF786039607B683A685A614A
:102FC000BD4602B080BDC04680B586B000AF786017
:102FD000396000237B613B1C0F3300221A707B6831
:102FE000002B02D03B68002B01D100233DE0214A99
:102FF00001235B42101C191C00F0DCFD031C002B9C
:1030000001D1002331E03A687B689A4203D17B68A2
:10301000DB68002B24D03B683B613B1C0F331B78E3
:10302000002B07D13B69DB68002B03D03B69DB68D1
:103030007B6115E03B691A683B699B68DB689A42D3
:1030400003D03B691B687B610AE03B699B683B617D
:103050003B1C0F3301221A703A697B689A42DCD11B
:10306000044B181C00F03EFD7B69181CBD4606B0E1
:1030700080BDC0468801001080B584B000AF786084
:1030800039600023BB607B68002B02D03B68002BBB
:1030900001D1002326E07B68FB60144A01235B42D8
:1030A000101C191C00F086FD031C002B01D100230D
:1030B00018E0FB685A693B68101C191C08F0B4FC46
:1030C000031C002B02D1FB68BB6006E0FB681B6899
:1030D000FB60FA687B689A42EBD1044B181C00F045
:1030E00001FDBB68181CBD4604B080BD88010010FE
:1030F00080B584B000AF786039600023BB603B6866
:10310000002B02D07B68002B01D100232EE0194A4E
:1031100001235B42101C191C00F04CFD031C002B0A
:1031200001D1002322E07B68DB68FB60FB68002B99
:1031300002D10023BB6014E0FB685A693B68101C95
:10314000191C08F071FC031C002B02D1FB68BB604A
:1031500007E0FB681B68FB607B68DA68FB689A42E3
:10316000EAD1044B181C00F0BDFCBB68181CBD461E
:1031700004B080BD8801001080B586B000AF7860D3
:10318000396000233B617B68002B02D03B68002B39
:1031900001D100231DE07B687B610EE0FB685A696A
:1031A0003B68101C191C08F03FFC031C002B02D1CB
:1031B000FB683B610CE0FB687B617A687B69101CF3
:1031C000191CFFF701FF031CFB60FB68002BE5D116
:1031D0003B69181CBD4606B080BDC04680B588B0AE
:1031E00000AF786039600023FB603B68002B02D0A1
:1031F0007B68002B01D1002381E0434A01235B421D
:10320000101C191C00F0D6FC031C002B01D100235C
:1032100075E07B68DB683B613B69002B05D13A4B6D
:10322000181C00F05FFC002369E03B68FB6102E0D2
:10323000C04600E0C0463B695B69BB603B1C1B337A
:1032400000221A7000237B6132E0FA697B69D3188F
:103250001B78002B0CD0FA697B69D3181B785C2B88
:1032600009D17B690133FA69D3181B78002B02D18D
:103270003B69FB601FE0FA697B69D3181B785C2B04
:1032800004D13B1C1B3301221A7014E0FA697B69DC
:10329000D3181A78B9687B69CB181B789A4204D086
:1032A0003B1C1B3300221A7005E07B6901337B61F4
:1032B0007B69FE2BC9D9FB68002B1AD13B1C1B3341
:1032C0001B78012B09D03B691B683B613B699B68FC
:1032D000DA683B699A42ABD10CE07B690133FA6949
:1032E000D318FB613B69DB683B613B69002BA1D1D3
:1032F00000E0C046044B181C00F0F4FBFB68181CEF
:10330000BD4608B080BDC0468801001080B582B0BF
:1033100000AF7860094B1B687A689A4201D101239B
:1033200008E07B689B68DA687B689A4201D10123D8
:1033300000E00023181CBD4602B080BD84010010CF
:1033400080B582B000AF78600A4B1B687A689A42F9
:1033500001D1012309E07B681A687B689B68DB6800
:103360009A4201D1012300E00023181CBD4602B09F
:1033700080BDC0468401001080B584B000AF786085
:103380000E4B1B687A689A4201D1002311E000239A
:10339000FB607B689B68DB68BB6005E0FB68013312
:1033A000FB60BB681B68BB60BA687B689A42F5D15A
:1033B000FB68181CBD4604B080BDC04684010010E7
:1033C0007265736F756365207175657565000000C2
:1033D00073656D6170686F726520666F72207265CB
:1033E000736F7563652071756575650080B582B012
:1033F00000AF7860114B6022DA64104B104A9A617A
:103400000E4B0022DA610F4B1A1C0C4B9A640E4BC8
:103410000A4A1A60094A0D4B101C60211A1CFFF75A
:103420007DF80B4A094B101C0521052200F03AFBE0
:103430000123181CBD4602B080BDC0469403001095
:10344000B0010010900300109003001098380000A5
:10345000B403001080B586B000AFF860B9607A6040
:103460003B60FB68002B04D1BB68002B01D000231C
:1034700049E07B68072B01D8002344E07A680323E6
:103480001340002B04D1FA6803231340002B01D012
:10349000002338E01E4B1B68181C002100F0D6F8F2
:1034A000031C7B617B69002B01D100232BE07B692E
:1034B000FA689A617B690022DA61BB687A685A43CC
:1034C000FB68D2187B699A647B697A68DA647B69E5
:1034D0003A681A657B693A6A5A657B690022DA653F
:1034E0000B4B1B68191C7A697B6A081C111C602233
:1034F000FFF7DCF87B69181C2030B968BA687B6A72
:1035000000F0D0FA7B69181CBD4606B080BDC046ED
:103510009003001080B584B000AFF860B9607A60A5
:103520003B60FB68BA689A61FB680022DA617B68DD
:103530003A685A43BB68D218FB689A64FB683A68D9
:10354000DA64FB68BA691A65FB68FA695A65FB6850
:103550000022DA650B4B1B68191CFA683B6A081CD1
:10356000111C6022FFF7A2F8FB68181C2030796854
:103570007A683B6A00F096FAFB68181CBD4604B0F6
:1035800080BDC0469003001080B584B000AF786065
:103590007B682033181C00F009FC031C002B01D1B0
:1035A000002320E07B68DB6DFB6008E0FB681B68A4
:1035B000BB60FB68181C00F0DBF9BB68FB60FB68B4
:1035C000002BF3D17B68181CFFF7B0F9031C002B0C
:1035D00001D1002307E0064B1A687B68101C191CF8
:1035E00000F0F2F80123181CBD4604B080BDC046AF
:1035F0009003001080B584B000AF78607B68203302
:10360000181C00F0D3FB031C002B01D1002319E090
:103610007B68DB6DFB6008E0FB681B68BB60FB68D8
:10362000181C00F0A5F9BB68FB60FB68002BF3D108
:103630007B68181CFFF77AF9031C002B01D10023CB
:1036400000E00123181CBD4604B080BD80B58CB0DD
:1036500000AF786039607B68002B01D10023AFE0B8
:103660007B682033181C002100F0A4FA031C002BF7
:1036700070D1FDF731FC7B682033181C00F0EAFBA9
:10368000021C7B685B6D9A4255D27B681A6D7B6821
:10369000DB6C53430833181C00F02CF9031CBB628D
:1036A000BB6A002B47D0BB6A181C00F06BF9031CE7
:1036B000083B7B627B68DB6C786A191C06F014FDA2
:1036C000031C3B627B682033181C00F0C3FB031C07
:1036D000FB617B682033181C00F0CEFB031CBB6130
:1036E000FA693B6AD3187B617B6820335B693B6175
:1036F0007B682033181C00F059FB7B68181C2030B5
:10370000BA693B6AD21879693B6900F0CBF9BB6AA8
:1037100008331A1C7B689A617B68DB6C3A6A5A43EF
:10372000BB6AD2187B689A64BB6A7A68D26D1A60E9
:103730007B68BA6ADA65FDF7F9FB7B681A1C2032F0
:103740003B68101C191C00F035FA031C002B01D13A
:10375000002335E03B1C0833181CFCF707FF7B688F
:10376000DB69002B1BD07B68DB69FB62FB6A5A6854
:10377000FB6A9A4203D17B680022DA6119E07B6818
:10378000DB695A687B68DA617B68DB69FA6A126810
:103790001A60FB6A1B687A68D2695A6009E07B6824
:1037A0009A6C7B68DB6CD21A7B689A647B689B6C32
:1037B000FB623B1C083318685968FCF70DFFFB6A75
:1037C000181CBD460CB080BD80B584B000AF7860D9
:1037D00039607B68002B32D03B1C0833181CFCF787
:1037E000C5FE7B68DB69002B0BD13A687B68DA6128
:1037F0007B68DB693A685A607B68DB693A681A6003
:1038000011E03B687A68D2695A603B687A68D2698D
:1038100012681A607B68DB691B683A685A607B68CB
:10382000DB693A681A603B1C083318685968FCF772
:10383000D3FE7B682033181C00F054F900E0C0462A
:10384000BD4604B080BDC04680B582B000AF786090
:103850007B68002B01D1002305E07B682033181C16
:1038600000F00AFB031C181CBD4602B080BDC04618
:1038700080B582B000AF78607B68002B01D1002357
:1038800005E07B682033181C00F0E4FA031C181CC8
:10389000BD4602B080BDC046B9CCB6A8BFE9B7D618
:1038A000C5E4B3D80000000080B582B000AF7860F6
:1038B0000D4B00221A730D4B1B68073307229343ED
:1038C0001A1C094B1A60084B1A68074B5A60084BC0
:1038D0001B68072293431A1C034B9A600123181C90
:1038E000BD4602B080BDC0461804001004BB0000F5
:1038F00008BB000080B584B000AF78601B4B5B68EC
:10390000FB601A4B5B680B33072293431A1C174B5F
:103910005A60164B9B681A1C144B5B68D31A1A1C0E
:103920007B689A4204D2114BFA685A60002318E06F
:103930000E4B5B68043BFB60FB687A681A600B4BBC
:103940005B68FB60094B5A687B68D218074B5A606A
:10395000064B5B680733072293431A1C034B5A60DC
:10396000FB68181CBD4604B080BDC046180400109A
:1039700080B582B000AF78600123181CBD4602B04C
:1039800080BDC04680B582B000AF78607B68043BE4
:103990001B68181CBD4602B080BDC04680B582B011
:1039A00000AF78600D4A0E4B101C28211A1CFEF740
:1039B0005FFD031C1A1C0B4B1A600B4A0B4B101CAF
:1039C00028211A1CFEF754FD031C1A1C084B1A6010
:1039D0000123181CBD4602B080BDC046580500102A
:1039E0003843000028040010800500104443000004
:1039F0002C04001080B586B004AF78600A4A0B4BE7
:103A0000002100910021019109490291101C191C0B
:103A100005222823FFF77EFD021C064B1A600123B6
:103A2000181CBD4602B080BDF80400103004001020
:103A30004C430000A405001080B586B000AFF860CC
:103A4000B9607A60BA68FB689A4201D9002320E025
:103A5000124B1B68181C0021FFF7F8FD031C7B614B
:103A60007B69002B01D1002313E07B69FA68DA61DE
:103A70007B69BA681A627B6900225A62084B1B682C
:103A8000191C7A697B68081C111C2822FEF70EFE9F
:103A90007B69181CBD4606B080BDC046A405001059
:103AA0002804001080B584B000AFF860B9607A6077
:103AB0003B60FB68BA68DA61FB687A681A62FB6887
:103AC00000225A62064B1B68191CFA683B68081CE6
:103AD000111C2822FEF7EAFDBD4604B080BDC04699
:103AE0002804001080B584B000AF78607B68002B9C
:103AF0005CD0FDF7F1F97B685B6A002B19D17B681C
:103B0000DB69013309D17B681B6A01334BD07B68C9
:103B10001B6A5A1C7B681A6245E07B681A6A7B68DC
:103B2000DB699A423FD27B681B6A5A1C7B681A6227
:103B300039E07B685B6AFB60FB6800225A62FB68C5
:103B40009A68FB689A4203D17B6800225A6213E0AC
:103B5000FB689A687B685A62FB689B68FA68D2685F
:103B6000DA60FB68DB68FA6892689A60FB6800229A
:103B70009A60FB680022DA60FB68DA8FFB689A873C
:103B8000FA683E23D25C02231340DBB2002B03D041
:103B9000FB68181C02F084FBFB680022DA87FB68D4
:103BA000181C02F01BFBFDF7C1F900E0C046BD4642
:103BB00004B080BD80B586B000AF786039607B68A6
:103BC000002B01D10123EBE03B1C0833181CFCF750
:103BD000CDFC7B68DB6901330DD17B681B6A002B50
:103BE00004D07B681B6A5A1E7B681A623B1C133325
:103BF00001221A7011E07B681B6A002B09D03B1C64
:103C0000133301221A707B681B6A5A1E7B681A6282
:103C100003E03B1C133300221A703B1C0833186866
:103C20005968FCF7D9FC3B1C13331B78012B01D1DD
:103C30000123B5E002F0C8FA031C002B02D03B6858
:103C4000002B01D10023ABE0FDF746F9564B1B6872
:103C5000181C01F02DFD544B1B6800225A60524B7A
:103C60001B6800221A60504B1B687A6824325A6223
:103C70007B685B6A002B0ED14B4B1B684A4A12686B
:103C80009A60494B1B68484A1268DA60464B1A68CA
:103C90007B685A624DE07B685B6A7B617B681B7E58
:103CA000002B34D17A694023D25C3F4B1968402302
:103CB000CB5C9A4208D87B699B687B617B685A6AB7
:103CC0007B699A42EED100E0C046374B1B687A69A7
:103CD0009A60354B1B687A69D268DA607B69DB6869
:103CE000314A12689A60304B1A687B69DA607B68E7
:103CF0005A6A4023D25C2C4B19684023CB5C9A4211
:103D000017D97B685B6ADA687B685A6211E0264BD8
:103D10001B687A699A60244B1B687A69D268DA60FA
:103D20007B69DB68204A12689A601F4B1A687B69BE
:103D3000DA601D4B1A681C4B1B68DB8F93871A4B8C
:103D40001A683E23D15C802040420143D1543B6835
:103D500001330AD0144B1A683E23D15C0220014380
:103D6000D1543B68181C02F0CFFAFDF7DFF8FDF7DD
:103D7000B3F80D4B1A683E23D35C7F229343DBB22A
:103D8000002B0AD0084B1A683E23D05C7F210140EB
:103D9000D154FDF7CBF8002302E0FDF7C7F801236B
:103DA000181CBD4606B080BDEC07001080B584B07D
:103DB00000AF78607B68002B01D1002317E0FDF78E
:103DC0008BF87B685B6A002B08D17B68181CFEF7B8
:103DD000ADFD3B1C0F3301221A7003E03B1C0F3377
:103DE00000221A70FDF7A2F83B1C0F331B78181C39
:103DF000BD4604B080BDC04680B584B000AF7860D9
:103E00007B68002B01D100231EE0FDF765F87B687D
:103E10005B6A002B0FD17B68181CFEF787FD0C4BEB
:103E20001A687B68101C191CFFF7CEFC3B1C0F3373
:103E300001221A7003E03B1C0F3300221A70FDF7B9
:103E400075F83B1C0F331B78181CBD4604B080BDB1
:103E5000A405001080B584B000AF78607B68002BAB
:103E600001D1002303E07B68DB69FB60FB68181C61
:103E7000BD4604B080BDC04680B584B000AF786058
:103E80007B68002B01D1002303E07B681B6AFB6089
:103E9000FB68181CBD4604B080BDC04680B582B02A
:103EA00000AF78600A1CFB1C1A707B68002B04D0E2
:103EB0007B68FA1C12781A7600E0C046BD4602B054
:103EC00080BDC04680B584B000AF7860134B1B68DE
:103ED000181C0021FFF7BAFB031CFB60FB68002BDA
:103EE00001D1002316E0FB6801221A76FB6800224C
:103EF0001A62FB68FF225A76FB680022DA61084BDF
:103F00001B68191CFA687B68081C111C2422FEF728
:103F1000CDFBFB68181CBD4604B080BDA405001095
:103F20002C04001080B582B000AF786039607B68E7
:103F300001221A767B6800221A627B68FF225A7679
:103F40007B680022DA61064B1B68191C7A683B68A3
:103F5000081C111C2422FEF7A9FBBD4602B080BD3F
:103F60002C04001080B584B000AF78607B68002B13
:103F700000D172E07B68DA693B4B1B689A426ED1D4
:103F8000FCF7AAFF7B681B6A002B06D17B68002226
:103F9000DA617B6801221A765CE07B681B6AFB6051
:103FA000FB6800225A627B68FA68DA61FB689A68EB
:103FB000FB689A4203D17B6800221A6213E0FB6817
:103FC0009A687B681A62FB689B68FA68D268DA6054
:103FD000FB68DB68FA6892689A60FB6800229A6066
:103FE000FB680022DA60FB68DA8FFB689A87FA6860
:103FF0003E23D25C02231340DBB2002B03D0FB68CC
:10400000181C02F04DF9FB680022DA87FB68181CC7
:1040100002F0E4F87B685B7EFF2B1BD0124B1A6822
:104020004023D25CF9684023CB5C9A420FD10E4BFF
:104030001B68181C01F03CFB0B4B1A687B68597E0F
:104040004023D154084B1B68181C02F0C7F87B684A
:10405000FF225A76FCF76AFF02E0C04600E0C04645
:10406000BD4604B080BDC046EC07001080B586B0E8
:1040700000AF786039607B68002B01D10123F6E046
:104080007B68DA697C4B1B689A4201D10123EEE020
:104090003B1C0833181CFCF769FA7B681B7E012B5C
:1040A0000ED13B1C133301221A707B6800221A7652
:1040B0007B68FF225A76704B1A687B68DA6103E0EE
:1040C0003B1C133300221A703B1C083318685968D4
:1040D000FCF782FA3B1C13331B78012B01D101231F
:1040E000C5E002F071F8031C002B02D03B68002BE6
:1040F00001D10023BBE0FCF7EFFE5F4B1B68181CEF
:1041000001F0D6FA5C4B1B6800225A605A4B1B68C0
:1041100000221A60584B1B687A6820325A627B680A
:104120001B6A002B0ED1544B1B68534A12689A60CD
:10413000514B1B68504A1268DA604F4B1A687B6813
:104140001A6236E07B681B6A7B617A694023D25C25
:10415000494B19684023CB5C9A4208D87B699B681D
:104160007B617B681A6A7B699A42EED100E0C046A7
:10417000414B1B687A699A603F4B1B687A69D26829
:10418000DA607B69DB683C4A12689A603A4B1A68CD
:104190007B69DA607B681A6A4023D25C364B196807
:1041A0004023CB5C9A4204D97B681B6ADA687B683F
:1041B0001A62314B1A68304B1B68DB8F93872E4B8A
:1041C0001A683F23D15C01200143D1543B6801337D
:1041D0000AD0294B1A683E23D15C02200143D154F6
:1041E0003B68181C02F090F87B68DB697B617A6998
:1041F0004023D25C204B19684023CB5C9A421BD9E8
:104200007B69DB8F002B17D17B69181C01F050FAFA
:104210007B685B7EFF2B04D17A694023D25C7B688C
:104220005A76154B1A684023D15C7A694023D154E1
:104230007B69181C01F0D2FFFCF778FEFCF74CFEFE
:104240000D4B1A683F23D25C01231340DBB2002BD5
:104250000AD0094B1A683F23D15C01208143D15415
:10426000FCF764FE002302E0FCF760FE0123181C4B
:10427000BD4606B080BDC046EC07001080B584B0D6
:1042800000AF78607B68002B01D1002317E0FCF7BA
:1042900023FE7B681B6A002B08D17B68181CFEF785
:1042A00045FB3B1C0F3301221A7003E03B1C0F330C
:1042B00000221A70FCF73AFE3B1C0F331B78181CC7
:1042C000BD4604B080BDC04680B584B000AF786004
:1042D0007B68002B01D100231EE0FCF7FDFD7B680D
:1042E0001B6A002B0FD07B68181CFEF71FFB0C4BC2
:1042F0001A687B68101C191CFFF766FA3B1C0F3309
:1043000001221A7003E03B1C0F3300221A70FCF7E5
:104310000DFE3B1C0F331B78181CBD4604B080BD3E
:10432000A405001080B582B000AF78607B681B7E6A
:10433000181CBD4602B080BD73656D6170686F72F8
:10434000650000006D75746578000000CBF8BFD87B
:10435000D6C6BFE9B3D8000000000000000000008E
:10436000000000000000000000007E81A58181BDEA
:104370009981817E0000000000007EFFDBFFFFC30B
:10438000E7FFFF7E00000000000000006CFEFEFE64
:10439000FE7C3810000000000000000010387CFE99
:1043A0007C38100000000000000000183C3CE7E7EB
:1043B000E718183C00000000000000183C7EFFFFDA
:1043C0007E18183C00000000000000000000183CAF
:1043D0003C18000000000000FFFFFFFFFFFFE7C3E5
:1043E000C3E7FFFFFFFFFFFF00000000003C664245
:1043F00042663C0000000000FFFFFFFFFFC399BDC5
:10440000BD99C3FFFFFFFFFF00001E0E1A3278CCDC
:10441000CCCCCC780000000000003C666666663CB0
:10442000187E18180000000000003F333F30303085
:104430003070F0E00000000000007F637F63636382
:104440006367E7E6C00000000000001818DB3CE7E7
:104450003CDB1818000000000080C0E0F0F8FEF817
:10446000F0E0C080000000000002060E1E3EFE3E8E
:104470001E0E0602000000000000183C7E181818EE
:104480007E3C1800000000000000666666666666F6
:10449000660066660000000000007FDBDBDB7B1B44
:1044A0001B1B1B1B00000000007CC660386CC6C6CE
:1044B0006C380CC67C00000000000000000000000A
:1044C000FEFEFEFE000000000000183C7E181818DA
:1044D0007E3C187E000000000000183C7E18181872
:1044E00018181818000000000000181818181818DC
:1044F000187E3C18000000000000000000180CFEB0
:104500000C1800000000000000000000003060FEF9
:104510006030000000000000000000000000C0C08B
:10452000C0FE0000000000000000000000286CFE3B
:104530006C28000000000000000000001038387CEB
:104540007CFEFE000000000000000000FEFE7C7CFF
:1045500038381000000000000000000000000000DB
:1045600000000000000000000000183C3C3C18184F
:10457000180018180000000000666666240000009D
:1045800000000000000000000000006C6CFE6C6C7D
:104590006CFE6C6C0000000018187CC6C2C07C0663
:1045A0000686C67C1818000000000000C2C60C1861
:1045B0003060C686000000000000386C6C3876DC85
:1045C000CCCCCC7600000000003030306000000021
:1045D000000000000000000000000C1830303030F7
:1045E0003030180C00000000000030180C0C0C0CCF
:1045F0000C0C1830000000000000000000663CFFBA
:104600003C66000000000000000000000018187E5A
:10461000181800000000000000000000000000006A
:10462000001818183000000000000000000000FE14
:10463000000000000000000000000000000000007A
:1046400000001818000000000000000002060C180E
:104650003060C080000000000000386CC6C6D6D6AE
:10466000C6C66C380000000000001838781818180A
:104670001818187E0000000000007CC6060C1830D8
:1046800060C0C6FE0000000000007CC606063C06B6
:104690000606C67C0000000000000C1C3C6CCCFE32
:1046A0000C0C0C1E000000000000FEC0C0C0FC0688
:1046B0000606C67C0000000000003860C0C0FCC6D2
:1046C000C6C6C67C000000000000FEC606060C1828
:1046D000303030300000000000007CC6C6C67CC60A
:1046E000C6C6C67C0000000000007CC6C6C67E06AA
:1046F00006060C78000000000000000018180000FA
:104700000018180000000000000000001818000049
:104710000018183000000000000000060C1830607F
:1047200030180C060000000000000000007E0000B1
:104730007E000000000000000000006030180C0641
:104740000C1830600000000000007CC6C60C181871
:1047500018001818000000000000007CC6C6DEDE4D
:10476000DEDCC07C00000000000010386CC6C6FE15
:10477000C6C6C6C6000000000000FC6666667C6611
:10478000666666FC0000000000003C66C2C0C0C057
:10479000C0C2663C000000000000F86C66666666F9
:1047A00066666CF8000000000000FE6662687868CB
:1047B000606266FE000000000000FE6662687868C5
:1047C000606060F00000000000003C66C2C0C0DE17
:1047D000C6C6663A000000000000C6C6C6C6FEC6D1
:1047E000C6C6C6C60000000000003C1818181818FD
:1047F0001818183C0000000000001E0C0C0C0C0CDB
:10480000CCCCCC78000000000000E666666C7878BE
:104810006C6666E6000000000000F06060606060AA
:10482000606266FE000000000000C6EEFEFED6C616
:10483000C6C6C6C6000000000000C6E6F6FEDECE14
:10484000C6C6C6C60000000000007CC6C6C6C6C6F6
:10485000C6C6C67C000000000000FC6666667C6080
:10486000606060F00000000000007CC6C6C6C6C6DE
:10487000C6D6DE7C0C0E00000000FC6666667C6C12
:10488000666666E60000000000007CC6C660380C64
:1048900006C6C67C0000000000007E7E5A1818186C
:1048A0001818183C000000000000C6C6C6C6C6C6E0
:1048B000C6C6C67C000000000000C6C6C6C6C6C686
:1048C000C66C3810000000000000C6C6C6C6D6D6AA
:1048D000D6FEEE6C000000000000C6C66C7C3838C6
:1048E0007C6CC6C6000000000000666666663C1868
:1048F0001818183C000000000000FEC6860C183096
:1049000060C2C6FE0000000000003C303030303095
:104910003030303C0000000000000080C0E0703803
:104920001C0E06020000000000003C0C0C0C0C0CDD
:104930000C0C0C3C0000000010386CC6000000009D
:104940000000000000000000000000000000000067
:104950000000000000FF00003030180000000000E0
:1049600000000000000000000000000000780C7C47
:10497000CCCCCC76000000000000E06060786C6673
:104980006666667C0000000000000000007CC6C077
:10499000C0C0C67C0000000000001C0C0C3C6CCCAD
:1049A000CCCCCC760000000000000000007CC6FEED
:1049B000C0C0C67C000000000000386C6460F0607D
:1049C000606060F000000000000000000076CCCCC9
:1049D000CCCCCC7C0CCC78000000E060606C7666BF
:1049E000666666E600000000000018180038181817
:1049F0001818183C0000000000000606000E06060D
:104A00000606060666663C000000E06060666C789C
:104A1000786C66E6000000000000381818181818B6
:104A20001818183C000000000000000000ECFED642
:104A3000D6D6D6C6000000000000000000DC666686
:104A4000666666660000000000000000007CC6C6C6
:104A5000C6C6C67C000000000000000000DC6666E0
:104A60006666667C6060F000000000000076CCCCDA
:104A7000CCCCCC7C0C0C1E000000000000DC766668
:104A8000606060F00000000000000000007CC66074
:104A9000380CC67C000000000000103030FC3030C4
:104AA0003030361C000000000000000000CCCCCCF0
:104AB000CCCCCC76000000000000000000666666EA
:104AC00066663C18000000000000000000C6C6D664
:104AD000D6D6FE6C000000000000000000C66C3856
:104AE00038386CC6000000000000000000C6C6C6D2
:104AF000C6C6C67E060CF8000000000000FECC18FA
:104B00003060C6FE0000000000000E181818701873
:104B10001818180E000000000000181818180018C7
:104B200018181818000000000000701818180E1847
:104B30001818187000000000000076DC000000006B
:104B400000000000000000000000000010386CC6EB
:104B5000C6C6FE000000000000003C66C2C0C0C027
:104B6000C2663C0C067C00000000CC0000CCCCCC23
:104B7000CCCCCC7600000000000C1830007CC6FEC7
:104B8000C0C0C67C000000000010386C00780C7CAF
:104B9000CCCCCC76000000000000CC0000780C7C6F
:104BA000CCCCCC76000000000060301800780C7C83
:104BB000CCCCCC760000000000386C3800780C7C3F
:104BC000CCCCCC7600000000000000003C666060A9
:104BD000663C0C063C0000000010386C007CC6FEF1
:104BE000C0C0C67C000000000000C600007CC6FEFD
:104BF000C0C0C67C0000000000603018007CC6FE0B
:104C0000C0C0C67C00000000000066000038181814
:104C10001818183C0000000000183C6600381818EE
:104C20001818183C000000000060301800381818F0
:104C30001818183C0000000000C60010386CC6C6EA
:104C4000FEC6C6C600000000386C3800386CC6C608
:104C5000FEC6C6C60000000018306000FE66607C1C
:104C6000606066FE000000000000000000CC7636A8
:104C70007ED8D86E0000000000003E6CCCCCFECC8C
:104C8000CCCCCCCE000000000010386C007CC6C636
:104C9000C6C6C67C000000000000C600007CC6C678
:104CA000C6C6C67C0000000000603018007CC6C686
:104CB000C6C6C67C00000000003078CC00CCCCCC4E
:104CC000CCCCCC76000000000060301800CCCCCCFE
:104CD000CCCCCC76000000000000C60000C6C6C6E2
:104CE000C6C6C67E060C780000C6007CC6C6C6C610
:104CF000C6C6C67C0000000000C600C6C6C6C6C642
:104D0000C6C6C67C000000000018183C66606060E3
:104D1000663C18180000000000386C6460F06060A9
:104D20006060E6FC00000000000066663C187E182B
:104D30007E1818180000000000F8CCCCF8C4CCDEB7
:104D4000CCCCCCC600000000000E1B1818187E1832
:104D500018181818D87000000018306000780C7C03
:104D6000CCCCCC7600000000000C183000381818AD
:104D70001818183C0000000000183060007CC6C6FF
:104D8000C6C6C67C000000000018306000CCCCCC49
:104D9000CCCCCC7600000000000076DC00DC66663F
:104DA000666666660000000076DC00C6E6F6FEDE9B
:104DB000CEC6C6C600000000003C6C6C3E007E0003
:104DC000000000000000000000386C6C38007C001F
:104DD00000000000000000000000303000303060B3
:104DE000C0C6C67C00000000000000000000FEC03D
:104DF000C0C0C00000000000000000000000FE066F
:104E0000060606000000000000C0C0C2C6CC183074
:104E100060DC860C183E000000C0C0C2C6CC183052
:104E200066CE9E3E060600000000181800181818EE
:104E30003C3C3C18000000000000000000366CD82C
:104E40006C360000000000000000000000D86C3646
:104E50006CD80000000000001144114411441144BA
:104E6000114411441144114455AA55AA55AA55AAF2
:104E700055AA55AA55AA55AADD77DD77DD77DD77E6
:104E8000DD77DD77DD77DD77181818181818181812
:104E9000181818181818181818181818181818F8B2
:104EA00018181818181818181818181818F818F8C2
:104EB000181818181818181836363636363636F6C2
:104EC000363636363636363600000000000000FE34
:104ED00036363636363636360000000000F818F81A
:104EE00018181818181818183636363636F606F602
:104EF0003636363636363636363636363636363652
:104F000036363636363636360000000000FE06F6F7
:104F100036363636363636363636363636F606FED9
:104F2000000000000000000036363636363636FE09
:104F300000000000000000001818181818F818F8F1
:104F4000000000000000000000000000000000F869
:104F50001818181818181818181818181818181FCA
:104F6000000000000000000018181818181818FF9A
:104F7000000000000000000000000000000000FF32
:104F80001818181818181818181818181818181F9A
:104F9000181818181818181800000000000000FF52
:104FA000000000000000000018181818181818FF5A
:104FB000181818181818181818181818181F181F63
:104FC0001818181818181818363636363636363770
:104FD0003636363636363636363636363637303F6D
:104FE000000000000000000000000000003F30371B
:104FF00036363636363636363636363636F700FFFD
:1050000000000000000000000000000000FF00F7AA
:105010003636363636363636363636363637303734
:1050200036363636363636360000000000FF00FFD2
:1050300000000000000000003636363636F700F774
:1050400036363636363636361818181818FF00FF3A
:10505000000000000000000036363636363636FFD7
:1050600000000000000000000000000000FF00FF42
:10507000181818181818181800000000000000FF71
:105080003636363636363636363636363636363FB7
:10509000000000000000000018181818181F181F42
:1050A000000000000000000000000000001F181FAA
:1050B0001818181818181818000000000000003FF1
:1050C000363636363636363636363636363636FFB7
:1050D00036363636363636361818181818FF18FF92
:1050E000181818181818181818181818181818F860
:1050F0000000000000000000000000000000001F91
:105100001818181818181818FFFFFFFFFFFFFFFFE7
:10511000FFFFFFFFFFFFFFFF00000000000000FF98
:10512000FFFFFFFFFFFFFFFFF0F0F0F0F0F0F0F007
:10513000F0F0F0F0F0F0F0F00F0F0F0F0F0F0F0F77
:105140000F0F0F0F0F0F0F0FFFFFFFFFFFFFFF00EE
:105150000000000000000000000000000076DCD825
:10516000D8D8DC7600000000000078CCCCCCD8CCBD
:10517000C6C6C6CC000000000000FEC6C6C0C0C047
:10518000C0C0C0C00000000000000000FE6C6C6CDD
:105190006C6C6C6C00000000000000FEC6603018F3
:1051A0003060C6FE0000000000000000007ED8D87D
:1051B000D8D8D8700000000000000000666666665F
:1051C000667C6060C00000000000000076DC1818FB
:1051D00018181818000000000000007E183C6666D1
:1051E000663C187E00000000000000386CC6C6FE59
:1051F000C6C66C38000000000000386CC6C6C66C1D
:105200006C6C6CEE0000000000001E30180C3E6656
:105210006666663C0000000000000000007EDBDBEC
:10522000DB7E00000000000000000003067EDBDBE8
:10523000F37E60C00000000000001C3060607C60F5
:105240006060301C000000000000007CC6C6C6C6BE
:10525000C6C6C6C60000000000000000FE0000FE3A
:105260000000FE00000000000000000018187E187A
:10527000180000FF0000000000000030180C060CB1
:105280001830007E000000000000000C1830603074
:10529000180C007E0000000000000E1B1B181818E0
:1052A000181818181818181818181818181818187E
:1052B000D8D8D87000000000000000001818007E48
:1052C0000018180000000000000000000076DC005C
:1052D00076DC00000000000000386C6C3800000034
:1052E00000000000000000000000000000000018A6
:1052F0001800000000000000000000000000000096
:105300001800000000000000000F0C0C0C0C0CEC4E
:105310006C6C3C1C0000000000D86C6C6C6C6C0069
:1053200000000000000000000070D83060C8F800E5
:105330000000000000000000000000007C7C7C7C7D
:105340007C7C7C00000000000000000000000000E9
:10535000000000000000000080B586B000AF021C15
:10536000BB1D1A803A4B3B61BB1D00201A5E3949B8
:10537000131C9B009B181B01CB1810331B68002BC0
:1053800001D101235FE0BB1D00215A5E3149131C8E
:105390009B009B181B01CB1804331A682E4B9A42B2
:1053A00001D101234FE0BB1D00201A5E2949131CC7
:1053B0009B009B181B01CB1810331B68DB689B09F3
:1053C000BB60BB1D00215A5E2249131C9B009B1829
:1053D0001B01CB1810331B681B68191CBB1D002058
:1053E0001A5E1C48131C9B009B181B01C31810332A
:1053F0001B68CB1A9B101A1CBB689A4201D200236F
:1054000021E0BB1D00215A5E1249131C9B009B1812
:105410001B01CB1810331B681433FB6000237B6126
:105420000CE07B699B00FA68D3181A683B699A42C2
:1054300001D0002307E07B6901337B61BB687A6997
:105440009A42EED30123181CBD4606B080BDC0466B
:105450006464646468090010D807001080B584B0E3
:1054600000AF7C4B1B685A1C7A4B1A607A4B1B6846
:10547000002B00D184E0784B1B68FB60FB68DA6A84
:10548000744B1B689A4200D079E0FB685B6A002B82
:1054900032D0FB685B6A1A68FB689A421FD1FB68CE
:1054A0009A68FB689A420AD1FB685B6A00221A601C
:1054B000FB6800229A60FB680022DA6019E0FB6852
:1054C0005B6AFA6892681A60FB68DB68FA6892683F
:1054D0009A60FB689B68FA68D268DA6009E0FB684A
:1054E000DB68FA6892689A60FB689B68FA68D26821
:1054F000DA60FB6800225A62FB681A68FB689A420D
:1055000017D1554B00221A60FB68DA8FFB689A8727
:10551000FA683E23D15C01208143D154FA683E23CE
:10552000D15C02208143D154FB68181C00F056FE68
:1055300026E0FB681A68484B1A60FB681B68FA682B
:1055400052685A60FB685B68FA6812681A60FB6808
:10555000DA8FFB689A87FA683E23D15C0120814389
:10556000D154FA683E23D15C02208143D154FB68B8
:10557000181C00F033FE384B1B68FB607EE7C0460A
:10558000364B1B68002B61D0354B1A684023D25C28
:10559000334B1B6819684023CB5C9A4256D1304B81
:1055A0001B681A682E4B1B689A424FD0294B1A6809
:1055B0002A4B1B68101C191C04F0DAFD0B1C002B75
:1055C00044D1274B1B681B68FB60254B1B689B68FD
:1055D000BB60234B1B68DB687B607B68FA689A6062
:1055E000FB687A68DA60BB68FA68DA60FB68BA68F8
:1055F0009A601B4B1B6800229A60194B1B680022A3
:10560000DA60184B1A68164B1B689A4202D1154B88
:10561000FA681A60124B1B685B68FA681A60104BD4
:105620001B685A68FB685A600D4B1B68BA68526861
:105630005A600B4B1B68BA681A60BB685B68084A03
:1056400012681A60064B1A68BB685A60BD4604B0FF
:1056500080BDC046F0070010FC070010600100107C
:10566000EC070010F807001080B582B000AF78603A
:105670003960074B1B687A681A633B68002B03D0BC
:105680003B68181CFCF7B2FEBD4602B080BDC046A8
:10569000EC07001080B582B000AF7860034B1B6848
:1056A0001B6B181CBD4602B080BDC046EC07001045
:1056B00080B584B000AF78603B4B1B687A689A4233
:1056C0003DD07B689B68002B0AD17B681B687A6899
:1056D00052685A607B685B687A6812681A6060E09A
:1056E0007B681B68FB607B681B687A6852685A603D
:1056F0007B685B687A6812681A60FA684023D25C3B
:1057000079684023CB5C9A4210D17B68DB68FA68E9
:105710009A607B68DA68FB68DA607B689B68FA6885
:10572000DA607B689A68FB689A603AE07B68DA68BE
:10573000FB68DA607B68DB68FA689A6031E07B6856
:105740001A68194B1A607B681B68FB607B681B68D2
:105750007A6852685A607B685B687A6812681A6077
:10576000FA684023D25C79684023CB5C9A4210D11E
:105770007B68DB68FA689A607B68DA68FB68DA60E5
:105780007B689B68FA68DA607B689A68FB689A6055
:1057900007E07B68DA68FB68DA607B68DB68FA68D8
:1057A0009A60BD4604B080BDF807001080B582B095
:1057B00000AF78607B68074A9B18181CFA23990091
:1057C00004F092FC031C1A1C034B1A60BD4602B085
:1057D00080BDC046E70300006001001080B582B0C4
:1057E00000AF054B1B687B607B68FA229200534335
:1057F000181CBD4602B080BD6001001090B583B09A
:1058000000AF38E0204B1A684223D35A1A1C1F4BB2
:105810001A40131CDB009B18DB001A1C1C4BD3180E
:105820007B607B685B68002B0AD0174B1B687A682B
:1058300052681A617B685B689A687B685A601AE0F4
:10584000114B1C687B68181C04F02AF9031C2361A7
:105850000D4B1B681B69002B07D10B4B1B683B6072
:105860003B68181CFFF724FF05E07B681B8E0133A3
:105870009AB27B681A86044B1B681B69002BC1D047
:10588000BD4603B090BDC046F8070010FFBFFFFF44
:105890000008001080B500AF024B034A1A60BD46F5
:1058A00080BDC046E4070010E007001080B582B05C
:1058B00000AF00F089FC031C002B01D100231AE08B
:1058C000FFF79CFF0E4B1A680E4B1B689A4211D0D3
:1058D0000C4B1B687B600A4B1A680A4B1A60084B1A
:1058E0001B681A697B681B69101C191C04F078FB83
:1058F000012300E00023181CBD4602B080BDC04655
:10590000F8070010EC07001080B582B000AFFFF779
:1059100075FF0C4B1A680C4B1B689A420FD00A4B50
:105920001B687B60074B1A68074B1A60054B1B68A6
:105930001A697B681B69101C191C04F067FBBD46C3
:1059400002B080BDF8070010EC07001090B585B0DC
:1059500000AF041C081C111C1A1CFB1D1C70BB1D75
:1059600018703B1D1980BB1C1A80BB1D1B78F92BBE
:1059700003D8BB1D1B78002B07D1C84AC84B101C8D
:10598000191CFFF771FEC74BEAE1FBF7A5FA3B1CB8
:105990000C3300221A8014E03B1C0C331A88C249D5
:1059A000131CDB009B18DB005B5C9B07DB0FDBB28F
:1059B000002B0CD03B1C0C333A1C0C3212880132E9
:1059C0001A803B1C0C331B88042BE5D900E0C04631
:1059D0003B1C0C331B88052B09D1B44AB44B101C5B
:1059E000191CFFF741FEFBF7A1FAAE4BB8E1FB6AC9
:1059F000002B00D173E03B1C0E3300221A8031E0F3
:105A00003B1C0E331A88A849131CDB009B18DB00D3
:105A10005B5C9B07DB0FDBB2012B1CD13B1C0E3305
:105A20001A88131CDB009B18DB001A1C08329E4BE3
:105A3000D218FB6A101C191C05F0F6FF031C002B82
:105A400009D19C4A9C4B101C191CFFF70DFEFBF75B
:105A50006DFA944B84E13B1C0E333A1C0E321288D3
:105A600001321A803B1C0E331B88042BC8D9FB6AF9
:105A7000181C202105F0F2FF031C1F2B10DC3B1C1F
:105A80000C331A88131CDB009B18DB001A1C08322D
:105A9000854BD218FB6A101C191C05F0CFFF2BE0B8
:105AA0003B1C0C331A88131CDB009B18DB001A1CF0
:105AB00008327D4BD218FB6A101C191C1F2205F0FE
:105AC000F5FE3B1C0C331A8877482721131CDB009A
:105AD0009B18DB00C3185B1800221A700CE03B1CFB
