:10000000281B0010A100000041000000410000007A
:1000100000000000000000000000000000000000E0
:100020000000000000000000000000006D00000063
:10003000000000000000000000000000450000007B
:10004000FEE700BF01B515480068EFF3098020E91D
:10005000F00F80F3098809F0CDFFBDE80140EFF310
:100060000980B0E8F00F80F30988704700B500F010
:100070004DFA5DF804EB1EF0040F0CBFEFF308809F
:10008000EFF30980816911F8021C29B900F1200001
:10009000B0E8F00F80F309887047000010E000E03E
:1000A00080B500AF884B1B6845F23A021A6087485A
:1000B00009F07AF9854809F083F94FF0010009F059
:1000C000AFF94FF0010009F0C7F94FF0000009F057
:1000D000DFF97F4B1B681B687E4A93420BD07D4A39
:1000E000934202D87C4A934217E07C4A93420BD059
:1000F0007B4A934211E0764B1B68754A126852693D
:1001000042F400725A6108E0714B1B68704A126831
:10011000526942F400725A6100BF6B4B1B684FF08A
:100120005532C3F8A821684B1B684FF05532C3F80D
:10013000AC21654B1B684FF00002C3F8C821624B2D
:100140001B68D3F888304FEA1363012B11D15E4B43
:100150001B684FF00102C3F880205B4B1B684FF017
:10016000AA02C3F88C20584B1B684FF05502C3F805
:100170008C20554B1B684FF00002C3F88020524B77
:100180001B684FF0AA02C3F88C204F4B1B684FF03E
:100190005502C3F88C2000BF4B4B1B68D3F8883046
:1001A00003F04073002BF7D1474B1B68464A126897
:1001B000D2F8A02102F0040242F02002C3F8A021EC
:1001C00000BF414B1B68D3F8A03103F04003002B64
:1001D000F7D03D4B1B684FF00102C3F80C213A4B9E
:1001E0001B684FF00B02C3F88420374B1B684FF09D
:1001F000AA02C3F88C20344B1B684FF05502C3F899
:100200008C20314B1B684FF00102C3F880202E4B2D
:100210001B684FF0AA02C3F88C202B4B1B684FF0D1
:100220005502C3F88C2000BF274B1B68D3F88830D9
:1002300003F08073002BF7D0234B1B684FF00202B2
:10024000C3F8042100BF204B1B68D3F8883003F0AB
:100250008063002BF7D000BF1B4B1B68D3F888309E
:100260004FEA43434FEA53430B2B09D0164B1B680D
:10027000D3F8883003F47F034FEA1343002BEBD10C
:10028000114B1B684FF00302C3F880200E4B1B6814
:100290004FF0AA02C3F88C200B4B1B684FF055029D
:1002A000C3F88C2000BF084B1B68D3F8883003F0DC
:1002B0000073002BF7D0044B1B6845F23A021A601A
:1002C00000F012F880BD00BF38960000281B001017
:1002D000E402000031C20F4130C20F4131C21F4160
:1002E00020C32F4100ED00E080B586B000AF3F4B4A
:1002F0007B604FF00003FB606CE03D4AFB684FEA17
:100300000313D31803F108031B687B61384AFB68A9
:100310004FEA0313D31803F10C031B683B61344A03
:10032000FB6803F101034FEA0313D31803F104033D
:100330001B68012B23D17A693B699A4246D04FF062
:100340000003BB600FE07B691A683B691A60BB68F9
:1003500003F10403BB607B6903F104037B613B6928
:1003600003F104033B61224AFB6803F101034FEAF6
:100370000313D3181A68BB689A42E4D826E01C4AD3
:10038000FB6803F101034FEA0313D31803F10403DD
:100390001B68002B1AD14FF00003BB600BE03B69D8
:1003A0004FF000021A60BB6803F10403BB603B69B5
:1003B00003F104033B610E4AFB6803F101034FEABA
:1003C0000313D3181A68BB689A42E8D8FB6803F194
:1003D0000103FB60064B5A68FB689A428DD87B6824
:1003E000984707F11807BD4680BD00BFF50400001F
:0403F0005CAD000000
:1003F40080B485B000AF4FF000037B606CE03B4AF3
:100404007B684FEA0313D31803F108031B68FB60EE
:10041400364A7B684FEA0313D31803F10C031B68B5
:10042400BB60324A7B6803F101034FEA0313D3181C
:1004340003F104031B68012B23D1FA68BB689A42B9
:1004440046D04FF000033B600FE0FB681A68BB68BE
:100454001A603B6803F104033B60FB6803F1040387
:10046400FB60BB6803F10403BB60204A7B6803F1B3
:1004740001034FEA0313D3181A683B689A42E4D87D
:1004840026E01A4A7B6803F101034FEA0313D318E9
:1004940003F104031B68002B1AD14FF000033B60E7
:1004A4000BE0BB684FF000021A603B6803F10403E1
:1004B4003B60BB6803F10403BB600C4A7B6803F137
:1004C40001034FEA0313D3181A683B689A42E8D829
:1004D4007B6803F101037B60044B5A687B689A4292
:1004E4008DD807F11407BD4680BC704794AD000059
:1004F40080B500AFFFF77CFF00F0CAFA01F01EFBE5
:1005040008F002FA80BD00BF80B400AF4FF00000D5
:1005140080F31188BD4680BC704700BF80B400AF33
:100524004FF0FF0080F31188BD4680BC704700BFC8
:1005340080B400AF62B6BD4680BC704780B400AFE3
:1005440072B6BD4680BC704780B483B000AF03462A
:10055400FB71FB79222B04D8FB790F4AD35CFF2B68
:1005640002D14FF0000310E00C4B1B68FA794FEAFC
:100574005212D2B2F97901F01F014FF0010000FAD2
:1005840001F143F822104FF00103184607F10C075C
:10059400BD4680BC704700BFEC000010B00E0000E8
:1005A40080B483B000AF0346FB71FB79222B04D8DF
:1005B400FB79104AD35CFF2B02D14FF0000312E009
:1005C4000D4B1B68FA794FEA5212D2B2F97901F055
:1005D4001F014FF0010000FA01F102F1200243F87B
:1005E40022104FF00103184607F10C07BD4680BCEA
:1005F400704700BFEC000010B00E000080B485B05E
:1006040000AF0346FB71FB79222B04D8FB79124A15
:10061400D35CFF2B02D14FF0000316E0FB794FEAC5
:100624005313DBB2FB60FB7903F01F034FF00102AD
:1006340002FA03F3BB60094B1B68FA6802F160021B
:10064400B96843F822104FF00103184607F1140764
:10065400BD4680BC704700BFEC000010B00E000027
:1006640080B485B000AF0346FB71FB79222B04D81C
:10067400FB79124AD35CFF2B02D14FF0000316E042
:10068400FB794FEA5313DBB2FB60FB7903F01F03E2
:100694004FF0010202FA03F3BB60094B1B68FA68CE
:1006A40002F14002B96843F822104FF001031846E2
:1006B40007F11407BD4680BC704700BFEC00001072
:1006C400B00E000080B483B000AF4FF00003FB71A4
:1006D4000CE00A4B1B68FA7902F160024FF0FF311B
:1006E40043F82210FB7903F10103FB71FB79012B21
:1006F400EFD907F10C07BD4680BC7047B00E00006F
:1007040080B485B000AF0346FB71FB79222B04D87B
:10071400FB79194AD35CFF2B02D14FF0000325E08B
:10072400FB794FEA5313DBB2FB60FB7903F01F0341
:100734004FF0010202FA03F3BB60104B1B68FA6826
:1007440002F1400253F82220BB6802EA0303002BA3
:100754000AD00A4B1B68FA6802F16002B96843F8D0
:1007640022104FF0010301E04FF00003184607F197
:100774001407BD4680BC7047EC000010B00E0000AA
:1007840080B483B000AF0346FB71FB79222B04D8FD
:10079400FB79214AD35CFF2B02D14FF0000335E0F3
:1007A400FB791D4AD35C1A461C4913464FEA43039E
:1007B4009B184FEAC303CB1803F10C034FF000025C
:1007C4001A60FB794FEA5313DBB21A461946144BED
:1007D40053F82110FB7903F01F034FF0010000FAD6
:1007E40003F36FEA030319400D4B43F82210FA791F
:1007F4000C490D4B43F822100C4B1A68FB79D318A3
:100804004FF0FF0283F800234FF00103184607F16D
:100814000C07BD4680BC7047EC00001010010010AE
:10082400CC000010B51A000040000010B00E00000B
:1008340080B483B000AF0346FB71FB79222B04D84C
:10084400FB792A4AD35CFF2B02D14FF0000347E027
:10085400FB79264AD35C1A46254913464FEA4303DB
:100864009B184FEAC303CB1803F104031B68002B46
:1008740002D04FF0000333E0FB791C4AD35C1A46E4
:100884001B4913464FEA43039B184FEAC303CB1893
:1008940003F10C034FF001021A60FB794FEA531382
:1008A400DBB21A461946134B53F82110FB7903F0B7
:1008B4001F034FF0010000FA03F319430D4B43F8F3
:1008C4002210FA790C490D4B43F822100C4B1A688C
:1008D400FB79D3184FF0800283F800234FF0010313
:1008E400184607F10C07BD4680BC7047EC000010A9
:1008F40010010010CC000010E11A000040000010AC
:10090400B00E000080B483B000AF0346FB71FB79E6
:10091400222B04D8FB791C4AD35CFF2B02D14FF065
:1009240000032AE0FB794FEA5313DBB21A46174B54
:1009340053F822306FEA0302FB7903F01F034FF0F0
:10094400010101FA03F302EA0303002B02D04FF082
:10095400000312E0FB790C4AD35C1A460C49134697
:100964004FEA43039B184FEAC303CB1803F1100368
:100974004FF001021A704FF00103184607F10C07FB
:10098400BD4680BC704700BFEC000010CC000010D6
:100994001001001080B483B000AF0346FB71FB79F3
:1009A400222B16D8FB790F4AD35CFF2B13D0FB798B
:1009B4000C4AD35C1A460C4913464FEA43039B186E
:1009C4004FEAC303CB1803F110034FF000021A706F
:1009D40002E000BF00E000BF07F10C07BD4680BC89
:1009E400704700BFEC0000101001001080B483B009
:1009F40000AF03463960FB71FB79222B04D8FB79E5
:100A04001D4AD35CFF2B02D14FF000032DE0FB798C
:100A1400194AD35C1A46194913464FEA43039B18F3
:100A24004FEAC303CB1803F10C031B68002B02D15C
:100A34004FF0000319E0FB790F4AD35C1A460F49C3
:100A440013464FEA43039B184FEAC303CB1803F141
:100A540014033A681A600A4B1968FB793A68D2B2EF
:100A6400CB1883F800234FF00103184607F10C0755
:100A7400BD4680BC704700BFEC00001010010010A0
:100A8400B00E000080B400AF61B6BD4680BC7047B4
:100A940080B582B000AFFFF751FDFFF713FE604B46
:100AA4001B685F4A1268526942F002025A614FF0B1
:100AB4000003FB710DE0FB795A4A4FF0FF01D1545A
:100AC400FA795949594B43F82210FB7903F1010390
:100AD400FB71FB79222BEED94FF00003FB7154E03C
:100AE400FB79534AD35C4F4AF979D154FA79514985
:100AF40013464FEA43039B184FEAC303CB1803F191
:100B040008034FF001021A60FA794A4913464FEA82
:100B140043039B184FEAC303CB1803F10C034FF0B4
:100B240000021A60FA794449424813464FEA4303E3
:100B34009B184FEAC303C3181960FA793D49134659
:100B44004FEA43039B184FEAC303CB1803F1040392
:100B54004FF000021A60FA79364913464FEA43030C
:100B64009B184FEAC303CB1803F110034FF6FF722F
:100B74005A80324B1A68FB79D3184FF0FF0283F87E
:100B84000023FB7903F10103FB712D4B1B78FA79E8
:100B94009A42A5D34FF00003FB7123E0274B1B6857
:100BA400FA7902F120024FF0FF3143F82210234B6F
:100BB4001B68FA7902F160024FF0FF3143F822100A
:100BC400FA79204B4FF0000143F82210FA791D4BBB
:100BD40002F104024FF0000143F82210FB7903F103
:100BE4000103FB71FB79012BD8D9164B4FF000029E
:100BF4009A60144B4FF00002DA60124B4FF001027E
:100C0400DA61FFF78BFC0F4B4FF000029A61FFF79C
:100C14008FFCFFF737FF07F10807BD4680BD00BF13
:100C2400E4020000EC000010B51A000040000010BF
:100C34004C1B00001001001055850000B00E000090
:100C44004E1B0000CC00001080B582B000AF0346FC
:100C5400FB71324BDB6803F10102304BDA602F4B3E
:100C64009B6903F101022D4B9A61FB792C4AD35CF9
:100C74001A462C4913464FEA43039B184FEAC30311
:100C8400CB1803F110031B78002B01D1FFF756FC9E
:100C9400FB791846FFF7B2FCFB79214AD35C1A466C
:100CA400204913464FEA43039B184FEAC303CB186A
:100CB4001B68002B0FD0FB79194AD35C1A461949DB
:100CC40013464FEA43039B184FEAC303CB181B6830
:100CD400FA7910469847FB79114AD35C1A461149B0
:100CE40013464FEA43039B184FEAC303CB1803F19F
:100CF40010031B78002B01D1FFF71AFC074BDB68AC
:100D040003F1FF32054BDA60044B9B6903F1FF32B8
:100D1400024B9A6107F10807BD4680BDCC00001064
:100D2400EC0000101001001080B588B004AF034639
:100D3400FB714FF00003FB60564B4FF000021A703A
:100D4400554B9B6803F10102534B9A60FB7918469B
:100D5400FFF754FCFB79514AD35C1A4650491346B9
:100D64004FEA43039B184FEAC303CB181B68002BBD
:100D740010D0FB79494AD35C1A46494913464FEAD5
:100D840043039B184FEAC303CB181B68FA79104638
:100D94009847F860FB79414AD35C1A4640491346A8
:100DA4004FEA43039B184FEAC303CB1803F1040330
:100DB4001B68BB60BB68002B21D0BB68DA8FBB68A3
:100DC4009A87BA6892F83F306FF3410382F83F3054
:100DD400BB68FA685A63B86805F07EFCFB792F4A51
:100DE400D35C1A462E4913464FEA43039B184FEA35
:100DF400C303CB1803F104034FF000021A60FB791C
:100E0400264AD35C1A46264913464FEA43039B18E5
:100E14004FEAC303CB1803F110035A884FF6FF734C
:100E24009A4220D0FB791D4AD35C1A461C491346CA
:100E34004FEA43039B184FEAC303CB1803F1100393
:100E44005A8807F107034FF0010100914FF00001A8
:100E540001914FF00001029110464FF000014FF054
:100E6400000206F007F90C4B9B6803F1FF320A4BB2
:100E74009A600C4B1A680C4B1B689A4201D004F020
:100E8400C9FF044B4FF001021A7007F11007BD4669
:100E940080BD00BFC8070010CC000010EC0000109B
:100EA40010010010D8070010CC07001000E100E08A
:100EB40080B500AF0C4BDB68002B12D1FFF73EFB73
:100EC400094B9B69B3F1FF3F05D0074B9B6903F1C5
:100ED4000102054B9A61054B4FF000021A7000BFE6
:100EE40000E000BF80BD00BFCC000010C8070010A8
:100EF40080B500AF174BDB68002B25D1154B9B69E0
:100F0400002B05D0134B9B6903F1FF32114B9A61FF
:100F1400104B9B69002B14D1FFF70AFB0D4BDB69C7
:100F2400002B13D10C4B4FF001021A700B4B1A68B3
:100F34000B4B1B689A420BD0FFF7F0FA04F038FF12
:100F440007E0FFF7FBFA04E000BF02E000BF00E0A7
:100F540000BF80BDCC000010C8070010CC070010F3
:100F6400D807001080B400AF064B9B69002B02D158
:100F74004FF0010301E04FF000031846BD4680BC6A
:100F8400704700BFCC00001080B500AF0C4B9B68CD
:100F9400002B12D1FFF7C2FA094BDB69B3F1FF3F13
:100FA40005D0074BDB6903F10102054BDA61054B00
:100FB4004FF000021A7000BF00E000BF80BD00BF08
:100FC400CC000010C807001080B500AFFFF7A6FAE8
:100FD400024B4FF00102DA6180BD00BFCC0000106B
:100FE40080B500AF164B9B68002B27D1144BDB69EF
:100FF400002B05D0124BDB6903F1FF32104BDA6191
:101004000F4BDB69002B16D10D4B9B69002B0FD1C5
:101014000C4B4FF001021A700B4B1A680B4B1B68F8
:101024009A4202D004F0C4FE09E0FFF76DFA06E02C
:10103400FFF76AFA03E0FFF771FA00E000BF80BD32
:10104400CC000010C8070010CC070010D80700100F
:1010540080B400AF034B4FF00002DA61BD4680BCA0
:10106400704700BFCC00001080B400AF064BDB69B2
:10107400002B02D14FF0010301E04FF000031846AA
:10108400BD4680BC704700BFCC00001080B582B064
:1010940000AF0346FB71FB79222B08D8FB79394A50
:1010A400D35CFF2B03D0384BDB68002B02D04FF00E
:1010B400000361E0FB79334AD35C1A463349134693
:1010C4004FEA43039B184FEAC303CB1803F10C0305
:1010D4001B68012B02D14FF000034DE0FB79184649
:1010E400FFF75EFAFB79274AD35C1A462749134671
:1010F4004FEA43039B184FEAC303CB1803F10803D9
:101104001B68B3F1FF3F1BD0FB791E4AD35C1A4620
:101114001E4913464FEA43039B184FEAC303CB18F7
:1011240003F108031B6803F10101184813464FEA51
:1011340043039B184FEAC303C31803F10803196060
:10114400FB794FEA5313DBB21A4619460E4B01F1F1
:10115400040153F82110FB7903F01F034FF0010041
:1011640000FA03F36FEA03031940074B02F1040288
:1011740043F822104FF00103184607F10807BD4653
:1011840080BD00BFEC000010CC0000101001001066
:1011940080B582B000AF0346FB71FB79222B04D8E3
:1011A400FB79374AD35CFF2B02D14FF0000361E097
:1011B400FB79334AD35C1A46324913464FEA430358
:1011C4009B184FEAC303CB1803F10C031B68002BD5
:1011D40002D14FF000034DE0FB791846FFF7E0F928
:1011E400FB79274AD35C1A46264913464FEA430340
:1011F4009B184FEAC303CB1803F108031B68B3F130
:10120400FF3F1BD0FB791E4AD35C1A461D49134687
:101214004FEA43039B184FEAC303CB1803F10803B7
:101224001B6803F10101174813464FEA43039B1857
:101234004FEAC303C31803F108031960FB794FEAAB
:101244005313DBB21A4619460F4B01F1040153F84C
:101254002110FB7903F01F034FF0010000FA03F3A0
:101264006FEA03031940084B02F1040243F8221009
:101274004FF00103184607F10807BD4680BD00BFC3
:10128400EC00001010010010CC00001080B582B0FA
:1012940000AF0346FB71FB79222B08D8FB79404A47
:1012A400D35CFF2B03D03F4BDB68002B02D04FF005
:1012B40000036FE0FB793A4AD35C1A463A49134675
:1012C4004FEA43039B184FEAC303CB1803F10C0303
:1012D4001B68012B02D14FF000035BE0FB79304A1D
:1012E400D35C1A46304913464FEA43039B184FEA2E
:1012F400C303CB1803F108031B68002B1BD0FB7935
:10130400274AD35C1A46284913464FEA43039B18DD
:101314004FEAC303CB1803F108031B6803F1FF3141
:10132400214813464FEA43039B184FEAC303C318EB
:1013340003F108031960FB79194AD35C1A461A4968
:1013440013464FEA43039B184FEAC303CB1803F138
:1013540008031B68002B1BD1FB794FEA5313DBB244
:101364001A4619460F4B01F1040153F82110FB7979
:1013740003F01F034FF0010000FA03F31943094B74
:1013840002F1040243F82210FB791846FFF7DCF857
:101394004FF00103184607F10807BD4680BD00BFA2
:1013A400EC000010CC0000101001001080B582B0D9
:1013B40000AF0346FB71FB79222B04D8FB793E4A2C
:1013C400D35CFF2B02D14FF000036FE0FB793A4A64
:1013D400D35C1A46394913464FEA43039B184FEA34
:1013E400C303CB1803F10C031B68002B02D14FF08D
:1013F40000035BE0FB79304AD35C1A462F4913465D
:101404004FEA43039B184FEAC303CB1803F10803C5
:101414001B68002B1BD0FB79274AD35C1A4627494B
:1014240013464FEA43039B184FEAC303CB1803F157
:1014340008031B6803F1FF31204813464FEA4303B6
:101444009B184FEAC303C31803F108031960FB791F
:10145400194AD35C1A46194913464FEA43039B18A9
:101464004FEAC303CB1803F108031B68002B1BD1FD
:10147400FB794FEA5313DBB21A461946104B01F1BC
:10148400040153F82110FB7903F01F034FF001000E
:1014940000FA03F319430A4B02F1040243F8221041
:1014A400FB791846FFF750F84FF00103184607F18F
:1014B4000807BD4680BD00BFEC00001010010010FD
:1014C400CC00001080B582B000AF0346FB71FB79FD
:1014D400222B08D8FB792A4AD35CFF2B03D0294B53
:1014E400DB68002B02D04FF0000344E0FB79244A70
:1014F400D35C1A46244913464FEA43039B184FEA28
:10150400C303CB1803F10C031B68012B02D14FF06A
:10151400000330E0FB791846FFF742F8FB79184ADC
:10152400D35C1A46184913464FEA43039B184FEA03
:10153400C303CB1803F108034FF001021A60FB79CF
:101544004FEA5313DBB21A4619460E4B01F104015C
:1015540053F82110FB7903F01F034FF0010000FA48
:1015640003F36FEA03031940064B02F1040243F844
:1015740022104FF00103184607F10807BD4680BD4D
:10158400EC000010CC0000101001001080B582B0F7
:1015940000AF0346FB71FB79222B04D8FB79284A60
:1015A400D35CFF2B02D14FF0000344E0FB79244AC3
:1015B400D35C1A46234913464FEA43039B184FEA68
:1015C400C303CB1803F10C031B68002B02D14FF0AB
:1015D400000330E0FB791846FEF7E2FFFB79184A76
:1015E400D35C1A46174913464FEA43039B184FEA44
:1015F400C303CB1803F108034FF001021A60FB790F
:101604004FEA5313DBB21A4619460F4B01F104019A
:1016140053F82110FB7903F01F034FF0010000FA87
:1016240003F36FEA03031940074B02F1040243F882
:1016340022104FF00103184607F10807BD4680BD8C
:10164400EC00001010010010CC00001080B582B036
:1016540000AF0346FB71FB79222B08D8FB79294A9A
:10166400D35CFF2B03D0284BDB68002B02D04FF058
:10167400000342E0FB79234AD35C1A46234913460C
:101684004FEA43039B184FEAC303CB1803F10C033F
:101694001B68012B02D14FF000032EE0FB79194A9D
:1016A400D35C1A46194913464FEA43039B184FEA81
:1016B400C303CB1803F108034FF000021A60FB794F
:1016C4004FEA5313DBB21A4619460F4B01F10401DA
:1016D40053F82110FB7903F01F034FF0010000FAC7
:1016E40003F31943084B02F1040243F82210FB7977
:1016F4001846FEF729FF4FF00103184607F10807C3
:10170400BD4680BDEC000010CC000010100100109C
:1017140080B582B000AF0346FB71FB79222B04D85D
:10172400FB79274AD35CFF2B02D14FF0000342E040
:10173400FB79234AD35C1A46224913464FEA4303F2
:101744009B184FEAC303CB1803F10C031B68002B4F
:1017540002D14FF000032EE0FB79194AD35C1A46FC
:10176400184913464FEA43039B184FEAC303CB18A7
:1017740003F108034FF000021A60FB794FEA531398
:10178400DBB21A461946104B01F1040153F821103B
:10179400FB7903F01F034FF0010000FA03F3194330
:1017A400094B02F1040243F82210FB791846FEF7B4
:1017B400CBFE4FF00103184607F10807BD4680BD74
:1017C400EC00001010010010CC00001080B483B0B5
:1017D40000AF0346FB71FB790D4AD35C1A460D49F1
:1017E40013464FEA43039B184FEAC303CB1803F194
:1017F40008031B68002B02D14FF0010301E04FF0F6
:101804000003184607F10C07BD4680BC704700BFB3
:10181400EC0000101001001080B483B000AF034648
:101824003960FB71FB79222B14D8FB790D4AD35C08
:10183400FF2B11D0FB790B4AD35C1A460A49134695
:101844004FEA43039B184FEAC303CB183A681A6064
:1018540000BF02E000BF00E000BF07F10C07BD4677
:1018640080BC7047EC0000101001001080B483B0FD
:1018740000AF02460B46FA71BB80FB79222B16D8C7
:10188400FB790F4AD35CFF2B13D0FB790C4AD35C52
:101894001A460C4913464FEA43039B184FEAC30305
:1018A400CB1803F11003BA885A8000BF02E000BFCE
:1018B40000E000BF07F10C07BD4680BC704700BFC5
:1018C400EC0000101001001080B483B000AF034698
:1018D400FB71FB79222B15D8FB790E4AD35CFF2BC5
:1018E40012D0FB790B4AD35C1A460B4913464FEAD4
:1018F40043039B184FEAC303CB184FF000021A604E
:1019040000BF02E000BF00E000BF07F10C07BD46C6
:1019140080BC7047EC0000101001001080B483B04C
:1019240000AF0346FB71FB79222B17D8FB790F4AD2
:10193400D35CFF2B14D0FB790C4AD35C1A460C49B8
:1019440013464FEA43039B184FEAC303CB1803F132
:1019540010034FF6FF725A8000BF02E000BF00E0A0
:1019640000BF07F10C07BD4680BC7047EC000010B7
:101974001001001080B582B000AF0346FB71FB7903
:10198400222B04D8FB79464AD35CFF2B02D14FF0BB
:1019940000037FE004F096FE0346002B07D1414884
:1019A4004FF0000104F0DAF84FF0000372E0FFF7A3
:1019B400EBFAFB793A4AD35C1A463B4913464FEAA1
:1019C40043039B184FEAC303CB1803F10C031B68B2
:1019D400012B10D0FB79324AD35C1A4632491346A4
:1019E4004FEA43039B184FEAC303CB1803F10403E4
:1019F4001B68002B04D0FFF7F3FA4FF0000349E013
:101A0400FB791846FEF77CFE0346012B08D1FB79CF
:101A14001846FEF7F3FDFFF7E3FA4FF0010339E050
:101A2400224B1B68184604F0BFF8204B1B684FF08C
:101A340000021A601D4B1B684FF000025A601B4BDA
:101A44001B681A4A1268D28F9A87184B1A6892F840
:101A54003F3043F0020382F83F30FB79104AD35CF5
:101A64001A46124B1968104813464FEA43039B1851
:101A74004FEAC303C31803F104031960FB79184642
:101A8400FFF7E4FDFFF7ACFAFB791846FFF71AFD00
:101A94004FF00103184607F10807BD4680BD00BF9B
:101AA400EC0000100500000110010010CC0700102C
:101AB40001B5EFF3098020E9F00F80F30988EFF313
:101AC4000580A0F11000FFF72FF9BDE80140EFF306
:101AD4000980B0E8F00F80F30988704701B5EFF38F
:101AE400098020E9F00F80F30988EFF30580A0F165
:101AF4001000FFF7A9F8BDE80140EFF30980B0E852
:101B0400F00F80F309887047EFF311804FF0FF0165
:101B140081F31188704700BF80F31188704700BFBC
:101B2400EFF3108072B6704780F31088704700BFDF
:101B340080B400AFBD4680BC704700BF80B500AF25
:101B4400FFF7F6FF80BD00BF0506020080B489B030
:101B540000AFF860B9607A60184B1B68FB61FB68E2
:101B64004FEA4302BB684FEA1313D318BB61BB6847
:101B740003F00F034FEA43037B61BB694FEA83031E
:101B8400FA69D318BA694FEA8202F9698A181168A6
:101B94007A694FF0030000FA02F26FEA0202114080
:101BA4007A6802F003007A6900FA02F241EA02025A
:101BB4001A6007F12407BD4680BC704724960000D4
:101BC40080B489B000AFF860B9607A602D4B1B68AF
:101BD40003F14003FB61FB684FEA4302BB684FEA31
:101BE4001313D318BB61BB6803F00F034FEA43031D
:101BF4007B61BB694FEA8303FA69D318BA694FEA78
:101C04008202F9698A1811687A694FF0030000FAB0
:101C140002F26FEA020211407A6802F003007A6964
:101C240000FA02F241EA02021A60164B1B6803F141
:101C34006803FB61FB68BB61BB687B61FB684FEABF
:101C44008303FA69D318FA684FEA8202F9698A1899
:101C54001168BA684FF0010000FA02F26FEA02025A
:101C640011407A684FEA920202F00100BA6800FA61
:101C740002F241EA02021A6007F12407BD4680BC61
:101C8400704700BF2496000080B483B000AF786032
:101C940039607B68042B3DD801A252F823F000BFC1
:101CA400B91C0000D11C0000E91C0000191D000033
:101CB400011D00001A4B1B68194A126811683A6822
:101CC4006FEA020201EA02021A6024E0154B1B6863
:101CD400144A126811683A686FEA020201EA0202C1
:101CE4001A6018E0104B1B680F4A126811683A68B2
:101CF4006FEA020201EA02021A600CE00B4B1B6855
:101D04000A4A126811683A686FEA020201EA02029A
:101D14001A6000E000BF07F10C07BD4680BC7047A5
:101D2400289600002C96000030960000349600009F
:101D340080B483B000AF786039607B68042B35D8F9
:101D440001A252F823F000BF611D0000751D0000C0
:101D5400891D0000B11D00009D1D0000164B1B686D
:101D6400154A126811683A6841EA02021A601EE0D4
:101D7400124B1B68114A126811683A6841EA020260
:101D84001A6014E00E4B1B680D4A126811683A6819
:101D940041EA02021A600AE00A4B1B68094A126807
:101DA40011683A6841EA02021A6000E000BF07F1D4
:101DB4000C07BD4680BC7047289600002C96000096
:101DC400309600003496000080B485B000AF78608F
:101DD4007B68042B20D801A252F823F0F51D0000E3
:101DE400FF1D0000091E00001D1E0000131E000040
:101DF4000D4B1B685B69FB600FE00C4B1B685B6958
:101E0400FB600AE00A4B1B685B69FB6005E0094B59
:101E14001B685B69FB6000E000BFFB68184607F1C4
:101E24001407BD4680BC7047289600002C9600001D
:101E3400309600003496000080B483B000AF786020
:101E440039607B68042B21D801A252F823F000BF2B
:101E5400691E0000731E00007D1E0000911E00001C
:101E6400871E00000C4B1B683A685A610FE00B4B4D
:101E74001B683A685A610AE0094B1B683A685A6160
:101E840005E0084B1B683A685A6100E000BF07F19F
:101E94000C07BD4680BC7047289600002C960000B5
:101EA400309600003496000080B483B000AF7860B0
:101EB40039607B68042B21D801A252F823F000BFBB
:101EC400D91E0000E31E0000ED1E0000011F0000EB
:101ED400F71E00000C4B1B683A689A610FE00B4B2D
:101EE4001B683A689A610AE0094B1B683A689A6170
:101EF40005E0084B1B683A689A6100E000BF07F1EF
:101F04000C07BD4680BC7047289600002C96000044
:101F1400309600003496000080B483B000AF78603F
:101F240039607B68042B21D801A252F823F000BF4A
:101F3400491F0000531F00005D1F0000711F0000B7
:101F4400671F00000C4B1B683A68DA610FE00B4B0B
:101F54001B683A68DA610AE0094B1B683A68DA617F
:101F640005E0084B1B683A68DA6100E000BF07F13E
:101F74000C07BD4680BC7047289600002C960000D4
:101F8400309600003496000080B483B000AF7860CF
:101F9400074B1B68064A1268D2F8C42042F4004278
:101FA400C3F8C42007F10C07BD4680BC704700BFCE
:101FB4003896000080B483B000AF786007F10C0756
:081FC400BD4680BC704700BF60
:101FCC000000000000000000000000000000000005
:101FDC0000000000000000000000000000000000F5
:101FEC0000000000000000000000000000000000E5
:101FFC0000000000000000000000000000000000D5
:10200C0000000000000000000000000000000000C4
:10201C0000000000000000000000000000000000B4
:10202C0000000000000000000000000000000000A4
:10203C000000000000000000000000000000000094
:10204C000000000000000000000000000000000084
:10205C000000000000000000000000000000000074
:10206C000000000000000000000000000000000064
:10207C000000000000000000000000000000000054
:0C208C0000000000000000000000000048
:1020980080B582B000AF4FF000037B604FF00000C6
:1020A800FFF770FF4FF002004FF000014FF0000201
:1020B800FFF74AFD4FF002004FF001014FF0000218
:1020C800FFF742FD4FF002004FF002014FF000020F
:1020D800FFF73AFD4FF002004FF003014FF0000206
:1020E800FFF732FD4FF002004FF00F01FFF71EFE21
:1020F8007B6803F101037B607B68042B02D14FF0FE
:1021080000037B607B684FF0010202FA03F34FF093
:1021180002001946FFF7FEFE7B684FF0010202FA43
:1021280003F36FEA030303F00F034FF002001946AD
:10213800FFF7B8FE014804F025FCD9E720A1070005
:1021480080B5ADF5836D04AF00F08EF84FF0010354
:102158000093264B01934FF00A0302934FF00003BC
:1021680003934FF001004FF0C8014FF000024FF009
:10217800000303F071FE0346A7F804344FF001038F
:10218800C7F80034B7F8042407F580634FF004015A
:1021980000914FF0000101914FF0000102911046AB
:1021A8004FF000014FF0000204F062FF4FF0010011
:1021B8000F4907F069FA4FF00003A7F8063410E05A
:1021C800B7F806243B4633F81230B7F806249A428B
:1021D80001D000BFEFE7B7F8063403F10103A7F811
:1021E8000634B7F80634FF2BEAD9E4E79920000053
:1021F800808D5B0080B500AFFFF7A2FF80BD00BFF8
:1022080080B586B004AF4FF002030093144B0193DE
:102218004FF480630293134B03934FF001004FF088
:10222800C8014FF000024FF0000303F015FE03460B
:10223800FB80FB884FF0000200924FF000020192F1
:102248004FF00002029218464FF000014FF00002D2
:102258004FF0000304F00CFF07F10807BD4680BDEE
:10226800FD2100007C22000080B400AFBD4680BC88
:10227800704700BF6D61696E2066756E6374696F23
:102288006E00000080B48DB000AFF860B9607A606D
:10229800BB68BB624FF0000387F827307B68002BD0
:1022A8001DDA7B68C3F100037B60FB68002B13DA3F
:1022B800FB68C3F10003FB6297F8273007F1300190
:1022C800CB184FF02D0203F81C2C97F8273003F198
:1022D800010387F8273004E0FB68FB6201E0FB6834
:1022E800FB627B68102B40F0A18097F82730FA6AD0
:1022F800D2B202F00F02D2B207F13001CB1803F8C4
:102308001C2CFB6A4FEA1313FB6297F8273007F17E
:102318003002D31813F81C3C092B11D897F8273032
:1023280097F8272007F130018A1812F81C2C02F1BF
:102338003002D2B207F13001CB1803F81C2C22E08E
:1023480097F8273007F13002D31813F81C3C092BF3
:1023580019D997F8273007F13001CB1813F81C3C2E
:102368000F2B10D897F8273097F8272007F130015E
:102378008A1812F81C2C02F15702D2B207F1300168
:10238800CB1803F81C2C97F8273003F1010387F8C2
:102398002730FB6A002BA8D197F8273003F1FF33C9
:1023A80087F827303B7D2D2B0CD1BB6A4FF02D02CF
:1023B8001A70BB6A03F10103BB624FF0010387F88F
:1023C800263003E04FF0000387F8263097F82720DF
:1023D80097F82630D31A87F8253097F8253003F177
:1023E800010387F8253018E097F8273007F1300205
:1023F800D31813F81C2CBB6A1A70BB6A03F10103CB
:10240800BB6297F8273003F1FF3387F8273097F836
:10241800253003F1FF3387F8253097F82530002B56
:10242800E2D1BB6A4FF000021A7073E07B680A2B96
:1024380070D197F82700F96A3A4BA3FB01234FEABA
:10244800D30213464FEA83039B184FEA4303CA1A81
:10245800D3B203F13003DAB207F130010B1803F8F5
:102468001C2C97F8273003F1010387F82730FA6A04
:102478002C4BA3FB02134FEAD303FB62FB6A002B2E
:10248800D7D197F8273003F1FF3387F827303B7D02
:102498002D2B0CD1BB6A4FF02D021A70BB6A03F1C9
:1024A8000103BB624FF0010387F8263003E04FF0C9
:1024B800000387F8263097F8272097F82630D31A94
:1024C80087F8253097F8253003F1010387F8253080
:1024D80018E097F8273007F13002D31813F81C2CAE
:1024E800BB6A1A70BB6A03F10103BB6297F8273015
:1024F80003F1FF3387F8273097F8253003F1FF33CE
:1025080087F8253097F82530002BE2D1BB6A4FF0C9
:1025180000021A70BB68184607F13407BD4680BC34
:10252800704700BFCDCCCCCC80B485B000AF78600C
:102538004FF00003BB607B681B78302B6FD17B6842
:1025480003F101031B78782B05D07B6803F10103A5
:102558001B78582B63D14FF00203FB7303E0FB7B1E
:1025680003F10103FB73FB7B7A68D3181B78302BCC
:10257800F5D04DE0FB7B7A68D3181B782F2B11D947
:10258800FB7B7A68D3181B78392B0BD8BB684FEACA
:102598000312FB7B7968CB181B78D318A3F130039F
:1025A800BB6031E0FB7B7A68D3181B78402B11D9CC
:1025B800FB7B7A68D3181B78462B0BD8BB684FEA8D
:1025C8000312FB7B7968CB181B78D318A3F1370368
:1025D800BB6019E0FB7B7A68D3181B78602B11D994
:1025E800FB7B7A68D3181B78662B0BD8BB684FEA3D
:1025F8000312FB7B7968CB181B78D318A3F1570318
:10260800BB6001E0BB6843E0FB7B03F10103FB73A4
:10261800FB7B7A68D3181B78002BABD137E04FF0DF
:102628000003FB7303E0FB7B03F10103FB73FB7BFC
:102638007A68D3181B78302BF5D022E0FB7B7A68B8
:10264800D3181B782F2B1AD9FB7B7A68D3181B78E1
:10265800392B14D8BA6813464FEA83039B184FEAFC
:1026680043031A46FB7B7968CB181B78D318A3F170
:102678003003BB60FB7B03F10103FB7301E0BB6824
:1026880006E0FB7B7A68D3181B78002BD6D1BB6891
:10269800184607F11407BD4680BC704780B489B05E
:1026A80000AF786039607B681B68FB61FB69002BB1
:1026B80002D14FF0000330E0FB697B61FB691B78B6
:1026C8003B61FB6903F10103FB613B68BB61BB69CB
:1026D8001B78FB60FA683B699A4214BF0023012308
:1026E800DBB2BA6902F10102BA61002B11D03B6971
:1026F800002B03D14FF00003FB6105E0FB6903F1F8
:10270800FF334FF000021A707B68FA691A607B6920
:1027180003E0FB68002BDAD1D0E7184607F124075D
:10272800BD4680BC704700BF80B400AF4FF00003C7
:102738001846BD4680BC704780B483B000AF78604F
:102748004FF00003184607F10C07BD4680BC7047E0
:1027580080B483B000AF786039604FF0000318464A
:1027680007F10C07BD4680BC704700BF80B483B03A
:1027780000AF0346FB7107F10C07BD4680BC7047EC
:102788000FB480B400AF4FF000031846BD4680BCBC
:1027980004B0704780B483B000AF78600F4B104A24
:1027A8005A610E4B4FF00002DA600C4B0B4A1A606C
:1027B8000A4B0A4A5A60094B4FF000029A60074BCD
:1027C8004FF018021A61074B044A1A604FF00103D0
:1027D800184607F10C07BD4680BC70474C01001035
:1027E800C03700006401001080B582B000AF786087
:1027F80007484FF001014FF00102064B01F086FB3C
:102808004FF00103184607F10807BD4680BD00BF19
:1028180068010010D037000080B487B000AFF860BE
:10282800B9607A60FB68002B02D14FF0000330E0FA
:102838001B4B1A68FB689A60FB684FF00002DA606D
:10284800FB68BA681A61FB687A685A61144B1B689E
:10285800DB68002B0AD1124B1B68FA68DA60FB6848
:10286800FA681A60FB68FA685A6011E00C4B1B683A
:10287800DB687B61FB687A691A607B695A68FB6868
:102888005A607B695B68FA681A607B69FA685A6003
:10289800FB68184607F11C07BD4680BC704700BF9F
:1028A8006401001080B483B000AF78607B684FF09B
:1028B8000002DA607B684FF000029A607B684FF094
:1028C80000021A607B684FF000025A6007F10C079B
:1028D800BD4680BC704700BF80B586B000AFF860C9
:1028E800B9607A60FB68002B02D14FF000032EE03C
:1028F800194B1A68FB689A60FB684FF00002DA60AF
:10290800FB68BA681A61FB687A685A6113484FF025
:10291800FF3101F08DFB0346002B02D14FF000037D
:1029280015E00D4B1B68DB687B61FB687A691A60F0
:102938007B695A68FB685A607B695B68FA681A6049
:102948007B69FA685A60054801F002FBFB68184683
:1029580007F11807BD4680BD64010010680100102A
:1029680080B584B000AFF860B9607A603B60FB68FE
:10297800002B02D0BB68002B02D14FF000032AE0E5
:1029880017484FF0FF3101F053FB0346002B02D1EB
:102998004FF000031FE0BB68FA681A60FB685A68CA
:1029A800BB685A60FB689A68BB689A60BB684FF05E
:1029B8000002DA60BB687A681A61BB683A685A61D3
:1029C800FB685B68BA681A60FB68BA685A600448B2
:1029D80001F0BEFABB68184607F11007BD4680BD76
:1029E8006801001080B584B000AFF860B9607A6003
:1029F8003B60FB68002B02D0BB68002B02D14FF074
:102A080000032AE017484FF0FF3101F011FB03469D
:102A1800002B02D14FF000031FE0BB68FA685A6030
:102A2800FB681A68BB681A60FB689A68BB689A609A
:102A3800BB684FF00002DA60BB687A681A61BB684D
:102A48003A685A61FB681B68BA685A60FB68BA68DA
:102A58001A60044801F07CFABB68184607F11007B1
:102A6800BD4680BD6801001080B586B000AFF86033
:102A7800B9607A603B60FB68002B02D0BB68002B12
:102A880002D14FF000033DE021484FF0FF3101F043
:102A9800CFFA0346002B02D14FF0000332E0BB68A7
:102AA8007A681A61BB683A685A61BB684FF00002DD
:102AB800DA60FB68DB68002B0CD1FB68BA68DA6067
:102AC800BB68FA689A60BB68BA681A60BB68BA687B
:102AD8005A6013E0FB68DB687B61BB687A691A603F
:102AE8007B695A68BB685A60BB68FA689A607B69F8
:102AF8005B68BA681A607B69BA685A60044801F072
:102B080027FABB68184607F11807BD4680BD00BF05
:102B18006801001080B586B000AFF860B9607A60CF
:102B28003B60FB68002B02D0BB68002B02D14FF042
:102B3800000342E023484FF0FF3101F079FA0346E1
:102B4800002B02D14FF0000337E0BB687A681A61A6
:102B5800BB683A685A61BB684FF00002DA60FB68EC
:102B6800DB68002B0CD1FB68BA68DA60BB68FA68CE
:102B78009A60BB68BA681A60BB68BA685A6018E09D
:102B8800FB68DB687B61BB687A691A607B695A6895
:102B9800BB685A60BB68FA689A607B695B68BA6808
:102BA8001A607B69BA685A60FB68DB685A68FB6818
:102BB800DA60044801F0CCF9BB68184607F1180739
:102BC800BD4680BD6801001080B584B000AF786054
:102BD800396024484FF0FF3101F02AFA0346002BF0
:102BE80002D14FF0000337E07B68DB68BB60BB684D
:102BF800002B0BD0BB68FB60FB683A689A60FB68E7
:102C08001B68FB60FA68BB689A42F5D13B68BA68F2
:102C1800DA607B681A683B681A607B685A683B68A8
:102C28005A607B689A683B689A607B681B683A6858
:102C38005A607B685B683A681A607B689B68DA68E8
:102C48007B689A4203D17B689B683A68DA600548DA
:102C580001F07EF94FF00103184607F11007BD4651
:102C680080BD00BF6801001080B584B000AF7860F7
:102C78007B68002B02D14FF0000330E01A484FF078
:102C8800FF3101F0D5F90346002B02D14FF00003C4
:102C980025E07B681A687B689A4205D17B689B6847
:102CA8004FF00002DA6014E07B689B68DA687B68A2
:102CB8009A4204D17B689B687A681268DA607B68FC
:102CC8005B687A6812681A607B681B687A68526861
:102CD8005A607B68FB60044801F03AF9FB681846C3
:102CE80007F11007BD4680BD6801001080B584B0AB
:102CF80000AF78607B68002B02D14FF0000338E00A
:102D08001E484FF0FF3101F093F90346002B02D122
:102D18004FF000032DE07B68DB68002B03D04FF0F9
:102D28000003FB6021E07B681A687B689A4205D142
:102D38007B689B684FF00002DA6014E07B689B6850
:102D4800DA687B689A4204D17B689B687A68126863
:102D5800DA607B685B687A6812681A607B681B684F
:102D68007A6852685A607B68FB60044801F0F0F8A2
:102D7800FB68184607F11007BD4680BD68010010C2
:102D880080B483B000AF786039604FF00103184613
:102D980007F10C07BD4680BC704700BF80B584B002
:102DA80000AF78607B68002B02D14FF0000338E059
:102DB8001E484FF0FF3101F03BF90346002B02D1CA
:102DC8004FF000032DE07B689B68002B24D07B68C4
:102DD8009B68DB68FB60FA687B689A4204D17B6871
:102DE8009B687A681268DA607B681B687A68526840
:102DF8005A607B685B687A6812681A607B68FA6850
:102E08001A60FB685A687B685A60FB685B687A6876
:102E18001A60FB687A685A60044801F099F84FF024
:102E28000103184607F11007BD4680BD6801001070
:102E380080B582B000AF78607B68002B02D14FF07C
:102E480000031AE00F484FF0FF3101F0F1F8034694
:102E5800002B02D14FF000030FE07B689B68002B2A
:102E680006D07868FFF79AFF7B689B687A68DA6013
:102E7800044801F06DF84FF00003184607F1080701
:102E8800BD4680BD6801001080B582B000AF786093
:102E980039607B68002B02D03B68002B02D14FF0D1
:102EA800000327E016484FF0FF3101F0C1F8034650
:102EB800002B02D14FF000031CE03B681B683A6806
:102EC80052685A603B685B683A6812681A603B68E7
:102ED8007A685A607B681A683B681A607B681B6866
:102EE8003A685A607B683A681A60054801F030F819
:102EF8004FF00003184607F10807BD4680BD00BF24
:102F08006801001080B582B000AF786039607B68D6
:102F1800002B02D03B68002B02D14FF0000327E0C2
:102F280016484FF0FF3101F083F80346002B02D119
:102F38004FF000031CE03B681B683A6852685A600F
:102F48003B685B683A6812681A603B687A681A607E
:102F58007B685A683B685A607B685B683A681A60A5
:102F68007B683A685A60054800F0F2FF4FF00003AA
:102F7800184607F10807BD4680BD00BF680100106C
:102F880080B582B000AF78607B68002B02D14FF02B
:102F9800000318E00E484FF0FF3101F049F80346EE
:102FA800002B02D14FF000030DE07B68DB68002B9B
:102FB80004D07B68DB685A687B68DA60044800F0F4
:102FC800C7FF4FF00003184607F10807BD4680BD4C
:102FD8006801001080B582B000AF78607B68002B74
:102FE80002D14FF0000318E00E484FF0FF3101F016
:102FF8001FF80346002B02D14FF000030DE07B6859
:10300800DB68002B04D07B68DB681A687B68DA60B1
:10301800044800F09DFF4FF00003184607F1080729
:10302800BD4680BD6801001080B483B000AF7860F1
:1030380039607B68002B02D03B68002B02D14FF02F
:10304800000304E07B683A685A614FF000031846B1
:1030580007F10C07BD4680BC704700BF80B584B03F
:1030680000AF78607B68FB60FB68002B02D14FF0F3
:10307800000319E00F484FF0FF3100F0D9FF034675
:10308800002B06D14FF000030EE0FB689B68FB6045
:1030980000E000BFFB689A68074B1B689A42F4D1AE
:1030A800044800F055FFFB68184607F11007BD46B5
:1030B80080BD00BF680100106401001080B400AF3B
:1030C800024B1B681846BD4680BC7047640100105F
:1030D80080B584B000AF78604FF00003BB607B68B8
:1030E800002B02D14FF0000327E0164B1B68DB686A
:1030F800FB6015484FF0FF3100F09AFF0346002BA4
:1031080002D14FF0000318E0FB685B691846796844
:1031180007F088FC0346002B02D1FB68BB6008E07F
:10312800FB681B68FB60074B1B68DA68FB689A4200
:10313800EAD1054800F00CFFBB68184607F11007F4
:10314800BD4680BD640100106801001080B584B0E0
:1031580000AF78607B68002B02D14FF0000311E0CC
:103168000B484FF0FF3100F063FF0346002B02D1FC
:103178004FF0000306E07B689B68FB60044800F0A2
:10318800E7FEFB68184607F11007BD4680BD00BF83
:103198006801001080B584B000AF78607B68002BB0
:1031A80002D14FF0000311E00B484FF0FF3100F05F
:1031B8003FFF0346002B02D14FF0000306E07B6877
:1031C800DB68FB60044800F0C3FEFB68184607F1A3
:1031D8001007BD4680BD00BF6801001080B584B0EF
:1031E80000AF78607B68002B02D14FF0000311E03C
:1031F8000B484FF0FF3100F01BFF0346002B02D1B4
:103208004FF0000306E07B685B68FB60044800F051
:103218009FFEFB68184607F11007BD4680BD00BF3A
:103228006801001080B584B000AF78607B68002B1F
:1032380002D14FF0000311E00B484FF0FF3100F0CE
:10324800F7FE0346002B02D14FF0000306E07B682F
:103258001B68FB60044800F07BFEFB68184607F11A
:103268001007BD4680BD00BF6801001080B584B05E
:1032780000AF78607B68002B02D14FF0000312E0AA
:103288000B484FF0FF3100F0D3FE0346002B02D16C
:103298004FF0000307E07B689B68DB68FB6004482D
:1032A80000F056FEFB68184607F11007BD4680BDC2
:1032B8006801001080B584B000AF78604FF000035B
:1032C800FB607B68002B02D14FF0000322E014481A
:1032D8004FF0FF3100F0ACFE0346002B02D14FF057
:1032E800000317E07B68BB6002E0BB68DB68BB607B
:1032F800BB68DB68002BF8D1BA687B689A4203D1B7
:103308004FF00003FB6001E0BB68FB60044800F07D
:103318001FFEFB68184607F11007BD4680BD00BFB9
:103328006801001080B584B000AF78604FF00003EA
:10333800FB607B68BB60BB68002B02D14FF0FF339A
:103348001DE011484FF0FF3100F072FE0346002BDC
:103358000AD14FF0FF3312E0BB689B68BB60FB6883
:1033680003F10103FB6000E000BFBB689A68074BEC
:103378001B689A42F0D1044800F0EAFDFB68184641
:1033880007F11007BD4680BD6801001064010010F8
:1033980080B483B000AF786039607B683A685A615E
:1033A80007F10C07BD4680BC704700BF80B586B0EA
:1033B80000AF786039604FF000037B614FF0000385
:1033C800FB737B68002B02D03B68002B02D14FF0C7
:1033D800000338E01E484FF0FF3100F029FE034695
:1033E800002B02D14FF000032DE03A687B689A4227
:1033F80003D17B68DB68002B21D03B683B61FB7BFA
:10340800002B07D13B69DB68002B03D03B69DB68E5
:103418007B6114E03B691A683B699B68DB689A42E8
:1034280003D03B691B687B6109E03B699B683B6192
:103438004FF00103FB733A697B689A42DFD1044875
:1034480000F086FD7B69184607F11807BD4680BD68
:103458006801001080B584B000AF786039604FF023
:103468000003BB607B68002B02D03B68002B02D1B5
:103478004FF0000323E07B68FB6013484FF0FF31F7
:1034880000F0D6FD0346002B02D14FF0000316E0F2
:10349800FB685B691846396807F0C4FA0346002BD5
:1034A80002D1FB68BB6006E0FB681B68FB60FA683A
:1034B8007B689A42ECD1044800F04AFDBB68184684
:1034C80007F11007BD4680BD6801001080B584B0C3
:1034D80000AF786039604FF00003BB603B68002B99
:1034E80002D07B68002B02D14FF000032CE0194872
:1034F8004FF0FF3100F09CFD0346002B02D14FF046
:10350800000321E07B68DB68FB60FB68002B03D1CC
:103518004FF00003BB6013E0FB685B69184639682D
:1035280007F080FA0346002B02D1FB68BB6007E076
:10353800FB681B68FB607B68DA68FB689A42EBD122
:10354800044800F005FDBB68184607F11007BD46A2
:1035580080BD00BF6801001080B586B000AF7860FC
:1035680039604FF000033B617B68002B02D03B6859
:10357800002B02D14FF0000319E07B687B610DE05E
:10358800FB685B691846396807F04CFA0346002B5C
:1035980002D1FB683B6109E0FB687B617868796967
:1035A800FFF704FFF860FB68002BE9D13B69184678
:1035B80007F11807BD4680BD80B588B000AF7860B8
:1035C80039604FF00003FB603B68002B02D07B683A
:1035D800002B02D14FF000037EE042484FF0FF314C
:1035E80000F026FD0346002B02D14FF0000373E0E4
:1035F8007B68DB683B613B69002B05D1394800F0EB
:10360800A7FC4FF0000367E03B68FB6102E000BFE6
:1036180000E000BF3B695B69BB604FF00003FB76CD
:103628004FF000037B6132E0FA697B69D3181B789D
:10363800002B0DD0FA697B69D3181B785C2B0AD153
:103648007B6903F10103FA69D3181B78002B02D1B7
:103658003B69FB601EE0FA697B69D3181B785C2B19
:1036680003D14FF00103FB7614E0FA697B69D318A4
:103678001A78B9687B69CB181B789A4203D04FF047
:103688000003FB7606E07B6903F101037B617B693C
:10369800FE2BC9D9FB68002B19D1FB7E012B09D061
:1036A8003B691B683B613B699B68DA683B699A42E6
:1036B800ADD10DE07B6903F10103FA69D318FB6111
:1036C8003B69DB683B613B69002BA2D100E000BF8E
:1036D800044800F03DFCFB68184607F12007BD468A
:1036E80080BD00BF6801001080B483B000AF78606F
:1036F8000C4B1B687A689A4202D14FF001030AE02A
:103708007B689B68DA687B689A4202D14FF00103B4
:1037180001E04FF00003184607F10C07BD4680BCD6
:10372800704700BF6401001080B483B000AF7860B8
:103738000C4B1B687A689A4202D14FF001030BE0E8
:103748007B681A687B689B68DB689A4202D14FF0F5
:10375800010301E04FF00003184607F10C07BD46CE
:1037680080BC70476401001080B485B000AF7860F9
:10377800104B1B687A689A4202D14FF0000313E09D
:103788004FF00003FB607B689B68DB68BB6006E06A
:10379800FB6803F10103FB60BB681B68BB60BA6888
:1037A8007B689A42F4D1FB68184607F11407BD46B6
:1037B80080BC7047640100107265736F7563652083
:1037C800717565756500000073656D6170686F726D
:1037D8006520666F72207265736F756365207175F9
:1037E8006575650080B582B000AF7860134B4FF007
:1037F8006002DA64114B124A9A61104B4FF00002D2
:10380800DA61104B1A460D4B9A640F4B0B4A1A603B
:103818000A484FF060010D4AFFF75EF80C484FF078
:1038280005014FF00502094B00F070FB4FF0010352
:10383800184607F10807BD4680BD00BF7403001095
:10384800900100107003001070030010D83C0000B5
:103858009403001080B586B000AFF860B9607A6054
:103868003B60FB68002B05D1BB68002B02D04FF0F2
:10387800000352E07B68072B02D84FF000034CE0AE
:103888007B6803F00303002B04D1FB6803F00303F8
:10389800002B02D04FF000033FE0224B1B68184674
:1038A8004FF0000100F0E8F803467B617B69002BCC
:1038B80002D14FF0000330E07B69FA689A617B69B6
:1038C8004FF00002DA61BB687A6802FB03F2FB681A
:1038D800D2187B699A647B697A68DA647B693A688A
:1038E8001A657B693A6A5A657B694FF00002DA65A6
:1038F8000C4B1B681A467B69104619464FF060024C
:103908007B6AFFF7B1F87B6903F120031846B968B1
:10391800BA687B6A00F0FAFA7B69184607F118075B
:10392800BD4680BD7003001080B584B000AFF8605C
:10393800B9607A603B60FB68BA689A61FB684FF0CF
:103948000002DA617B683A6802FB03F2BB68D218AE
:10395800FB689A64FB683A68DA64FB68BA691A65B6
:10396800FB68FA695A65FB684FF00002DA650D4B8F
:103978001B681A46FB68104619464FF060023B6AFE
:10398800FFF772F8FB6803F12003184679687A6834
:103998003B6A00F0BBFAFB68184607F11007BD4602
:1039A80080BD00BF7003001080B584B000AF7860A0
:1039B8007B6803F12003184600F03AFC0346002B0D
:1039C80002D14FF0000320E07B68DB6DFB6007E06D
:1039D800FB681B68BB60F86800F0F0F9BB68FB6027
:1039E800FB68002BF4D17B681846FFF77FF9034684
:1039F800002B02D14FF0000307E0064B1B68184666
:103A0800796800F0FDF84FF00103184607F1100738
:103A1800BD4680BD7003001080B584B000AF7860EB
:103A28007B6803F12003184600F002FC0346002BD4
:103A380002D14FF000031AE07B68DB6DFB6007E002
:103A4800FB681B68BB60F86800F0B8F9BB68FB60EE
:103A5800FB68002BF4D17B681846FFF747F903464B
:103A6800002B02D14FF0000301E04FF0010318468C
:103A780007F11007BD4680BD80B58CB000AF7860F7
:103A880039607B68002B02D14FF00003B3E07B68FC
:103A980003F1200318464FF0000100F0C9FA03466D
:103AA800002B76D1FDF76EFA7B6803F120031846E8
:103AB80000F00EFC02467B685B6D9A425AD27B6826
:103AC8001B6D7A68D26C02FB03F303F108031846F6
:103AD80000F030F9B862BB6A002B4BD0B86A00F02E
:103AE80079F90346A3F108037B627B68DB6C7A6A89
:103AF800B2FBF3F33B627B6803F12003184600F046
:103B0800E7FBF8617B6803F12003184600F0F4FB3B
:103B1800B861FA693B6AD3187B617B6803F12003BB
:103B28005B693B617B6803F12003184600F080FB6A
:103B38007B6803F12002B9693B6ACB1810467969A2
:103B48001A463B6900F0E2F9BB6A03F108031A461A
:103B58007B689A617B68DB6C3A6A02FB03F2BB6A9A
:103B6800D2187B689A64BB6A7A68D26D1A607B68DF
:103B7800BA6ADA65FDF732FA7B6803F12003184662
:103B8800396800F055FA0346002B02D14FF00003C4
:103B980031E0FDF7B7FFF8607B68DB69002B1CD0CC
:103BA8007B68DB69FB62FB6A5A68FB6A9A4204D14C
:103BB8007B684FF00002DA6119E07B68DB695A68BC
:103BC8007B68DA617B68DB69FA6A12681A60FB6AEB
:103BD8001B687A68D2695A6009E07B689A6C7B68CE
:103BE800DB6CD21A7B689A647B689B6CFB62F86812
:103BF800FDF790FFFB6A184607F13007BD4680BD08
:103C080080B584B000AF786039607B68002B2ED017
:103C1800FDF778FFF8607B68DB69002B0BD13A6809
:103C28007B68DA617B68DB693A685A607B68DB69C4
:103C38003A681A6011E03B687A68D2695A603B6852
:103C48007A68D26912681A607B68DB691B683A680F
:103C58005A607B68DB693A681A60F868FDF75AFFB2
:103C68007B6803F12003184600F072F900E000BFFA
:103C780007F11007BD4680BD80B582B000AF7860FF
:103C88007B68002B02D14FF0000306E07B6803F14C
:103C98002003184600F030FB0346184607F10807D2
:103CA800BD4680BD80B582B000AF78607B68002BD0
:103CB80002D14FF0000306E07B6803F120031846A9
:103CC80000F006FB0346184607F10807BD4680BD0D
:103CD800B9CCB6A8BFE9B7D6C5E4B3D80000000090
:103CE80080B483B000AF78600F4B4FF000021A73B6
:103CF8000E4B1B6803F1070323F007031A460A4B10
:103D08001A60094B1A68084B5A60094B1B6823F064
:103D180007031A46044B9A604FF00103184607F14F
:103D28000C07BD4680BC7047F8030010D4AD0000F6
:103D3800D8AD000080B485B000AF78601E4B5B68DA
:103D4800FB601D4B5B6803F10B0323F007031A4666
:103D5800194B5A60184B9B681A46174B5B68D31A65
:103D68001A467B689A4205D2134BFA685A604FF09C
:103D780000031AE0104B5B68A3F10403FB60FB68C7
:103D88007A681A600C4B5B68FB600B4B5A687B685F
:103D9800D218094B5A60084B5B6803F1070323F0FC
:103DA80007031A46044B5A60FB68184607F11407C4
:103DB800BD4680BC704700BFF803001080B483B0D4
:103DC80000AF78604FF00103184607F10C07BD46B5
:103DD80080BC704780B483B000AF78607B68A3F183
:103DE80004031B68184607F10C07BD4680BC7047E2
:103DF80080B582B000AF78600D484FF028010D4AB9
:103E0800FEF70AFD03461A460B4B1A600B484FF0A3
:103E180028010B4AFEF700FD03461A46094B1A60B3
:103E28004FF00103184607F10807BD4680BD00BFE3
:103E380038050010F0470000080400106005001065
:103E4800FC4700000C04001080B586B004AF786011
:103E58004FF0000300934FF000030193094B0293C6
:103E680009480A494FF005024FF02803FFF75CFDA7
:103E78000246074B1A604FF00103184607F108077E
:103E8800BD4680BD04480000D8040010100400108E
:103E98008405001080B586B000AFF860B9607A601C
:103EA800BA68FB689A4202D94FF0000324E0154B28
:103EB8001B6818464FF00001FFF7DEFD03467B61E3
:103EC8007B69002B02D14FF0000315E07B69FA688B
:103ED800DA617B69BA681A627B694FF000025A623C
:103EE800094B1B681A467B69104619464FF0280291
:103EF8007B68FEF7B9FD7B69184607F11807BD46D0
:103F080080BD00BF840500100804001080B584B08F
:103F180000AFF860B9607A603B60FB68BA68DA6144
:103F2800FB687A681A62FB684FF000025A62074B16
:103F38001B681A46FB68104619464FF028023B6872
:103F4800FEF792FD07F11007BD4680BD080400107A
:103F580080B584B000AF78607B68002B63D0FDF734
:103F680011F87B685B6A002B1DD17B68DB69B3F1B4
:103F7800FF3F0BD17B681B6AB3F1FF3F50D07B68D2
:103F88001B6A03F101027B681A6249E07B681A6ABE
:103F98007B68DB699A4243D27B681B6A03F10102A2
:103FA8007B681A623CE07B685B6AFB60FB684FF0E9
:103FB80000025A62FB689A68FB689A4204D17B68DF
:103FC8004FF000025A6215E0FB689A687B685A62F3
:103FD800FB689B68FA68D268DA60FB68DB68FA6895
:103FE80092689A60FB684FF000029A60FB684FF095
:103FF8000002DA60FB68DA8FFB689A87FB6893F83F
:104008003E3003F00203DBB2002B02D0F86802F066
:10401800C1FBFB684FF00002DA87F86802F05AFB30
:10402800FCF7DCFF00E000BF07F11007BD4680BDCC
:1040380080B586B000AF786039607B68002B02D10C
:104048004FF00103EDE0FDF75DFDF8607B68DB698B
:10405800B3F1FF3F0DD17B681B6A002B05D07B684D
:104068001B6A03F1FF327B681A624FF00103FB748D
:1040780010E07B681B6A002B09D04FF00103FB742A
:104088007B681B6A03F1FF327B681A6202E04FF01B
:104098000003FB74F868FDF73DFDFB7C012B02D1A2
:1040A8004FF00103BDE002F00BFB0346002B02D0EA
:1040B8003B68002B02D14FF00003B2E0FCF762FF2F
:1040C8005A4B1B68184601F06DFD584B1B684FF0A2
:1040D80000025A60554B1B684FF000021A60534BA0
:1040E8001B687A6802F124025A627B685B6A002BBB
:1040F8000ED14E4B1B684D4A12689A604B4B1B6899
:104108004A4A1268DA60494B1A687B685A624DE07D
:104118007B685B6A7B617B681B7E002B34D17B6983
:1041280093F84020414B1B6893F840309A4208D8D6
:104138007B699B687B617B685A6A7B699A42EED18E
:1041480000E000BF394B1B687A699A60374B1B68DF
:104158007A69D268DA607B69DB68344A12689A60E7
:10416800324B1A687B69DA607B685B6A93F8402097
:104178002E4B1B6893F840309A4217D97B685B6ACC
:10418800DA687B685A6211E0284B1B687A699A6082
:10419800264B1B687A69D268DA607B69DB68234A38
:1041A80012689A60214B1A687B69DA601F4B1B689A
:1041B8001E4A1268D28F9A871C4B1A6892F83E30B2
:1041C80043F0800382F83E303B68B3F1FF3F0AD0EA
:1041D800164B1A6892F83E3043F0020382F83E30DC
:1041E800386802F00FFBFCF7F9FEFCF7CBFE0F4B2B
:1041F8001B6893F83E3023F07F03DBB2002B0CD012
:104208000A4B1A6892F83E306FF3C71382F83E30B3
:10421800FCF7E4FE4FF0000303E0FCF7DFFE4FF08D
:104228000103184607F11807BD4680BDCC070010EA
:1042380080B584B000AF78607B68002B02D14FF066
:10424800000313E0FCF79EFE7B685B6A002B07D136
:104258007B681846FEF74AFD4FF00103FB7302E046
:104268004FF00003FB73FCF7B9FEFB7B184607F120
:104278001007BD4680BD00BF80B584B000AF786030
:104288007B68002B02D14FF0000319E0FCF77AFE9F
:104298007B685B6A002B0DD17B681846FEF726FD0C
:1042A8000A4B1B6818467968FFF7AAFC4FF0010310
:1042B800FB7302E04FF00003FB73FCF78FFEFB7B00
:1042C800184607F11007BD4680BD00BF84050010E1
:1042D80080B485B000AF78607B68002B02D14FF0C6
:1042E800000303E07B68DB69FB60FB68184607F1A5
:1042F8001407BD4680BC704780B485B000AF7860B5
:104308007B68002B02D14FF0000303E07B681B6A37
:10431800FB60FB68184607F11407BD4680BC704770
:1043280080B483B000AF78600B46FB707B68002BCD
:1043380003D07B68FA781A7600E000BF07F10C0713
:10434800BD4680BC704700BF80B584B000AF7860C0
:10435800174B1B6818464FF00001FFF78DFB03460B
:10436800FB60FB68002B02D14FF000031BE0FB68E9
:104378004FF001021A76FB684FF000021A62FB68E0
:104388004FF0FF025A76FB684FF00002DA61094BE2
:104398001B681A46FB68104619464FF024027B68D2
:1043A800FEF762FBFB68184607F11007BD4680BDA3
:1043B800840500100C04001080B582B000AF78604E
:1043C80039607B684FF001021A767B684FF0000273
:1043D8001A627B684FF0FF025A767B684FF0000242
:1043E800DA61074B1B681A467B68104619464FF07E
:1043F80024023B68FEF738FB07F10807BD4680BD7D
:104408000C04001080B584B000AF78607B68002B86
:1044180078D07B68DA693F4B1B689A4274D1FCF705
:10442800B1FD7B681B6A002B08D17B684FF0000246
:10443800DA617B684FF001021A7660E07B681B6ADC
:10444800FB60FB684FF000025A627B68FA68DA6129
:10445800FB689A68FB689A4204D17B684FF00002B7
:104468001A6215E0FB689A687B681A62FB689B68A9
:10447800FA68D268DA60FB68DB68FA6892689A6062
:10448800FB684FF000029A60FB684FF00002DA60A8
:10449800FB68DA8FFB689A87FB6893F83E3003F075
:1044A8000203DBB2002B02D0F86802F073F9FB6854
:1044B8004FF00002DA87F86802F00CF97B685B7E3F
:1044C800FF2B1CD0134B1B6893F84020FB6893F814
:1044D80040309A420FD10F4B1B68184601F062FB1F
:1044E8000C4B1B687A68527E83F84020094B1B6886
:1044F800184602F0EFF87B684FF0FF025A76FCF797
:104508006DFD02E000BF00E000BF07F11007BD46E7
:1045180080BD00BFCC07001080B586B000AF7860C2
:1045280039607B68002B02D14FF00103F8E07B680B
:10453800DA697E4B1B689A4202D14FF00103EFE023
:10454800FDF7E0FAF8607B681B7E012B0FD14FF076
:104558000103FB747B684FF000021A767B684FF00A
:10456800FF025A76714B1A687B68DA6102E04FF0F5
:104578000003FB74F868FDF7CDFAFB7C012B02D130
:104588004FF00103CCE002F09BF80346002B02D069
:104598003B68002B02D14FF00003C1E0FCF7F2FCAE
:1045A800624B1B68184601F0FDFA604B1B684FF020
:1045B80000025A605D4B1B684FF000021A605B4BAB
:1045C8001B687A6802F120025A627B681B6A002B1A
:1045D8000ED1564B1B68554A12689A60534B1B689C
:1045E800524A1268DA60514B1A687B681A6236E0E0
:1045F8007B681B6A7B617B6993F840204B4B1B6887
:1046080093F840309A4208D87B699B687B617B6845
:104618001A6A7B699A42EED100E000BF434B1B68DF
:104628007A699A60414B1B687A69D268DA607B695B
:10463800DB683E4A12689A603C4B1A687B69DA600C
:104648007B681B6A93F84020384B1B6893F840300E
:104658009A4204D97B681B6ADA687B681A62334B12
:104668001B68324A1268D28F9A87304B1A6892F8C0
:104678003F3043F0010382F83F303B68B3F1FF3F1E
:104688000AD02A4B1A6892F83E3043F0020382F8A7
:104698003E30386802F0B6F87B68DB697B617B697D
:1046A80093F84020214B1B6893F840309A4219D95F
:1046B8007B69DB8F002B15D1786901F073FA7B6871
:1046C8005B7EFF2B04D17B6993F840207B685A7688
:1046D800164B1B6893F840207B6983F84020786963
:1046E80001F0F8FFFCF77AFCFCF74CFC0F4B1B6859
:1046F80093F83F3003F00103DBB2002B0CD00B4BD7
:104708001A6892F83F306FF3000382F83F30FCF7E5
:1047180065FC4FF0000303E0FCF760FC4FF0010379
:10472800184607F11807BD4680BD00BFCC0700102A
:1047380080B584B000AF78607B68002B02D14FF061
:10474800000313E0FCF71EFC7B681B6A002B07D1F3
:104758007B681846FEF7CAFA4FF00103FB7302E0C4
:104768004FF00003FB73FCF739FCFB7B184607F19D
:104778001007BD4680BD00BF80B584B000AF78602B
:104788007B68002B02D14FF0000319E0FCF7FAFB1D
:104798007B681B6A002B0DD07B681846FEF7A6FACB
:1047A8000A4B1B6818467968FFF72AFA4FF001038D
:1047B800FB7302E04FF00003FB73FCF70FFCFB7B7D
:1047C800184607F11007BD4680BD00BF84050010DC
:1047D80080B483B000AF78607B681B7E184607F111
:1047E8000C07BD4680BC704773656D6170686F7259
:1047F800650000006D75746578000000CBF8BFD8BF
:10480800D6C6BFE9B3D800000000000000000000D1
:10481800000000000000000000007E81A58181BD2D
:104828009981817E0000000000007EFFDBFFFFC34E
:10483800E7FFFF7E00000000000000006CFEFEFEA7
:10484800FE7C3810000000000000000010387CFEDC
:104858007C38100000000000000000183C3CE7E72E
:10486800E718183C00000000000000183C7EFFFF1D
:104878007E18183C00000000000000000000183CF2
:104888003C18000000000000FFFFFFFFFFFFE7C328
:10489800C3E7FFFFFFFFFFFF00000000003C664288
:1048A80042663C0000000000FFFFFFFFFFC399BD08
:1048B800BD99C3FFFFFFFFFF00001E0E1A3278CC20
:1048C800CCCCCC780000000000003C666666663CF4
:1048D800187E18180000000000003F333F303030C9
:1048E8003070F0E00000000000007F637F636363C6
:1048F8006367E7E6C00000000000001818DB3CE72B
:104908003CDB1818000000000080C0E0F0F8FEF85A
:10491800F0E0C080000000000002060E1E3EFE3ED1
:104928001E0E0602000000000000183C7E18181831
:104938007E3C180000000000000066666666666639
:10494800660066660000000000007FDBDBDB7B1B87
:104958001B1B1B1B00000000007CC660386CC6C611
:104968006C380CC67C00000000000000000000004D
:10497800FEFEFEFE000000000000183C7E1818181D
:104988007E3C187E000000000000183C7E181818B5
:10499800181818180000000000001818181818181F
:1049A800187E3C18000000000000000000180CFEF3
:1049B8000C1800000000000000000000003060FE3D
:1049C8006030000000000000000000000000C0C0CF
:1049D800C0FE0000000000000000000000286CFE7F
:1049E8006C28000000000000000000001038387C2F
:1049F8007CFEFE000000000000000000FEFE7C7C43
:104A0800383810000000000000000000000000001E
:104A180000000000000000000000183C3C3C181892
:104A280018001818000000000066666624000000E0
:104A380000000000000000000000006C6CFE6C6CC0
:104A48006CFE6C6C0000000018187CC6C2C07C06A6
:104A58000686C67C1818000000000000C2C60C18A4
:104A68003060C686000000000000386C6C3876DCC8
:104A7800CCCCCC7600000000003030306000000064
:104A8800000000000000000000000C18303030303A
:104A98003030180C00000000000030180C0C0C0C12
:104AA8000C0C1830000000000000000000663CFFFD
:104AB8003C66000000000000000000000018187E9E
:104AC80018180000000000000000000000000000AE
:104AD800001818183000000000000000000000FE58
:104AE80000000000000000000000000000000000BE
:104AF80000001818000000000000000002060C1852
:104B08003060C080000000000000386CC6C6D6D6F1
:104B1800C6C66C380000000000001838781818184D
:104B28001818187E0000000000007CC6060C18301B
:104B380060C0C6FE0000000000007CC606063C06F9
:104B48000606C67C0000000000000C1C3C6CCCFE75
:104B58000C0C0C1E000000000000FEC0C0C0FC06CB
:104B68000606C67C0000000000003860C0C0FCC615
:104B7800C6C6C67C000000000000FEC606060C186B
:104B8800303030300000000000007CC6C6C67CC64D
:104B9800C6C6C67C0000000000007CC6C6C67E06ED
:104BA80006060C780000000000000000181800003D
:104BB800001818000000000000000000181800008D
:104BC8000018183000000000000000060C183060C3
:104BD80030180C060000000000000000007E0000F5
:104BE8007E000000000000000000006030180C0685
:104BF8000C1830600000000000007CC6C60C1818B5
:104C080018001818000000000000007CC6C6DEDE90
:104C1800DEDCC07C00000000000010386CC6C6FE58
:104C2800C6C6C6C6000000000000FC6666667C6654
:104C3800666666FC0000000000003C66C2C0C0C09A
:104C4800C0C2663C000000000000F86C666666663C
:104C580066666CF8000000000000FE66626878680E
:104C6800606266FE000000000000FE666268786808
:104C7800606060F00000000000003C66C2C0C0DE5A
:104C8800C6C6663A000000000000C6C6C6C6FEC614
:104C9800C6C6C6C60000000000003C181818181840
:104CA8001818183C0000000000001E0C0C0C0C0C1E
:104CB800CCCCCC78000000000000E666666C787802
:104CC8006C6666E6000000000000F06060606060EE
:104CD800606266FE000000000000C6EEFEFED6C65A
:104CE800C6C6C6C6000000000000C6E6F6FEDECE58
:104CF800C6C6C6C60000000000007CC6C6C6C6C63A
:104D0800C6C6C67C000000000000FC6666667C60C3
:104D1800606060F00000000000007CC6C6C6C6C621
:104D2800C6D6DE7C0C0E00000000FC6666667C6C55
:104D3800666666E60000000000007CC6C660380CA7
:104D480006C6C67C0000000000007E7E5A181818AF
:104D58001818183C000000000000C6C6C6C6C6C623
:104D6800C6C6C67C000000000000C6C6C6C6C6C6C9
:104D7800C66C3810000000000000C6C6C6C6D6D6ED
:104D8800D6FEEE6C000000000000C6C66C7C383809
:104D98007C6CC6C6000000000000666666663C18AB
:104DA8001818183C000000000000FEC6860C1830D9
:104DB80060C2C6FE0000000000003C3030303030D9
:104DC8003030303C0000000000000080C0E0703847
:104DD8001C0E06020000000000003C0C0C0C0C0C21
:104DE8000C0C0C3C0000000010386CC600000000E1
:104DF80000000000000000000000000000000000AB
:104E08000000000000FF0000303018000000000023
:104E180000000000000000000000000000780C7C8A
:104E2800CCCCCC76000000000000E06060786C66B6
:104E38006666667C0000000000000000007CC6C0BA
:104E4800C0C0C67C0000000000001C0C0C3C6CCCF0
:104E5800CCCCCC760000000000000000007CC6FE30
:104E6800C0C0C67C000000000000386C6460F060C0
:104E7800606060F000000000000000000076CCCC0C
:104E8800CCCCCC7C0CCC78000000E060606C766602
:104E9800666666E60000000000001818003818185A
:104EA8001818183C0000000000000606000E060650
:104EB8000606060666663C000000E06060666C78E0
:104EC800786C66E6000000000000381818181818FA
:104ED8001818183C000000000000000000ECFED686
:104EE800D6D6D6C6000000000000000000DC6666CA
:104EF800666666660000000000000000007CC6C60A
:104F0800C6C6C67C000000000000000000DC666623
:104F18006666667C6060F000000000000076CCCC1D
:104F2800CCCCCC7C0C0C1E000000000000DC7666AB
:104F3800606060F00000000000000000007CC660B7
:104F4800380CC67C000000000000103030FC303007
:104F58003030361C000000000000000000CCCCCC33
:104F6800CCCCCC760000000000000000006666662D
:104F780066663C18000000000000000000C6C6D6A7
:104F8800D6D6FE6C000000000000000000C66C3899
:104F980038386CC6000000000000000000C6C6C615
:104FA800C6C6C67E060CF8000000000000FECC183D
:104FB8003060C6FE0000000000000E1818187018B7
:104FC8001818180E0000000000001818181800180B
:104FD80018181818000000000000701818180E188B
:104FE8001818187000000000000076DC00000000AF
:104FF80000000000000000000000000010386CC62F
:10500800C6C6FE000000000000003C66C2C0C0C06A
:10501800C2663C0C067C00000000CC0000CCCCCC66
:10502800CCCCCC7600000000000C1830007CC6FE0A
:10503800C0C0C67C000000000010386C00780C7CF2
:10504800CCCCCC76000000000000CC0000780C7CB2
:10505800CCCCCC76000000000060301800780C7CC6
:10506800CCCCCC760000000000386C3800780C7C82
:10507800CCCCCC7600000000000000003C666060EC
:10508800663C0C063C0000000010386C007CC6FE34
:10509800C0C0C67C000000000000C600007CC6FE40
:1050A800C0C0C67C0000000000603018007CC6FE4E
:1050B800C0C0C67C00000000000066000038181858
:1050C8001818183C0000000000183C660038181832
:1050D8001818183C00000000006030180038181834
:1050E8001818183C0000000000C60010386CC6C62E
:1050F800FEC6C6C600000000386C3800386CC6C64C
:10510800FEC6C6C60000000018306000FE66607C5F
:10511800606066FE000000000000000000CC7636EB
:105128007ED8D86E0000000000003E6CCCCCFECCCF
:10513800CCCCCCCE000000000010386C007CC6C679
:10514800C6C6C67C000000000000C600007CC6C6BB
:10515800C6C6C67C0000000000603018007CC6C6C9
:10516800C6C6C67C00000000003078CC00CCCCCC91
:10517800CCCCCC76000000000060301800CCCCCC41
:10518800CCCCCC76000000000000C60000C6C6C625
:10519800C6C6C67E060C780000C6007CC6C6C6C653
:1051A800C6C6C67C0000000000C600C6C6C6C6C685
:1051B800C6C6C67C000000000018183C6660606027
:1051C800663C18180000000000386C6460F06060ED
:1051D8006060E6FC00000000000066663C187E186F
:1051E8007E1818180000000000F8CCCCF8C4CCDEFB
:1051F800CCCCCCC600000000000E1B1818187E1876
:1052080018181818D87000000018306000780C7C46
:10521800CCCCCC7600000000000C183000381818F0
:105228001818183C0000000000183060007CC6C642
:10523800C6C6C67C000000000018306000CCCCCC8C
:10524800CCCCCC7600000000000076DC00DC666682
:10525800666666660000000076DC00C6E6F6FEDEDE
:10526800CEC6C6C600000000003C6C6C3E007E0046
:10527800000000000000000000386C6C38007C0062
:1052880000000000000000000000303000303060F6
:10529800C0C6C67C00000000000000000000FEC080
:1052A800C0C0C00000000000000000000000FE06B2
:1052B800060606000000000000C0C0C2C6CC1830B8
:1052C80060DC860C183E000000C0C0C2C6CC183096
:1052D80066CE9E3E06060000000018180018181832
:1052E8003C3C3C18000000000000000000366CD870
:1052F8006C360000000000000000000000D86C368A
:105308006CD80000000000001144114411441144FD
:10531800114411441144114455AA55AA55AA55AA35
:1053280055AA55AA55AA55AADD77DD77DD77DD7729
:10533800DD77DD77DD77DD77181818181818181855
:10534800181818181818181818181818181818F8F5
:1053580018181818181818181818181818F818F805
:10536800181818181818181836363636363636F605
:10537800363636363636363600000000000000FE77
:1053880036363636363636360000000000F818F85D
:1053980018181818181818183636363636F606F645
:1053A8003636363636363636363636363636363695
:1053B80036363636363636360000000000FE06F63B
:1053C80036363636363636363636363636F606FE1D
:1053D800000000000000000036363636363636FE4D
:1053E80000000000000000001818181818F818F835
:1053F800000000000000000000000000000000F8AD
:105408001818181818181818181818181818181F0D
:10541800000000000000000018181818181818FFDD
:10542800000000000000000000000000000000FF75
:105438001818181818181818181818181818181FDD
:10544800181818181818181800000000000000FF95
:10545800000000000000000018181818181818FF9D
:10546800181818181818181818181818181F181FA6
:1054780018181818181818183636363636363637B3
:105488003636363636363636363636363637303FB0
:10549800000000000000000000000000003F30375E
:1054A80036363636363636363636363636F700FF40
:1054B80000000000000000000000000000FF00F7EE
:1054C8003636363636363636363636363637303778
:1054D80036363636363636360000000000FF00FF16
:1054E80000000000000000003636363636F700F7B8
:1054F80036363636363636361818181818FF00FF7E
:10550800000000000000000036363636363636FF1A
:1055180000000000000000000000000000FF00FF85
:10552800181818181818181800000000000000FFB4
:105538003636363636363636363636363636363FFA
:10554800000000000000000018181818181F181F85
:10555800000000000000000000000000001F181FED
:105568001818181818181818000000000000003F34
:10557800363636363636363636363636363636FFFA
:1055880036363636363636361818181818FF18FFD5
:10559800181818181818181818181818181818F8A3
:1055A8000000000000000000000000000000001FD4
:1055B8001818181818181818FFFFFFFFFFFFFFFF2B
:1055C800FFFFFFFFFFFFFFFF00000000000000FFDC
:1055D800FFFFFFFFFFFFFFFFF0F0F0F0F0F0F0F04B
:1055E800F0F0F0F0F0F0F0F00F0F0F0F0F0F0F0FBB
:1055F8000F0F0F0F0F0F0F0FFFFFFFFFFFFFFF0032
:105608000000000000000000000000000076DCD868
:10561800D8D8DC7600000000000078CCCCCCD8CC00
:10562800C6C6C6CC000000000000FEC6C6C0C0C08A
:10563800C0C0C0C00000000000000000FE6C6C6C20
:105648006C6C6C6C00000000000000FEC660301836
:105658003060C6FE0000000000000000007ED8D8C0
:10566800D8D8D870000000000000000066666666A2
:10567800667C6060C00000000000000076DC18183E
:1056880018181818000000000000007E183C666614
:10569800663C187E00000000000000386CC6C6FE9C
:1056A800C6C66C38000000000000386CC6C6C66C60
:1056B8006C6C6CEE0000000000001E30180C3E669A
:1056C8006666663C0000000000000000007EDBDB30
:1056D800DB7E00000000000000000003067EDBDB2C
:1056E800F37E60C00000000000001C3060607C6039
:1056F8006060301C000000000000007CC6C6C6C602
:10570800C6C6C6C60000000000000000FE0000FE7D
:105718000000FE00000000000000000018187E18BD
:10572800180000FF0000000000000030180C060CF4
:105738001830007E000000000000000C18306030B7
:10574800180C007E0000000000000E1B1B18181823
:1057580018181818181818181818181818181818C1
:10576800D8D8D87000000000000000001818007E8B
:105778000018180000000000000000000076DC009F
:1057880076DC00000000000000386C6C3800000077
:1057980000000000000000000000000000000018E9
:1057A80018000000000000000000000000000000D9
:1057B8001800000000000000000F0C0C0C0C0CEC92
:1057C8006C6C3C1C0000000000D86C6C6C6C6C00AD
:1057D80000000000000000000070D83060C8F80029
:1057E8000000000000000000000000007C7C7C7CC1
:1057F8007C7C7C000000000000000000000000002D
:10580800000000000000000080B487B000AF03462D
:10581800FB804FF064333B61B7F9062044491346D7
:105828004FEA83039B184FEA0313CB1803F11003C5
:105838001B68002B02D14FF0010373E0B7F9062073
:105848003B4913464FEA83039B184FEA0313CB18CF
:1058580003F104031A68374B9A4202D14FF001034F
:1058680060E0B7F90620324913464FEA83039B18D4
:105878004FEA0313CB1803F110031B68DB684FEAE8
:105888009313BB60B7F90620294913464FEA8303EF
:105898009B184FEA0313CB1803F110031B681B680E
:1058A8001946B7F90620224813464FEA83039B1886
:1058B8004FEA0313C31803F110031B68CB1A4FEA0E
:1058C800A3031A46BB689A4202D24FF0000329E0AC
:1058D800B7F90620164913464FEA83039B184FEA87
:1058E8000313CB1803F110031B6803F11403FB60C7
:1058F8004FF000037B610FE07B694FEA8303FA688E
:10590800D3181A683B699A4202D04FF0000309E0A5
:105918007B6903F101037B61BB687A699A42EBD327
:105928004FF00103184607F11C07BD4680BC7047BD
:1059380048090010B807001080B584B000AF814B4B
:105948001B6803F101027F4B1A607F4B1B68002B19
:1059580000F08C807C4B1B68FB60FB68DA6A794B33
:105968001B689A4240F08180FB685B6A002B36D046
:10597800FB685B6A1A68FB689A4222D1FB689A68DE
:10598800FB689A420DD1FB685B6A4FF000021A600F
:10599800FB684FF000029A60FB684FF00002DA6083
:1059A80019E0FB685B6AFA6892681A60FB68DB6852
:1059B800FA6892689A60FB689B68FA68D268DA604D
:1059C80009E0FB68DB68FA6892689A60FB689B6884
:1059D800FA68D268DA60FB684FF000025A62FB6826
:1059E8001A68FB689A4219D1574B4FF000021A60A7
:1059F800FB68DA8FFB689A87FA6892F83E306FF393
:105A0800000382F83E30FA6892F83E306FF34103A3
:105A180082F83E30F86800F05DFE27E0FB681A68FF
:105A2800494B1A60FB681B68FA6852685A60FB6841
:105A38005B68FA6812681A60FB68DA8FFB689A87F5
:105A4800FA6892F83E306FF3000382F83E30FA6845
:105A580092F83E306FF3410382F83E30F86800F068
:105A680039FE394B1B68FB6077E700BF374B1B6873
:105A7800002B63D0364B1B6893F84020344B1B68CF
:105A88001B6893F840309A4258D1314B1B681A680A
:105A98002F4B1B689A4251D02A4B1B682B4A12681D
:105AA800B3FBF2F102FB01F29B1A002B46D1284B03
:105AB8001B681B68FB60264B1B689B68BB60244BFC
:105AC8001B68DB687B607B68FA689A60FB687A68A9
