:020000040800F2
:1000000098630020F5030008410000084100000843
:1000100000000000000000000000000000000000E0
:100020000000000000000000000000006D0000085B
:100030000000000000000000000000004500000873
:10004000FEE700BF01B515480068EFF3098020E91D
:10005000F00F80F3098823F09FF9BDE80140EFF32A
:100060000980B0E8F00F80F30988704700B500F010
:100070009EFA5DF804EB1EF0040F0CBFEFF308804E
:10008000EFF30980816911F8021C29B900F1200001
:10009000B0E8F00F80F309887047000010E000E03E
:1000A00010B501214FF4807020F034FE012001468C
:1000B00020F03CFE032000F0C1FD042000F0BEFD56
:1000C000052000F0BBFD062000F0B8FD03200E2146
:1000D0000B2200F057FD03200F210B2200F052FDF0
:1000E000032000210B2200F04DFD032001210B22F3
:1000F00000F048FD04200B22072100F043FD0420FE
:1001000008210B2200F03EFD042009210B2200F003
:1001100039FD04200A210B2200F034FD0B210420BC
:100120000A4600F02FFD04200C210B2200F02AFDCE
:1001300004200D210B2200F025FD04200E210B22AE
:1001400000F020FD04200F210B2200F01BFD0320F6
:1001500008210B2200F016FD032009210B2200F0DC
:1001600011FD03200A210B2200F00CFD05200021C7
:100170000B2200F007FD052001210B2200F002FDFB
:10018000052002210B2200F0FDFC052003210B229B
:1001900000F0F8FC052004210B2200F0F3FC052000
:1001A00001460B2200F0EEFC05200C210B2200F092
:1001B000E9FC05200D210B2200F0E4FC05200E21B6
:1001C0000B2200F0DFFC05200F210B2200F0DAFCEF
:1001D000062000210B2200F0D5FC062001210B2275
:1001E00000F0D0FC062002210B2200F0CBFC062000
:1001F00003210B2200F0C6FC062004210B2200F094
:10020000C1FC062005210B2200F0BCFC0B210320C1
:100210000A4600F0B7FC03200C210B2200F0B2FCD0
:1002200003200D210B2200F0ADFC042003210B2242
:1002300000F0A8FC042001460B2200F0A3FC0420DF
:1002400005210B2200F09EFC03200B22052100F06B
:1002500099FC032004210B2200F094FC03200721C9
:100260000B2200F08FFC062009210B2200F08AFCF3
:1002700006200A210B2200F085FC06200C210B220F
:1002800000F080FC042000210B2200F07BFC042005
:1002900001210B22BDE8104000F074BC30B50223F0
:1002A00097B01193DB1802930C3303934FF48053F0
:1002B00000240125099368460FAB0F951094129402
:1002C0001394149515940094019404940594069441
:1002D000079408940A940B940C940D930E9320F0B9
:1002E000FDFB2046294620F091FC17B030BD30B50B
:1002F000022297B0002311920E3201241093129320
:10030000139314931593042501930293039204937A
:1003100005930693079308934FF480520A930B9327
:100320000C9368460FAB0F94009509920D930E93B2
:1003300020F0D4FB2846214620F068FC17B030BDE1
:1003400010B503228EB00B9206320C92073A0023AE
:1003500002923E320A930D934FF4807403930492F9
:1003600006934FF40032079301A80AAB019405925B
:100370000893099320F016FC2046012120F058FC38
:100380000EB010BD30B5022397B004221193029233
:10039000023B0C320124159306250193039204932A
:1003A00005930693079308934FF480520A930B9397
:1003B0000C9368460FAB0F941094129413941494FA
:1003C000009509920D930E9320F088FB2846214654
:1003D00020F01CFC17B030BD10B5FFF761FEFFF731
:1003E0005DFFFFF784FFFFF7ABFFBDE81040FFF7AD
:1003F000C9BF000010B5304820F0A4FC012020F057
:10040000A4FC012020F0A4FC002020F0A4FC2B4B35
:100410002B491A688A4202D02A498A4203D15A6972
:1004200042F400725A61284B1B681A6822F01F02BE
:100430001A601A6842F002021A601A6842F010024A
:100440001A60224B224A1B68196801EA02022149FC
:100450008A4206D15968204A01EA02021F498A42AB
:1004600024D01A6842F001021A6059681C4A01EA55
:1004700002025A601A6822F0847222F480321A60F2
:100480001A6822F480221A605A6822F4FE025A6026
:1004900000229A60134A5A600E4A1A60124B1B6877
:1004A000002BFBD0114B1B68002BFBD0FFF794FFF8
:1004B000BDE8104000F01EB89863002000ED00E099
:1004C00031C20F4131C21F41880D0208840D02085C
:1004D00001000F0300000B03FC3F3F0008041F0056
:1004E0000000FFF802C41D0744004242640042427B
:1004F00000ED00E073B5134B00210193124B1D4634
:1005000019E05A699C68012AD8680AD1A04210D023
:10051000013A02E01659165004321E69B242F9D36C
:1005200007E032B902E00024145004321C69A242F0
:10053000F9D3013110336A689142E2D3019B9847A5
:0C0540007CBD00BF990500088C58020823
:10054C00114B70B500211D4619E05A699C68012AAF
:10055C00D8680AD1A04210D0013A02E016591650C0
:10056C0004321E69B242F9D307E032B902E000242A
:10057C00145004321C69A242F9D3013110336A6859
:10058C009142E2D370BD00BFC458020810B500F010
:10059C00BFF800F0D1FAFFF7D3FFBDE8104020F010
:1005AC003DB84FF0000080F3118870474FF0FF000A
:1005BC0080F31188704762B6704772B670470000BE
:1005CC003B280DD8084B1B5CFF2B0BD0420900F0CD
:1005DC001F01012010FA01F1044B43F8221070475F
:1005EC0000207047002070475001002000E100E01F
:1005FC003B280ED8094B1B5CFF2B0CD0420900F09A
:10060C001F01012010FA01F1054B203243F8221092
:10061C007047002070470020704700BF5001002039
:10062C0000E100E03B280ED8094B1B5CFF2B0CD0E3
:10063C00420900F01F01012010FA01F1054B603254
:10064C0043F822107047002070470020704700BF0D
:10065C005001002000E100E03B280ED8094B1B5C48
:10066C00FF2B0CD0420900F01F01012010FA01F100
:10067C00054B403243F82210704700207047002091
:10068C00704700BF5001002000E100E0034B4FF029
:10069C00FF32C3F88021C3F88421704700E100E0E9
:1006AC003B2830B521D8134B1B5CFF2B1FD0124AB3
:1006BC00182101FB03230022DA6000F01F04013231
:1006CC0012FA04F40D4B410953F8215025EA0404A5
:1006DC0043F821400A490B4B43F820100A4BFF21E9
:1006EC00C31883F80013104630BD002030BD002025
:1006FC0030BD00BF500100208C01002030010020D3
:10070C00C50A00084000002000E100E061B6704717
:10071C0070B5FFF752FFFFF7B9FF284B1B685A69FA
:10072C0042F002025A61264A00232649FF205854FF
:10073C00254801333C2B42F8040F0D46F5D1234BD1
:10074C0000221C78224B16E02248105C295401210F
:10075C0043F8181C013943F8141C1F4843F81C1C9F
:10076C001E4943F8200C51184FF0FF3023F80E0CA3
:10077C00013281F80003D1B21833A142E4D3184CF2
:10078C00164B00254FF0FF32C3F88020C3F88021B0
:10079C0025602561C3F88420C3F884210123E3611B
:1007AC0065606561A560E560FFF700FFA561FFF777
:1007BC0002FFBDE87040FFF7A9BF00BFF0040008BE
:1007CC003C00002050010020C50A0008460B000820
:1007DC0094010020470B00080D02020800E100E024
:1007EC0030010020F8B5154D154FEB68154E01334F
:1007FC00EB60AB6918220133AB613B5C044602FB36
:10080C0003631B7C0BB9FFF7D8FE2046FFF70AFFEA
:10081C003B5D18225343F3580BB1204698473B5D80
:10082C00182202FB0366337C0BB9FFF7C4FEEB689E
:10083C00013BEB60AB69013BAB61F8BD30010020C3
:10084C00500100208C0100202DE9F0412E4C2F4D41
:10085C0000232B70A36886B00133A3608DF81700BA
:10086C002B4FFFF7DFFE9DF8170018223B5C294E3B
:10087C005343F3580BB1984700E018469DF81730D6
:10088C004FF01808FB5C08FB03635A68B2B1B2F86E
:10089C004E305064A2F84C3092F84F3010466FF343
:1008AC00410382F84F301EF045FB9DF81730184A73
:1008BC00D25C184B08FB023300225A609DF81730AB
:1008CC001822FB5C02FB0366708A4FF6FF7398429A
:1008DC0009D00021012300930A460DF11703019161
:1008EC0002911EF0CFFDA368013BA3600A4B1A686E
:1008FC000A4B1B689A4201D01EF050F901232B7051
:10090C0006B0BDE8F08100BF300100205C4400203F
:10091C00500100208C0100206C4400206044002019
:10092C0010B5074CA36853B9FFF740FEE369B3F168
:10093C00FF3F01D00133E361024B00221A7010BD5E
:10094C00300100205C44002008B5FFF72FFE024B5D
:10095C000122DA6108BD00BF300100200E4B9A68FD
:10096C00002A18D1DA690AB1013ADA61DB69002B85
:10097C000FD1094B9B6953B9084B01221A70084BD4
:10098C001A68084B1B689A4201D01EF0ADBAFFF7EB
:10099C0008BEFFF70BBE7047300100205C440020FE
:1009AC00604400206C440020014B0022DA61704747
:1009BC00300100203B282DE9F04104462AD8DFF80D
:1009CC00688018F80020FF2A24D0154DEB680BBB6B
:1009DC00144E182707FB0262D268012A1DD0FFF7BC
:1009EC0007FE18F8043007FB0366B368B3F1FF3F4A
:1009FC0001D00133B3606309012004F01F0410FA25
:100A0C0004F4043355F8232022EA040445F8234067
:100A1C00BDE8F0810020BDE8F0811846BDE8F0810A
:100A2C00300100208C010020500100203B2870B5C3
:100A3C0025D8164B1B5CFF2B21D01549CC68F4B97B
:100A4C00144D182202FB0352D668012E19D094685B
:100A5C000CB1013C9460182202FB03539B6893B9C0
:100A6C00012400F01F0214FA02F24309043351F876
:100A7C0023502A4341F82320FFF7A2FD01E0002078
:100A8C0070BD204670BD012070BD00BF500100201C
:100A9C00300100208C0100203B2807D8044B1B5C44
:100AAC00FF2B03D018225343024AD150704700BF8A
:100ABC00500100208C01002001B5EFF3098020E9E2
:100ACC00F00F80F30988EFF30580A0F11000FFF719
:100ADC00BBFEBDE80140EFF30980B0E8F00F80F3F6
:100AEC000988704701B5EFF3098020E9F00F80F316
:100AFC000988EFF30580A0F11000FFF773FEBDE845
:100B0C000140EFF30980B0E8F00F80F309887047DB
:100B1C00EFF311804FF0FF0181F31188704700BF94
:100B2C0080F31188704700BFEFF3108072B67047E6
:100B3C0080F31088704700BF70473C00010203042B
:100B4C0005060708090A0B0C0D0E0F1011121314D1
:100B5C0015161718191A1B1C1D1E1F2021222324C1
:100B6C0025262728292A2B2C2D2E2F3031323334B1
:100B7C0035363738393A3B000628F0B534D80729D2
:100B8C001A4B0FD88D000F26AE4053F82040276823
:100B9C0027EA060602F00F0717FA05F546EA0505DF
:100BAC00256010E0A1F10805AD000F26AE4053F80A
:100BBC002040676827EA060602F00F0717FA05F5CA
:100BCC0046EA05056560182A06D1173A12FA01F1B2
:100BDC0053F820301961F0BD082A05D1073A12FAF2
:100BEC0001F153F820305961F0BD00BF5C0D0208D3
:100BFC00062804D8034B53F820309868704700201F
:100C0C00704700BF5C0D0208062804D8024B89B25D
:100C1C0053F82030196170475C0D0208062803D880
:100C2C00024B53F820305961704700BF5C0D02082D
:100C3C0006281BD8DFE800F004070A0D1013170074
:100C4C0001220B4B0DE001220A4B0AE001220A4B58
:100C5C0007E00122094B04E00122094B01E0094B9A
:100C6C0001221A607047084B01221A60704700BFBE
:100C7C00080342420C034242100342421403424214
:0C0C8C00180342421C0342422003424273
:100C9800000000000000000000000000000000004C
:100CA800000000000000000000000000000000003C
:100CB800000000000000000000000000000000002C
:100CC800000000000000000000000000000000001C
:100CD800000000000000000000000000000000000C
:100CE80000000000000000000000000000000000FC
:100CF80000000000000000000000000000000000EC
:100D080000000000000000000000000000000000DB
:100D180000000000000000000000000000000000CB
:100D280000000000000000000000000000000000BB
:100D380000000000000000000000000000000000AB
:100D4800000000000000000000000000000000009B
:100D5800000000000000000000000000000000008B
:100D6800000000000000000000000000000000007B
:100D7800000000000000000000000000000000006B
:100D8800000000000000000000000000000000005B
:100D9800000000000000000000000000000000004B
:100DA800000000000000000000000000000000003B
:100DB800000000000000000000000000000000002B
:100DC80008B500201EF058FE0368013B032B26D807
:100DD800DFE803F0020B141C02204FF4A871FFF7A0
:100DE8001FFF02204FF4007117E002204FF4147126
:100DF800FFF716FF02204FF480710EE002204FF437
:100E08005071FFF70DFF0220102106E002204FF479
:100E18004471FFF705FF02204021FFF7F7FE00208D
:100E28001EF0E8FF1EF05CFE01216FF001021EF0CB
:100E3800A5FAC6E72DE9F0470F239CB016930A3BA5
:100E48001793CA3318938246BA3B1AA819931FF00E
:100E580083FD02460B46012A73F10001CDE91A23EE
:100E6800C0F2908005A8494C1FF028FC00230A22F4
:100E780023700EA90A98DDF82490059D069E079F09
:100E8800DDF8208000F05CFD41490EA823F05EFFEC
:100E980020460EA923F05AFFB9F1090F03DC2046BA
:100EA8003C4923F053FF0A220EA9484600F048FDAA
:100EB80039490EA823F04AFF34480EA923F046FF0B
:100EC800B8F1090F03DC3148324923F03FFF0A2209
:100ED8000EA9404600F034FD30490EA823F036FF35
:100EE8002A480EA923F032FF092F03DC2748294995
:100EF80023F02CFF0A220EA9384600F021FD2849CC
:100F08000EA823F023FF21480EA923F01FFF092E66
:100F180003DC1E481F4923F019FF0A220EA9304698
:100F280000F00EFD1E490EA823F010FF17480EA969
:100F380023F00CFF092D03DC1448164923F006FFA3
:100F48000A220EA9284600F0FBFC0EA90F4823F040
:100F5800FDFEFF230193199B00240093029416AB16
:100F68000ECB504607F096FE6421084824F014F989
:100F78004FF0FF3300900193504621460522034B62
:100F880007F0A6FE1CB0BDE8F08700BFAC07002044
:100F9800581400085B1400085D1400086014000869
:100FA800232F00081FB50220FFF744FE0220062168
:100FB8000246FFF7E3FD022004210246FFF7DEFDAB
:100FC800022008210246FFF7D9FD02200921024626
:100FD800FFF7D4FD0F4A00200192642202920E4AC4
:100FE80001230392C821024600931DF0FBFD0B4A22
:100FF80010804FF6FF72904209D000210B460A4636
:101008000091019102911EF03FFA054B188005B03E
:1010180000BD00BFC90D0008641400088E1600202A
:101028008C1600202DE9F0478EB000F0DBFAFFF7B0
:10103800B9FFAA4807F0E2FD19230193E6330293AA
:10104800A74B0024DFF8C882F02601272246049324
:10105800A44923468246CDF8148000960397069447
:1010680007F0DCFD6421A04824F096F83C210090AC
:1010780005229C489C4B019407F02AFE4FF491737B
:1010880001934FF47F030293984B994904932246A6
:101098001E235046CDF8148000960397069407F057
:1010A800BDFD944B14250293934B94490493224617
:1010B80023468F48CDF8148000960195039706942F
:1010C80007F0ACFD3C214FF00C080B468B4822463C
:1010D800CDF8088000950194039407F00FFE78215D
:1010E8000B4686482246CDF8088000950194039463
:1010F80007F004FEB4210B4680482246CDF808804C
:1011080000950194039407F0F9FD7D487D491DF091
:101118008AFA804608B321467B4804F0F7FD7A49ED
:101128003A4643460C901DF079FBDC230993DB1803
:101138000EA90B934FF4805321F8183D4FF0FF335D
:1011480000936B480A222B460A9607F0F0FD0C988C
:1011580004F03AFE40461DF01FFBFF2302936B4B41
:1011680000246B4E0125F0274FF0C009049369490C
:10117800224614235E4805960097CDF804900395FF
:10118800069407F04BFD214648F280122346614839
:1011980007F0F8FD4FF4987300936FF07F430293C4
:1011A8005D4B4FF0E00804935C493A46A023504851
:1011B8000596CDF804800395069407F02FFD2023AB
:1011C80000934FF47F030293554B564904932246EC
:1011D8004B4647480596CDF804800395069407F0DA
:1011E8001DFD514847491DF01EFA064618B3214611
:1011F8004FF4005004F08AFD4FF400512A4633465C
:101208000C901DF00BFB402309930A93DB180EA9E1
:101218000B934FF4805321F8183D4FF0FF330093A0
:101228003E482246234607F082FD0C9804F0CCFD88
:1012380030461DF0B1FA3D4832491DF0F4F9044634
:1012480078B300214FF4006004F060FD4FF40061B2
:10125800012223460C901DF0E1FA202309930A93FA
:10126800DB180EA90B934FF4805321F8183D002288
:101278004FF0FF3300932B48134607F058FD002129
:101288000B464FF40842274807F07CFD6FF07F417A
:10129800244807F0ADFD0C9804F096FD20461DF09B
:1012A8007BFA234B0EA90C93082309930A93DB18A6
:1012B8000B934FF4805321F8183D4FF0FF32174835
:1012C80007F07EFD4FF4A0730193413B0293FE3B70
:1012D8000393184B002404930D4B2DE06E14000863
:1012E80076140008D81200207D1400088D14000818
:1012F8006010002000FFFF0092140008E80D002095
:10130800A0140008AE140008809C0100B114000865
:101318002000CC0014140020BB1400089C110020ED
:10132800C0140008240F0020C5140008D3140008B6
:101338002C070020E11400083E490593224640F29C
:101348002713F02650460096069407F067FC2146BE
:101358004FF0FF32504607F08DFC1EF0C1FB00F045
:10136800EFFD4FF080086FF00107022500201EF006
:1013780083FB8146002834D00378042B15D1D0F89C
:101388001090002108F501420B462B4807F0FAFCA3
:101398004FEA0941A8F12008274801EB091100226A
:1013A8005FFA88F807F066FC18E0012B16D1437B3A
:1013B800F02B13D199F80C10204800F0C5FB99F8D0
:1013C8000C200EAB43F8042D1D4A0021108804227E
:1013D80000920A46019102911EF056F800201EF074
:1013E80009FD6419002CD8BF0225F619F02CA8BFF6
:1013F8006FF00105002E04DDF02EA8BF6FF0010785
:1014080000E002273146A02200230E4807F0AAFC7C
:101418002146C0224FF0FF330B4807F0A3FC0548D4
:10142800FFF708FD1EF05CFB0121084A1DF0A6FF2E
:101438009CE700BF5015002014140020E814000891
:101448008C1600209C110020240F0020A08601008B
:10145800C4EA003000D4C200C8D5200068656C6CAE
:101468006F206C656400696C6939333235006261DC
:101478006E6E6572002D2D2D2D20444A594F532034
:101488002D2D2D2D00626F647900626F64792073B1
:10149800656C6563746F72007379733A5C6C6F671F
:1014A8006F2E626D7000722B00626F6479206D611F
:1014B800736B006D61696E00666C69700073797397
:1014C8003A5C747265652E626D70007379733A5C6C
:1014D800706561722E626D7000626F74746F6D005A
:1014E8000A0D6B65792076616C75653A2025640074
:1014F800FFF798BD1FB500201FF00AFA00201CF066
:101508002DF900201BF0D4F9002020F0C9FD00209F
:1015180000F0B4F9002020F0C3FE002005F022FE00
:10152800294821F095FC294B0022009301232849E2
:101538000193134607F049FB00200EF073FE0020CC
:101548000EF0DAFC00200DF0B9FF002017F080FD46
:1015580000201FF081FD002001F010F81D48002137
:1015680017F0FCFE0446B8B100221346022117F01A
:101578007BFF04214FF461420023204617F074FFDB
:10158800204600F0D5FB14481DF0F2FB002102466E
:101598000B46204617F068FF022300930F4B0022EA
:1015A80001934FF4C06302930D4BC82103930120AC
:1015B80013461DF017FB00210A460B4600910191C6
:1015C80002911DF061FF1FBD6E14000800FFFF00AF
:1015D80090160020081600080E160008F9140008D6
:1015E8001816000810B51DF043F8002000F078F830
:1015F8000248BDE8104021F007B900BF6E1400088A
:101608007561727431007465726D5F7363616E0029
:101618006D61696E2066756E6374696F6E00000097
:10162800F0B585B000211022684623F035FB244828
:1016380003F0BAFD064605462946304603F060FE2B
:101648000546002835D0037E042BF5D1846A684608
:10165800236898470746F0B1A368019A9A4207D1D0
:10166800E368029A9A4203D12369039A9A42E3D023
:1016780021F0B2FD04AF47F8100D69461022E86961
:1016880000F064FC97E80F0004F1040E8EE80F00E8
:1016980001232375D0E7237D012BCDD121F09CFDBB
:1016A80027616060211DE869102200F04FFC277552
:1016B800C2E742F210701DF0E9FD3546BCE700BFF5
:1016C8004817000810B50C462246042100F0E8FB34
:1016D80010B10020207510BD4FF0FF3010BD000084
:1016E8007FB5144803F060FD10B3134B002201933B
:1016F8004FF480630293114B0125822103932846FE
:10170800134600951DF06EFA002423462146224612
:1017180006460094019402941DF0B6FE4FF6FF733E
:10172800984204D130461DF0D9FC204600E02846F6
:1017380004B070BD48170008291600085B17000898
:10174800737464696E20696E707574206465766957
:10175800636500746F756368000000002DE9F04F41
:10176800454885B003F020FD07460546294638461A
:1017780003F0C6FD0546002877D0037E012BF5D17E
:10178800846A23689847A368984202D0A06000231F
:1017980004E02369E268934201D20A332361636853
:1017A800A2689342E2D02169E2689142DED34FEA0F
:1017B80013284FEA134A5FFA83F95FFA88F85FFA49
:1017C8008AFA4FEA136B0026A268F30032FA03F391
:1017D800DBB2B3B1994514D0984512D09A4510D0D0
:1017E8009B450ED0019321F0F7FC019B00228DF858
:1017F8000D208DF80C30029002A9E869083200F03B
:10180800A5FB0136042EDFD1A368043E4FEA132856
:101818004FEA134A5FFA83F95FFA88F85FFA8AFA9F
:101828004FEA136B6268F30032FA03F3DBB2B3B129
:10183800994514D0984512D09A4510D09B450ED0A2
:10184800019321F0C9FC019BF0228DF80D208DF841
:101858000C30029002A9E869E83A00F077FB0136FB
:10186800042EDFD1A368636080E742F210701DF098
:101878000DFD3D467AE700BF481700087FB51448BC
:1018880003F092FC10B3134B002201934FF4007342
:101898000293114B0125C82103932846134600954E
:1018A8001DF0A0F90024234621462246064600944E
:1018B800019402941DF0E8FD4FF6FF73984204D19D
:1018C80030461DF00BFC204600E0284604B070BDF1
:1018D8004817000865170008FA1800080A4608B5EE
:1018E800012100F0DDFA00280CBF4FF0FF30002086
:1018F80008BD6B6579626F61726400007FB50E4B3D
:101908000021186802AA102317F096FD019040B133
:1019180021F062FC094B009069461868182200F013
:1019280015FB019B102BEAD01EF0DAF801214FF0CD
:10193800FF321DF023FDE2E7D4170020CC1700206A
:10194800F0B5002A85B008DA5242002805DA2D23BE
:101958008DF8003040422C3B00E00023102A2FD1A4
:1019680000E0234600F00F0204ADEC180009092A34
:1019780004F8102C01D8303200E0573204F8102C4B
:101988005C1CE4B20028ECD19DF800502D2D04D148
:101998000A4602F8015B013000E00A46201AC0B28C
:1019A8000446154609E004AFFE1816F8106C013B12
:1019B800013C05F8016BDBB2E4B2002CF3D12DE059
:1019C8000A2A2CD100E023460A2404AAD518B0FB21
:1019D800F4F204FB12005C1C303005F8100CE4B281
:1019E8001046002AEFD19DF800502D2D04D10A464B
:1019F80002F8015B013000E00A46201AC0B2044632
:101A0800154609E004AFFE1816F8106C013B013CBE
:101A180005F8016BDBB2E4B2002CF3D1145408468C
:101A280005B0F0BD10B503780146302B08D14378D6
:101A3800782B03D1763B07E0022305E0582BFBD037
:101A4800002326E00133DBB2CA5C302AFAD000203A
:101A580019E0A2F13004E4B2092C02D800013038B0
:101A68000EE0A2F14104E4B2052C02D80001373897
:101A780006E0A2F16104E4B2052C1DD80001573834
:101A880001338018DBB2CA5C002AE2D110BD0133F1
:101A9800DBB2CA5C302AFAD000200AE0A2F1300496
:101AA800E4B2092C08D80A2460430133303880187E
:101AB800DBB2CA5C002AF1D110BD03460068F0B55C
:101AC800A0B10246944612F8014B0E46154616F888
:101AD800017BA74207D11CB100228CF8002000E04E
:101AE80025461D60F0BD002FF1D1EBE7F0BD0000E9
:101AF80010B500201DF0C0FF38B91DF0F1FF01211D
:101B080044F620621DF03AFCF3E7074B1A68811887
:101B18000C7CC16801328A421A6003D10020186027
:101B28001EF068F9204610BDD017002007B5054BF8
:101B380002A901F8010D00221868012317F088FC9A
:101B48000EBD00BFD41700200FB4F0B587B00CABA2
:101B580053F8046B0593A4E0252806F1010303D08C
:101B68001E46FFF7E3FF9CE075781A46202D01D04A
:101B7800302D01D15A1C00E020251346002403E033
:101B880030380A2202FB040418781E46A0F13102FC
:101B9800D2B20133082AF3D9732808D002D86428AE
:101BA8007CD13CE075281BD0782877D157E0059B7D
:101BB8001D681A1D2846059223F0BEFAA042074662
:101BC80004D308E02020FFF7B1FF013CBC42F9D163
:101BD80001E0FFF7ABFF15F8010B0028F9D15FE032
:101BE800059B01A91A1D059218680A22FFF7A8FE8D
:101BF80001A823F0A1FAA042074606D30DF1030479
:101C080008E02846FFF792FF013CBC42F9D1F5E70E
:101C1800FFF78CFF14F8010F0028F9D140E0059B6D
:101C280001A91A1D059218686FF00902FFF788FECE
:101C380001A823F081FAA042074606D30DF1030458
:101C480008E02846FFF772FF013CBC42F9D1F5E7EE
:101C5800FFF76CFF14F8010F0028F9D120E0059B6D
:101C680001A91A1D059218681022FFF769FE01A83C
:101C780023F062FAA042054606D30DF1030408E0FA
:101C88003020FFF753FF013CAC42F9D1F5E7FFF7ED
:101C98004DFF14F8010F0028F9D101E0FFF746FFC6
:101CA8000136307800287FF457AF013007B0BDE81F
:101CB800F04004B070470000F8B5194D0C4628688C
:101CC8004FF0FF3104F028FB1DF00AFF01461548CC
:101CD80000F028F90026FFF70BFFC7B20D2F01D03F
:101CE8000A2F09D10023A3550F48FFF72DFF2868B5
:101CF80004F0D6FA3046F8BD082F07D1002EEAD0F6
:101D0800013E0A48F6B2FFF71FFFE4E7FF2EE2D0D4
:101D18003846FFF70BFFA7550136F6B2DBE700BFE1
:101D2800D81700200C1E00086B4B0008161E000870
:101D3800F0B587B00590002849D0002126480A460A
:101D480000F0AEF8254DB0F1FF3F286041D00120EA
:101D58000146002204F074FA214F3860002833D07D
:101D6800204B002201934FF4806302931E4B012005
:101D780003938221134600901CF034FF4FF6FF7640
:101D8800B04204461DD00021042300930A4605AB47
:101D9800019102911DF078FBB0420FD0134B059AC8
:101DA80013481A60FFF7D0FE1249134A1348FFF789
:101DB800CBFE1348FFF7C8FE28680AE020461DF04E
:101DC8008DF9054800F008F9386804F037FB4FF042
:101DD800FF3007B0F0BD00BF0C1E0008CC17002074
:101DE800D8170020051900080E160008D41700207F
:101DF8001A1E00084D1E0008591E0008351E00084E
:101E0800104E0008636861725F7465726D00082087
:101E180008000D0ABBB6D3ADCAB9D3C3B6BCBDADB5
:101E2800D1DFB2D9D7F7CFB5CDB30D0A002020B096
:101E3800E6B1BEB1E0D2EBCAB1BCE4A3BA257320C7
:101E480025730D0A00446563202038203230313272
:101E58000031373A33373A323300000007B52C21C6
:101E6800094A0A4803F04EF8094B0A4A1860032148
:101E78000023019208482C22009303F0A5FB074B8E
:101E8800186001200EBD00BF48170008DC170020AD
:101E9800081800201020000814180020101800202E
:101EA8002DE9F843DFF8789080460F46D9F800000E
:101EB8004146164603F048FA054610BB134B29461F
:101EC800186803F017FB044698B14346D9F8000098
:101ED80021462C2203F07EF80D4B27761B88A6623C
:101EE800A3840C4B2562186801301860E061BDE8D6
:101EF800F883094809491CF0DBFD4FF0FF30BDE8C5
:101F0800F8834FF0FF30BDE8F88300BF10180020B9
:101F1800C60700200C180020030000037502020801
:101F280008180020054A034610B510680C461946E3
:101F380003F00AFA08B18484012010BD08180020B3
:101F4800014B1880704700BFC6070020F0B5204B32
:101F58000F461D688DB00646294603E0E369B34283
:101F680007D02146284603F0CBF904460028F5D1CE
:101F78002CE0236AA58C013323624FF6FF739D4240
:101F880003D1144A15889D421FD006AE0FCF0FC645
:101F980097E8030086E80300237E8DF81030E36994
:101FA80005932023002100931E3B0193284604AB90
:101FB8000A4602911DF068FA4FF6FF73984204D161
:101FC80042F210701DF062F9EBE701200DB0F0BD90
:101FD80008180020C6070020094B10B501461868EC
:101FE80003F0B2F9044648B103F046F830B1054BA6
:101FF8002146186803F028FB012010BD10BD00BF62
:102008000818002010180020CAE4C8EBC9E8B1B8C5
:10201800BFD8D6C6BFE9C4DAB4E6B3D8000000001A
:1020280008B503490348FFF78FFD012008BD00BF2D
:10203800572E0008502E000830B587B0042506AC8E
:1020480044F8045D07481CF093FE00214FF0FF326E
:1020580023460095019102911DF016FA012007B060
:1020680030BD00BF782E000810B586B0032306AC3B
:10207800084844F8043D1CF07BFE0423002100932B
:102088004FF0FF322346019102911DF0FDF9012026
:1020980006B010BD782E000810B586B0022306AC35
:1020A800084844F8043D1CF063FE04230021009313
:1020B8004FF0FF322346019102911DF0E5F901200E
:1020C80006B010BD782E000830B587B0012406ADE3
:1020D800084845F8044D1CF04BFE042300210093EA
:1020E8004FF0FF322B46019102911DF0CDF92046A9
:1020F80007B030BD782E000830B587B0002506AC93
:10210800084844F8045D1CF033FE04230093294674
:102118004FF0FF322346019502951DF0B5F90120D5
:1021280007B030BD782E00082DE9F0410020D0B06E
:102138001EF012FC02460B4641A81EF0BFFA439956
:10214800429A419B3048449C459D469EFFF7FCFCC3
:102158002E48FFF7F9FC002001A9FFF7ADFD05386F
:10216800032849D850AF4FF0000807F8188D01A987
:10217800384622F083FF0A224EA930468DF80480A3
:10218800FFF7DEFB4EA901A822F0E0FD204901A8D7
:1021980022F0DCFD0A224EA92846FFF7D1FB4EA902
:1021A80001A822F0D3FD1A4901A822F0CFFD0A2286
:1021B8004EA92046FFF7C4FB4EA901A822F0C6FD90
:1021C800144901A822F0C2FD394601A822F0BEFD3B
:1021D80001A81EF0E9FA10F1050F08D010F1040F5C
:1021E80003D010F1060F07D103E00B4802E00B48BB
:1021F80000E00B48FFF7A8FC0A48FFF7A5FC012000
:1022080050B0BDE8F08100BF832E00089E2E000864
:10221800AD2E0008AF2E0008B12E0008BC2E000815
:10222800C72E00086B4B000870B50020CEB01EF01A
:1022380093FB02460B4643A81EF040FA499A2C4BE2
:10224800489903EBC2030093479A469B2948439C4D
:10225800449D459EFFF778FC2748FFF775FC002052
:1022680003A9FFF729FD083802283AD8234903A80B
:1022780022F06CFD0A224CA93046FFF761FB4CA9FD
:1022880003A822F063FD1E4903A822F05FFD0A227D
:102298004CA92846FFF754FB4CA903A822F056FD89
:1022A800174903A822F052FD0A224CA92046FFF73D
:1022B80047FB4CA903A822F049FD03A81EF074FAB5
:1022C80010F1020F08D0B0F1FF3F03D010F1030F57
:1022D80007D103E00B4802E00B4800E00B48FFF78A
:1022E80033FC0B48FFF730FC01204EB070BD00BF37
:1022F800200D0020D22E0008EE2E0008AF2E000878
:10230800232F0008FD2E0008082F0008132F0008AF
:102318006B4B0008F7B502AC44F8040D274920467A
:10232800FFF7CBFBFFF77EFB244905462046FFF766
:10233800C4FBFFF777FB214906462046FFF7BDFBA4
:10234800FFF770FB1D4907462046FFF7B6FBFFF76E
:1023580069FB022F04460ED0042F1AD0012F27D173
:1023680017482946FFF7F0FB002301E05C550133CD
:10237800B342FBD11AE025F0010511482946FFF7C1
:10238800E3FB002302E025F8024B0133B342FAD104
:102398000CE025F003050A482946FFF7D5FB002382
:1023A80002E045F8044B0133B342FAD1012003E0BF
:1023B8000448FFF7C9FB0020FEBD00BF3105020835
:1023C8001E2F0008252F0008F7B502AC44F8040DAD
:1023D80052492046FFF771FB504907462046FFF750
:1023E8006CFB4E4905462046FFF767FB4B490646FE
:1023F8002046FFF762FB17B10DB106B108B1484896
:1024080082E03846FFF70EFB04462846FFF70AFB32
:1024180005463046FFF706FB0138072873D8DFE882
:1024280000F0041D7238727272533E482146FFF75D
:102438008BFB00260FE014F8011B3B48FFF784FBD9
:1024480014F0070F06D13948FFF77EFB35482146BF
:10245800FFF77AFB0136AE42EDD159E024F00104D2
:1024680030482146FFF770FB00260FE034F8021BC6
:102478002F48FFF769FB14F00F0F06D12B48FFF721
:1024880063FB28482146FFF75FFB0136AE42EDD1DA
:102498003EE024F0030423482146FFF755FB0026BD
:1024A8000FE054F8041B2348FFF74EFB14F01F0FEE
:1024B80006D11E48FFF748FB1A482146FFF744FBA0
:1024C8000136AE42EDD123E024F007041548214639
:1024D800FFF73AFB002613E021681748FFF734FBA3
:1024E800616814480834FFF72FFB14F03F0F06D13A
:1024F8000E48FFF729FB0B482146FFF725FB01365D
:10250800AE42E9D104E00D48FFF71EFB002003E0CE
:102518000648FFF719FB0120FEBD00BF3105020880
:10252800322F00081E2F00086A2F00086B4B000886
:102538006F2F000832030208D4020208252F000872
:1025480008B5042020F08CFE01460948FFF7FCFA84
:10255800022020F085FE01460648FFF7F5FA012023
:1025680020F07EFE01460448FFF7EEFA012008BD80
:10257800742F0008882F00089C2F00087FB5134B84
:10258800012401934FF440530293114B00228221FE
:1025980003932046134600941CF024FB4FF6FF7665
:1025A800B04205464FF000010CD00A460B46009198
:1025B800019102911CF068FFB04204D128461CF03A
:1025C8008DFD00E00C46204604B070BD2D2E00089D
:1025D800AF2F000830B500230B600246154612F8ED
:1025E800014B5C2C03D100222A70C3180BE074B194
:1025F8000133F3E70D2B05D05C2B03D00A2B01D058
:102608000A6030BD13465A1C5B78002BF2D130BDEE
:10261800002330B50B60E0B10246154612F8014BB5
:10262800202C03D100222A70C3180EE08CB101338C
:10263800F3E7202B08D00A2B01D00D2B02D1002361
:102648000B6030BD0A6030BD13465A1C5B78002B06
:10265800EFD130BD70B5002386B005462D2101AA03
:10266800D1540133142BF9D12C462146284602F0C7
:1026780047FE044620B90E48FFF766FA06B070BD5B
:1026880002F020FE06AB1E18002306F8143C01A930
:102698000848FFF759FA2D2306F8143C616919B167
:1026A8000548FFF751FAE0E70448FFF74DFADCE781
:1026B8006B4B0008EB2E0008522E0008B52F0008BF
:1026C80010B502F06BFDBDE81040FFF7C3BF000076
:1026D80010B5044610B9FFF7F3FF09E002F064FDF6
:1026E80020B921460348FFF72FFA01E0FFF7B2FFB0
:1026F800012010BDC02F00082DE9F0410F46C0B0E1
:102708001646054630B3002414602B5D202B03D0F9
:1027180013B10134FF2CF8D129466846224622F02D
:1027280013FA4FF00008684639460DF8048022F085
:10273800B7FB80B92C1907E0202B05D00A2B0CD049
:102748000D2B0AD0326008E0224614F8013B002B1A
:10275800F2D102E002E0404600E0012040B0BDE8CE
:10276800F081000010B51048FFF7EEF90F48FFF7A9
:10277800EBF90F48FFF7E8F90E48FFF7E5F90E48BF
:10278800FFF7E2F90D48FFF7DFF90D48FFF7DCF92D
:102798000C48FFF7D9F90C48FFF7D6F90B48BDE804
:1027A8001040FFF7D1B900BFD32F00080030000850
:1027B800323000086C300008A6300008DD30000810
:1027C80003310008253100084B3100088331000827
:1027D80010B50B48FFF7B8F90A48FFF7B5F90A48EA
:1027E800FFF7B2F90948FFF7AFF90948FFF7ACF965
:1027F8000848FFF7A9F90848BDE81040FFF7A4B951
:10280800CF3100080D370008FB3100083D320008C1
:1028180070320008A7320008E232000810B50A48F2
:10282800FFF792F90848FFF78FF90748FFF78CF987
:102838000548FFF789F90448FFF786F90248BDE81B
:102848001040FFF781B900BF6B4B000810B50A486C
:10285800FFF77AF90848FFF777F90748FFF774F99F
:102868000548FFF771F90448FFF76EF90248BDE81B
:102878001040FFF769B900BF6B4B000810B50A4854
:10288800FFF762F90848FFF75FF90748FFF75CF9B7
:102898000548FFF759F90448FFF756F90248BDE81B
:1028A8001040FFF751B900BF6B4B000810B50A483C
:1028B800FFF74AF90848FFF747F90748FFF744F9CF
:1028C8000548FFF741F90448FFF73EF90248BDE81B
:1028D8001040FFF739B900BF6B4B000810B50A4824
:1028E800FFF732F90848FFF72FF90748FFF72CF9E7
:1028F8000548FFF729F90448FFF726F90248BDE81B
:102908001040FFF721B900BF6B4B000810B50A480B
:10291800FFF71AF90848FFF717F90748FFF714F9FE
:102928000548FFF711F90448FFF70EF90248BDE81A
:102938001040FFF709B900BF6B4B00080148FFF7CB
:1029480003B900BF4533000810B50A48FFF7FCF883
:102958000848FFF7F9F80748FFF7F6F80548FFF7C2
:10296800F3F80448FFF7F0F80248BDE81040FFF715
:10297800EBB800BF6B4B000810B50A48FFF7E4F846
:102988000848FFF7E1F80748FFF7DEF80548FFF7C2
:10299800DBF80448FFF7D8F80248BDE81040FFF715
:1029A800D3B800BF6B4B000810B50A48FFF7CCF846
:1029B8000848FFF7C9F80748FFF7C6F80548FFF7C2
:1029C800C3F80448FFF7C0F80248BDE81040FFF715
:1029D800BBB800BF6B4B000810B50A48FFF7B4F846
:1029E8000848FFF7B1F80748FFF7AEF80548FFF7C2
:1029F800ABF80448FFF7A8F80248BDE81040FFF715
:102A0800A3B800BF6B4B000810B50A48FFF79CF845
:102A18000848FFF799F80748FFF796F80548FFF7C1
:102A280093F80448FFF790F80248BDE81040FFF714
:102A38008BB800BF6B4B000810B50A48FFF784F845
:102A48000848FFF781F80748FFF77EF80548FFF7C1
:102A58007BF80448FFF778F80248BDE81040FFF714
:102A680073B800BF6B4B000810B53248FFF76CF81D
:102A78003148FFF769F83148FFF766F83048FFF743
:102A880063F83048FFF760F82F48FFF75DF82F48E4
:102A9800FFF75AF82E48FFF757F82E48FFF754F873
:102AA8002D48FFF751F82D48FFF74EF82C48FFF74F
:102AB8004BF82C48FFF748F82B48FFF745F82B4808
:102AC800FFF742F81C48FFF73FF82948FFF73CF8A2
:102AD8002848FFF739F82848FFF736F82748FFF75E
:102AE80033F82748FFF730F82648FFF72DF826482F
:102AF800FFF72AF82548FFF727F82548FFF724F8B5
:102B08002448FFF721F82448FFF71EF80A48FFF782
:102B18001BF82248FFF718F82148FFF715F8214855
:102B2800FFF712F82048FFF70FF82048BDE81040DB
:102B3800FFF70AB8703300086B4B0008A23300088F
:102B4800D3330008F633000813340008343400087F
:102B58005934000894340008C9340008EC340008DB
:102B68000B35000831350008533500087635000864
:102B7800A7350008D6350008F535000814360008D2
:102B8800333600085236000871360008A4360008AB
:102B9800C5360008E6360008093700083C37000843
:102BA8005F3700088D370008AA370008CB370008C0
:102BB80013B5534901AA0446FFF79EFD012802D127
:102BC800FFF7D0FD99E020464E4901AAFFF794FD92
:102BD800012802D1FFF7FCFD8FE020464A4901AAEF
:102BE800FFF78AFD012806D02046484901AAFFF7C9
:102BF80083FD012802D1FFF711FE7EE020464449FB
:102C080001AAFFF779FD012802D1FFF71FFE74E042
:102C18002046404901AAFFF76FFD012802D1FFF7BE
:102C28002DFE6AE020463C4901AAFFF765FD012810
:102C380002D1FFF73BFE60E02046384901AAFFF7C2
:102C48005BFD012802D1FFF749FE56E020463449D2
:102C580001AAFFF751FD012802D1FFF757FE4CE00A
:102C68002046304901AAFFF747FD012802D1FFF7A6
:102C780065FE42E020462C4901AAFFF73DFD0128E8
:102C880002D1FFF761FE38E02046284901AAFFF784
:102C980033FD012802D1FFF79FFE2EE0204624498C
:102CA80001AAFFF729FD012802D1FFF7ADFE24E0B4
:102CB8002046204901AAFFF71FFD012802D1FFF78E
:102CC8005BFE1AE020461C4901AAFFF715FD012802
:102CD80002D1FFF769FE10E02046184901AAFFF764
:102CE8000BFD012802D1FFF7A7FE06E014B9FFF794
:102CF800BBFE02E01248FEF727FF01201CBD00BF03
:102D0800F23700088A38000800190008F53700086B
:102D1800F9370008FC3700080438000808380008AC
:102D28000D38000812380008E8220208193800088F
:102D38001E38000823380008283800082F380008F3
:102D4800272F000802460BE0A3F14101C9B2192957
:102D580002D8203300F8013C12F8013F202B03D0A1
:102D680010F8013B002BEFD1704710B5044622F054
:102D7800E3F9002309E0E25C3A2A05D1E418607817
:102D8800003818BF012010BD01338342F3D1012060
:102D980010BD00002DE9F3414FF48071044622F084
:102DA800FBF9FF2802DD1B48FEF7CEFE2046FFF7A1
:102DB800C9FF2046FFF7D9FF18B9204601F0E2F80D
:102DC80028BB154D00262F462046296801AAFFF783
:102DD80093FC0128A84605D107EBC6035B68019858
:102DE800984705E0D8F80800013608350028EBD1E7
:102DF80057F8363063B9094B1D681DB12046A847FE
:102E0800054620B90648FEF79FFE284600E0012047
:102E1800BDE8FC8133380008C80700209818002056
:102E28004438000800B5C1B000206946FEF744FFE9
:102E38009DF8003013B16846FFF7ACFF1AF050FD5B
:102E48003E20FEF773FEEFE70D0A25730D0A0064B6
:102E58006A796F7356312E302E342E32303132313A
:102E68003230382028323030342D32303132290097
:102E780064656275675F696E666F000D0AB5B1C7F4
:102E8800B0CAB1BCE4A3BA253032643A2530326402
:102E98003A25303264000D0ACAE4C8EBD0C2CAB180
:102EA800BCE4A3BA002F002C00D0A1CAB1B4EDCE67
:102EB800F3A1A300B7D6D6D3B4EDCEF3A1A300C334
:102EC800EBD6D3B4EDCEF3A1A3000D0AB5B1C7B0CC
:102ED800C8D5C6DAA3BA25642F253032642F253029
:102EE8003264202573000D0ACAE4C8EBD0C2C8D5E5
:102EF800C6DAA3BA00C4EAB7DDB4EDCEF3A1A300E5
:102F0800D4C2B7DDB4EDCEF3A1A300C8D5C6DAB4F8
:102F1800EDCEF3A1A30030782538783A000D0AB237
:102F2800CECAFDB4EDCEF30D0A000D0AB8F1CABD44
:102F3800B4EDCEF3A3ACD5FDC8B7B8F1CABDCAC7C6
:102F4800A3BA0D0A3E6420B5D8D6B720B5A5D4AA31
:102F5800CAFD20C3BFB5A5D4AAD7D6BDDACAFD0D10
:102F68000A00253278200025347820003332CEBB81
:102F7800D1ADBBB7B1E4C1BF2025646E530D0A00C3
:102F88003136CEBBD1ADBBB7B1E4C1BF2025646E2D
:102F9800530D0A0038CEBBD1ADBBB7B1E4C1BF20D9
:102FA80025646E530D0A007368656C6C00CEDEC331
:102FB800FBD7CAD4B40D0A00C3BBD5D2B5BD2025F2
:102FC8007320D7CAD4B4CAF70D0A004442585F6EBA
:102FD800616D655B3A5D202020202020202020BDE7
:102FE800F8C8EBD6B8B6A8CEC4BCFEB9F1C3FBB8D6
:102FF800F9C4BFC2BC0D0A002020202020202020B8
:10300800202020202020202020202020C0FDC8E7CC
:10301800A3BA44A3BA20BDF8C8EB44CEC4BCFEB9D9
:10302800F1B8F9C4BFC2BC0D0A0063642F636864B9
:1030380069725BCEC4BCFEB9F1A3BA5DC2B7BEB6B5
:1030480020CFD4CABEB5B1C7B0C4BFC2BCB5C4C313
:10305800FBB3C6BBF2B8C4B1E4B5B1C7B0C4BFC214
:10306800BC0D0A0020202020202020202020202005
:103078002020202020202020C0FDC8E73A20312928
:10308800636420433A5C666F6C64657220BDF8C85F
:10309800EB666F6C646572C4BFC2BC0D0A00202069
:1030A8002020202020202020202020202020202018
:1030B80020202020202020203229636420666F6C85
:1030C80064657220BDF8C8EB666F6C646572C4BF36
:1030D800C2BC0D0A0063642F63686469725B5D2873
:1030E800BFD5D7D6B7FB2920CFD4CABEB5B1C7B094
:1030F800C4BFC2BCC3FBB3C60D0A0063642F6368B8
:103108006469725B5C5D2020202020202020B8FCB0
:10311800BBBBB5BDB8F9C4BFC2BC0D0A0063642F00
:1031280063686469725B2E2E5D2020202020202099
:10313800B8FCBBBBB5BDC9CFD2BBBCB6C4BFC2BC53
:103148000D0A0020202020202020202020202020C0
:10315800202020202020C0FDC8E73A2031296364C0
:10316800202E2E5C2E2E20BDF8C8EBC9CFC1BDBCC9
:10317800B6B5C4C4BFC2BC200D0A00202020202040
:103188002020202020202020202020202020202037
:103198002020202032296364202E2E5C666F6C6408
:1031A800657220BDF8C8EBC9CFD2BBBCB6C4BFC2DC
:1031B800BCD6D0BAACD3D0666F6C646572B5C4C4E3
:1031C800BFC2BC200D0A00646972095BCEC4BCFE94
:1031D800B9F1A3BA5DC2B7BEB620205BCEC4BCFEAF
:1031E800B9F1A3BA5DC2B7BEB62E2E2E202E2E2E52
:1031F8000D0A00646972095BCEC4BCFEB9F1A3BABA
:103208005D5BBAACD3D0CDA8C5E4B7FBC2B7BEB638
:103218005D5BCEC4BCFEB9F1A3BA5D5BBAACD3D0DA
:10322800CDA8C5E4B7FBC2B7BEB65D2E2E2E202EA4
:103238002E2E0D0A002020202020202020202020B3
:1032480020CFD4CABED6B8B6A8C4BFC2BCCFC2C6E7
:10325800A5C5E4B5C4CEC4BCFEBACDD7D3C4BFC2DD
:10326800BCC1D0B1ED0D0A00646972095B5C5D5B9D
:103278005C5D2E2E2E202E2E2E09CFD4CABEB8F974
:10328800C4BFC2BCCFC2D2BBBCB6B5C4CEC4BCFEE0
:10329800BACDD7D3C4BFC2BCC1D0B1ED0D0A00644A
:1032A8006972095B2E2E5D5B2E2E5D2E2E2E202E32
:1032B8002E2E09CFD4CABEB5B1C7B0C4BFC2BCC9CF
:1032C800CFD2BBBCB6B5C4CEC4BCFEBACDD7D3C46E
:1032D800BFC2BCC1D0B1ED0D0A00646972095B5D63
:1032E80028BFD5D7D6B7FB29202020202020CFD42F
:1032F800CABEB5B1C7B0C4BFC2BCCFC2B5C4CEC4C4
:10330800BCFEBACDD7D3C4BFC2BCC1D0B1ED0D0A83
:103318000052656E2F72656E616D65205BCEC4BC10
:10332800FEB9F13A5D5BC2B7BEB65DCEC4BCFEC3A2
:10333800FB3120CEC4BCFEC3FB320D0A0063686BB0
:1033480064627820CEC4BCFEC3FB20CFD4CABEB80A
:10335800C3CEC4BCFEB9F1CFC2B5C4CEC4BCFEB99D
:10336800F1CAF4D0D40D0A000D0AD3D0B9D8C4B329
:10337800B8F6C3FCC1EEB5C4CFEACFB8D0C5CFA26A
:10338800A3ACC7EBCAE4C8EB68656C70205BC4B338
:10339800B8F6C3FCC1EE5D0D0A006C6973742D723A
:1033A80073632020202020202020C1D0B3F6CFB581
:1033B800CDB3D6D0B5C4D7CAD4B4C3FBD7D6BACD4B
:1033C800B2E3B4CEB9D8CFB50D0A007370656564A1
:1033D8002020202020202020202020B2E2C1BFD1A0
:1033E800ADBBB7D4CBD0D0CBD9B6C80D0A00657663
:1033F800656E742020202020202020202020CFD47B
:10340800CABECAC2BCFEB1ED0D0A0065767474204E
:103418002020202020202020202020CFD4CABECA4F
:10342800C2BCFEC0E0D0CDB1ED0D0A006865617088
:10343800202020202020202020202020CFD4CABED9
:10344800CFB5CDB3B6D1CAB9D3C3C7E9BFF60D0A54
:1034580000737461636B202020202020202020200E
:1034680020CFD4CABECFB5CDB3D6D0CBF9D3D0D226
:10347800D1BEADB7D6C5E4CFDFB3CCB5C4CAC2BCE4
:10348800FEB5C4D5BBD0C5CFA20D0A006C6F636B67
:10349800202020202020202020202020CFD4CABE79
:1034A800CFB5CDB3D6D0CBF9D3D0D0C5BAC5C1BF6F
:1034B800BACDBBA5B3E2C1BFB5C4D0C5CFA20D0A72
:1034C80000642020202020202020202020202020D0
:1034D80020B6C1C8A1C4DAB4E6C0EFB5C4CAFDBEFF
:1034E800DD0D0A006620202020202020202020201A
:1034F80020202020D0B4CAFDBEDDB5BDC4DAB4E6B4
:103508000D0A0068656C70202020202020202020D3
:10351800202020444A594F53B5C4C3FCC1EEB0EF34
:10352800D6FAD0C5CFA20D0A0076657220202020D9
:10353800202020202020202020CFD4CABE646A79F1
:103548006F73B5C4B0E6B1BE0D0A0064617465203E
:103558002020202020202020202020CFD4CABEBB1D
:10356800F2D5DFC9E8D6C3C8D5C6DA0D0A00746932
:103578006D65202020202020202020202020CFD44E
:10358800CABEB5B1C7B0CAB1BCE4BBF2D5DFC9E8A1
:10359800D6C3CAE4C8EBD0C2CAB1BCE40D0A006302
:1035A800642020202020202020202020202020CF20
:1035B800D4CABEB5B1C7B0C4BFC2BCB5C4C3FBB3DF
:1035C800C6BBF2BDABC6E4B8FCB8C40D0A006D6456
:1035D8002020202020202020202020202020B4B4BB
:1035E800BDA8D2BBB8F6C4BFC2BC0D0A006D6B64DF
:1035F80069722020202020202020202020B4B4BD63
:10360800A8D2BBB8F6C4BFC2BC0D0A0072642020A1
:10361800202020202020202020202020C9BEB3FDEB
:10362800D2BBB8F6C4BFC2BC0D0A00726D64697221
:103638002020202020202020202020C9BEB3FDD219
:10364800BBB8F6C4BFC2BC0D0A00636F70792020F6
:1036580020202020202020202020B8B4D6C6D2BB8D
:10366800B8F6CEC4BCFE0D0A006D6F76652020202A
:10367800202020202020202020BDABD2BBB8F6BBC4
:10368800F2B6E0B8F6CEC4BCFED2C6B6AFB5BDD66B
:10369800B8B6A8C4BFC2BCCFC20D0A0072656E20FE
:1036A800202020202020202020202020D6D8C3FC25
:1036B800C3FBD2BBB8F6CEC4BCFE0D0A0072656E61
:1036C800616D6520202020202020202020D6D8C30E
:1036D800FCC3FBD2BBB8F6CEC4BCFE0D0A006465C1
:1036E8006C20202020202020202020202020C9BE3F
:1036F800B3FDD6C1C9D9D2BBB8F6CEC4BCFE0D0A3B
:1037080000646972202020202020202020202020F2
:1037180020CFD4CABED6B8B6A8C4BFC2BCCFC2B523
:10372800C4CEC4BCFEBACDD7D3C4BFC2BCC1D0B10D
:10373800ED0D0A00CEC4BCFECFB5CDB3B2C1B3FD0A
:10374800D3EBD6D8BDA8C3FCC1EEA3A8C9F7D3C391
:10375800A3A1A3A90D0A00636869702D657261733E
:1037680065202020202020B2C1B3FD4E414E4446A2
:103778004C415348D0BEC6ACD6D0CBF9D3D0C4DA6E
:10378800C8DD0D0A006372656174652D6462782076
:103798002020202020B4B4BDA8CEC4BCFEB9F10DB1
:1037A8000A00666F726D617420202020202020207E
:1037B8002020B8F1CABDBBAFCEC4BCFECFB5CDB3D7
:1037C8000D0A0063686B6462782020202020202086
:1037D800202020CFD4CABECEC4BCFEB9F1BFD5BC10
:1037E800E4B5C4B2CECAFD0D0A0063640072656E0A
:1037F800006D640064656C747265650064656C00D6
:10380800636F7079006D6F76650063686B646278CA
:103818000074696D650064617465006368637000B5
:10382800666F726D617400636C7300CAE4C8EBD78D
:10383800D6B7FBB4AECCABB3A40D0A000D0ACEDEEE
:10384800B4CBC3FCC1EE0D0A006C6973742D72739E
:1038580063007370656564006576656E74006576EF
:103868007474006865617000737461636B006865E7
:103878006C7000726D6469720072656E616D6500CE
:103888006368646972006D6B64697200636869706B
:103898002D6572617365006372656174652D64627C
:1038A800780010B5044698B121F046FC0023E25C8C
:1038B8002A2A09D03F2A07D001338342F7D905E0E5
:1038C800E25C5C2A05D001338342F9D9002010BD9F
:1038D80010BD012010BD10B50446A0B121F02CFC8C
:1038E800231813F8013C5C2B0ED03A2B07D10BE0C0
:1038F800235C2A2B0AD03F2B08D05C2B08D0013838
:103908000028F5DA00E010BD002010BD012010BD30
:10391800002010BD10B5044660B121F00DFC002355
:10392800E25C2A2A07D03F2A07D001338342F7D91D
:10393800002010BD10BD012010BD012010BD30B504
:10394800F9B100231A4616E02A2C03D00CE0013303
:10395800CC5CB4B1CD5C2A2DF9D001E09CB1013228
:10396800845CAC42FAD106E0855CA54201D03F2CCC
:103978000BD101320133CC5C002CE5D1855C002DE4
:10398800F2D1012030BD204630BD002030BD10B539
:10399800044621F0D1FB002309E0E25C5C2A05D152
:1039A800E4186078003818BF012010BD0133834245
:1039B800F3D1012010BD10B5044621F0BDFB80B243
:1039C800231813F8012C5C2A0DD113F8023C3A2B6A
:1039D80016D0831E03E0E25C5C2A09D0013B9BB24F
:1039E800002BF8D10CE0431E07E0E25C5C2A03D10F
:1039F800E4180023637003E0013B9BB2002BF4D171
:103A0800012010BD70B504460D46164621F094FB02
:103A1800F8B10023E21812F8012C3A2A05D05C2AE2
:103A280003D001338342F5D101E0834204D100235E
:103A380033602C60207870BD0138834203D10020A8
:103A48002860346070BDE2182A6034600022E05CAF
:103A5800E25470BD73B5054630B101A96A46FFF757
:103A6800D1FF019D04460DB918480DE0009870B1CA
:103A780000211AF015FE054628B1009814491AF0DD
:103A8800D2FD054605E01348FEF75EF81BE0124B31
:103A98001D68019B03B11C700024214628461AF0BA
:103AA800B5FD044658B100F1840630460199FFF788
:103AB80046FF0028F1D030461AF017FEEDE72846F9
:103AC8001AF06AFE012528467CBD00BF084D000893
:103AD80020B001083A4B00088C3B002010B50E4975
:103AE800044621F0DDF9A8B120464FF4807121F099
:103AF80053FB80B2FF280AD8231813F8012C5C2A3C
:103B080007D05C2222545C3A5A70012010BD002074
:103B180010BD012010BD00BF474B000810B54FF481
:103B28008071044621F038FB83B2FF2B07D8013B94
:103B3800E25C00205C2A03D1E054013010BD002073
:103B480010BD00002DE9F043002285B00023CDE927
:103B58000223054600286AD01AF0F2FC0021074625
:103B680002F0D4F8044608B9334817E00026214685
:103B78007A1C067028461AF0FFFC21462F48FDF7EC
:103B8800E3FF3146324602AB28461AF0C5FC284608
:103B980031461AF03BFD044618B92948FDF7D4FF11
:103BA80046E037464FF000084FF0000994F8270028
:103BB80094F82BE094F82A1094F8283094F82920E7
:103BC800009094F826004FEA0E2E019071441D488B
:103BD800FDF7BAFF237F03F01003DBB223B11A48C5
:103BE800FDF7B2FF013603E01848FDF7ADFF0137D6
:103BF800A16E04F184021648FDF7A6FFD4E91A2342
:103C0800214618EB0208284649EB03091AF0FEFC86
:103C180004460028CAD1394642460E48FDF794FFAB
:103C28000D483146029AFDF78FFF013400E0044643
:103C3800204605B0BDE8F0834A4B0008604B0008F9
:103C48002C4B00086E4B0008854B00082B0502081A
:103C58008D4B0008964B0008A84B00082DE9F04D45
:103C6800002286B00023CDE90223054608B93C4866
:103C780012E005A904AAFFF7C5FE0446049870B12E
:103C880000211AF00DFD054628B1049835491AF0AF
:103C9800CAFC054605E03448FDF756FF5CE0334BA7
:103CA8001D68059B03B11C7000244FF0000A4FF0FB
:103CB800000B26462746214628461AF0A7FC04464C
:103CC800002835D000F1840840460599FFF737FEF3
:103CD8000028F0D094F8270094F82BE094F82A10E4
:103CE80094F8283094F82920009094F826004FEA98
:103CF8000E2E019071441E48FDF726FF237F03F026
:103D08001003DBB223B11B48FDF71EFF013603E0A9
:103D18001948FDF719FF013742461848A16EFDF70B
:103D280013FFD4E91A231AEB020A4BEB030BC2E781
:103D380002AB2146224628461AF0EEFB28461AF026
:103D48002BFD394652460E48FDF7FEFE0D4831461A
:103D5800029AFDF7F9FE0125284606B0BDE8F08D68
:103D6800084D000820B001083A4B00088C3B0020A1
:103D78006E4B0008854B00082B050208BE4B000857
:103D8800964B0008A84B000800B5E3B069461AF046
:103D980087FC012808D19DF81C0000F01000D0F124
:103DA800010038BF002000E0022063B000BD000021
:103DB80010B5044618B91148FDF7C6FE1BE0FFF719
:103DC8008DFE20461AF001FBA0B1204600211AF012
:103DD80067FC48B920460A491AF025FC044650B148
:103DE8001AF0DAFC012406E021460648FDF7ACFE8D
:103DF800002400E00446204610BD00BFC84B000860
:103E0800DA4B0008DD4B000838B5044620B91648DF
:103E1800FDF79AFE254625E01AF0D7FAF8B12046B4
:103E280012491AF000FC054608B9114814E0057F4C
:103E380005F01005EDB265B11AF0AEFC20461AF097
:103E480054FC0C4B98420CD121460B48FDF77CFEE4
:103E580007E01AF0A1FC0948FDF776FE02E00546E6
:103E680000E00125284638BDC84B000820B00108ED
:103E7800FA4B000806000002114C0008224C00080A
:103E880030B5C3B00190FF2102A819F0AFFC00249F
:103E9800019801A9FEF79EFB054608B9002C2BD016
:103EA8002846174920F0FCFF80B102A8FFF716FE4C
:103EB800294602A820F04AFF02A812491AF0B3FBCB
:103EC800044668B91048FDF73FFE15E002A8FFF761
:103ED80072FD019B53B902A80A491AF0A4FB0446D3
:103EE800FFF730FE20461AF057FC04E00134142C8A
:103EF80001D0002DCCD10124204643B030BD00BFF5
:103F0800474B000820B00108324C000873B5194C23
:103F18000190206801F026F9064601A90198FEF7EC
:103F280059FB1549054620F0BBFF90B12846FFF71D
:103F38002BFF48B92846114926681AF074FB2060FF
:103F480030461AF029FC12E00D48FDF7FDFD00206F
:103F58000EE0206801F04AF9B042064D034606D04B
:103F680028682B601AF018FC019B002BD5D1012082
:103F78007CBD00BF8C3B0020474B000820B00108E7
:103F88004A4C000810B5C0B00146684621F076F8E2
:103F98000C49684620F0DAFE684600211AF080FBDA
:103FA800044640B1684608491AF03DFB38B1074B52
:103FB8001860012003E00648FDF7C6FD204640B022
:103FC80010BD00BF26EA010820B001088C3B002084
:103FD8005F4C00082DE9F3470E462D4907461AF0B5
:103FE80022FB054600284FD0846E1AF0D5FB04F555
:103FF8007E5909F17F095FEA993906D1254930468A
:104008001AF011FB1AF0C8FB3DE02046002101F030
:104018007DFE0546002837D01D4938461AF003FBB7
:104028001C49804630461AF0FEFAA404A40C002C61
:1040380008BF4FF480448246002609F1FF37BE428C
:104048000CBF27464FF48047002306FB07F2404683
:1040580000931AF059FC01223946434628461AF0C3
:10406800DDFB013601222846394653461AF014FC76
:104078004E45E2D140461AF08FFB50461AF08CFBB1
:10408800284601F0A1FE01252846BDE8FC8700BFAF
:1040980020B00108704C00082DE9F84305460F468A
:1040A800084600211AF0FCFA044608B9394830E0FD
:1040B800384639491AF0B7FA0646002865D090F80C
:1040C8001C8008F020085FFA88F8B8F1000F07D0C4
:1040D8003048FDF739FD30461AF05EFB002455E004
:1040E8001AF05AFB28462C491AF09DFA81460028F6
:1040F80037D041461AF08AFA044648461AF04CFB73
:1041080054B929462548FDF71FFD2548FDF71CFD34
:104118002448FDF719FD39E0237F03F02003DBB2C3
:10412800CBB104F184094946284620F00FFE4946E0
:10413800384620F00BFE39462846FFF74BFF294644
:104148001948FDF701FD2846FFF735FC3846FFF70B
:1041580032FC08F1010828460F491AF064FA814632
:1041680020B930461AF018FB4C460FE01AF014FB41
:10417800214648461AF04AFA04460028CCD10B4892
:104188004146FDF7E1FC013400E004462046BDE865
:10419800F88300BF734C000820B00108954C000854
:1041A800FA4B00089B4C0008522E0008B54C00083A
:1041B8002DE9F74F0E46304981461AF034FA054684
:1041C800002855D0846E1AF0E7FA04F57E5A0AF1F1
:1041D8007F0A5FEA9A3A08D1284930461AF023FA4A
:1041E8001AF0DAFA48461AF080FA2046002101F05F
:1041F8008DFD054600283BD01F4948461AF013FAA2
:104208001E49804630461AF00EFAA404A40C002C6D
:1042180008BF4FF48044834600261AE00AF1FF37AE
:10422800BE420CBF27464FF48047002306FB07F227
:10423800404600931AF068FB394601224346284657
:104248001AF0ECFA2846394601225B461AF024FB9C
:1042580001365645E2D140461AF09EFA58461AF001
:104268009BFA48461AF041FA284601F0ADFD0125AF
:104278002846BDE8FE8F00BF20B00108704C00083A
:104288002DE9F04705460F46084600211AF008FABE
:10429800044608B9434837E0384643491AF0C3F999
:1042A800064600287AD090F81C8008F020085FFAAB
:1042B80088F8B8F1000F07D03A48FDF745FC3046BA
:1042C8001AF06AFA00246AE01AF066FA28463649B3
:1042D8001AF0A9F9814620B930461AF05DFA4C4621
:1042E8005DE041461AF092F9044648461AF054FA3D
:1042F80014B14FF0FF390AE029462C48FDF724FC99
:104308002B48FDF721FC2B48FDF71EFC47E0237FD7
:1043180003F02003DBB2D3B104F1840A51462846E6
:1043280020F014FD5146384620F010FD3946284645
:10433800FFF73EFF29462048FDF706FC2846FFF711
:104348003AFB3846FFF737FB08F1010804E0B9F1FA
:10435800FF3F08BFD4F83090284613491AF063F994
:10436800824620B930461AF017FA544617E01AF078
:1043780013FA214650461AF049F9044640B1037F22
:1043880003F02003DBB2002BC1D1036B9945BED1EA
:104398000A484146FDF7D8FB012400E004462046C0
:1043A800BDE8F087734C000820B00108954C000860
:1043B800FA4B0008D04C0008522E0008EA4C0008BE
:1043C80030B5044685B0002800F08780FFF769FA09
:1043D80020B121464248FDF7B7FB77E02046FFF7BA
:1043E8007AFA18B12046FFF739FC6FE020463D49BC
:1043F80020F056FD20B93C4B18681AF05EF80FE023
:1044080023782E2B0FD163782E2B06D12046FFF769
:1044180037FD003818BF01205FE023B9324B186818
:10442800FFF790FB52E0204619F0CFFF054608B988
:104438002E484EE02046FFF7A7FC014620B12C4845
:10444800FDF782FB002048E020461AF029F90546CE
:1044580000283DD0274920461AF0E5F8017F054697
:1044680001F01001C9B211B1FFF76CFB2BE00A464D
:1044780002AB1AF051F821461F48FDF765FB95F885
:10448800270095F8283095F8292095F82B4095F8BD
:104498002A10009095F82600240261180190174808
:1044A800FDF752FB1648FDF74FFBA96E05F1840294
:1044B8001448FDF749FBA96E1348FDF745FB13485F
:1044C8000299FDF741FB28461AF066F9012004E03D
:1044D8000F48FDF739FB2846FFE705B030BD00BFA0
:1044E800054D000826EA01088C3B0020184D0008FD
:1044F8002A4D000820B00108604B00086E4B0008E8
:104508002B050208BE4B0008414D0008524D00081B
:10451800674D000810B5044686B020B91048FDF76D
:1045280013FB204619E004A902AA6B4619F0D1FF33
:1045380078B12146049A0B48FDF706FB2146029AFA
:104548000948FDF701FB2146009A0848FDF7FCFAE7
:1045580002E00748FDF7F8FA012006B010BD00BFD9
:10456800C84B0008744D00088E4D0008A64D000881
:10457800BE4D000830B50446ADF5437D08B95A482C
:1045880009E0C1A9FEF744F8014681A820F076FDAC
:10459800C19C1CB95548FDF7D7FAA0E02046C1A92F
:1045A800FEF736F8014641A820F068FD81A819F009
:1045B8000CFF0446002800F0928041A819F005FF7E
:1045C8000446002800F08B8081A800211AF068F8C2
:1045D800044608B94648DEE781A841A920F060FCF6
:1045E80000287BD041A800211AF05AF8002854D09E
:1045F80041A840491AF017F8044600286FD0037FF5
:1046080003F02003DBB21BB33B4841A9FDF79CFA3A
:1046180020461AF0C1F8002001A9FDF74DFB9DF8CE
:104628000400792801D0592808D1FDF77FFA3348CA
:10463800FDF78AFA41A81AF058F831E06E2801D03F
:104648004E28E8D1FDF772FA2C48FDF77DFA0BE009
:1046580041A8FFF743FA81A8264919F0E4FF054667
:1046680020B920461AF098F8002438E0037F03F0B8
:104678002003DBB253B181A8FFF750FA01A981A842
:1046880019F004FC41A801A920F060FB20461AF0AB
:1046980083F828461AF080F802E081A8FFF73EFA6E
:1046A80081A8144919F0BFFF0446C0B1037F03F085
:1046B8001003DBB24BB91AF06FF881A841A9FFF7D4
:1046C80089FC0F48FDF740FA08E01AF065F881A860
:1046D800FFF704FA81A841A9FFF7DEFC0124204670
:1046E8000DF5437D30BD00BFC84B0008DA4D00080A
:1046F800FA4B000820B00108FC4D00086B4B00087D
:10470800124E000830B50446ADF5437D08B9584847
:1047180009E0C1A9FDF77CFF014681A820F0AEFCA5
:10472800C19C1CB95348FDF70FFA9CE02046C1A96B
:10473800FDF76EFF014641A820F0A0FC81A819F002
:1047480044FE0446002800F08E8041A819F03DFE82
:104758000446002800F0878081A8002119F0A0FFF6
:10476800044608B94448DEE781A841A920F098FB2F
:10477800002877D041A8002119F092FF002850D0D6
:1047880041A83E4919F04FFF044600286BD0037F2B
:1047980003F02003DBB2FBB1394841A9FDF7D4F996
:1047A800204619F0F9FF002001A9FDF785FA9DF8C8
:1047B8000400792808D1FDF7B9F93248FDF7C4F9A2
:1047C80041A819F092FF2FE06E28ECD1FDF7AEF961
:1047D8002C48FDF7B9F90BE041A8FFF77FF981A84C
:1047E800264919F020FF054620B9204619F0D4FFC4
:1047F800002438E0037F03F02003DBB253B181A823
:10480800FFF78CF901A981A819F040FB41A801A97B
:1048180020F09CFA204619F0BFFF284619F0BCFF8B
:1048280002E081A8FFF77AF981A8144919F0FBFE84
:104838000446C0B1037F03F01003DBB24BB919F093
:10484800ABFF81A841A9FFF7B3FC0F48FDF77CF93E
:1048580008E019F0A1FF81A8FFF740F981A841A954
:10486800FFF70EFD012420460DF5437D30BD00BF46
:10487800C84B0008DA4D0008FA4B000820B00108C0
:10488800FC4D00086B4B00082C4E000873B506461B
:1048980008B9114813E001A9FDF7BAFE01A90446B9
:1048A8000198FDF7B5FE0546204619F08EFD78B152
:1048B8002046002119F0F4FE064618B90748FDF70E
:1048C80043F906E02046294619F037FF012600E0A3
:1048D800064630467CBD00BFC84B0008FA4B0008AE
:1048E80010B5C2B041A9FDF793FE044620B90D48A2
:1048F800FDF72AF9204612E001A8214620F0BEFB68
:1049080001A8FFF755FA41A94198FDF781FE044631
:10491800214601A820F0B2FB002CF1D1012042B0C1
:1049280010BD00BFC84B000813B50446019020B95C
:104938000B48FDF709F9204611E0019801A9FDF798
:1049480067FE044650B1FEF7E5FF18B10448FDF7CD
:10495800FBF8F2E72046FFF757FAEEE701201CBD07
:10496800C84B000813B5044620B91B48FDF7ECF8FE
:10497800204630E0019001A81849FDF79EF804464A
:1049880040B30378202B25D0FFF701F820B9214642
:104998001348FDF7D9F81DE02046FEF782FF08B15D
:1049A8000F4813E02046FEF796FF18B12046FFF7A0
:1049B80051F8E0E72046FFF7E7F90128DBD1204668
:1049C80019F093FE08B9074800E007482146FDF7AB
:1049D800BBF8D0E701201CBDC84B00083105020810
:1049E800054D0008464E0008534E0008F0B5044631
:1049F800C1B018B918F074FF28484AE0284920F0D7
:104A08004FFAA0B96846FF2118F044FF002843D0A8
:104A1800244C6846244920F099F9684623492568BA
:104A280019F001FE2060284619F0B6FE33E023781D
:104A38002E2B09D163782E2B06D12046FFF766FA74
:104A4800003818BF012027E0204619F0BEFC18B333
:104A58000021204619F024FE0128054618D12046D9
:104A6800FFF792F918B12046FEF791FF58B90D4E9D
:104A78000E492046376819F0D6FD3060384619F0DF
:104A88008BFE284608E00A48FDF75EF8002003E0A0
:104A98000748FDF759F8012041B0F0BD6B4B0008FD
:104AA80026EA01088C3B002025EA010820B001080D
:104AB8002A4D000807B5019020B9094B1868FFF77F
:104AC80041F80AE001A80749FCF7F7FF28B1037885
:104AD800202B02D0FFF774FCF4E701200EBD00BFC5
:104AE8008C3B0020310502080120704708B50246BA
:104AF80008B908480AE00120002119F033FF08B975
:104B0800054800E00548FDF71FF80548FDF71CF8C3
:104B1800012008BD624E0008734E00087E4E000852
:104B28006B4B0008B8C3C4BFC2BCCEAABFD5210D09
:104B38000A00C2B7BEB6B2BBB4E6D4DA0A0D002E7C
:104B48002E00C4DAB4E6B2BBD7E3A3ACB2BBC4DC74
:104B5800D6B4D0D064697200257320B5C4C4BFC26E
:104B6800BC0D0A0D0A0025642F253032642F25302C
:104B7800326420253032643A2530326400203C44C7
:104B880049523E20002539642025730D0A0025640A
:104B9800B8F6CEC4BCFE202564D7D6BDDA0D0A000F
:104BA8002564B8F6C4BFC2BC202564BFC9D3C3D727
:104BB800D6BDDA0D0A00253964422025730D0A0096
:104BC800C3FCC1EED3EFB7A8B2BBD5FDC8B7210D62
:104BD8000A00772B000D0AD7D3C4BFC2BCBBF2D5DD
:104BE800DFCEC4BCFE2564D2D1BEADB4E6D4DA0DA6
:104BF8000A00CFB5CDB3D5D2B2BBB5BDD6B8B6A82D
:104C0800B5C4CEC4BCFE0D0A00C4BFC2BC2573B275
:104C1800BBCAC7BFD5A3A10D0A00C4BFC2BCC3FB92
:104C2800B3C6CEDED0A7210D0A00CFB5CDB3D5D2FD
:104C3800B2BBB5BDD6B8B6A8B5C4C2B7BEB6210D0D
:104C48000A00CFB5CDB3D5D2B2BBB5BDD6B8B6A8DC
:104C5800C2B7BEB60D0A00B8C3CEC4BCFEB9F1B225
:104C6800BBB4E6D4DA0D0A00612B00646A796F736D
:104C7800B2BBD6A7B3D6B4CBB2D9D7F72CCFEAC735
:104C8800E9C7EBBFB468656C70210D0A0025732A6B
:104C98000D0A00D2D1BEADB8B4D6C6C1CB0920200A
:104CA80020200930B8F6CEC4BCFE0D0A00D2D1BE11
:104CB800ADB8B4D6C6C1CB0920202020092564B8D8
:104CC800F6CEC4BCFE0D0A00D2D1BEADD2C6B6AF78
:104CD800C1CB09202020200930B8F6CEC4BCFE0D77
:104CE8000A00D2D1BEADD2C6B6AFC1CB09202020B2
:104CF80020092564B8F6CEC4BCFE0D0A0025732031
:104D0800CEC4BCFEC3FBB2BBD5FDC8B7210D0A009B
:104D1800C2B7BEB6B8F1CABDB2BBD5FDC8B7210D82
:104D28000A00CFB5CDB3D5D2B2BBB5BDD6B8B6A8FB
:104D3800B5C4C2B7BEB60D0A0031B8F6CEC4BCFEC3
:104D4800202564D7D6BDDA0D0A0030B8F6C4BFC234
:104D5800BC202564BFC9D3C3D7D6BDDA0D0A00D598
:104D6800D2B2BBB5BDCEC4BCFE0D0A00CEC4BCFEDB
:104D7800B9F12573D5BCD3C3D7DCBFD5BCE4A3BA7E
:104D88002564420D0A00CEC4BCFEB9F12573D3D008
:104D9800D0A7BFD5BCE4A3BA2564420D0A00CEC48F
:104DA800BCFEB9F12573BFD5CFD0BFD5BCE4A3BA3B
:104DB8002564420D0A00CEC4BCFEB9F1C3FBB2BBE8
:104DC800D5FDC8B7BBF2CEB4B8F1CABDBBAF210D93
:104DD8000A00646A796673B2BBD6A7B3D6B4CBB2FD
:104DE800D9D7F7A3ACCFEAC7E9C7EBBFB468656CFE
:104DF800700D0A00CAC7B7F1B8B2B8C72573A3BF08
:104E0800203C7965732F6E6F3E00D2D1BEADB8B429
:104E1800D6C6C1CB20202020202031B8F6CEC4BC75
:104E2800FE0D0A00D2D1BEADD2C6B6AFC1CB20208E
:104E38002020202031B8F6CEC4BCFE0D0A00D2D105
:104E4800C9BEB3FD202573200D0A00C9BEB3FD20DD
:104E5800257320B4EDCEF30D0A00CEC4BCFEB9F123
:104E6800C3FBB2BBC4DCCEAABFD500B8F1CABDBB78
:104E7800AFB3C9B9A600B8F1CABDBBAFCAA7B0DC09
:104E880000000000064B074A1B605A610022DA60E6
:104E98009A6018321A61044A5B60136001207047F7
:104EA800A0180020665400089C180020012108B5AD
:104EB80003480A46034B01F0E3F9012008BD00BF8F
:104EC800B81800205854000810B590B1094B01617A
:104ED8001C680023C360E368846042611BB9E0601A
:104EE8000060406010BD5A68036042605A685860AC
:104EF800106010BD9C1800200023C360836003600D
:104F08004360704738B50446C8B10E4D01612B683F
:104F1800426183600023C3604FF0FF310A4801F00B
:104F2800FBF958B12B680848DB685A68236062604F
:104F38005A685C60146001F0B3F900E0044620464A
:104F480038BD00BF9C180020B8180020F8B50C46E2
:104F580015461F460646B0B1B1B10C484FF0FF31B7
:104F680001F0DAF978B1736826606360B368256187
:104F7800A3600023E360736867611C607460034882
:104F880001F08EF900E004462046F8BDB81800206C
:104F9800F8B50C4615461F460646B0B1B1B10C48E7
:104FA8004FF0FF3101F0B8F978B1336866602360DB
:104FB800B3682561A3600023E360336867615C60C0
:104FC8003460034801F06CF900E004462046F8BD5F
:104FD800B8180020F8B50C4615461F460646E0B13D
:104FE800E1B10F484FF0FF3101F096F9A8B1002365
:104FF800E360F3682561676123B9F460A660246003
:10500800646006E05A68236062605A68A6601460AB
:105018005C60034801F044F900E004462046F8BD0E
:10502800B8180020F8B50C4615461F460646E8B1E4
:10503800E9B110484FF0FF3101F06EF9B0B100232B
:10504800E360F3682561676123B9F460A6602460B2
:10505800646007E05A68236062605A68A66014605A
:105068005C60F460034801F01BF900E00446204648
:10507800F8BD00BFB818002038B50446E8B110489C
:105088004FF0FF3101F048F9B8B1E36883B92568FA
:10509800A54202D1AA68D3600BE0A368DA68A242ED
:1050A80008BFDD6063681D6022682546536000E024
:1050B8000025034801F0F4F800E00546284638BD0D
:1050C800B818002038B50C460546A0B199B10B4870
:1050D8004FF0FF3101F020F968B123686268074892
:1050E8005A606268656013602B6823602B682C60C7
:1050F8005C6001F0D5F8002038BD00BFB81800206A
:1051080038B50C460546A0B199B10B484FF0FF31B0
:1051180001F002F968B12368626807485A6062685A
:1051280013606B68256063606B686C601C6001F0DD
:10513800B7F8002038BD00BFB818002010B50446E5
:1051480060B107484FF0FF3101F0E6F830B1E3688D
:105158000BB15B68E360024801F0A2F8002010BDC3
:10516800B818002010B5044688B10A484FF0FF313E
:1051780001F0D2F850B1084B1A6800E01C46A36849
:105188009342FBD1034801F08BF800E00446204627
:1051980010BD00BFB81800209C180020014B1868EB
:1051A800704700BF9C18002070B50546B8B10D4E79
:1051B8000D4833684FF0FF31DC6801F0ADF870B18D
:1051C800606929461FF06CFE28B133682468DB68E3
:1051D8009C42F5D10024044801F062F800E004463E
:1051E800204670BD9C180020B818002010B5044651
:1051F80058B107484FF0FF3101F08EF820B104484C
:10520800A46801F04DF800E00446204610BD00BF38
:10521800B818002010B5044658B107484FF0FF31C0
:1052280001F07AF820B10448E46801F039F800E0A8
:105238000446204610BD00BFB818002010B504462B
:1052480058B107484FF0FF3101F066F820B1044823
:10525800646801F025F800E00446204610BD00BF50
:10526800B818002010B5044658B107484FF0FF3170
:1052780001F052F820B10448246801F011F800E068
:105288000446204610BD00BFB818002010B50446DB
:10529800A0B10B484FF0FF3101F03EF868B123464A
:1052A80000E01346DA68002AFBD10548A34214BF80
:1052B8001C46002400F0F4FF00E00446204610BD20
:1052C800B818002038B5044688B10B484FF0FF31B4
:1052D80001F022F858B1094B00251B6800E00135A0
:1052E800A4689C42FBD1044800F0DAFF01E04FF0CB
:1052F800FF35284638BD00BFB81800209C1800208C
:1053080070B50C460546D0B1B9B10E484FF0FF3123
:1053180001F002F898B1AC42E66800D14EB146B946
:105328002368A468E268934202D1AC42F8D100E055
:105338001E46044800F0B4FF02E00E4600E00646B0
:10534800304670BDB8180020F8B506460F46C1B102
:10535800C8B10E484FF0FF3100F0DEFF98B1F56894
:1053680055B12C46606939461FF09AFD28B124686A
:10537800AC42F7D1002400E02C46044800F090FF2E
:1053880002E00C4600E004462046F8BDB8180020AC
:1053980070B50E46054678B181B1014605E06069F1
:1053A80031461FF07DFD50B121462846FFF7A8FF82
:1053B80004460028F3D102E0044600E00C462046EB
:1053C80070BD000038B504460D46002929D00028D4
:1053D8002AD016484FF0FF3100F09EFF18B3E4685A
:1053E800DCB161690023EA5CBAB15C2A05D1EA182C
:1053F800527892B1E46864B90FE0C85C904202D177
:105408000133FF2BEFD12468A368DB689C42E8D105
:1054180002E00133ED18E4E70024044800F040FFFF
:1054280002E00C4600E00446204638BDB8180020CB
:10543800064B1B68984206D08368DB68C31A58423B
:1054480040EB030070470120704700BF9C18002004
:1054580073656D6170686F726520666F7220726522
:10546800736F7563652071756575650010B50C4BB4
:105478000C4C0022A36103F5F073A3640A4B60216E
:10548800E2611C602046094AE164FFF73BFD052103
:1054980004F120000A46054B00F0F2FE012010BD81
:1054A800E4180020C41A0020E0180020CE56000896
:1054B80070B516468161C36406FB0311049B069D03
:1054C8000365059B04464365094B0022C26181645C
:1054D800C2652146603218682B46FFF77BFD04F150
:1054E8002000314632462B4600F0CAFE204670BDE9
:1054F800E01800202DE9F84F8846044600285FD0C0
:1055080000F120052846002100F006FF0646002885
:105518003CD1FBF707FA284600F0A8FF636D9842D4
:105528002DD2E36C206D31465843083000F0ACFBB7
:10553800064620B300F0FEF8E36C0838B0FBF3F73A
:10554800284600F093FF8346284600F092FFD4F8DF
:1055580034908246284600F05FFF07EB0B0107EB0B
:105568000A024B46284600F08BFE06F10803A361A9
:10557800E36C03FB0767E36DA7643360E665FBF73D
:10558800EFF92846414600F0C7FEC0B1FBF7C2FA62
:10559800E36963B15A689A4203D10023E361144670
:1055A8000AE01968E261116019684A6003E0A26CB8
:1055B800E36CD31AA3641C46FBF7B4FA00E0044674
:1055C8002046BDE8F88F00002DE9F84F0B9E0D46E8
:1055D80017469B46804600B969BB072F2DD917F09F
:1055E80003042AD118F0030928D1DFF858A0494646
:1055F800DAF80000FFF77EFF0446F8B105FB0783E1
:1056080083640A9BC0F81880C0F81C90C764C0F86F
:1056180050B04365C0F85C90214660223346DAF802
:105628000000FFF7D7FC04F1200029462A4633463C
:1056380000F026FE02E0044600E000242046BDE813
:10564800F88F00BFE018002070B50C460546A8B1D9
:10565800FBF760FAEB691BB9EC616460246005E054
:105668001A68636022601A681C605460FBF75AFA73
:1056780005F12000BDE8704000F012BE70BD0000CA
:1056880070B50546203000F0C7FEA0B1EC6D04E00F
:105698002046266800F098FB3446002CF8D12846AE
:1056A800FFF7EAFC30B1044B29461868FFF7CCFF36
:1056B800012070BD204670BDE018002010B12030D8
:1056C80000F0D7BE7047B9CCB6A8BFE9B7D6C5E4D5
:1056D800B3D80000084B00221A73084A0120126848
:1056E800073222F007021A605A60054A126822F04F
:1056F80007029A60704700BF481B0020145902082F
:10570800185902080A4A10B55168946801F10B0348
:1057180023F00703E41A844201D2002010BD43F8A5
:10572800040C1818073020F007005060184610BD08
:10573800481B002008B51A4B1A6890422CD39A6867
:1057480090422BD25A68904202D250F8040C08BDFD
:105758009B6A801A800A33F8102003EB4001A2F5F7
:105768007E43A3F5FE73032B07D8DFE803F004108C
:10577800020E0B790CE08B780AE0B2F5804F06D365
:105788000848002119F094F906E0012300E00023FD
:105798004FF48060984008BD002008BD002008BD77
:1057A800481B00200100000310B501390346C9B2A7
:1057B80000205A5C054CA25C082A01D0801810BD54
:1057C800083011B10139C9B2F3E710BDBC60000857
:1057D80013B502AB43F8040D18460421FFF7E4FFA4
:1057E800019CC0F12001C9B201EB4400033020F054
:1057F800030000EB8100002309E034FA03F21F32B2
:10580800520900EB82000430012AF8D80133DAB2D9
:105818008A42F2D31CBD000082B00190032300200D
:1058280001AAD25C06498A5C082A01D0801804E0E3
:10583800083013B1013BDBB2F2E702B0704700BF9A
:10584800BC60000813B5B0F5806F019004460DD90F
:10585800042101A8FFF7A8FF4FF00043C340A3426B
:1058680018BF0138C0F11500C0B200E000201CBD0F
:105878002DE9F047044688461DF0B4FC0027814610
:105888002D4D2B6AA34253D22C4EFBF74BF83068B0
:1058980019F036F93368002229691A605A6005F14F
:1058A80010029C645A6219B99B60DB602B610CE0A2
:1058B8000A46906CA04202D292688A42F9D1D16815
:1058C8009A60D960D168D3608B603368B8F1FF3FC4
:1058D800B3F84E20A3F84C2093F84E2042F0400233
:1058E80083F84E2008D0D2B242F0020283F84E204C
:1058F800C7EB080019F06EFCFBF732F8336893F831
:105908004E2002F04006F6B236B16FF3861283F8E5
:105918004E200020BDE8F0871DF064FCC9EB0007AD
:105928004745ADD32B6AA342AAD23046BDE8F087DB
:105938000120BDE8F08700BF481B0020604400201C
:10594800094B816C53F8102F10B5536213469C6CA9
:105958008C4202D29B689342F9D1DA688360C260B4
:10596800DA68D860906010BD481B002070470000BE
:105978002DE9F7434E4C0123A26866682373961BF2
:10598800B30A9902761A921B012B0193A26040F286
:105998008B804848484900F091FDDDF80480404676
:1059A800FFF716FF86421CD2C6F57E770737C51962
:1059B800AD0AC5EB0809002209E04846FFF708FFD1
:1059C800C219920AAA4209F1010902D2013D002D29
:1059D800F3D1C2EB0803A16801939302CB1AA36029
:1059E80000E0002202AD55F8043D92026361A36114
:1059F80092190021A0681FF04FF928460421FFF7EB
:105A0800D3FEC0F12000C0B2431E4FF4806212FAE8
:105A180003F30021E361236284F82400019D0B460F
:105A280007E035FA03F21F3252090131012AFAD888
:105A380001338342F5D3A368019FA36203EB4707B1
:105A48003D18033525F00305E762256305EB80045F
:105A580004EB8101002223E0019B4FF0000CD340AE
:105A680045F8044B5E0913F01F030BD04FF0FF38C5
:105A780008FA03F351F8268048EA030341F8263070
:105A8800731C00E033460CF1010C012B44F8041B95
:105A98005FFA8CFC01EB8301E4D807F802C00132FD
:105AA8008242D9D3012000E00020BDE8FE8300BF78
:105AB800481B0020241B0020BC6100082DE9F84F7A
:105AC800012383405B4F0446FE6ABA6916F80090CA
