:020000040800F2
:1000000010280020F5030008410000084100000806
:1000100000000000000000000000000000000000E0
:100020000000000000000000000000006D0000085B
:100030000000000000000000000000004500000873
:10004000FEE700BF01B515480068EFF3098020E91D
:10005000F00F80F3098804F00DF9BDE80140EFF3DB
:100060000980B0E8F00F80F30988704700B500F010
:100070009EFA5DF804EB1EF0040F0CBFEFF308804E
:10008000EFF30980816911F8021C29B900F1200001
:10009000B0E8F00F80F309887047000010E000E03E
:1000A00010B501214FF4807003F018FD01200146C6
:1000B00003F020FD032000F051FD042000F04EFD70
:1000C000052000F04BFD062000F048FD03200E2126
:1000D0000B2200F0E7FC03200F210B2200F0E2FCD2
:1000E000032000210B2200F0DDFC032001210B2264
:1000F00000F0D8FC04200B22072100F0D3FC0420E0
:1001000008210B2200F0CEFC042009210B2200F074
:10011000C9FC04200A210B2200F0C4FC0B2104209E
:100120000A4600F0BFFC04200C210B2200F0BAFCB0
:1001300004200D210B2200F0B5FC04200E210B221F
:1001400000F0B0FC04200F210B2200F0ABFC0320D8
:1001500008210B2200F0A6FC032009210B2200F04D
:10016000A1FC03200A210B2200F09CFC05200021A9
:100170000B2200F097FC052001210B2200F092FCDD
:10018000052002210B2200F08DFC052003210B220B
:1001900000F088FC052004210B2200F083FC0520E0
:1001A00001460B2200F07EFC05200C210B2200F002
:1001B00079FC05200D210B2200F074FC05200E2196
:1001C0000B2200F06FFC05200F210B2200F06AFCCF
:1001D000062000210B2200F065FC062001210B22E5
:1001E00000F060FC062002210B2200F05BFC0620E0
:1001F00003210B2200F056FC062004210B2200F004
:1002000051FC062005210B2200F04CFC0B210320A1
:100210000A4600F047FC03200C210B2200F042FCB0
:1002200003200D210B2200F03DFC042003210B22B2
:1002300000F038FC042001460B2200F033FC0420BF
:1002400005210B2200F02EFC03200B22052100F0DB
:1002500029FC032004210B2200F024FC03200721A9
:100260000B2200F01FFC062009210B2200F01AFCD3
:1002700006200A210B2200F015FC06200C210B227F
:1002800000F010FC042000210B2200F00BFC0420E5
:1002900001210B22BDE8104000F004BC30B5022360
:1002A00097B01193DB1802930C3303934FF48053F0
:1002B00000240125099368460FAB0F951094129402
:1002C0001394149515940094019404940594069441
:1002D000079408940A940B940C940D930E9303F0D6
:1002E00015FB2046294603F0A9FB17B030BD30B5F9
:1002F000022297B0002311920E3201241093129320
:10030000139314931593042501930293039204937A
:1003100005930693079308934FF480520A930B9327
:100320000C9368460FAB0F94009509920D930E93B2
:1003300003F0ECFA2846214603F080FB17B030BDED
:1003400010B503228EB00B9206320C92073A0023AE
:1003500002923E320A930D934FF4807403930492F9
:1003600006934FF40032079301A80AAB019405925B
:100370000893099303F02EFB2046012103F070FB44
:100380000EB010BD30B5022397B004221193029233
:10039000023B0C320124159306250193039204932A
:1003A00005930693079308934FF480520A930B9397
:1003B0000C9368460FAB0F941094129413941494FA
:1003C000009509920D930E9303F0A0FA284621465A
:1003D00003F034FB17B030BD10B5FFF761FEFFF737
:1003E0005DFFFFF784FFFFF7ABFFBDE81040FFF7AD
:1003F000C9BF000010B5304803F02EFC012003F007
:100400002EFC012003F02EFC002003F02EFC2B4BD1
:100410002B491A688A4202D02A498A4203D15A6972
:1004200042F400725A61284B1B681A6822F01F02BE
:100430001A601A6842F002021A601A6842F010024A
:100440001A60224B224A1B68196801EA02022149FC
:100450008A4206D15968204A01EA02021F498A42AB
:1004600024D01A6842F001021A6059681C4A01EA55
:1004700002025A601A6822F0847222F480321A60F2
:100480001A6822F480221A605A6822F4FE025A6026
:1004900000229A60134A5A600E4A1A60124B1B6877
:1004A000002BFBD0114B1B68002BFBD0FFF794FFF8
:1004B000BDE8104000F01EB81028002000ED00E05C
:1004C00031C20F4131C21F41903C00088C3C0008F2
:1004D00001000F0300000B03FC3F3F0008041F0056
:1004E0000000FFF802C41D0744004242640042427B
:1004F00000ED00E073B5134B00210193124B1D4634
:1005000019E05A699C68012AD8680AD1A04210D023
:10051000013A02E01659165004321E69B242F9D36C
:1005200007E032B902E00024145004321C69A242F0
:10053000F9D3013110336A689142E2D3019B9847A5
:0C0540007CBD00BF99050008945900081C
:10054C00114B70B500211D4619E05A699C68012AAF
:10055C00D8680AD1A04210D0013A02E016591650C0
:10056C0004321E69B242F9D307E032B902E000242A
:10057C00145004321C69A242F9D3013110336A6859
:10058C009142E2D370BD00BFCC59000810B500F009
:10059C008BF800F061FAFFF7D3FFBDE8104003F0D1
:1005AC00ABB84FF0000080F3118870474FF0FF009C
:1005BC0080F31188704762B6704772B670470000BE
:1005CC003B280DD8084B1B5CFF2B0BD0420900F0CD
:1005DC001F01012010FA01F1044B43F8221070475F
:1005EC0000207047002070475001002000E100E01F
:1005FC003B280ED8094B1B5CFF2B0CD0420900F09A
:10060C001F01012010FA01F1054B603243F8221052
:10061C007047002070470020704700BF5001002039
:10062C0000E100E0034B4FF0FF32C3F88021C3F828
:10063C008421704700E100E03B2830B521D8134BF2
:10064C001B5CFF2B1FD0124A182101FB0323002235
:10065C00DA6000F01F04013212FA04F40D4B410968
:10066C0053F8215025EA040443F821400A490B4B66
:10067C0043F820100A4BFF21C31883F800131046CF
:10068C0030BD002030BD002030BD00BF5001002027
:10069C008C01002030010020E509000840000020FA
:1006AC0000E100E061B6704770B5FFF786FFFFF719
:1006BC00B9FF284B1B685A6942F002025A61264A5C
:1006CC0000232649FF205854254801333C2B42F87F
:1006DC00040F0D46F5D1234B00221C78224B16E05B
:1006EC002248105C2954012143F8181C013943F8A5
:1006FC00141C1F4843F81C1C1E4943F8200C5118AD
:10070C004FF0FF3023F80E0C013281F80003D1B208
:10071C001833A142E4D3184C164B00254FF0FF328E
:10072C00C3F88020C3F8802125602561C3F884209C
:10073C00C3F884210123E36165606561A560E56010
:10074C00FFF734FFA561FFF736FFBDE87040FFF7F8
:10075C00A9BF00BFF00400083C000020500100209D
:10076C00E5090008660A000894010020670A0008E1
:10077C006936000800E100E030010020F8B5154DA5
:10078C00154FEB68154E0133EB60AB691822013342
:10079C00AB613B5C044602FB03631B7C0BB9FFF7AC
:1007AC000CFF2046FFF724FF3B5D18225343F35800
:1007BC000BB1204698473B5D182202FB0366337C45
:1007CC000BB9FFF7F8FEEB68013BEB60AB69013B43
:1007DC00AB61F8BD30010020500100208C010020DD
:1007EC002DE9F0412E4C2F4D00232B70A36886B0C1
:1007FC000133A3608DF817002B4FFFF7F9FE9DF81E
:10080C00170018223B5C294E5343F3580BB1984701
:10081C0000E018469DF817304FF01808FB5C08FBF9
:10082C0003635A68B2B1B2F84E305064A2F84C303F
:10083C0092F84F3010466FF3410382F84F3002F0BC
:10084C00B1F89DF81730184AD25C184B08FB0233EC
:10085C0000225A609DF817301822FB5C02FB0366DD
:10086C00708A4FF6FF73984209D000210123009340
:10087C000A460DF117030191029102F091FAA36857
:10088C00013BA3600A4B1A680A4B1B689A4201D0C1
:10089C0001F0D8FE01232B7006B0BDE8F08100BF3B
:1008AC003001002028110020500100208C01002074
:1008BC00381100202C11002010B5074CA36853B937
:1008CC00FFF774FEE369B3F1FF3F01D00133E3613D
:1008DC00024B00221A7010BD30010020281100209C
:1008EC0008B5FFF763FE024B0122DA6108BD00BFB9
:1008FC00300100200E4B9A68002A18D1DA690AB12F
:10090C00013ADA61DB69002B0FD1094B9B6953B9B2
:10091C00084B01221A70084B1A68084B1B689A4244
:10092C0001D002F019B8FFF73CBEFFF73FBE70478D
:10093C0030010020281100202C110020381100203B
:10094C00014B0022DA617047300100203B2870B562
:10095C0025D8164B1B5CFF2B21D01549CC68F4B95C
:10096C00144D182202FB0352D668012E19D094683C
:10097C000CB1013C9460182202FB03539B6893B9A1
:10098C00012400F01F0214FA02F24309043351F857
:10099C0023502A4341F82320FFF712FE01E00020E8
:1009AC0070BD204670BD012070BD00BF50010020FD
:1009BC00300100208C0100203B2807D8044B1B5C25
:1009CC00FF2B03D018225343024AD150704700BF6B
:1009DC00500100208C01002001B5EFF3098020E9C3
:1009EC00F00F80F30988EFF30580A0F11000FFF7FA
:1009FC00F7FEBDE80140EFF30980B0E8F00F80F39B
:100A0C000988704701B5EFF3098020E9F00F80F3F6
:100A1C000988EFF30580A0F11000FFF7AFFEBDE8E9
:100A2C000140EFF30980B0E8F00F80F309887047BC
:100A3C00EFF311804FF0FF0181F31188704700BF75
:100A4C0080F31188704700BFEFF3108072B67047C7
:100A5C0080F31088704700BF70473C00010203040C
:100A6C0005060708090A0B0C0D0E0F1011121314B2
:100A7C0015161718191A1B1C1D1E1F2021222324A2
:100A8C0025262728292A2B2C2D2E2F303132333492
:100A9C0035363738393A3B000628F0B534D80729B3
:100AAC001A4B0FD88D000F26AE4053F82040276804
:100ABC0027EA060602F00F0717FA05F546EA0505C0
:100ACC00256010E0A1F10805AD000F26AE4053F8EB
:100ADC002040676827EA060602F00F0717FA05F5AB
:100AEC0046EA05056560182A06D1173A12FA01F193
:100AFC0053F820301961F0BD082A05D1073A12FAD3
:100B0C0001F153F820305961F0BD00BF703C000872
:100B1C00062804D8034B53F82030986870470020FF
:100B2C00704700BF703C0008062804D8024B89B2FD
:100B3C0053F8203019617047703C0008062803D820
:100B4C00024B53F820305961704700BF703C0008CD
:100B5C0006281BD8DFE800F004070A0D1013170055
:100B6C0001220B4B0DE001220A4B0AE001220A4B39
:100B7C0007E00122094B04E00122094B01E0094B7B
:100B8C0001221A607047084B01221A60704700BF9F
:100B9C00080342420C0342421003424214034242F5
:0C0BAC00180342421C0342422003424254
:100BB800000000000000000000000000000000002D
:100BC800000000000000000000000000000000001D
:100BD800000000000000000000000000000000000D
:100BE80000000000000000000000000000000000FD
:100BF80000000000000000000000000000000000ED
:100C080000000000000000000000000000000000DC
:100C180000000000000000000000000000000000CC
:100C280000000000000000000000000000000000BC
:100C380000000000000000000000000000000000AC
:100C4800000000000000000000000000000000009C
:100C5800000000000000000000000000000000008C
:100C6800000000000000000000000000000000007C
:100C7800000000000000000000000000000000006C
:100C8800000000000000000000000000000000005C
:100C9800000000000000000000000000000000004C
:100CA800000000000000000000000000000000003C
:100CB800000000000000000000000000000000002C
:100CC800000000000000000000000000000000001C
:100CD800000000000000000000000000000000000C
:100CE80008B502204FF4A871FFF72AFF02204FF43D
:100CF8000071FFF71BFF144801F0DCFF02204FF4DE
:100D08001471FFF71DFF02204FF48071FFF70EFFEB
:100D18000D4801F0CFFF02204FF45071FFF710FF8C
:100D280010210220FFF702FF074801F0C3FF02204D
:100D38004FF44471FFF704FF02204021FFF7F6FE4D
:100D4800014801F0B7FFCCE720A107001FB502203A
:100D5800FFF700FF022006210246FFF79FFE022050
:100D680004210246FFF79AFE022008210246FFF7F7
:100D780095FE022009210246FFF790FE0D4B002246
:100D88000193642302930C4B01200393C82113465B
:100D9800009001F07BFC4FF6FF73984207D00021CA
:100DA8000A460B4600910191029101F0FBFF05B044
:100DB80000BD00BFE90C0008D80D000808B5FFF712
:100DC800C5FF024801F076FFFBE700BF40420F0075
:100DD80068656C6C6F206C656400FFF7EFBF0000FE
:100DE8001FB5002002F064FD002002F0B1FF0020D2
:100DF80000F0B8F8002003F01DF8022300930B4B15
:100E0800002201934FF480630293094BC821039396
:100E18000120134601F03AFC00210A460B460091D6
:100E28000191029101F0BEFF05B000BDE30D00087D
:100E38003C0E00086D61696E2066756E6374696F9B
:100E48006E0000002DE9F04F454885B000F0ACFA7F
:100E5800074605462946384600F0C8FA05460028E0
:100E680077D0037E012BF5D1846A23689847A3685D
:100E7800984202D0A060002304E02369E26893420C
:100E880001D20A3323616368A2689342E2D02169E0
:100E9800E2689142DED34FEA13284FEA134A5FFA19
:100EA80083F95FFA88F85FFA8AFA4FEA136B00262B
:100EB800A268F30032FA03F3DBB2B3B1994514D058
:100EC800984512D09A4510D09B450ED0019303F057
:100ED8001FF9019B00228DF80D208DF80C3002902F
:100EE80002A9E869083200F061F90136042EDFD161
:100EF800A368043E4FEA13284FEA134A5FFA83F9BE
:100F08005FFA88F85FFA8AFA4FEA136B6268F300AF
:100F180032FA03F3DBB2B3B1994514D0984512D035
:100F28009A4510D09B450ED0019303F0F1F8019B30
:100F3800F0228DF80D208DF80C30029002A9E86996
:100F4800E83A00F033F90136042EDFD1A368636074
:100F580080E742F2107001F0ADFE3D467AE700BF2F
:100F6800E20F00087FB5144800F01EFA10B3134BC7
:100F7800002201934FF400730293114B0125C821FD
:100F8800039328461346009501F080FB002423466E
:100F980021462246064600940194029401F002FF7D
:100FA8004FF6FF73984204D1304601F0CFFD20463A
:100FB80000E0284604B070BDE20F00084D0E00089E
:100FC800F50F00080A4608B5012100F0ADF8002821
:100FD8000CBF4FF0FF30002008BD737464696E20A9
:100FE800696E70757420646576696365006B6579F0
:100FF800626F61726400F0B5002A85B008DA524267
:10100800002805DA2D238DF8003040422C3B00E003
:101018000023102A2FD100E0234600F00F0204AD70
:10102800EC180009092A04F8102C01D8303200E025
:10103800573204F8102C5C1CE4B20028ECD19DF85F
:1010480000502D2D04D10A4602F8015B013000E062
:101058000A46201AC0B20446154609E004AFFE1835
:1010680016F8106C013B013C05F8016BDBB2E4B2E9
:10107800002CF3D12DE00A2A2CD100E023460A24C3
:1010880004AAD518B0FBF4F204FB12005C1C303043
:1010980005F8100CE4B21046002AEFD19DF8005074
:1010A8002D2D04D10A4602F8015B013000E00A4602
:1010B800201AC0B20446154609E004AFFE1816F817
:1010C800106C013B013C05F8016BDBB2E4B2002C6B
:1010D800F3D11454084605B0F0BD0FB4002004B095
:1010E8007047000007B52C21094A0A4800F0EAF8C1
:1010F800094B0A4A186003210023019208482C2250
:10110800009300F077FA074B186001200EBD00BF6E
:10111800E20F0008A0070020CC07002040120008BA
:10112800D8070020D40700202DE9F843DFF878908D
:1011380080460F46D9F800004146164600F07AF975
:10114800054610BB134B2946186800F0E9F9044618
:1011580098B14346D9F8000021462C2200F0D6F871
:101168000D4B27761B88A662A3840C4B2562186852
:1011780001301860E061BDE8F8830948094901F0C9
:10118800EBF94FF0FF30BDE8F8834FF0FF30BDE8D2
:10119800F88300BFD40700202C070020D0070020C8
:1011A80003000003D1360008CC070020F0B5204B1F
:1011B8000F461D688DB00646294603E0E369B34231
:1011C80007D02146284600F011F904460028F5D139
:1011D8002CE0236AA58C013323624FF6FF739D42EE
:1011E80003D1144A15889D421FD006AE0FCF0FC6F3
:1011F80097E8030086E80300237E8DF81030E36942
:1012080005932023002100931E3B0193284604AB3D
:101218000A46029101F0C6FD4FF6FF73984204D1C9
:1012280042F2107001F046FDEBE701200DB0F0BD71
:10123800CC0700202C070020CAE4C8EBC9E8B1B8E5
:10124800BFD8D6C6BFE9C4DAB4E6B3D800000000F8
:10125800064B074A1B605A610022DA609A6018320E
:101268001A61044A5B60136001207047600800201F
:10127800921400085C080020012108B503480A46BA
:10128800034B00F053FF012008BD00BF7808002081
:101298008414000810B590B1094B01611C68002343
:1012A800C360E368846042611BB9E060006040602D
:1012B80010BD5A68036042605A685860106010BDDB
:1012C8005C08002038B50446C8B10E4D01612B6892
:1012D800426183600023C3604FF0FF310A4800F089
:1012E80071FF58B12B680848DB685A682360626050
:1012F8005A685C60146000F029FF00E0044620464C
:1013080038BD00BF5C08002078080020F8B50C46FE
:1013180015461F460646E0B1E1B10F484FF0FF31D0
:1013280000F050FFA8B10023E360F368256167610E
:1013380023B9F460A6602460646006E05A682360FC
:1013480062605A68A66014605C60034800F0FEFEA4
:1013580000E004462046F8BD7808002038B5044669
:10136800E8B110484FF0FF3100F02CFFB8B1E36846
:1013780083B92568A54202D1AA68D3600BE0A368A7
:10138800DA68A24208BFDD6063681D6022682546EE
:10139800536000E00025034800F0D8FE00E0054651
:1013A800284638BD7808002070B50546B8B10D4EFE
:1013B8000D4833684FF0FF31DC6800F003FF70B16F
:1013C8006069294604F042F928B133682468DB686B
:1013D8009C42F5D10024044800F0B8FE00E0044621
:1013E800204670BD5C0800207808002070B50C46C7
:1013F8000546D0B1B9B10E484FF0FF3100F0E2FE1A
:1014080098B1AC42E66800D14EB146B92368A468E9
:10141800E268934202D1AC42F8D100E01E4604488B
:1014280000F094FE02E00E4600E00646304670BD2D
:1014380078080020F8B506460F46C1B1C8B10E4875
:101448004FF0FF3100F0BEFE98B1F56855B12C465B
:101458006069394604F0FAF828B12468AC42F7D13B
:10146800002400E02C46044800F070FE02E00C4620
:1014780000E004462046F8BD7808002073656D61D9
:1014880070686F726520666F72207265736F75631E
:10149800652071756575650010B50C4B0C4C002204
:1014A800A36103F5F073A3640A4B6021E2611C6039
:1014B8002046094AE164FFF705FF052104F12000F1
:1014C8000A46054B00F032FE012010BD0409002039
:1014D800A0080020000900207C16000870B51646F8
:1014E8008161C36406FB0311049B069D0365059B8C
:1014F80004464365094B0022C2618164C2652146E6
:10150800603218682B46FFF701FF04F120003146CE
:1015180032462B4600F00AFE204670BD0009002026
:101528002DE9F84F8846044600285FD000F12005D1
:101538002846002100F046FE064600283CD1FFF769
:10154800BDF9284600F0CFFE636D98422DD2E36CBA
:10155800206D31465843083000F06EFB064620B334
:1015680000F0C0F8E36C0838B0FBF3F7284600F049
:10157800BAFE8346284600F0B9FED4F83490824675
:10158800284600F09FFE07EB0B0107EB0A024B46CB
:10159800284600F0CBFD06F10803A361E36C03FBCA
:1015A8000767E36DA7643360E665FFF7A5F928468A
:1015B800414600F007FEC0B1FFF73CFAE36963B1AA
:1015C8005A689A4203D10023E36114460AE0196875
:1015D800E261116019684A6003E0A26CE36CD31AF7
:1015E800A3641C46FFF72EFA00E004462046BDE837
:1015F800F88F00002DE9F84F0B9E0D4617469B46C5
:10160800804600B969BB072F2DD917F003042AD1EA
:1016180018F0030928D1DFF858A04946DAF8000085
:10162800FFF77EFF0446F8B105FB078383640A9B36
:10163800C0F81880C0F81C90C764C0F850B0436563
:10164800C0F85C90214660223346DAF80000FFF7C4
:101658005DFE04F1200029462A46334600F066FD67
:1016680002E0044600E000242046BDE8F88F00BFF1
:1016780000090020B9CCB6A8BFE9B7D6C5E4B3D8ED
:1016880000000000084B00221A73084A0120126863
:10169800073222F007021A605A60054A126822F0DF
:1016A80007029A60704700BF080B00200C5A000818
:1016B800105A00080A4A10B55168946801F10B03E2
:1016C80023F00703E41A844201D2002010BD43F836
:1016D800040C1818073020F007005060184610BD99
:1016E800080B002008B51A4B1A6890422CD39A6848
:1016F80090422BD25A68904202D250F8040C08BD8E
:101708009B6A801A800A33F8102003EB4001A2F587
:101718007E43A3F5FE73032B07D8DFE803F004101C
:10172800020E0B790CE08B780AE0B2F5804F06D3F5
:101738000848002100F010FF06E0012300E0002324
:101748004FF48060984008BD002008BD002008BD07
:10175800080B00200100000310B501390346C9B287
:1017680000205A5C054CA25C082A01D0801810BDE4
:10177800083011B10139C9B2F3E710BDA81F00083C
:1017880013B502AB43F8040D18460421FFF7E4FF34
:10179800019CC0F12001C9B201EB4400033020F0E4
:1017A800030000EB8100002309E034FA03F21F3242
:1017B800520900EB82000430012AF8D80133DAB26A
:1017C8008A42F2D31CBD000082B00190032300209E
:1017D80001AAD25C06498A5C082A01D0801804E074
:1017E800083013B1013BDBB2F2E702B0704700BF2B
:1017F800A81F000813B5B0F5806F019004460DD9F5
:10180800042101A8FFF7A8FF4FF00043C340A342FB
:1018180018BF0138C0F11500C0B200E000201CBD9F
:101828002DE9F0470446884602F078FC00278146F7
:101838002D4D2B6AA34253D22C4EFFF73FF8306848
:1018480000F0B2FE3368002229691A605A6005F177
:1018580010029C645A6219B99B60DB602B610CE032
:101868000A46906CA04202D292688A42F9D1D168A5
:101878009A60D960D168D3608B603368B8F1FF3F54
:10188800B3F84E20A3F84C2093F84E2042F04002C3
:1018980083F84E2008D0D2B242F0020283F84E20DC
:1018A800C7EB080001F0CEF9FFF726F8336893F884
:1018B8004E2002F04006F6B236B16FF3861283F876
:1018C8004E200020BDE8F08702F028FCC9EB000795
:1018D8004745ADD32B6AA342AAD23046BDE8F0876C
:1018E8000120BDE8F08700BF080B00202C11002064
:1018F800094B816C53F8102F10B5536213469C6C3A
:101908008C4202D29B689342F9D1DA688360C26044
:10191800DA68D860906010BD080B0020704700009E
:101928002DE9F7434E4C0123A26866682373961B82
:10193800B30A9902761A921B012B0193A26040F216
:101948008B804848484900F0D5FCDDF804804046C3
:10195800FFF716FF86421CD2C6F57E770737C519F2
:10196800AD0AC5EB0809002209E04846FFF708FF61
:10197800C219920AAA4209F1010902D2013D002DB9
:10198800F3D1C2EB0803A16801939302CB1AA360B9
:1019980000E0002202AD55F8043D92026361A361A4
:1019A80092190021A06803F0D3FD28460421FFF70F
:1019B800D3FEC0F12000C0B2431E4FF4806212FA79
:1019C80003F30021E361236284F82400019D0B46A0
:1019D80007E035FA03F21F3252090131012AFAD819
:1019E80001338342F5D3A368019FA36203EB470742
:1019F8003D18033525F00305E762256305EB8004F0
:101A080004EB8101002223E0019B4FF0000CD3403E
:101A180045F8044B5E0913F01F030BD04FF0FF3855
:101A280008FA03F351F8268048EA030341F8263000
:101A3800731C00E033460CF1010C012B44F8041B25
:101A48005FFA8CFC01EB8301E4D807F802C001328D
:101A58008242D9D3012000E00020BDE8FE8300BF08
:101A6800080B0020E40A0020A82000082DE9F84F00
:101A7800012383405B4F0446FE6ABA6916F800905A
:101A88003D6B09F1FF39D31A55F820A05FFA89F99F
:101A9800BB614FF000085AF8293009F1FF3953F8B3
:101AA80028005FFA89F9C043FFF78EFE4FEA48180D
:101AB800C0EB0808B9F1FF0F08F11F08EBD108FACD
:101AC80004FC0023E21A01212CFA03F911FA02F2AC
:101AD80055F823B04FF000083AE01F2A5BF8040BD2
:101AE8004FEA59110FD901F1FF3900EB890052096A
:101AF8004FF0000909F101094FF0FF3A914540F80C
:101B080004AFF7D321E009F01F097AB1DFF8D8A0B4
:101B18005AF8222002FA09F950F8212049EA02026B
:101B2800B2F1FF3F40F821200ED014E04FF0010A37
:101B38000AFA09FA50F821904AEA0909B9F1FF3F6F
:101B480040F8219001D006E0002208F101088946FA
:101B5800F15C8845C1D30133DBB2A342B2D922E09C
:101B680020482CFA03F24069D84082421FD255F827
:101B78002300002112E002F01F044FF0010909FAC6
:101B880004F950F8048B520958F8224049EA040431
:101B9800B4F1FF3F48F8224003D10131F45CA1427F
:101BA800E9D30133DBB297F824108B42D8D34B1E0C
:101BB800DBB2F15C55F82320013952F82120126874
:101BC800B2F1FF3F05D04FF4806212FA03F33B6293
:101BD80002E00BB1013BEBE778684FEA8C2C6044DC
:101BE800BDE8F88F080B0020241F000870B5114CC1
:101BF800227B1AB9BDE87040FFF75CBD226A8242B9
:101C080016D3FFF7F7FD0546FFF730FF6268A36AB2
:101C1800821A920A03EB420125B94FF6FD7123F8A7
:101C2800121070BD4FF6FC7423F812404D8070BD41
:101C3800002070BD080B00202DE9F0411D4E05461F
:101C4800337B0C4637461BB9BDE8F041FFF732BD80
:101C5800194800F0B1FB48B300F07AFE336AAB4292
:101C680001D2FCB1E8B128462146FFF7D9FDC0B141
:101C78002846FFF7BFFD0546FFF7F8FE7A68BB6AFE
:101C8800821A920A044603EB420125B94FF6FD7009
:101C980023F8120006E04FF6FC7023F812004D807E
:101CA80000E00446044800F037FB00E00446204604
:101CB800BDE8F081080B0020E40A00202DE9F84F68
:101CC800002800F01E81904C237B002B00F0188127
:101CD8006568A84202D3A368984204D38B480021C0
:101CE80000F03AFC23E0451B4FF0FF31884800F034
:101CF80063FBA36AAD0A33F8152003EB4501A2F58F
:101D08007E43A3F5FE73032B07D8DFE803F0041521
:101D180002130A7911E08A780FE0B2F5804F0BD3ED
:101D28007A48002100F018FC794800F0F5FA002004
:101D3800BDE8F88F012200E0002201239340A16949
:101D4800276B5B18D4F82CC0A3610023D11A01209B
:101D580025FA03FE10FA01F157F823904FF0000816
:101D68003DE01F2959F8046B4FEA5E1010D9490964
:101D78004FF0000E09E00EEB000A4FF0000B0EF1D9
:101D8800010E46F82AB05FFA8EFE8E45F3D323E0A3
:101D98000EF01F0E81B1DFF880A15AF8211001FA68
:101DA8000EFE56F820106FEA0E0E0EEA010171457C
:101DB80046F820100FD016E04FF0010A0AFA0EFE7E
:101DC80056F820A06FEA0E0E0EEA0A0AF24546F807
:101DD80020A001D007E0002108F1010886461CF880
:101DE80003008045BDD30133DBB29342AED933E063
:101DF80035FA03F24FEA420E03260EF01E0116FAD8
:101E080001F15E1E57F826604FEA5E1E366856F8E6
:101E18002E60314024D13C4E7669DE40B2421FD25A
:101E280057F8230012E002F01F064FF0010E0EFAD9
:101E380006F650F8048B520958F822E0F64306EAF1
:101E48000E0EB64548F822E004D101311CF80360B3
:101E5800B142E8D30133DBB294F824008342C7D3FC
:101E6800431EDBB21CF8031057F82320013952F83F
:101E780021201268B2F1FF3F05D04FF4806212FAB8
:101E880003F3236202E00BB1013BEAE7204800F0CC
:101E980043FA204B1B68DA6D013ADA65FEF70EFD4E
:101EA800256945B3184B1E6AA86CFFF7A3FC870287
:101EB800B74220D8B5F84E30A5F84C3000236B62F5
:101EC80095F84E3003F00203DBB213B1284600F058
:101ED80021FEAB68E96800228B42A5F84E2001D1AB
:101EE800226108E02361DB60EB6828469B60F61BF3
:101EF80000F05AFDD8E7FEF7FFFC0120BDE8F88F97
:101F08000120BDE8F88F00BF080B00200100000386
:101F1800E40A00202C110020241F00080000000003
:101F28000100000003000000070000000F0000008F
:101F38001F0000003F0000007F000000FF000000BD
:101F4800FF010000FF030000FF070000FF0F000073
:101F5800FF1F0000FF3F0000FF7F0000FFFF0000A1
:101F6800FFFF0100FFFF0300FFFF0700FFFF0F0057
:101F7800FFFF1F00FFFF3F00FFFF7F00FFFFFF0085
:101F8800FFFFFF01FFFFFF03FFFFFF07FFFFFF0F3B
:101F9800FFFFFF1FFFFFFF3FFFFFFF7FFFFFFFFF69
:101FA80008070606050505050404040404040404DA
:101FB80003030303030303030303030303030303E9
:101FC80002020202020202020202020202020202E9
:101FD80002020202020202020202020202020202D9
:101FE80001010101010101010101010101010101D9
:101FF80001010101010101010101010101010101C9
:1020080001010101010101010101010101010101B8
:1020180001010101010101010101010101010101A8
:1020280000000000000000000000000000000000A8
:102038000000000000000000000000000000000098
:102048000000000000000000000000000000000088
:102058000000000000000000000000000000000078
:102068000000000000000000000000000000000068
:102078000000000000000000000000000000000058
:102088000000000000000000000000000000000048
:102098000000000000000000000000000000000038
:1020A80064796E616D6963206D656D6F7279206109
:1020B8006C6C6F636174696F6E00000008B528214D
:1020C800074A0848FFF7E6F8074B28211860074A2F
:1020D8000748FFF7DFF8074B1860012008BD00BF6D
:1020E800F4240008A40B0020A00B0020FE24000804
:1020F800940C00209C0B00201FB500230093019333
:10210800064B07490293052228230648FFF7E6F9FC
:10211800054B1860012005B000BD00BF042500086C
:10212800CC0B00203C0B0020B80C002010B502623C
:1021380000224262044A0446C161106821462822EE
:10214800BDE81040FFF7E2B8A00B002070B50546C7
:10215800002836D0FEF7B2FB6C6A6CB9EA692B6AC4
:10216800B2F1FF3F03D1B3F1FF3F02D125E0934223
:1021780023D201332B6220E0A2680023A2426362CB
:1021880001D16B6206E0E1686A62D160E168E360F0
:102198008A60A360B4F84E30A4F84C3094F84E30FE
:1021A80003F00203DBB213B1204600F0B3FC0023B6
:1021B800A4F84E30204600F0F7FBBDE87040FEF76B
:1021C8009BBB70BDF8B50E460446002872D0FEF7DA
:1021D80031FCE369256AB3F1FF3F01D11DB100E08D
:1021E80015B1013D25620125FEF72CFC012D63D0B8
:1021F80000F0AEFB002862D0002E5FD0304DFEF715
:102208005DFB286800F0D0F92B6800225A601A603C
:1022180004F124025A62626A12B99B60DB6016E01C
:10222800217EB1B993F85000114691F85070874259
:1022380002D889689142F8D1CF689960DF60CF6889
:10224800CB60BB6092F85030834208D9D368636290
:1022580005E0D1689A60D960D168D3608B602B683B
:10226800B6F1FF3FB3F84E20A3F84C2093F84E2068
:1022780042F0800283F84E2007D0D2B242F0020228
:1022880083F84E20304600F0DDFCFEF735FBFEF704
:1022980015FB2B6893F84E2002F08001C9B239B1C2
:1022A8006FF3C71283F84E20FEF726FB0020F8BD17
:1022B800FEF722FB0120F8BD2846F8BD3046F8BDE0
:1022C8002C11002010B5044658B1FEF7F7FA636ADE
:1022D80023B92046FFF742F8012400E00024FEF766
:1022E8000BFB204610BD00B1C069704700B1006A01
:1022F800704700000B460121024601760139016250
:10230800D161FF2003495076086811462422FEF760
:10231800FDBF00BF9C0B002070B50546002847D0C4
:10232800244EC26933689A4242D1FEF7C7FA2C6A32
:102338001CB90123EC612B7636E0A2680023A24287
:102348006362EC6101D12B6206E0E1682A62D16028
:10235800E168E3608A60A360B4F84E30A4F84C30BA
:1023680094F84E3003F00203DBB213B1204600F0BC
:10237800D1FB0023A4F84E30204600F015FB6B7EFD
:10238800FF2B11D0306894F8503090F850209A42C2
:1023980008D100F009F9074B18686B7E80F85030B7
:1023A80000F002FBFF236B76BDE87040FEF7A4BA8D
:1023B80070BD00BF2C110020F8B50E460446002859
:1023C80000F08B80484DC3692A689A4200F08580E6
:1023D800FEF730FB277E0023012F05D12376FF333C
:1023E80063762B68E36100E01F46FEF72BFB012FA5
:1023F80075D000F0ADFA002874D0002E71D0FEF729
:102408005DFA286800F0D0F82B680022216A5A602B
:102418001A6004F120025A6211B99B60DB6014E073
:1024280093F850000A4692F85070874202D8926892
:102438008A42F8D1D7689A60DF60D768D360BB60FA
:1024480091F85030834201D9CB6823622B68B6F1EA
:10245800FF3FB3F84E20A3F84C2093F84F2042F0EA
:10246800010283F84F2008D093F84E20304642F0FE
:10247800020283F84E2000F0E5FBE6692B6896F827
:10248800502093F850309A4213D9B6F84E3083B999
:10249800304600F089F8637E3046FF2B04BF96F87B
:1024A800503063762B6893F8503086F8503000F03F
:1024B8007BFAFEF721FAFEF701FA2B6893F84F2012
:1024C80012F0010F07D06FF3000283F84F20FEF7D8
:1024D80013FA0020F8BDFEF70FFA0120F8BD3846C0
:1024E800F8BD3046F8BD00BF2C11002073656D6142
:1024F80070686F7265006D7574657800CBF8BFD829
:10250800D6C6BFE9B3D80000114B602202FB0033E6
:10251800196982B0B9B15A680E4B9A4213D0CB6888
:102528000A689B090193019B521AB3EBA20F0CD8BE
:10253800002305E04A690431B2F1643F05D1013353
:10254800019A9342F6D3012000E0002002B07047C0
:102558001014002020110020034B1B68186411B1CF
:102568000846FEF7BABD70472C11002010B50024AC
:1025780086B020B2FFF7C8FF60B969460A22204634
:10258800FEF739FD0649684603F03CF805486946F8
:10259800FFF7E2FF0134092C88BF0024E9E700BFF8
:1025A8006A36000810000001104A13689842036850
:1025B80006D08168426829B95A604268136070473A
:1025C800136042685A604268136090F8502093F88C
:1025D80050109142C26805D19360DA608268D36076
:1025E8009A607047DA60C2689360704738110020BB
:1025F80070B51EE0B5F85240114B24F480444822CF
:1026080002FB043463681BB12B619B68636010E0B4
:10261800204601F039FC286135682B6933B9284612
:10262800FFF7C2FF2846FFF763F902E0238E013364
:102638002386044E35682B69002BDBD070BD00BFA4
:10264800401100203811002070B50D4D0D4EFFF7D8
:10265800CFFF2C683368A34210D001F067FD0A4B06
:10266800E16A1A68186033688A1A121821691869A9
:10267800E2622B60BDE8704001F0B4BD70BD00BFE0
:102688002C11002038110020341100202DE9F74FBB
:102698009B464B1EDBB2F82B04460D460192DDF833
:1026A8003C80BDF830A004D952485349FFF754FF85
:1026B80019E0FEF703F900231E46482202FB03F146
:1026C8004E4F17F80190C9F34009B9F1000F0DD02A
:1026D8000136B6B201330A2EEFD149484949FFF70E
:1026E8003BFFFEF709F94FF6FF7081E0B8F1000FE4
:1026F8003ED0482000FB09F03B5C13F0020F09D0E4
:102708003E4B08301818414602F0A0FF10B93E4869
:102718003E49E4E709F10109B9F10A0FE9D120219D
:10272800404603F0DFF81F284FF0480207DC02FBA1
:102738000672414602F1080003F076F81CE002FB3D
:1027480006724346083208F1180E186859680833AB
:10275800734503C2F9D11868106099889B799180F4
:102768009371482303FB0673002283F8272003E0B4
:1027780002FB067282F808804FF0480808FB0672D0
:1027880002F1280382F8285000225A80A3F806B0E4
:102798000CB9019A00E0002208FB06F89A800D9B0C
:1027A80047447B630E9B0025BB63FD633D647D64EA
:1027B8003D86A7F832A0384601F066FBDFF83C906A
:1027C800786010B91248134989E701233B8619F844
:1027D800083064F30003DBB243F0020303F0FB03A9
:1027E80065F3C30309F80830FEF786F846F480401D
:1027F800BDE8FE8F060000017D360008401100206C
:10280800030000019036000809000001A336000803
:1028180003000003B0360008414B00222DE9F041C7
:102828001A600132482151433E4B092A585C6FF324
:1028380041005854F5D13C4A002001211446092989
:1028480003D10025C4F8605304E0851C602606FB0C
:1028580005451566A2F8B810344D013189B25566A0
:10286800013060320A29EAD1314A00202A60024642
:1028780091B213292F4903D10025C1F8285404E047
:10288800551C382606FB05150D5001323830142A20
:10289800EED1294A234F11601A784FF0000842F010
:1028A80007026FF3C3021A7001225A85DA851A8665
:1028B800224AFA265A634FF48062C3F8048083F8E8
:1028C800088083F82860A3F82C809A63DC63C3F837
:1028D8004080C3F84480384601F0D6FA054630B93E
:1028E80017481849FFF738FE3D86BDE8F0812046B5
:1028F8004146602202F02CFE4FF0807323644FF4AF
:102908008043A4F85230104B24601C600F4B646065
:10291800A460E46084F8506025611C60BDE8F08123
:102928003C1100204011002010140020201100202C
:1029380070140020BC0C00201C1100207525000814
:1029480003000003C7360008381100202C110020AE
:10295800014B1878704700BF2811002070B5FFF7A9
:10296800F7FFC8B10D4D0E4EFFF742FE2C683368D5
:10297800A34210D001F0DAFB0A4BE16A1A6818602A
:102988008A1A33681218E262186921692B6001F00B
:1029980017FC012070BD002070BD00BF2C11002065
:1029A800381100203411002070B50446FEF742F8B3
:1029B800164994F850200D682B4693F850609642BB
:1029C80002D89B68AB42F8D15D68236065605D689A
:1029D8005C602C60656895F85050954205D0DA68BF
:1029E8009460E260A360DC6002E00023A360E3601F
:1029F8000B6894F8502093F850309A423CBF034B30
:102A08001C60BDE87040FEF71DB800BF38110020FB
:102A180038B53B4D3B4C2B68206801332B600028B0
:102A280041D0C26B2B689A423DD1436A93B11A6870
:102A3800824208D18268824204D100221A608260F0
:102A4800C26005E01A608268C3689A608268D360D1
:102A5800002343620368834210D1B0F84E3000224D
:102A68002260A0F84C3090F84E3003F0FE0362F379
:102A7800410380F84E30FFF797FF14E04268236067
:102A88005A6042681360B0F84E30A0F84C3090F8A5
:102A98004E3003F0FE036FF3410380F84E30FFF72A
:102AA80083FF2068BDE7184B1968002926D0174B0B
:102AB8001B681A6893F8504092F8500084421DD160
:102AC80093421BD02868B0FBF1F401FB1400A8B9AD
:102AD8009968DC68A260D4609160CA609860D86028
:102AE8000B4804689C4208BF026058685060026046
:102AF8004A6819605A604A684B60136038BD00BF65
:102B0800301100203C110020300700202C1100203B
:102B1800381100200C4B10B51A6804461168914210
:102B280002D100221A6007E0904208BF196042688B
:102B380003685A604268136000232360636001F0F1
:102B4800E7FAE06310BD00BF3C1100202DE9F04119
:102B58004BF6FF7500EA0505092D6BDCFDF7AEFEA7
:102B680048236B43364EF21816F80380146CC8F3EA
:102B780040080CB91EE03C46B4F84E30A4F84C307E
:102B880094F84E3003F00203DBB213B12046FFF78E
:102B9800C1FF482202FB0562A768116C00238F421F
:102BA800A4F84E3004BF1F4613642046FFF7FCFE0E
:102BB800002FE0D1482303FB05635C6C0CB91EE0D1
:102BC8003C46B4F84E30A4F84C3094F84E3003F03C
:102BD8000203DBB213B12046FFF79CFF482202FB39
:102BE8000562A768116C00238F42A4F84E3004BF19
:102BF8001F4653642046FFF7D7FE002FE0D1482335
:102C08005D43725D0E4802F0040371191BB142F076
:102C1800080242550BE063F34102425548680B72C3
:102C280003E08468FFF74AF820460028F9D1FDF749
:102C380063FE01E04FF000084046BDE8F08100BFA8
:102C48004011002070B5194C0546266801F060FA5D
:102C580005F57875073523684FF47A72B5F57A7FEC
:102C680038BF4FF0FF35B063B5FBF2F5104A996BEA
:102C780010686D18DD63144618B91B605B6013603B
:102C880070BD6D1A0246D66B761AAE4202D812682B
:102C98008242F8D156681A605E6056685360C26B0B
:102CA8003360511AA94288BF236070BD2C110020DF
:102CB8003C110020F8B50546FFF74AFE044628B93E
:102CC80035482146FFF748FC2046F8BDFDF7F6FDDC
:102CD800324CBDB925682B6895F8501093F85020F0
:102CE80091420BD19D4209D001F012FAA8632068E5
:102CF800FFF75AFC2068FFF757FE42E0FDF7FCFD9E
:102D08000020F8BD266801F003FA05F57875B06370
:102D1800073520684FF47A73B5F57A7F38BF4FF0DE
:102D2800FF35B5FBF3F5836BED18C563FFF73CFC86
:102D38002368B3F84E20A3F84C2093F84E2042F0B5
:102D4800010283F84E20164A1168164619B91B600D
:102D58005B60136015E0986BDD6B0A462D1AD76B24
:102D68003F1AAF4202D812688A42F8D157681A60EF
:102D78005F6057685360CA6B3B60101AA84288BFEF
:102D88003360FDF7B9FD01F0C3F923689C6B041BA0
:102D98004FF47A706043F8BD050000012C11002043
:102DA8003C1100202DE9F04F89B003929DF8502086
:102DB8009B469DF84C308DF81E20B0F5804FD2B25E
:102DC80005460C46DDF848A0059306920FD34BF64E
:102DD800FF7800EA0808B8F1090F1FD9A0480021B8
:102DE800FFF7BAFB002C00F0A0829D4B43E00928B6
:102DF80008D99C480021FFF7AFFB002C00F0958212
:102E0800984B38E0984B602202FB0033B3F85280AD
:102E180028F480484FEA08484FEA1848FFF798FD19
:102E2800039B014643B138B99048FFF795FB002C46
:102E380000F07B828D4B1EE0482202FB08F28C4B8F
:102E48009E189A5C994602F00A02022A08D089481C
:102E58000021FFF781FB002C00F06782854B0AE018
:102E6800069AF92A09D984480021FFF775FB002C36
:102E780000F05B82804B236057E2059A131E18BF4F
:102E880001238DF81F30DBB20493FDF717FD766C34
:102E9800002E40D015F4804F0BD0482303FB08F3D5
:102EA80019F8033013F0010F03D1B6F85830AB42CC
:102EB8002BD1B6F85430012B23D1013B736296F81D
:102EC8004E30B6F84E2003F00203DBB2A6F84C20D1
:102ED80013B13046FFF71EFEB7680023BE42A6F8BE
:102EE8004E3005D1482202FB08921F46536403E086
:102EF800F3689F60B268D3603046FFF755FD3E46E1
:102F080003E0013BA6F85430B668482303FB089356
:102F18005B6C9E42BED1482303FB08F319F80330CB
:102F280003F00402D2B23AB113F0010F40F0C980A5
:102F380015F4804F00F0C580504F3E6836B1504AB6
:102F4800116871B9BAF1000F09D10AE04D4831464C
:102F5800FFF702FB002C00F0E3814A4BD9E04A4816
:102F6800D1E013F001010ED1482303FB0893188E1A
:102F7800DB8D984207D94548FFF7EEFA002C00F0A0
:102F8800CF81424BC5E0482505FB08F53368002191
:102F98003B6009EB0503588D01305885316071603D
:102FA800B160F16031617161B16131627162019149
:102FB8000092029301F0ACF80199B06248F48040A5
:102FC800A6F84C10A6F84E10F16231637163B16334
:102FD800F1633164B164A6F85200A6F85410A6F85B
:102FE8005610F16519F8050040F0040009F80500CD
:102FF800029B009ADE63BAF1000F4BD015680123DB
:10300800A6F856302B68BAF1200F13602974A9600E
:103018001AD9049AAAB15046FEF70EFE0146686115
:1030280040B91B48FFF798FA002C00F06981184B4B
:10303800236065E15946524602F0E2F901232B74F8
:1030480009E0C5F814B006E005F1180068615946B2
:10305800524602F0D5F9B36A4FF0010AEB601AE064
:103068000C0000010A0000011014002005000001F6
:10307800401100200D000001060000012011002071
:103088001C110020020000010400000108000001DA
:103098000F0000015546069A0023F5617361B3617C
:1030A80012B19DF81E3004E0482303FB089393F8FF
:1030B800283086F850303046FFF776FCB6F858705E
:1030C80075E0482303FB0893DE6BB6F85870BAF135
:1030D800000F68D015F4804F03D1974B602606FB8C
:1030E8000536059A12B9B369002B55D1934B1D6863
:1030F8003DB1482101FB0891B6F85620498E91420E
:1031080009D88F480021FFF727FA002C00F0088122
:103118008B4B236004E10132A6F856202A681A6016
:103128000023AB60B3691BB92D606D60B56105E024
:103138005A682B606A605A685D60156000F0E8FFA5
:103148000021BAF1200FE86029741DD9049BC3B18E
:103158005046FEF771FD0146686140B97948FFF7AE
:10316800FBF9002C00F0D880764B2360D4E052465F
:10317800594602F045F99DF81F202A74DDF810A081
:1031880015E0C5F814B010E005F11800686159465B
:10319800524602F035F908E05D682B7C2BB168696E
:1031A800FEF78CFD01E0554601E04FF0010A039B54
:1031B800002B00F0B780DFF89481BAF1000F52D0ED
:1031C800D8F80000FFF7F0F9D8F8003005F1080248
:1031D8005A62AA6832B1D1689A60D960D168D3605E
:1031E8008B6002E0AB609B60DB60D8F80030B3F81E
:1031F8004E20A3F84C2093F84F2042F0200283F889
:103208004F20039AB2F1FF3F08D093F84E2042F0C6
:10321800020283F84E200398FFF714FDFDF76CFBBC
:10322800FDF74CFBD8F8003093F84F2002F020014E
:10323800C9B221B16FF3451283F84F2051E093F8DA
:103248004E0000F00802D2B24AB1024661F3C3024E
:1032580083F84E20002C65D03B4B236062E0002CA5
:1032680060D022605EE0D8F80000FFF79DF9D8F83A
:10327800003006F120025A62326A32B1D1689A608F
:10328800D960D168D3608B6002E033629B60DB60F9
:10329800D8F80030B3F84E20A3F84C2093F84E200D
:1032A80042F0040283F84E20039AB2F1FF3F08D09F
:1032B80093F84E2042F0020283F84E200398FFF75D
:1032C800C1FCFDF719FBFDF7F9FAD8F8002092F8D0
:1032D8004E3003F00400C0B230B16FF3820382F8BD
:1032E8004E30FCB10123B8E703F00801C9B221B19F
:1032F80060F3C30382F84E30ACE79CB1216011E063
:103308003B6877603360482303FB0898B8F82A20A5
:103318003E60013AA8F82A20084B1A681D602A6006
:103328004FF6FF77FDF7E8FA01E04FF6FF773846EA
:1033380009B0BDE8F08F00BF101400201C11002058
:10334800040000010F0000010E0000012C110020F4
:1033580010B5FDF7C7FA00F0CBFEFFF749F9064BA9
:10336800064A1B6801211360054A11701869BDE8F7
:10337800104000F013BF00BF381100202C110020AE
:103388002811002038B5044600B3C36800229A60AB
:1033980000E02C46B4F84E30A4F84C3000236364A7
:1033A800636294F84E3003F00203DBB213B1204697
:1033B800FFF7B0FB0023A4F84E30A568082384F873
:1033C8004E302046FFF7F0FA002DE2D138BD00005C
:1033D80070B50546002836D0436800221A6000E020
:1033E8001D46AC6804B3E36800229A6000E03446E6
:1033F800B4F84E30A4F84C3000236364636294F848
:103408004E3003F00203DBB213B12046FFF782FB14
:103418000023A4F84E30A668082384F84E302046CE
:10342800FFF7C2FA002EE2D12B7C012B02D168698A
:10343800FEF744FC0022AA60034A2B681168156055
:103448002960002BCCD170BD1C1100202DE9F0475C
:10345800794DFDF747FA2B68186AFFF793FF2B6839
:10346800DB6913B19868FFF78DFF2B685869FFF780
:10347800AFFF2B689869FFF7ABFF2B68DA6D1AB1BD
:10348800B3F85800FEF74AFA2868FFF78DF86B4A38
:103498002B6811685A6019601360694A69499A1A59
:1034A80052114A43B3F85270674EA3F8582027F4D4
:1034B8008047482303FB0763598D1C6C01395985E4
:1034C800002C3AD0B4F85430012B06D05BBB4833FB
:1034D80003FB07631B8E012B28D10023636294F83A
:1034E8004E30B4F84E1003F00203DBB2A4F84C10CF
:1034F80013B12046FFF70EFBD4F80880002344459B
:10350800A4F84E3005D1482202FB0762984653645E
:1035180004E0E368C3F80880A268D3602046FFF798
:1035280043FA444603E0013BA4F85430A468482316
:1035380003FB07631B6C9C42C4D148237B43F15CAB
:10354800414A11F0010E06EB030007D00021A4F850
:103558005610D15C6FF38201D1540EE0048EB0F89E
:103568002AC02830A44508D28088A04205D2012C60
:1035780005D16EF38201D15402E0012400E0022457
:1035880048237B43F15CF21801F00C0008280ED1A7
:103598002D4C6FF341015068E1540023137203E08E
:1035A8008468FEF78BFB20460028F9D10324FFF737
:1035B8001FF8022CDFF89490DFF8948016D12B685E
:1035C8001869FEF77BFB482303FB0766338E013B34
:1035D8003386D9F800302B6000F0A8FD2B68C8F8B6
:1035E80000001869BDE8F04700F0E4BD012C0FD1D8
:1035F800482202FB07662C68726823699A60736028
:10360800D9F800302B6000F091FDC8F800000AE0FE
:10361800D9F800302C682B6000F088FD482303FBA4
:103628000766C8F800002B68706B19692269BDE845
:10363800F04700F0A1BD00BF2C1100202011002090
:1036480010140020ABAAAAAA4011002038110020AB
:103658003411002010B58047BDE81040FFF7F6BED2
:103668007047BAC5CAC2BCFED3D0D5BBD2E7B3F641
:10367800B7E7CFD500CAC2BCFEC0E0D0CDD3C5CF16
:10368800C8BCB6B7C7B7A800C3BBD3D0BFD5CFD0C7
:10369800CAC2BCFEBFD8D6C6BFE900CAC2BCFEC0FB
:1036A800E0D0CDD6D8C3FB00B5C7BCC7CAC2BCFEE4
:1036B800C0E0D0CDCAB1C4DAB4E6B2BBD7E300B437
:1036C800B4BDA8CFDFB3CCCAB1C4DAB4E6B2BBD7B5
:1036D800E30010B50020FDF7BBFD0020FEF7EEFC6F
:1036E8000020FDF7C9FD0020FDF7D6FE0020FEF7FB
:1036F80003FD0020BDE81040FDF7F4BC10B500F054
:103708007DFD0020FDF7BEFF00F0E6FBFFF784F823
:10371800FFF7DFFFFDF764FB0020FEF701F9BDE8C6
:103728001040FFF715BE0000014B1860704700BF3E
:10373800D0170020C168194A436930B58A1804694E
:1037480040F26D1101FB03221549651E51F8251041
:103758005218A3F5F6610139022C02EBA10203DD30
:1037680013F0030F08BF01324FF4C8746FF0630100
:1037780093FBF1F193FBF4F3CB180F334168046822
:1037880080683C259A18182305FB014103FB0202B7
:103798004FF4616000FB0210002130BD3507F5FFD2
:1037A800340700202DE9F84F194614461D460646F1
:1037B800002310463C2201F065F9002320462946E3
:1037C80017463C2201F05EF93C22002301F05AF929
:1037D80000232046294690464FF4616201F052F9D1
:1037E8001822002301F04EF900232046294693466B
:1037F800254A01F047F940F26D12B0FBF2F502FBE1
:10380800150205F5F66302334FF4C8740E3AB3FB9C
:10381800F4F10135521A4FF0640CDFF87090A2EB06
:1038280095024FF01C0AB3FBFCF513F0030F2A4472
:10383800C9F804A008D10CFB153515B904FB1131E2
:1038480011B91D21C9F80410D9F800400F4D012104
:1038580003E0121B55F8044F0131A242F9D8043095
:1038680073610723B0FBF3F33161D900CB1AC01A97
:10387800B0613760C6F80480C6F808B0F260F2613B
:103888003046BDE8F88F00BF80510100680700206E
:1038980070B5FFF74FFF04460D46FDF7CBF8034B15
:1038A800C3E90045BDE87040FDF7CCB8E01700203B
:1038B80001207047012010B500F030F90020BDE864
:1038C800104000F02BB9000082B000230193044B94
:1038D8000193019BC3180193019B196002B07047C3
:1038E800006C004082B000230193054B0193019BBB
:1038F800C3180193019B188880B202B0704700BFBB
:10390800006C004070B584684568C36844EA0505E2
:103918001D430369C16A1D43436902681D438369E6
:10392800082C45EA0305C36945EA0305036A45EA25
:103938000305436A45EA0305836A45EA0305036B01
:1039480045EA010545EA03054FF0204343F82250B4
:1039580005D153F8224044F0400443F82240436B19
:10396800541C9E691D68B1F5804F46EA05055E68DE
:1039780045EA06159E6845EA0625DE6845EA0645D5
:103988001E695B6945EA065545EA03654FF0204321
:1039980043F8245011D1836B9869196840EA0101F2
:1039A800586841EA0011986841EA002118695B6982
:1039B80041EA005141EA036101E06FF07041024BB6
:1039C80043F8221070BD00BF040100A030B5836821
:1039D80044681C43C36844F008041C4303691C433F
:1039E800436944EA4324836944EA4334C3699968D0
:1039F8005A68090441EA02211A68DB68114341EA5E
:103A08000361036A9A685D68120442EA05221D6828
:103A1800DB682A4342EA03620368102B0CBF034B9E
:103A2800034B1C609960DA6030BD00BF600000A0E5
:103A3800800000A04FF0204321B153F8202042F02D
:103A4800010204E053F82010024A01EA020243F896
:103A580020207047FEFF0F0041B110280CBF084B13
:103A6800084B1A6842F004021A60704710280CBF0D
:103A7800034A044A044B116801EA030313607047C0
:103A8800600000A0800000A0FBFF0F00014B186041
:103A9800704700BF20000E42064B002201281A7012
:103AA8001A7002D0042804D101E01870704705226A
:103AB8001A70704720100240024B1A6A40EA02024C
:103AC8001A62704700100240014B1860704700BF2F
:103AD8003C044242044B11B15A69104302E05A694E
:103AE80022EA00005861704700100240044B11B1EF
:103AF8009A69104302E09A6922EA000098617047C7
:103B080000100240044B11B1DA69104302E0DA698F
:103B180022EA0000D861704700100240014B18608B
:103B2800704700BF400442424209012A084B01D1B4
:103B38001B6803E0022A0CBF1B6A5B6A012200F0C3
:103B48001F0012FA00F003420CBF0020012070474A
:103B580000100240054B19B11A8892B2104303E0D5
:103B68001A8892B222EA00001880704700280040A4
:103B7800034B9A8892B242F010029A80704700BFB5
:103B880000280040034A938823F010031B041B0CF1
:103B98009380704700280040034B9A8B188B92B291
:103BA80042EA0040704700BF0028004010B50446B4
:103BB800FFF7DEFF034B220C1A839C83BDE81040FD
:103BC800FFF7E0BF0028004010B50446FFF7D0FF1C
:103BD800044B04F47022120C1A819C81BDE8104039
:103BE800FFF7D0BF00280040024B9B8813F0200F3E
:103BF800FAD0704700280040064A938823F008034B
:103C08001B041B0C9380034B9B8813F0080FFAD0FE
:103C1800704700BF00280040074B9A881B8892B263
:103C2800034006D0104010F0FF0F0CBF0020012009
:103C380070471846704700BF00280040034B9A8819
:103C480092B222EA00029A80704700BF0028004022
:103C580080F30988704780F31088704780F31388D1
:103C6800704780F31488704700080140000C014039
:103C7800001001400014014000180140001C0140E0
:103C880000200140001002400020024010B5FFF75C
:103C980051FD012104464FF0C050FFF733FF0120CA
:103CA800FFF7F4FEFFF7A8FF2046FFF77FFFFFF7B7
:103CB8009BFF012010BD30B5012095B0FFF7ACFF88
:103CC800B0B10120FFF7BAFFFFF766FF6D46024665
:103CD800002368460BACFFF765FD0FCD0FC40FCD71
:103CE8000FC42B680BA82360FFF7D2FDFFF77CFFFA
:103CF800002015B030BD10B501214FF0C050FFF7BE
:103D080001FF0120FFF7C2FEFFF7D4FD0120FFF7F6
:103D1800C3FE4120FFF708FF0028FAD04FF4807057
:103D2800FFF7CAFE0120FFF7CFFEFFF765FFFFF799
:103D38005BFF01200021FFF70DFFFFF755FF47F656
:103D4800FF70FFF741FFBDE81040FFF74DBF0000CF
:103D580010B50420FFF7C6FD4AF2A554A04205D0CD
:103D6800FFF7C9FF04202146FFF7AEFDFFF744FF28
:103D780001200146FFF7EEFEFFF736FF0848FFF780
:103D8800D3FC08490320FCF719FE0320FCF756FC76
:103D98000320FCF72FFC0320FCF7DAFD012010BDFF
:103DA800953C0008BF3C0008022010B5FCF7B2FEA5
:103DB80000F48063002B14BF002201220CBF0423EF
:103DC800002310F4006F06D1D100032414FA01F186
:103DD80001320B43D2B210F4805F06D1D100022425
:103DE80014FA01F101320B43D2B210F4005F04D18E
:103DF800D200012111FA02F21343184610BD08B58A
:103E08000220FCF7A7FE02200A211822FCF746FE32
:103E180002200B211822FCF741FE02200C21182257
:103E2800FCF73CFE02200D211822FCF737FE01208A
:103E380008BD000038B5094C0546FFF7E0FF084B00
:103E4800214608482360FDF7BDF864232361643BDD
:103E5800E5606360A360012038BD00BFE81700205B
:103E6800B13D0008703E00086B6579626F6172644D
:103E78002064726976657200024B1A7801321A70F2
:103E8800704700BF0818002070B50646806B00F523
:103E9800A270033020F00700FDF7A8FE044620B901
:103EA8000C482146FEF758FB12E0FDF71BFC0546BF
:103EB80064212A46204601F04BFB63196360143DD8
:103EC8000023A360E5602361706B214600F048F988
:103ED800204670BD030000032DE9F74F7A4B7B4A5B
:103EE8007B4CD3F83CA042F21076DA639B46794AC1
:103EF800794B0021546019709160073111601D469B
:103F0800009602E0009A013A0092009A002AF9D13C
:103F1800704A0621116090681B7873B16E4B1B784C
:103F280001335C436D4B9C42E1D90133B4FBF3F49C
:103F38000134B6FBF4F61C46D9E7201A00F0FAFA69
:103F48005DA3D3E9002300F06BFB5DA3D3E9002355
:103F580000F090FC80463046894600F0EBFA0B46AC
:103F680002464946404600F085FC00F06BFD5C4B7C
:103F78000746186042F21076564B00225C602A70A1
:103F88009A6007321A60ADF8046004E0BDF80430A6
:103F9800013BADF80430BDF804309BB2002BF5D1DD
:103FA8004C4B06221A6098682B7873B14A4B1B78E1
:103FB80001335C43494B9C42DED90133B4FBF3F433
:103FC8000134B6FBF4F61C46D6E7201A00F0B2FA24
:103FD80039A3D3E9002300F023FB39A3D3E9002355
:103FE80000F048FC80463046894600F0B3FA0B469C
:103FF80002464946404600F03DFC00F023FD394B9F
:1040080064261860334B00225C602A709A6007327D
:104018001A608DF807600FE0632302E09DF8063010
:10402800013B8DF806309DF80630002BF6D19DF83F
:104038000730013B8DF807309DF80730002BEBD196
:10404800244B06221A6098682B7873B1224B1B7890
:1040580001335C43214B9C42D4D90133B4FBF3F4C4
:104068000134B6FBF4F61C46CCE7201A00F062FADD
:1040780011A3D3E9002300F0D3FA11A3D3E9002355
:1040880000F0F8FB0446642070430D4600F062FA25
:104098000B4602462946204600F0ECFB00F0D2FC15
:1040A800114BCBF83CA0186042F21073B3FBF7F742
:1040B8000E4B1F60BDE8FE8F0000000065CDCD41AE
:1040C80000000000882A914100000020813E00087D
:1040D8004019010010E000E008180020FEFFFF0072
:1040E8000418002000180020FC1700209807002062
:1040F80008B5044800F0B4F8034B044A5A60072294
:104108001A6008BD192A000810E000E040190100F3
:10411800014B1868704700BF30110020024B4FF464
:104128007A701B68584370473011002010B5FCF7AF
:1041380081FC094B4FF47A725C689B68E41A40F280
:104148008E335C43054B1B68534303EB1444FCF765
:1041580079FC204610BD00BF10E000E030110020BF
:104168004A684FF0807C234B22E90810A2F13802FC
:1041780010620A60704700BFD2F804D04FF0807C0C
:10418800DFF870B02DE900188EB00890C2F800D0A2
:10419800D1F800D0FCF7D6FB00DF00BF164981F349
:1041A80008884FF0020181F31488D0F800D0FCF79A
:1041B800C9FB00DFD0F800D0FCF7C4FB00DF00BF6C
:1041C800EFF3038343F0807308B400B52DE90F5073
:1041D8002DE9F00FC1F800D0D0F800D0FCF7B2FB01
:1041E80000DF00BFEFF309820A60026882F30988E2
:1041F800704700005D36000810280020114B124A55
:1042080012491A60124AD9625A60124A9A60DA60F0
:104218001A615A619A61DA611A625A629A621A6379
:104228005A639A630C4ADA630C4A12689360FF2354
:1042380082F82330FF3BD377536A43F4E023536279
:10424800704700BF00000020102800206D00000803
:10425800F50300084100000845000008F0040008C4
:10426800014B1860704700BF9C070020F8B50B4C45
:104278000B4F0C4B002601251B683E70E561A560BD
:104288009847094BA6601A68084BE6611B689A4272
:1042980001D0FEF7D9F93D70F8BD00BF300100200C
:1042A800281100209C070020381100202C11002024
:1042B80081F0004102E000BF83F0004330B54FEACF
:1042C80041044FEA430594EA050F08BF90EA020F3C
:1042D8001FBF54EA000C55EA020C7FEA645C7FEACF
:1042E800655C00F0E2804FEA5454D4EB5555B8BFF2
:1042F8006D420CDD2C4480EA020281EA030382EA63
:10430800000083EA010180EA020281EA0303362DF4
:1043180088BF30BD11F0004F4FEA01314FF4801CC7
:104328004CEA113102D0404261EB410113F0004FD9
:104338004FEA03334CEA133302D0524263EB430390
:1043480094EA050F00F0A780A4F10104D5F1200E2E
:104358000DDB02FA0EFC22FA05F2801841F1000189
:1043680003FA0EF2801843FA05F359410EE0A5F15D
:1043780020050EF1200E012A03FA0EFC28BF4CF08E
:10438800020C43FA05F3C01851EBE37101F0004544
:1043980007D54FF0000EDCF1000C7EEB00006EEB51
:1043A8000101B1F5801F1BD3B1F5001F0CD34908DB
:1043B8005FEA30004FEA3C0C04F101044FEA445232
:1043C80012F5800F80F09A80BCF1004F08BF5FEAB9
:1043D800500C50F1000041EB045141EA050130BD99
:1043E8005FEA4C0C404141EB010111F4801FA4F13C
:1043F8000104E9D191F0000F04BF01460020B1FA91
:1044080081F308BF2033A3F10B03B3F120020CDAC8
:104418000C3208DD02F1140CC2F10C0201FA0CF0A6
:1044280021FA02F10CE002F11402D8BFC2F1200C0B
:1044380001FA02F120FA0CFCDCBF41EA0C019040C1
:10444800E41AA2BF01EB0451294330BD6FEA04040A
:104458001F3C1CDA0C340EDC04F11404C4F12002F5
:1044680020FA04F001FA02F340EA030021FA04F307
:1044780045EA030130BDC4F10C04C4F1200220FA5E
:1044880002F001FA04F340EA0300294630BD21FA9C
:1044980004F0294630BD94F0000F83F4801306BF62
:1044A80081F480110134013D4EE77FEA645C18BF56
:1044B8007FEA655C29D094EA050F08BF90EA020FED
:1044C80005D054EA000C04BF1946104630BD91EAE5
:1044D800030F1EBF0021002030BD5FEA545C05D1E8
:1044E8004000494128BF41F0004130BD14F5800427
:1044F8003CBF01F5801130BD01F0004545F0FE419B
:1045080041F470014FF0000030BD7FEA645C1ABFCF
:10451800194610467FEA655C1CBF0B46024650EA06
:10452800013406BF52EA033591EA030F41F4002132
:1045380030BD00BF90F0000F04BF0021704730B5B8
:104548004FF4806404F132044FF000054FF000018D
:1045580050E700BF90F0000F04BF0021704730B54E
:104568004FF4806404F1320410F0004548BF404223
:104578004FF000013EE700BF42004FEAE2014FEA78
:1045880031014FEA02701FBF12F07F4393F07F4F53
:1045980081F06051704792F0000F14BF93F07F4F85
:1045A800704730B54FF4607401F0004521F00041C8
:1045B80020E700BF50EA010208BF704730B54FF04E
:1045C80000050AE050EA010208BF704730B511F053
:1045D800004502D5404261EB41014FF4806404F18B
:1045E80032045FEA915C3FF4DCAE4FF003025FEA0D
:1045F800DC0C18BF03325FEADC0C18BF033202EB95
:10460800DC02C2F1200300FA03FC20FA02F001FAEE
:1046180003FE40EA0E0021FA02F11444C1E600BF8D
:1046280070B54FF0FF0C4CF4E06C1CEA11541DBF40
:104638001CEA135594EA0C0F95EA0C0F00F0DEF80B
:104648002C4481EA030621EA4C5123EA4C5350EAF0
:10465800013518BF52EA033541F4801143F4801341
:1046680038D0A0FB02CE4FF00005E1FB02E506F0D2
:104678000042E0FB03E54FF00006E1FB03569CF027
:10468800000F18BF4EF0010EA4F1FF04B6F5007F2D
:1046980064F5407404D25FEA4E0E6D4146EB06069F
:1046A80042EAC62141EA55514FEAC52040EA5E5028
:1046B8004FEACE2EB4F1FD0C88BFBCF5E06F1ED8D2
:1046C800BEF1004F08BF5FEA500E50F1000041EB09
:1046D800045170BD06F0004646EA010140EA0200B6
:1046E80081EA0301B4EB5C04C2BFD4EB0C0541EAD8
:1046F800045170BD41F480114FF0000E013C00F3ED
:10470800AB8014F1360FDEBF002001F0004170BD10
:10471800C4F10004203C35DA0C341BDC04F1140429
:10472800C4F1200500FA05F320FA04F001FA05F2B5
:1047380040EA020001F0004221F0004110EBD37082
:1047480021FA04F642EB06015EEA430E08BF20EAAE
:10475800D37070BDC4F10C04C4F1200500FA04F351
:1047680020FA05F001FA04F240EA020001F00041E3
:1047780010EBD37041F100015EEA430E08BF20EA56
:10478800D37070BDC4F1200500FA05F24EEA020E9E
:1047980020FA04F301FA05F243EA020321FA04F0CD
:1047A80001F0004121FA04F220EA020000EBD37084
:1047B8005EEA430E08BF20EAD37070BD94F0000F84
:1047C8000FD101F00046400041EB010111F4801FB8
:1047D80008BF013CF7D041EA060195F0000F18BF69
:1047E800704703F00046520043EB030313F4801FA5
:1047F80008BF013DF7D043EA0603704794EA0C0F5F
:104808000CEA135518BF95EA0C0F0CD050EA410674
:1048180018BF52EA4306D1D181EA030101F00041F1
:104828004FF0000070BD50EA410606BF1046194619
:1048380052EA430619D094EA0C0F02D150EA013625
:1048480013D195EA0C0F05D152EA03361CBF104666
:1048580019460AD181EA030101F0004141F0FE4105
:1048680041F470014FF0000070BD41F0FE4141F489
:10487800780170BD70B54FF0FF0C4CF4E06C1CEA89
:1048880011541DBF1CEA135594EA0C0F95EA0C0F3E
:1048980000F0A7F8A4EB050481EA030E52EA0335F9
:1048A8004FEA013100F088804FEA03334FF080551A
:1048B80045EA131343EA12634FEA022245EA111547
:1048C80045EA10654FEA00260EF000419D4208BFF8
:1048D800964244F1FD0404F5407402D25B084FEAA5
:1048E8003202B61A65EB03055B084FEA32024FF451
:1048F80080104FF4002CB6EB020E75EB030E22BFAE
:10490800B61A754640EA0C005B084FEA3202B6EB6D
:10491800020E75EB030E22BFB61A754640EA5C001C
:104928005B084FEA3202B6EB020E75EB030E22BFAC
:10493800B61A754640EA9C005B084FEA3202B6EBAD
:10494800020E75EB030E22BFB61A754640EADC006C
:1049580055EA060E18D04FEA051545EA16754FEACE
:1049680006164FEAC30343EA52734FEAC2025FEAEC
:104978001C1CC0D111F4801F0BD141EA00014FF07B
:1049880000004FF0004CB6E711F4801F04BF01434C
:104998000020B4F1FD0C88BFBCF5E06F3FF6AFAE68
:1049A800B5EB030C04BFB6EB020C5FEA500C50F1F8
:1049B800000041EB045170BD0EF0004E4EEA11317B
:1049C80014EB5C04C2BFD4EB0C0541EA045170BD82
:1049D80041F480114FF0000E013C90E645EA060EC6
:1049E8008DE60CEA135594EA0C0F08BF95EA0C0FF4
:1049F8003FF43BAF94EA0C0F0AD150EA01347FF43C
:104A080034AF95EA0C0F7FF425AF104619462CE712
:104A180095EA0C0F06D152EA03353FF4FDAE104675
:104A2800194622E750EA410618BF52EA43067FF4C6
:104A3800C5AE50EA41047FF40DAF52EA43057FF456
:104A4800EBAE12E74A0011D212F5001211D20DD5C1
:104A58006FF47873B3EB62520ED44FEAC12343F07C
:104A6800004343EA505323FA02F070474FF0000026
:104A7800704750EA013002D14FF0FF3070474FF0D5
:104A88000000704773B96AB9002908BF0028BCBF85
:104A980000204FF00041C4BF6FF000414FF0FF30DD
:104AA80000F03CB882B0EC462DE9005000F006F862
:104AB800DDF804E002B00CBC704700BF2DE970437C
:104AC8001646804689461D4600F02AF800FB05F385
:104AD800A0FB064506FB0136069B7519B8EB0404D6
:104AE80069EB0505C3E90045BDE870832DE970430E
:104AF8001646804689461D4600F0C2F900FB05F3BC
:104B0800A0FB064506FB0136069B7519B8EB0404A5
:104B180069EB0505C3E90045BDE87083704700BF30
:104B280000292DE9F04F1C4685B0C0F2CB80002645
:104B3800002CC0F2C2808C461746144605468846AB
:104B48009A46002B4AD18A426ED9B2FA82F35BB1F7
:104B5800C3F1200401FA03F830FA04F210FA03F55D
:104B680017FA03F442EA08084FEA144A4046514645
:104B78001FFA84FB00F008FB51468146404600F0CE
:104B880031FC280C0BFB09F340EA0148434509D9DD
:104B980018EB040809F1FF3904D2434584BF09F131
:104BA800FF39A044C3EB080851464046ADB200F0B7
:104BB800EBFA51460746404600F014FC0BFB07FB96
:104BC80045EA0145AB4505D9013F2D1902D2AB4550
:104BD80088BF013F47EA0949002403E08B420CD90A
:104BE8000024A1464A46234616B1524263EB4303CA
:104BF8001046194605B0BDE8F08FB3FA83F4002CCF
:104C080040F0B3808B424FF001092CBF4FF0000CED
:104C18004FF0010C82428CBF67464CF00107002F11
:104C2800E0D13C46B946DDE722B90120114600F043
:104C3800ABFA0446B4FA84F3002B49D1C4EB080854
:104C4800270C1FFA84FA012102913946404600F0E8
:104C58009BFA39468146404600F0C4FB2A0C0AFB01
:104C680009F342EA014B5B4509D91BEB040B09F137
:104C7800FF3904D25B4584BF09F1FF39A344C3EB74
:104C88000B0B39465846ADB200F07EFA39468046DD
:104C9800584600F0A7FB0AFB08FA45EA0145AA4571
:104CA80007D92D1908F1FF3803D2AA4588BF08F1A2
:104CB800FF3848EA0949029C94E7F643524263EBFD
:104CC800430338E7404261EB41014FF0FF362FE7DD
:104CD8009C40C3F1200728FA07FA35FA07F2270C97
:104CE80008FA03FB3946504642EA0B029D400292FD
:104CF80000F04AFA39468346504600F073FB029B9F
:104D08001FFA84FA4FEA13490AFB0BF349EA0148F0
:104D1800434505D918EB04080BF1FF3BC0F0AA8006
:104D2800C3EB08083946404600F02EFA394681465A
:104D3800404600F057FB02980AFB09F31FFA80FC73
:104D48004CEA0148434509D918EB040809F1FF3931
:104D580004D2434584BF09F1FF39A04449EA0B4E08
:104D6800C3EB0808CDF808E06FE7C4F120030AFA9E
:104D780004FADA4021FA03F842EA0A0A01FA04F9C5
:104D880030FA03F240464FEA1A4B42EA090103910E
:104D9800594617FA04F3029300F0F6F9594681468A
:104DA800404600F01FFB1FFA8AF3039803FB09F241
:104DB800070C47EA0148424504D918EB0A0809F1EB
:104DC800FF3951D3C2EB080859464046019300F019
:104DD800DBF959460746404600F004FB019B03985F
:104DE80003FB07F31FFA80FC4CEA014C634507D923
:104DF800013F1CEB0A0C03D2634501D9013FD4449F
:104E080047EA0949029FC3EB0C0C1FFA89FE4FEAD7
:104E18001943B8B23F0C00FB0EF800FB03F107FB87
:104E28000E1207FB03F002EB1842914288BF00F50F
:104E3800803000EB124EF44512D34FEA02421FFABB
:104E480088F814BF0021012102EB080C15FA04F4BC
:104E580064452CBF002401F00104002C3FF4C2AECD
:104E680009F1FF390024BDE6424584BF09F1FF3945
:104E7800D044A7E7434584BF0BF1FF3BA0444FE76D
:104E88002DE9F04F054683B00C46174680460E467E
:104E9800002B4DD18A4261D9B2FA82F353B1C3F1E2
:104EA800200411FA03F630FA04F29F4042EA06069B
:104EB80000FA03F83C0C304621461FFA87FA00F046
:104EC80063F921468146304600F08CFA4FEA1840D3
:104ED8000AFB09F340EA0146B34208D9F61909F179
:104EE800FF3904D2B34284BF09F1FF39F619F61A23
:104EF800214630461FFA88F800F046F92146054653
:104F0800304600F06FFA0AFB05FA48EA0148C24544
:104F180006D9013D18EB070802D2C24588BF013DFA
:104F280045EA094A00263146504603B0BDE8F08FED
:104F38008B425BD8B3FA83F6002E5AD18B424FF0DE
:104F4800010A2CBF0024012482428CBF254644F06C
:104F58000105002DE7D12E46AA46E4E722B9012033
:104F6800114600F011F90746B7FA87F3002B40F015
:104F7800B680E41B4FEA174BBDB2012659462046BE
:104F880000F002F959464FEA18498246204600F0D7
:104F980029FA05FB0AF349EA0144A34208D9E419AE
:104FA8000AF1FF3A04D2A34284BF0AF1FF3AE41996
:104FB800E41A5946204600F0E7F85946814620464B
:104FC80000F010FA1FFA88F305FB09F543EA0148D7
:104FD800454508D918EB070809F1FF3903D24545BB
:104FE80088BF09F1FF3949EA0A4A9CE70026B24618
:104FF80099E7C6F12001B34032FA01F724FA01F922
:105008001F43B44030FA01F348464FEA174843EAD1
:10501800040101914146B240009200F0B5F84146C2
:10502800BCB28246484600F0DDF9019804FB0AF359
:105038004FEA104B4BEA014B5B4505D91BEB070BBD
:105048000AF1FF3AC0F09380C3EB0B0B4146584678
:1050580000F09AF841468146584600F0C3F9019895
:1050680004FB09F41FFA80FC4CEA01439C4203D973
:10507800DB1909F1FF3974D3009F49EA0A4A1C1B5E
:105088001FFA8AFEB8B23A0C4FEA1A4700FB0EFC28
:1050980000FB07F302FB0E3102FB07F201EB1C4198
:1050A8008B4288BF02F5803202EB114E744512D351
:1050B8004FEA01411FFA8CF214BF0023012301EBD0
:1050C800020C15FA06F666452CBF002603F0010609
:1050D800002E3FF428AF0AF1FF3A002623E79F404D
:1050E800C3F1200134FA01F614FA03F24FEA174B20
:1050F80025FA01FA3046594605FA03F84AEA020A3F
:1051080000F042F85946BDB28146304600F06AF9CF
:105118004FEA1A4C05FB09F34CEA0144A34203D9B0
:10512800E41909F1FF3928D3E41A5946204600F05A
:105138002BF859460646204600F054F91FFA8AF41F
:1051480005FB06F344EA0144A34206D9013EE419EB
:1051580003D2A34201D9013EE419E41A46EA0946FA
:105168000CE79C4284BF09F1FF39DB1984E75B45F2
:1051780084BF0AF1FF3ABB4466E7A34284BF09F142
:10518800FF39E419D0E700BF4A1E08BF7047C0F0D6
:105198002481884240F21681114200F01781B0FA4A
:1051A80080F3B1FA81F2A2EB0303C3F11F0304A257
:1051B80002EB03134FF000029F4600BFAFF30080DD
:1051C800B0EBC17F00BF42EB020228BFA0EBC17069
:1051D800B0EB817F00BF42EB020228BFA0EB8170D9
:1051E800B0EB417F00BF42EB020228BFA0EB417049
:1051F800B0EB017F00BF42EB020228BFA0EB0170B9
:10520800B0EBC16F00BF42EB020228BFA0EBC16048
:10521800B0EB816F00BF42EB020228BFA0EB8160B8
:10522800B0EB416F00BF42EB020228BFA0EB416028
:10523800B0EB016F00BF42EB020228BFA0EB016098
:10524800B0EBC15F00BF42EB020228BFA0EBC15028
:10525800B0EB815F00BF42EB020228BFA0EB815098
:10526800B0EB415F00BF42EB020228BFA0EB415008
:10527800B0EB015F00BF42EB020228BFA0EB015078
:10528800B0EBC14F00BF42EB020228BFA0EBC14008
:10529800B0EB814F00BF42EB020228BFA0EB814078
:1052A800B0EB414F00BF42EB020228BFA0EB4140E8
:1052B800B0EB014F00BF42EB020228BFA0EB014058
:1052C800B0EBC13F00BF42EB020228BFA0EBC130E8
:1052D800B0EB813F00BF42EB020228BFA0EB813058
:1052E800B0EB413F00BF42EB020228BFA0EB4130C8
:1052F800B0EB013F00BF42EB020228BFA0EB013038
:10530800B0EBC12F00BF42EB020228BFA0EBC120C7
:10531800B0EB812F00BF42EB020228BFA0EB812037
:10532800B0EB412F00BF42EB020228BFA0EB4120A7
:10533800B0EB012F00BF42EB020228BFA0EB012017
:10534800B0EBC11F00BF42EB020228BFA0EBC110A7
:10535800B0EB811F00BF42EB020228BFA0EB811017
:10536800B0EB411F00BF42EB020228BFA0EB411087
:10537800B0EB011F00BF42EB020228BFA0EB0110F7
:10538800B0EBC10F00BF42EB020228BFA0EBC10087
:10539800B0EB810F00BF42EB020228BFA0EB8100F7
:1053A800B0EB410F00BF42EB020228BFA0EB410067
:1053B800B0EB010F00BF42EB020228BFA0EB0100D7
:1053C800104670470CBF012000207047B1FA81F2E7
:1053D800C2F11F0220FA02F0704708B14FF0FF3007
:1053E800FFF79CBB0029F8D02DE90340FFF7CCFE5E
:1053F800BDE8064002FB00F3A1EB0301704700BFC4
:10540800032A2DE9F00109D82AB10023CC5CC45441
:1054180001339342FAD1BDE8F00170470B46821878
:10542800014603E02478013301F8014B11F0030F22
:105438001C46F7D113F003055DD06E42C5F1040C8C
:10544800ED009B594FEACC0C08E00434A7593B46C1
:1054580007FA0CF748EA070741F8047B571A23FABA
:1054680005F8032FF1DC03E014F8013B01F8013BD8
:105478008A42F9D8CFE753F8404C41F8404C53F8EA
:105488003C4C41F83C4C53F8384C41F8384C53F8F4
:10549800344C41F8344C53F8304C41F8304C53F804
:1054A8002C4C41F82C4C53F8284C41F8284C53F814
:1054B800244C41F8244C53F8204C41F8204C53F824
:1054C8001C4C41F81C4C53F8184C41F8184C53F834
:1054D800144C41F8144C53F8104C41F8104C53F844
:1054E8000C4C41F80C4C53F8084C41F8084C53F854
:1054F800044C41F8044C561A1D460C4640334031C2
:105508003F2EB8DC2B460FE053F8101C44F8101C53
:1055180053F80C1C44F80C1C53F8081C44F8081CDD
:1055280053F8041C44F8041C161B21461D4610346D
:1055380010330F2EE8DC2B4602E0246841F8044BB8
:10554800551A1C46032D03F10403F6DC90E700BF4F
:10555800032AC9B270B408D82AB10346121803F84E
:10556800011B9342FBD170BC70478218044601E0CE
:1055780004F8011B14F0030FFAD14FF0013303FBB9
:1055880001F31FE044F8403C44F83C3C44F8383C04
:1055980044F8343C44F8303C44F82C3C44F8283C6B
:1055A80044F8243C44F8203C44F81C3C44F8183C9B
:1055B80044F8143C44F8103C44F80C3C44F8083CCB
:1055C80044F8043C161B254640343F2EDADC2C46B2
:1055D80007E044F8103C44F80C3C44F8083C44F814
:1055E800043C161B254610340F2EF2DC01E045F86A
:1055F800043B541B032CFADC01E005F8011B95421F
:10560800FBD3B0E710F0030F38B5044612D1036896
:10561800A3F1013222EA030313F0803F0AD1031DEC
:10562800184653F8042BA2F1013525EA020212F0BC
:10563800803FF5D003782BB1431C184613F8012B93
:10564800002AFAD100F0F0F8204638BD80EA0102BD
:1056580012F0030F3AD110F0030220F0030021F0FA
:10566800030150F804CB08BF51F8043B0DD082F079
:1056780003024FEAC2026FF07F4323FA02F251F8A5
:10568800043B4CEA020C43EA020300BFACF10132CE
:105698009C4501BF22EA0C0212F0803F50F804CB6F
:1056A80051F8043BF2D04FEA0C604FEA1C2C012859
:1056B80028BFB0EB036F08BF1B0AF4D003F0FF0349
:1056C8004FEA1060A0EB0300704700BF10F0030F13
:1056D8000AD010F8012B11F8013B012A28BF9A4281
:1056E800F4D0A2EB030070474DF8045D4DF8044D6B
:1056F8004FF0010242EA022242EA024201F0030CA0
:1057080021F0030150F8044B51F8045BBCF1020F7F
:1057180026D04BD824F07F4CBCEB152FA4EB02030A
:1057280023EA04030DD113EAC21308BF51F8045B3E
:105738000AD18CEA040CBCEB056F0CD150F8044B71
:10574800E8E74FEA15255CE033F07F4352D10D7846
:105758004FEA146C55E04FEA146C05F0FF0550E071
:105768004FEA044CA4EB02034FEA1C4C23EA04035F
:10577800BCEB154F17D113EAC21308BF51F8045BED
:1057880007D18CEA040CBCEB054F08D150F8044B48
:10579800E6E71B042ED10D884FEA144C31E04FEA9E
:1057A80005454FEA144C4FEA15452AE004F0FF0C72
:1057B800BCEB156FA4EB020323EA04030DD113EA33
:1057C800C21308BF51F8045B0AD18CEA040CBCEB85
:1057D800052F0AD150F8044BE8E74FEA156510E0A9
:1057E80014F0FF0F06D051F8045B4FEA142C25F093
:1057F8007F4506E04FF000005DF8044B5DF8045B60
:1058080070470CF0FF0205F0FF00012828BF904206
:1058180004BF4FEA1C2C2D0AF3D0A2EB00005DF860
:10582800044B5DF8045B704780EA0102844612F07D
:10583800030F4FD111F0030F32D14DF8044D11F081
:10584800040F51F8043B0BD0A3F101329A4312F034
:10585800803F04BF4CF8043B51F8043B16D100BF0D
:1058680051F8044BA3F101329A4312F0803FA4F19E
:1058780001320BD14CF8043BA24312F0803F04BF25
:1058880051F8043B4CF8044BEAD023460CF8013B92
:1058980013F0FF0F4FEA3323F8D15DF8044B70473C
:1058A80011F0010F06D011F8012B0CF8012B002A7A
:1058B80008BF704711F0020FBFD031F8022B12F069
:1058C800FF0F16BF2CF8022B8CF8002012F47F4F24
:1058D800B3D1704711F8012B0CF8012B002AF9D12C
:1058E800704700BF10B479B103787BB1431C4118ED
:1058F80002E013F8012B2AB18B421C46F9D1181A81
:1059080010BC7047201AFBE70846F9E71846F7E786
:0859180010F2FF7F0100000006
:10592000FFFF000001000000000000001F00000059
:105930003B0000005A0000007800000097000000C3
:10594000B5000000D4000000F300000011010000C9
:10595000300100004E0100006D0100001F0000003A
:105960001C0000001F0000001E0000001F000000BF
:105970001E0000001F0000001F0000001E000000AD
:105980001F0000001E0000001F0000002800000093
:04599000693600086C
:1059940010000000030000004C0500084C0500083E
:1059A4006C06000001000000B80B00080000002095
:1059B4003001000001000000E80C00083001002064
:0859C400FC05000000000000DA
:1059CC001000000003000000E80C0008E80C0008C0
:1059DC00304C000001000000205900082C0700206A
:1059EC00740000000100000094590008A00700207A
:0859FC0069100000000000002A
:105A04000C0000000100000010280020000001200C
:00000001FF
