:020000040800F2
:1000000010280020410600084100000841000008B7
:1000100000000000000000000000000000000000E0
:100020000000000000000000000000006D0000085B
:100030000000000000000000000000004500000873
:10004000FEE700BF01B515480068EFF3098020E91D
:10005000F00F80F3098807F075FEBDE80140EFF36B
:100060000980B0E8F00F80F30988704700B500F010
:10007000C3FC5DF804EB1EF0040F0CBFEFF3088027
:10008000EFF30980816911F8021C29B900F1200001
:10009000B0E8F00F80F309887047000010E000E03E
:1000A00080B500AF4FF480704FF0010106F064FF9F
:1000B0004FF001004FF0010106F080FF4FF0030008
:1000C00001F0F8F94FF0040001F0F4F94FF00500E9
:1000D00001F0F0F94FF0060001F0ECF94FF00300E9
:1000E0004FF00E014FF00B0201F026F94FF0030024
:1000F0004FF00F014FF00B0201F01EF94FF003001B
:100100004FF000014FF00B0201F016F94FF0030021
:100110004FF001014FF00B0201F00EF94FF0040017
:100120004FF007014FF00B0201F006F94FF0040009
:100130004FF008014FF00B0201F0FEF84FF0040001
:100140004FF009014FF00B0201F0F6F84FF00400F8
:100150004FF00A014FF00B0201F0EEF84FF00400EF
:100160004FF00B014FF00B0201F0E6F84FF00400E6
:100170004FF00C014FF00B0201F0DEF84FF00400DD
:100180004FF00D014FF00B0201F0D6F84FF00400D4
:100190004FF00E014FF00B0201F0CEF84FF00400CB
:1001A0004FF00F014FF00B0201F0C6F84FF00300C3
:1001B0004FF008014FF00B0201F0BEF84FF00300C2
:1001C0004FF009014FF00B0201F0B6F84FF00300B9
:1001D0004FF00A014FF00B0201F0AEF84FF00500AE
:1001E0004FF000014FF00B0201F0A6F84FF00500B0
:1001F0004FF001014FF00B0201F09EF84FF00500A7
:100200004FF002014FF00B0201F096F84FF005009D
:100210004FF003014FF00B0201F08EF84FF0050094
:100220004FF004014FF00B0201F086F84FF005008B
:100230004FF005014FF00B0201F07EF84FF0050082
:100240004FF00C014FF00B0201F076F84FF0050073
:100250004FF00D014FF00B0201F06EF84FF005006A
:100260004FF00E014FF00B0201F066F84FF0050061
:100270004FF00F014FF00B0201F05EF84FF0060057
:100280004FF000014FF00B0201F056F84FF006005E
:100290004FF001014FF00B0201F04EF84FF0060055
:1002A0004FF002014FF00B0201F046F84FF006004C
:1002B0004FF003014FF00B0201F03EF84FF0060043
:1002C0004FF004014FF00B0201F036F84FF006003A
:1002D0004FF005014FF00B0201F02EF84FF0030034
:1002E0004FF00B014FF00B0201F026F84FF0030026
:1002F0004FF00C014FF00B0201F01EF84FF003001D
:100300004FF00D014FF00B0201F016F84FF0040012
:100310004FF003014FF00B0201F00EF84FF0040014
:100320004FF004014FF00B0201F006F84FF004000B
:100330004FF005014FF00B0200F0FEFF4FF00300FD
:100340004FF005014FF00B0200F0F6FF4FF00300F5
:100350004FF004014FF00B0200F0EEFF4FF00300EE
:100360004FF007014FF00B0200F0E6FF4FF00600E0
:100370004FF009014FF00B0200F0DEFF4FF00600D6
:100380004FF00A014FF00B0200F0D6FF4FF00600CD
:100390004FF00C014FF00B0200F0CEFF4FF00400C5
:1003A0004FF000014FF00B0200F0C6FF4FF00400C9
:1003B0004FF001014FF00B0200F0BEFF80BD00BF07
:1003C00080B596B000AF4FF001033B604FF00003E3
:1003D0007B604FF00203BB604FF00003FB604FF007
:1003E00000033B614FF001037B614FF00003BB61F1
:1003F0004FF00003FB614FF000033B624FF004033A
:100400007B624FF01003BB624FF00003FB624FF0C2
:1004100000033B634FF000037B634FF00003BB63BB
:100420004FF00003FB634FF480533B644FF0000335
:100430007B644FF00003BB644FF00003FB643B465A
:100440003B653B467B6507F11C03184606F0C0FB85
:100450004FF000004FF0010106F0D6FC07F15807FD
:10046000BD4680BD80B596B000AF4FF001033B6044
:100470004FF000037B604FF00203BB604FF00003BE
:10048000FB604FF000033B614FF000037B614FF0D6
:100490000003BB614FF00403FB614FF000033B62BC
:1004A0004FF000037B624FF01003BB624FF000037C
:1004B000FB624FF000033B634FF000037B634FF0A0
:1004C0000003BB634FF00003FB634FF480533B64B6
:1004D0004FF000037B644FF00003BB644FF0000358
:1004E000FB643B463B653B467B6507F11C031846B6
:1004F00006F06EFB4FF004004FF0010106F084FCA3
:1005000007F15807BD4680BD80B58EB000AF4FF0F3
:1005100000037B604FF00303BB604FF00903FB60F7
:100520004FF000033B614FF480737B614FF0020397
:10053000BB614FF00003FB614FF040033B624FF49F
:1005400000337B624FF00003BB624FF00003FB629D
:1005500007F104033B6307F104037B6307F1140312
:10056000184606F0DDFB4FF480704FF0010106F0F5
:1005700075FC07F13807BD4680BD00BF80B596B059
:1005800000AF4FF001033B604FF001037B604FF081
:100590000203BB604FF00103FB604FF001033B61BE
:1005A0004FF001037B614FF00003BB614FF0060386
:1005B000FB614FF000033B624FF004037B624FF09E
:1005C0001003BB624FF00003FB624FF000033B637C
:1005D0004FF000037B634FF00003BB634FF0000359
:1005E000FB634FF480533B644FF000037B644FF098
:1005F0000003BB644FF00003FB643B463B653B4696
:100600007B6507F11C03184606F0E2FA4FF006007E
:100610004FF0010106F0F8FB07F15807BD4680BD19
:1006200080B500AFFFF73CFDFFF7CAFEFFF71AFFEA
:10063000FFF76AFFFFF7A2FF80BD00BF00ED00E0FB
:1006400080B500AF524B184606F050FE4FF0010047
:1006500006F050FE4FF0010006F058FE4FF000008B
:1006600006F060FE4B4B1B681B684B4A93420BD055
:10067000494A934202D8494A934217E0484A934272
:100680000BD0484A934211E0424B1B68414A126822
:10069000526942F400725A6108E03E4B1B683D4AC1
:1006A0001268526942F400725A6100BF3E4B1B68E7
:1006B0003D4A1268126822F01F021A603A4B1B680A
:1006C000394A1268126842F002021A60364B1B68FF
:1006D000354A1268126842F010021A60334B1B68E8
:1006E0001A68334B02EA0303324A934208D12F4B74
:1006F0001B685A68304B02EA0303304A934241D0E8
:100700002A4B1B68294A1268126842F001021A60DB
:10071000264B1A68254B1B685968294B01EA0303CD
:100720005360224B1A68214B1B681B6823F08473AB
:1007300023F4803313601D4B1B681C4A1268126837
:1007400022F480221A60194B1B68184A12685268FA
:1007500022F4FE025A60154B1B684FF000029A60AB
:10076000124B1B68174A5A60104B1B68114A1A60DB
:1007700000BF154B1B68002BFBD000BF134B1B6841
:10078000002BFBD0FFF74CFF00F022F880BD00BF2C
:10079000102800203C06000831C20F4130C20F4132
:1007A00031C21F4120C32F415C73000858730008F9
:1007B00001000F0300000B03FC3F3F0008041F0073
:1007C0000000FFF802C41D07440042426400424298
:1007D00080B586B000AF3F4B7B604FF00003FB60FD
:1007E0006CE03D4AFB684FEA0313D31803F108039A
:1007F0001B687B61384AFB684FEA0313D31803F187
:100800000C031B683B61344AFB6803F101034FEAA8
:100810000313D31803F104031B68012B23D17A6956
:100820003B699A4246D04FF00003BB600FE07B6902
:100830001A683B691A60BB6803F10403BB607B69FB
:1008400003F104037B613B6903F104033B61224A2A
:10085000FB6803F101034FEA0313D3181A68BB685E
:100860009A42E4D826E01C4AFB6803F101034FEAF0
:100870000313D31803F104031B68002B1AD14FF0A4
:100880000003BB600BE03B694FF000021A60BB68DD
:1008900003F10403BB603B6903F104033B610E4AAF
:1008A000FB6803F101034FEA0313D3181A68BB680E
:1008B0009A42E8D8FB6803F10103FB60064B5A68D3
:1008C000FB689A428DD87B68984707F11807BD46A8
:0C08D00080BD00BFDD0900089C940008FA
:1008DC0080B485B000AF4FF000037B606CE03B4A06
:1008EC007B684FEA0313D31803F108031B68FB6002
:1008FC00364A7B684FEA0313D31803F10C031B68C9
:10090C00BB60324A7B6803F101034FEA0313D3182F
:10091C0003F104031B68012B23D1FA68BB689A42CC
:10092C0046D04FF000033B600FE0FB681A68BB68D1
:10093C001A603B6803F104033B60FB6803F104039A
:10094C00FB60BB6803F10403BB60204A7B6803F1C6
:10095C0001034FEA0313D3181A683B689A42E4D890
:10096C0026E01A4A7B6803F101034FEA0313D318FC
:10097C0003F104031B68002B1AD14FF000033B60FA
:10098C000BE0BB684FF000021A603B6803F10403F4
:10099C003B60BB6803F10403BB600C4A7B6803F14A
:1009AC0001034FEA0313D3181A683B689A42E8D83C
:1009BC007B6803F101037B60044B5A687B689A42A5
:1009CC008DD807F11407BD4680BC7047D49400083D
:1009DC0080B500AFFFF77CFF00F002F900F0A0FC3F
:1009EC0005F0CEFE80BD00BF00E100E080B400AF9A
:1009FC004FF0000080F31188BD4680BC704700BFEB
:100A0C0080B400AF4FF0FF0080F31188BD4680BC6E
:100A1C00704700BF80B400AF62B6BD4680BC704763
:100A2C0080B400AF72B6BD4680BC704780B483B052
:100A3C0000AF0346FB71FB793B2B04D8FB790F4AC3
:100A4C00D35CFF2B02D14FF0000310E00C4B1B6862
:100A5C00FA794FEA5212D2B2F97901F01F014FF034
:100A6C00010000FA01F143F822104FF0010318467F
:100A7C0007F10C07BD4680BC704700BF5001002039
:100A8C00F409000880B485B000AF0346FB71FB7914
:100A9C003B2B04D8FB79124AD35CFF2B02D14FF0CD
:100AAC00000316E0FB794FEA5313DBB2FB60FB79D2
:100ABC0003F01F034FF0010202FA03F3BB60094B72
:100ACC001B68FA6802F16002B96843F822104FF013
:100ADC000103184607F11407BD4680BC704700BFE0
:100AEC0050010020F409000880B483B000AF4FF02F
:100AFC000003FB710CE00A4B1B68FA7902F16002EF
:100B0C004FF0FF3143F82210FB7903F10103FB7125
:100B1C00FB79012BEFD907F10C07BD4680BC704760
:100B2C00F409000880B483B000AF0346FB71FB7975
:100B3C003B2B04D8FB79214AD35CFF2B02D14FF01D
:100B4C00000335E0FB791D4AD35C1A461C49134659
:100B5C004FEA43039B184FEAC303CB1803F10C0372
:100B6C004FF000021A60FB794FEA5313DBB21A46BE
:100B7C001946144B53F82110FB7903F01F034FF067
:100B8C00010000FA03F36FEA030319400D4B43F81D
:100B9C002210FA790C490D4B43F822100C4B1A68B1
:100BAC00FB79D3184FF0FF0283F800234FF00103B9
:100BBC00184607F10C07BD4680BC70475001002059
:100BCC008C01002030010020611200084000002040
:100BDC00F409000880B400AF61B6BD4680BC704714
:100BEC0080B582B000AFFFF71BFFFFF77DFF604BB6
:100BFC001B685F4A1268526942F002025A614FF058
:100C0C000003FB710DE0FB795A4A4FF0FF01D15400
:100C1C00FA795949594B43F82210FB7903F1010336
:100C2C00FB71FB793B2BEED94FF00003FB7154E0C9
:100C3C00FB79534AD35C4F4AF979D154FA7951492B
:100C4C0013464FEA43039B184FEAC303CB1803F137
:100C5C0008034FF001021A60FA794A4913464FEA29
:100C6C0043039B184FEAC303CB1803F10C034FF05B
:100C7C0000021A60FA794449424813464FEA43038A
:100C8C009B184FEAC303C3181960FA793D49134600
:100C9C004FEA43039B184FEAC303CB1803F1040339
:100CAC004FF000021A60FA79364913464FEA4303B3
:100CBC009B184FEAC303CB1803F110034FF6FF72D6
:100CCC005A80324B1A68FB79D3184FF0FF0283F825
:100CDC000023FB7903F10103FB712D4B1B78FA798F
:100CEC009A42A5D34FF00003FB7123E0274B1B68FE
:100CFC00FA7902F120024FF0FF3143F82210234B16
:100D0C001B68FA7902F160024FF0FF3143F82210B0
:100D1C00FA79204B4FF0000143F82210FA791D4B61
:100D2C0002F104024FF0000143F82210FB7903F1A9
:100D3C000103FB71FB79012BD8D9164B4FF0000244
:100D4C009A60144B4FF00002DA60124B4FF0010224
:100D5C00DA61FFF755FE0F4B4FF000029A61FFF777
:100D6C0059FEFFF737FF07F10807BD4680BD00BFEE
:100D7C003C060008500100206112000840000020D1
:100D8C00E01200088C01002049670008F4090008F3
:100D9C001C1300083001002080B582B000AF034660
:100DAC00FB71324BDB6803F10102304BDA602F4BE5
:100DBC009B6903F101022D4B9A61FB792C4AD35CA0
:100DCC001A462C4913464FEA43039B184FEAC303B8
:100DDC00CB1803F110031B78002B01D1FFF720FE79
:100DEC00FB791846FFF74EFEFB79214AD35C1A4675
:100DFC00204913464FEA43039B184FEAC303CB1811
:100E0C001B68002B0FD0FB79194AD35C1A46194981
:100E1C0013464FEA43039B184FEAC303CB181B68D6
:100E2C00FA7910469847FB79114AD35C1A46114956
:100E3C0013464FEA43039B184FEAC303CB1803F145
:100E4C0010031B78002B01D1FFF7E4FD074BDB6887
:100E5C0003F1FF32054BDA60044B9B6903F1FF325F
:100E6C00024B9A6107F10807BD4680BD3001002096
:100E7C00500100208C01002080B588B004AF0346DF
:100E8C00FB714FF00003FB60574B4FF000021A70E0
:100E9C00564B9B6803F10102544B9A60FB79184640
:100EAC00FFF7F0FDFB79524AD35C1A4651491346C1
:100EBC004FEA43039B184FEAC303CB181B68002B64
:100ECC0010D0FB794A4AD35C1A464A4913464FEA7A
:100EDC0043039B184FEAC303CB181B68FA791046DF
:100EEC009847F860FB79424AD35C1A46414913464D
:100EFC004FEA43039B184FEAC303CB1803F10403D7
:100F0C001B68BB60BB68002B23D0BB68B3F84E20BA
:100F1C00BB68A3F84C20BA6892F84F306FF34103CA
:100F2C0082F84F30BB68FA685A64B86804F05CFA0F
:100F3C00FB792F4AD35C1A462E4913464FEA4303DA
:100F4C009B184FEAC303CB1803F104034FF00002C4
:100F5C001A60FB79264AD35C1A46264913464FEA97
:100F6C0043039B184FEAC303CB1803F110035A88B1
:100F7C004FF6FF739A4220D0FB791D4AD35C1A4678
:100F8C001C4913464FEA43039B184FEAC303CB1883
:100F9C0003F110035A8807F107034FF00101009188
:100FAC004FF0000101914FF00001029110464FF0FB
:100FBC0000014FF0000204F013FC0C4B9B6803F192
:100FCC00FF320A4B9A600C4B1A680C4B1B689A4206
:100FDC0001D003F089FD044B4FF001021A7007F1A8
:100FEC001007BD4680BD00BF281100203001002035
:100FFC00500100208C010020381100202C11002001
:10100C0080B500AF0C4B9B68002B12D1FFF7F8FC9E
:10101C00094BDB69B3F1FF3F05D0074BDB6903F1EB
:10102C000102054BDA61054B4FF000021A7000BF4C
:10103C0000E000BF80BD00BF30010020281100205F
:10104C0080B500AFFFF7DCFC024B4FF00102DA6118
:10105C0080BD00BF3001002080B500AF164B9B68EF
:10106C00002B27D1144BDB69002B05D0124BDB690D
:10107C0003F1FF32104BDA610F4BDB69002B16D1F9
:10108C000D4B9B69002B0FD10C4B4FF001021A70CA
:10109C000B4B1A680B4B1B689A4202D003F0E2FC14
:1010AC0009E0FFF7A3FC06E0FFF7A0FC03E0FFF765
:1010BC00A7FC00E000BF80BD3001002028110020FB
:1010CC002C1100203811002080B400AF034B4FF0DE
:1010DC000002DA61BD4680BC704700BF30010020C1
:1010EC0080B582B000AF0346FB71FB793B2B08D86F
:1010FC00FB79404AD35CFF2B03D03F4BDB68002BC2
:10110C0002D04FF000036FE0FB793A4AD35C1A46E9
:10111C003A4913464FEA43039B184FEAC303CB18D3
:10112C0003F10C031B68012B02D14FF000035BE0B1
:10113C00FB79304AD35C1A46304913464FEA4303D5
:10114C009B184FEAC303CB1803F108031B68002B51
:10115C001BD0FB79274AD35C1A46284913464FEA21
:10116C0043039B184FEAC303CB1803F108031B6816
:10117C0003F1FF31214813464FEA43039B184FEA12
:10118C00C303C31803F108031960FB79194AD35C34
:10119C001A461A4913464FEA43039B184FEAC303F6
:1011AC00CB1803F108031B68002B1BD1FB794FEA0A
:1011BC005313DBB21A4619460F4B01F1040153F8D5
:1011CC002110FB7903F01F034FF0010000FA03F329
:1011DC001943094B02F1040243F82210FB7918461B
:1011EC00FFF724FC4FF00103184607F10807BD4632
:1011FC0080BD00BF50010020300100208C01002078
:10120C0080B483B000AF03463960FB71FB793B2B94
:10121C0014D8FB790D4AD35CFF2B11D0FB790B4A08
:10122C00D35C1A460A4913464FEA43039B184FEA0C
:10123C00C303CB183A681A6000BF02E000BF00E09D
:10124C0000BF07F10C07BD4680BC70475001002061
:10125C008C01002001B5EFF3098020E9F00F80F339
:10126C000988EFF30580A0F11000FFF705FEBDE83B
:10127C000140EFF30980B0E8F00F80F30988704764
:10128C0001B5EFF3098020E9F00F80F30988EFF343
:10129C000580A0F11000FFF77FFDBDE80140EFF3E2
:1012AC000980B0E8F00F80F309887047EFF31180E4
:1012BC004FF0FF0181F31188704700BF80F3118854
:1012CC00704700BFEFF3108072B6704780F3108840
:1012DC00704700BF000102030405060708090A0B4A
:1012EC000C0D0E0F101112131415161718191A1BBA
:1012FC001C1D1E1F202122232425262728292A2BAA
:10130C002C2D2E2F303132333435363738393A3B99
:10131C003C00000080B400AFBD4680BC704700BFED
:10132C0080B500AFFFF7F6FF80BD00BF80B485B07D
:10133C0000AFF860B9607A60FB68062B5FD8BB68B9
:10134C00072B1ED8314BFA6853F822302F4AF96814
:10135C0052F821201168BA684FEA82024FF00F0050
:10136C0000FA02F26FEA020211407A6802F00F00F2
:10137C00BA684FEA820200FA02F241EA02021A60EB
:10138C0021E0224BFA6853F82230204AF96852F8CF
:10139C0021205168BA68A2F108024FEA82024FF08C
:1013AC000F0000FA02F26FEA020211407A6802F0B2
:1013BC000F00BA68A2F108024FEA820200FA02F2A8
:1013CC0041EA02025A607B68182B0AD10F4BFA686B
:1013DC0053F82230BA684FF0010101FA02F21A6197
:1013EC000EE07B68082B0BD1084BFA6853F82230BF
:1013FC00BA684FF0010101FA02F25A6100E000BF35
:10140C0007F11407BD4680BC704700BF3C73000851
:10141C0080B483B000AF78607B68062B02D94FF0A4
:10142C00000304E0054B7A6853F822309B68184699
:10143C0007F10C07BD4680BC704700BF3C73000829
:10144C0080B483B000AF786039607B68062B0AD813
:10145C00084B7A6853F822203B684FEA03434FEA63
:10146C001343136100E000BF07F10C07BD4680BCBD
:10147C00704700BF3C73000880B483B000AF786045
:10148C0039607B68062B06D8064B7A6853F82230F5
:10149C003A685A6100E000BF07F10C07BD4680BCFA
:1014AC00704700BF3C73000880B483B000AF786015
:1014BC007B68062B33D801A252F823F0E514000800
:1014CC00EF140008F9140008031500080D150008A6
:1014DC001715000821150008144B4FF001021A6073
:1014EC001EE0134B4FF001021A6019E0114B4FF044
:1014FC0001021A6014E0104B4FF001021A600FE069
:10150C000E4B4FF001021A600AE00D4B4FF0010236
:10151C001A6005E00B4B4FF001021A6000E000BFAF
:10152C0007F10C07BD4680BC704700BF0803424260
:10153C000C0342421003424214034242180342423B
:08154C001C034242200342424D
:101554000000000000000000000000000000000087
:101564000000000000000000000000000000000077
:101574000000000000000000000000000000000067
:101584000000000000000000000000000000000057
:101594000000000000000000000000000000000047
:1015A4000000000000000000000000000000000037
:1015B4000000000000000000000000000000000027
:1015C4000000000000000000000000000000000017
:1015D4000000000000000000000000000000000007
:1015E40000000000000000000000000000000000F7
:1015F40000000000000000000000000000000000E7
:1016040000000000000000000000000000000000D6
:1016140000000000000000000000000000000000C6
:1016240000000000000000000000000000000000B6
:1016340000000000000000000000000000000000A6
:101644000000000000000000000000000000000096
:101654000000000000000000000000000000000086
:101664000000000000000000000000000000000076
:101674000000000000000000000000000000000066
:1016880080B500AF4FF002004FF4A871FFF7F6FEE7
:101698004FF002004FF40071FFF7D4FE184803F032
:1016A800BFFF4FF002004FF41471FFF7E7FE4FF051
:1016B80002004FF48071FFF7C5FE114803F0B0FF38
:1016C8004FF002004FF45071FFF7D8FE4FF00200C0
:1016D8004FF01001FFF7B6FE094803F0A1FF4FF0E5
:1016E80002004FF44471FFF7C9FE4FF002004FF0BB
:1016F8004001FFF7A7FE024803F092FFC2E700BFD0
:1017080020A1070068656C6C6F206C6564000000A0
:1017180080B586B004AF4FF00200FFF7C7FE4FF068
:1017280002004FF006014FF00202FFF701FE4FF0F2
:1017380002004FF004014FF00202FFF7F9FD4FF0ED
:1017480002004FF008014FF00202FFF7F1FD4FF0E1
:1017580002004FF009014FF00202FFF7E9FD4FF0D8
:1017680001030093174B01934FF064030293164B48
:1017780003934FF001004FF0C8014FF000024FF003
:10178800000303F023FA0346FB80FA884FF6FF7341
:101798009A4212D0FB884FF0000200924FF00002EC
:1017A80001924FF00002029218464FF000014FF0EC
:1017B80000024FF0000304F015F807F10807BD46D2
:1017C80080BD00BF891600080C17000880B500AF5F
:1017D800FFF79EFF014803F023FFFBE740420F009D
:1017E80080B500AFFFF7F2FF80BD00BF6D61696E85
:1017F8002066756E6374696F6E00000080B586B0F0
:1018080004AF4FF0000005F093F94FF0000005F029
:1018180031FE4FF0000000F045F84FF0000005F0F1
:1018280071FE4FF002030093144B01934FF4806351
:101838000293134B03934FF001004FF0C8014FF090
:1018480000024FF0000303F0C1F90346FB80FB8858
:101858004FF0000200924FF0000201924FF0000298
:10186800029218464FF000014FF000024FF00003BB
:1018780003F0B8FF07F10807BD4680BDE917000867
:10188800F4170008737464696E20696E70757420AB
:1018980064657669636500006B6579626F6172647F
:1018A8000000000080B588B004AF7860224800F0DE
:1018B8005BFD0346002B02D14FF0000337E04FF0E9
:1018C800010300931D4B01934FF4007302931C4BCB
:1018D80003934FF001004FF0C8014FF000024FF0A2
:1018E800000303F073F90346FB81FB894FF0000204
:1018F80000924FF0000201924FF000020292184647
:101908004FF000014FF000024FF0000303F06AFFB0
:1019180003461A464FF6FF739A4206D1FB891846CA
:1019280003F04EFB4FF0000301E04FF001031846AF
:1019380007F11007BD4680BD8C1800087D19000806
:10194800A018000880B582B000AF78603960786868
:101958004FF001013A6800F0B3FA0346002B02D1B8
:101968004FF0FF3301E04FF00003184607F1080776
:10197800BD4680BD80B58AB000AF7B4800F0F4FC5E
:101988000346FB61FB697B6202E000BF00E000BF29
:10199800FA697B6A1046194600F024FD03467B620B
:1019A8007B6A002B04D142F2107003F039FEE9E79C
:1019B8007B6A1B7E012B01D000BFE9E77B6A9B6A2B
:1019C800BB61BB691B6898477861BB699A687B698A
:1019D8009A4207D0BB697A699A60BB694FF00002E6
:1019E8001A610BE0BB691A69BB69DB689A4205D2C8
:1019F800BB691B6903F10A02BB691A61BB695A68B2
:101A0800BB699B689A42C0D0BB691A69BB69DB682D
:101A18009A42BCD3BB695B68DBB23B71BB695B684C
:101A28004FEA1323DBB27B71BB695B684FEA134350
:101A3800DBB2BB71BB695B684FEA1363DBB2FB7156
:101A48004FF000033B6234E0BB699A683B6A4FEA97
:101A5800C30322FA03F3FB74FB7C002B24D03B79ED
:101A6800FA7C9A4221D07B79FA7C9A421DD0BB79C4
:101A7800FA7C9A4219D0FB79FA7C9A4215D006F082
:101A880059F80346BB604FF000037B73FB7C3B7344
:101A98007B6ADB691A4607F10803104619464FF0BE
:101AA800080200F06BFA00E000BF3B6A03F1010393
:101AB8003B623B6A032BC7D9BB699B68DBB23B71AE
:101AC800BB699B684FEA1323DBB27B71BB699B68D8
:101AD8004FEA1343DBB2BB71BB699B684FEA1363E0
:101AE800DBB2FB714FF000033B6234E0BB695A681C
:101AF8003B6A4FEAC30322FA03F3FB74FB7C002B17
:101B080024D03B79FA7C9A4221D07B79FA7C9A429C
:101B18001DD0BB79FA7C9A4219D0FB79FA7C9A429B
:101B280015D006F007F80346BB604FF0F0037B734F
:101B3800FB7C3B737B6ADB691A4607F10803104696
:101B480019464FF0080200F019FA00E000BF3B6A9E
:101B580003F101033B623B6A032BC7D9BB699A684F
:101B6800BB695A6014E700BF8C18000880B48DB0B8
:101B780000AFF860B9607A60BB68BB624FF00003E1
:101B880087F827307B68002B1DDA7B68C3F10003D8
:101B98007B60FB68002B13DAFB68C3F10003FB6270
:101BA80097F8273007F13001CB184FF02D0203F8D2
:101BB8001C2C97F8273003F1010387F8273004E03D
:101BC800FB68FB6201E0FB68FB627B68102B40F05E
:101BD800A18097F82730FA6AD2B202F00F02D2B287
:101BE80007F13001CB1803F81C2CFB6A4FEA1313DA
:101BF800FB6297F8273007F13002D31813F81C3C22
:101C0800092B11D897F8273097F8272007F13001CA
:101C18008A1812F81C2C02F13002D2B207F13001F6
:101C2800CB1803F81C2C22E097F8273007F1300274
:101C3800D31813F81C3C092B19D997F8273007F14A
:101C48003001CB1813F81C3C0F2B10D897F827300D
:101C580097F8272007F130018A1812F81C2C02F196
:101C68005702D2B207F13001CB1803F81C2C97F8B1
:101C7800273003F1010387F82730FB6A002BA8D12E
:101C880097F8273003F1FF3387F827303B7D2D2B5A
:101C98000CD1BB6A4FF02D021A70BB6A03F1010325
:101CA800BB624FF0010387F8263003E04FF00003D2
:101CB80087F8263097F8272097F82630D31A87F820
:101CC800253097F8253003F1010387F8253018E00F
:101CD80097F8273007F13002D31813F81C2CBB6A89
:101CE8001A70BB6A03F10103BB6297F8273003F14E
:101CF800FF3387F8273097F8253003F1FF3387F84B
:101D0800253097F82530002BE2D1BB6A4FF000024E
:101D18001A7073E07B680A2B70D197F82700F96A6C
:101D28003A4BA3FB01234FEAD30213464FEA83033E
:101D38009B184FEA4303CA1AD3B203F13003DAB24D
:101D480007F130010B1803F81C2C97F8273003F122
:101D5800010387F82730FA6A2C4BA3FB02134FEADA
:101D6800D303FB62FB6A002BD7D197F8273003F126
:101D7800FF3387F827303B7D2D2B0CD1BB6A4FF002
:101D88002D021A70BB6A03F10103BB624FF0010315
:101D980087F8263003E04FF0000387F8263097F8DD
:101DA800272097F82630D31A87F8253097F825305A
:101DB80003F1010387F8253018E097F8273007F179
:101DC8003002D31813F81C2CBB6A1A70BB6A03F1D3
:101DD8000103BB6297F8273003F1FF3387F82730F8
:101DE80097F8253003F1FF3387F8253097F8253029
:101DF800002BE2D1BB6A4FF000021A70BB6818468C
:101E080007F13407BD4680BC704700BFCDCCCCCCB1
:101E18000FB480B400AF4FF000031846BD4680BC35
:101E280004B07047737464696E20696E70757420AD
:101E38006465766963650000CAE4C8EBC9E8B1B8AF
:101E4800BFD8D6C6BFE9C4DAB4E6B3D800000000EC
:101E5800C4DAB4E6B2BBD7E30000000080B584B0B2
:101E680002AF786010484FF02C01104A00F098F942
:101E780003461A460E4B1A604FF0000300930D4BB1
:101E880001930D484FF003014FF02C024FF000036F
:101E980000F082FB0246094B1A604FF00103184616
:101EA80007F10807BD4680BDA80700202C1E0008C2
:101EB800A4070020401E0008D8070020D4070020EF
:101EC80080B586B000AFF8600B467A60FB72254B90
:101ED8001B681846F96800F0D9FA0346002B02D0AF
:101EE8004FF0FF3338E0204B1B6818464FF00001D5
:101EF80000F0FCFB03467B617B69002B26D0194B65
:101F08001B681A467B69104619464FF02C02FB687D
:101F180000F08AF97B69FA7A1A767A687B699A629C
:101F28007B694FF000021A62104B1A887B699A8409
:101F38000F4B1B6803F101020D4B1A600C4B1B6819
:101F48001A467B69DA617B69DB6905E009480A4959
:101F580002F0A6FC4FF0FF33184607F11807BD46FC
:101F680080BD00BFA4070020D40700202C07002054
:101F7800A007002003000003581E0008B0B594B065
:101F880004AFF860B9607A60344B1B687B63334BED
:101F98001B68FB6306E03B6BDA69FB689A420AD070
:101FA8003B6BFB63786BF96B00F01CFA38633B6B97
:101FB800002BF0D100E000BF3B6B002B02D14FF0AB
:101FC800000345E03B6B9B8C7B873B6B1A6A02F1F5
:101FD80001021A627A8F4FF6FF739A4202D1204BA0
:101FE8001B887B877A8F4FF6FF739A422ED0BB6887
:101FF80007F118041D460FCD0FC495E8030084E8C7
:1020080003003B6B1B7E3B743B6BDB697B617A8F08
:1020180007F110034FF0200100914FF002010191E8
:102028004FF00001029110464FF000014FF00002FE
:1020380003F0D8FB03461A464FF6FF739A4204D1C1
:1020480042F2107003F0ECFAE1E700BF4FF0010331
:10205800184607F14007BD46B0BD00BFA4070020E1
:102068002C0700207265736F75636520717565753F
:102078006500000073656D6170686F726520666F3A
:1020880072207265736F756365207175657565007B
:1020980080B483B000AF78600F4B104A5A610E4B82
:1020A8004FF00002DA600C4B0B4A1A600A4B0A4ADE
:1020B8005A60094B4FF000029A60074B4FF0180224
:1020C8001A61074B044A1A604FF00103184607F1DA
:1020D8000C07BD4680BC70475C0800206C200008D7
:1020E8007408002080B582B000AF786007484FF0D0
:1020F80001014FF00102064B01F082FE4FF001038F
:10210800184607F10807BD4680BD00BF78080020C3
:102118007C20000880B487B000AFF860B9607A60AE
:10212800FB68002B02D14FF0000330E01B4B1A680C
:10213800FB689A60FB684FF00002DA60FB68BA68D7
:102148001A61FB687A685A61144B1B68DB68002BBC
:102158000AD1124B1B68FA68DA60FB68FA681A60E1
:10216800FB68FA685A6011E00C4B1B68DB687B61FE
:10217800FB687A691A607B695A68FB685A607B69F0
:102188005B68FA681A607B69FA685A60FB681846E7
:1021980007F11C07BD4680BC704700BF74080020CB
:1021A80080B586B000AFF860B9607A60FB68002B34
:1021B80002D14FF000032EE0194B1A68FB689A60B1
:1021C800FB684FF00002DA60FB68BA681A61FB68C6
:1021D8007A685A6113484FF0FF3101F0A7FE0346B1
:1021E800002B02D14FF0000315E00D4B1B68DB6894
:1021F8007B61FB687A691A607B695A68FB685A6078
:102208007B695B68FA681A607B69FA685A600548F6
:1022180001F018FEFB68184607F11807BD4680BD97
:10222800740800207808002080B586B000AFF860F8
:10223800B9607A603B60FB68002B02D0BB68002B5A
:1022480002D14FF000033DE021484FF0FF3101F08B
:102258006DFE0346002B02D14FF0000332E0BB684D
:102268007A681A61BB683A685A61BB684FF0000225
:10227800DA60FB68DB68002B0CD1FB68BA68DA60AF
:10228800BB68FA689A60BB68BA681A60BB68BA68C3
:102298005A6013E0FB68DB687B61BB687A691A6087
:1022A8007B695A68BB685A60BB68FA689A607B6940
:1022B8005B68BA681A607B69BA685A60044801F0BA
:1022C800C1FDBB68184607F11807BD4680BD00BFB1
:1022D8007808002080B584B000AF78607B68002B58
:1022E80002D14FF0000338E01E484FF0FF3101F0F3
:1022F8001DFE0346002B02D14FF000032DE07B6842
:10230800DB68002B03D04FF00003FB6021E07B6803
:102318001A687B689A4205D17B689B684FF0000277
:10232800DA6014E07B689B68DA687B689A4204D1BB
:102338007B689B687A681268DA607B685B687A6891
:1023480012681A607B681B687A6852685A607B68F2
:10235800FB60044801F076FDFB68184607F110079A
:10236800BD4680BD7808002080B584B000AF786095
:102378004FF00003BB607B68002B02D14FF00003D5
:1023880027E0164B1B68DB68FB6015484FF0FF31F0
:1023980001F0CCFD0346002B02D14FF0000318E0FA
:1023A800FB685B691846796806F0A4FE0346002BB3
:1023B80002D1FB68BB6008E0FB681B68FB60074B49
:1023C8001B68DA68FB689A42EAD1054801F03AFDD1
:1023D800BB68184607F11007BD4680BD7408002089
:1023E8007808002080B586B000AF786039604FF07B
:1023F80000037B614FF00003FB737B68002B02D066
:102408003B68002B02D14FF0000338E01E484FF024
:10241800FF3101F08BFD0346002B02D14FF0000382
:102428002DE03A687B689A4203D17B68DB68002B11
:1024380021D03B683B61FB7B002B07D13B69DB6804
:10244800002B03D03B69DB687B6114E03B691A68A9
:102458003B699B68DB689A4203D03B691B687B61D8
:1024680009E03B699B683B614FF00103FB733A69E4
:102478007B689A42DFD1044801F0E4FC7B69184686
:1024880007F11807BD4680BD7808002080B584B0E4
:1024980000AF786039604FF00003BB603B68002BE9
:1024A80002D07B68002B02D14FF000032CE01948C2
:1024B8004FF0FF3101F03AFD0346002B02D14FF0F7
:1024C800000321E07B68DB68FB60FB68002B03D11D
:1024D8004FF00003BB6013E0FB685B69184639687E
:1024E80006F008FE0346002B02D1FB68BB6007E03C
:1024F800FB681B68FB607B68DA68FB689A42EBD173
:10250800044801F09FFCBB68184607F11007BD4658
:1025180080BD00BF78080020B9CCB6A8BFE9B7D6FF
:10252800C5E4B3D80000000080B582B000AF786081
:10253800134B4FF06002DA64114B124A9A61104B48
:102548004FF00002DA61104B1A460D4B9A640F4B9C
:102558000B4A1A600A484FF060010D4AFFF720FE47
:102568000C484FF005014FF00502094B01F048FCFB
:102578004FF00103184607F10807BD4680BD00BFAC
:10258800840A0020A0080020800A0020800A002079
:1025980020250008A40A002080B586B000AFF860A6
:1025A800B9607A603B60FB68002B05D1BB68002BE3
:1025B80002D04FF0000352E07B68072B02D84FF09F
:1025C80000034CE07B6803F00303002B04D1FB6895
:1025D80003F00303002B02D04FF000033FE0224B2F
:1025E8001B6818464FF0000100F080F803467B6135
:1025F8007B69002B02D14FF0000330E07B69FA6859
:102608009A617B694FF00002DA61BB687A6802FB65
:1026180003F2FB68D2187B699A647B697A68DA648A
:102628007B693A681A657B693A6A5A657B694FF033
:102638000002DA650C4B1B681A467B69104619467E
:102648004FF060027B6AFFF7EFFD7B6903F120031F
:102658001846B968BA687B6A01F0D2FB7B691846EC
:1026680007F11807BD4680BD800A002080B584B0F8
:1026780000AFF860B9607A603B60FB68BA689A613D
:10268800FB684FF00002DA617B683A6802FB03F2EC
:10269800BB68D218FB689A64FB683A68DA64FB681E
:1026A800BA691A65FB68FA695A65FB684FF0000257
:1026B800DA650D4B1B681A46FB68104619464FF041
:1026C80060023B6AFFF7B0FDFB6803F12003184680
:1026D80079687A683B6A01F093FBFB68184607F152
:1026E8001007BD4680BD00BF800A002080B58CB0B1
:1026F80000AF786039607B68002B02D14FF000038F
:10270800B5E07B6803F1200318464FF0000101F0A3
:102718000DFC0346002B78D1FEF774FC7B6803F1AF
:102728002003184601F028FD02467B685B6D9A423B
:102738005CD27B681B6D7A68D26C02FB03F303F1F1
:10274800080318464FF0000100F0B2FDB862BB6AFA
:10275800002B4BD0B86A00F0CBF90346A3F108036D
:102768007B627B68DB6C7A6AB2FBF3F33B627B6863
:1027780003F12003184601F0FFFCF8617B6803F1C0
:102788002003184601F00CFDB861FA693B6AD318BA
:102798007B617B6803F120035B693B617B6803F124
:1027A8002003184601F0C4FC7B6803F12002B969D4
:1027B8003B6ACB18104679691A463B6901F020FB41
:1027C800BB6A03F108031A467B689A617B68DB6C75
:1027D8003A6A02FB03F2BB6AD2187B689A64BB6A46
:1027E8007A68D26D1A607B68BA6ADA65FEF736FCD9
:1027F8007B6803F120031846396801F097FB03460C
:10280800002B02D14FF0000331E0FEF751FDF860D4
:102818007B68DB69002B1CD07B68DB69FB62FB6A89
:102828005A68FB6A9A4204D17B684FF00002DA6169
:1028380019E07B68DB695A687B68DA617B68DB6969
:10284800FA6A12681A60FB6A1B687A68D2695A6069
:1028580009E07B689A6C7B68DB6CD21A7B689A64A7
:102868007B689B6CFB62F868FEF72AFDFB6A1846DA
:1028780007F13007BD4680BD0807060605050505B2
:102888000404040404040404030303030303030308
:102898000303030303030303020202020202020208
:1028A8000202020202020202020202020202020200
:1028B80002020202020202020101010101010101F8
:1028C80001010101010101010101010101010101F0
:1028D80001010101010101010101010101010101E0
:1028E80001010101010101010101010101010101D0
:1028F80001010101010101010000000000000000C8
:1029080000000000000000000000000000000000BF
:1029180000000000000000000000000000000000AF
:10292800000000000000000000000000000000009F
:10293800000000000000000000000000000000008F
:10294800000000000000000000000000000000007F
:10295800000000000000000000000000000000006F
:10296800000000000000000000000000000000005F
:10297800000000000000000000000000010000004E
:1029880003000000070000000F0000001F00000007
:102998003F0000007F000000FF000000FF01000072
:1029A800FF030000FF070000FF0F0000FF1F0000EB
:1029B800FF3F0000FF7F0000FFFF0000FFFF010056
:1029C800FFFF0300FFFF0700FFFF0F00FFFF1F00CF
:1029D800FFFF3F00FFFF7F00FFFFFF00FFFFFF013A
:1029E800FFFFFF03FFFFFF07FFFFFF0FFFFFFF1FB3
:1029F800FFFFFF3FFFFFFF7FFFFFFFFF80B483B0B4
:102A080000AF78600F4B4FF000021A730E4B1B6833
:102A180003F1070323F007031A460A4B1A60094B10
:102A28001A68084B5A60094B1B6823F007031A46BB
:102A3800044B9A604FF00103184607F10C07BD4696
:102A480080BC7047080B00201495000818950008F2
:102A580080B485B000AF78601E4B5B68FB601D4B8F
:102A68005B6803F10B0323F007031A46194B5A60FE
:102A7800184B9B681A46174B5B68D31A1A467B6833
:102A88009A4205D2134BFA685A604FF000031AE0D5
:102A9800104B5B68A3F10403FB60FB687A681A605B
:102AA8000C4B5B68FB600B4B5A687B68D218094B70
:102AB8005A60084B5B6803F1070323F007031A46C3
:102AC800044B5A60FB68184607F11407BD4680BCE2
:102AD800704700BF080B002080B483B000AF786057
:102AE8004FF00103184607F10C07BD4680BC70473C
:102AF80080B586B000AF7860344B1A687B689A421C
:102B080004D8324B9A687B689A4202D84FF0000387
:102B180057E02E4B5A687B689A4206D97B68A3F126
:102B280004033B613B691B684BE07A68274B5B6891
:102B3800D31A4FEA9323FB60244B9A6AFB684FEA47
:102B48004303D318BB60BB681B88A3F57E43A3F57A
:102B5800FE73032B1ED801A252F823F0912B000814
:102B6800892B00087D2B0008752B00084FF0010306
:102B7800FB7521E0BB6803F104031B88FB751BE0B0
:102B88004FF00003FB7517E0BB6803F102031B88D5
:102B9800FB7511E0BB681A8843F6FF739A4203D8A5
:102BA8004FF00003FB7507E009484FF0000101F002
:102BB80077FE4FF0000304E0FB7D4FF4806202FAD9
:102BC80003F3184607F11807BD4680BD080B00201F
:102BD8000100000380B485B000AF78600B46FB703D
:102BE8004FF00003BB60FB7803F1FF33FB73FB7B03
:102BF8007A68D3181B78124AD35C082B09D0FB7B60
:102C08007A68D3181B780E4AD35CBA68D318BB60AD
:102C18000FE0BB6803F10803BB60FB7B002B0CBF14
:102C280000230123DBB2FA7B02F1FF32FA73002B97
:102C3800DDD1BB68184607F11407BD4680BC704754
:102C48008028000880B586B000AF786007F10403DB
:102C580018464FF00401FFF7BDFF0346DBB2C3F18E
:102C68002003BB737B684FEA43033B61BB7B3A6934
:102C7800D3183B613B6903F1030323F003033B6172
:102C8800BB7B4FEA83033A69D3183B614FF00003DB
:102C9800FB731BE07A68FB7B22FA03F37B617B6999
:102CA80003F11F034FEA53137B617B694FEA8303E8
:102CB8003A69D3183B613B6903F104033B617B69C3
:102CC800012BECD8FB7B03F10103FB73FA7BBB7B85
:102CD8009A42DFD33B69184607F11807BD4680BD05
:102CE80080B485B000AF78604FF00003BB604FF050
:102CF8000303FB7307F10402FB7BD3181B78134A09
:102D0800D35C082B0AD007F10402FB7BD3181B788D
:102D18000E4AD35CBA68D318BB600FE0BB6803F1F6
:102D28000803BB60FB7B002B0CBF00230123DBB235
:102D3800FA7B02F1FF32FA73002BDBD1BB6818462D
:102D480007F11407BD4680BC704700BF8028000803
:102D580080B584B000AF78607B68B3F5806F02D827
:102D68004FF0000318E007F1040318464FF0040180
:102D7800FFF730FFF860FB684FF0004222FA03F2D9
:102D88007B689A4203D0FB6803F1FF33FB60FB6862
:102D9800DBB2C3F11503DBB2184607F11007BD46D5
:102DA80080BD00BF80B586B000AF786039604FF055
:102DB80000033B6104F0CEFEB8604FF00003FB73E4
:102DC800564B1A6A7B689A4280F09C80FEF71AF983
:102DD8004FF00103FB73524B1B68184601F076FD58
:102DE8004F4B1B684FF000021A604D4B1B684FF0A9
:102DF80000025A604A4B1B687A689A64474B1B6901
:102E08007B61474B1B68474A5A627B69002B0ED18E
:102E1800434B1B68424A12689A60414B1B68404A00
:102E28001268DA603E4B1A683C4B1A6120E07B69F5
:102E38009A6C7B689A4208D27B699B687B61374BA6
:102E48001A697B699A42F2D100E000BF344B1B68D3
:102E58007A699A60324B1B687A69D268DA607B6952
:102E6800DB682F4A12689A602D4B1A687B69DA6012
:102E78002B4B1B682A4A1268B2F84E20A3F84C2044
:102E8800274B1A6892F84E3043F0400382F84E30D0
:102E98003B68B3F1FF3F0DD0214B1A6892F84E30D2
:102EA80043F0020382F84E303A683B69D31A184659
:102EB80002F034FBFEF7D2F8194B1B6893F84E303A
:102EC80003F04003DBB2002B0AD0154B1A6892F8C6
:102ED8004E306FF3861382F84E304FF0000317E040
:102EE80004F038FE0246BB68D31A3B613A693B6876
:102EF8009A4207D3094B1A6A7B689A4202D24FF06A
:102F0800000305E0FB7B012B3FF457AF4FF00103B3
:102F1800184607F11807BD4680BD00BF080B002002
:102F28002C110020180B002080B485B000AF786009
:102F38007B689B6CBB601E4B1B69FB60FB681D4A72
:102F48005A62FB68002B11D17B684FF000021A60AF
:102F58007B684FF000025A607B687A689A607B68E9
:102F68007A68DA60124B7A681A611CE0FB689A6C1E
:102F7800BB689A4208D2FB689B68FB600C4B1A69D5
:102F8800FB689A42F2D100E000BF7B68FA689A6059
:102F9800FB68DA687B68DA60FB68DB687A689A60E5
:102FA800FB687A68DA6007F11407BD4680BC704791
:102FB800080B0020180B002080B483B000AF034634
:102FC800FB8007F10C07BD4680BC704764796E61D1
:102FD8006D6963206D656D6F727920616C6C6F63CC
:102FE8006174696F6E00000080B590B000AF7860C2
:102FF8004FF00003BB634FF000037B634FF0000307
:103008003B63864B4FF001021A73844B9B681A4648
:10301800824B5B68D31A3B623B6A4FEA9323BB60DF
:10302800BB684FEA83233A6AD31A3B627B4B9A68A0
:103038003B6AC3F10003D218784B9A60BB68012B36
:1030480002D84FF000032DE17548764901F0BCF82D
:10305800BB681846FFF7F6FDF8633A6AFB6B9A42BD
:1030680038D2FA6B3B6AD31A03F57E7303F1070370
:103078004FEA9323FB63FB6BBB6318E0BA68BB6B37
:10308800D31A1846FFF7DEFDF861FA693B6AD31ACE
:1030980003F57E7303F107034FEA93237B637A6B8F
:1030A800BB6B9A4207D2BB6B03F1FF33BB63BB6BAD
:1030B800002BE3D100E000BFBA687B6BD31ABB607A
:1030C800564B9A687B6B4FEA8323C3F10003D218EF
:1030D800524B9A60BA68514B5A61BA684F4B9A6121
:1030E8004E4B9A687B6B4FEA83213B6ACB1810469C
:1030F8004FF000011A4605F0A3FF07F10803184630
:103108004FF00401FFF766FD0346DBB2C3F120036D
:10311800FB76424BFA7E83F82420FB7E03F1FF33D3
:103128004FF4806202FA03F31A463C4BDA613B4BD8
:10313800DA693A4B1A624FF000033B634FF0000321
:10314800FB6315E0BA68FB6B22FA03F3BB63BB6B46
:1031580003F11F034FEA5313BB633B6B03F10103F6
:103168003B63BB6B012BF2D8FB6B03F10103FB63E1
:10317800FA7EFB6B9A42E5D8284B9B681A46274B88
:103188009A62264B9A6ABB684FEA4303D318FB63DB
:10319800FB6B7B61214B7A69DA62FB7E7A69D31813
:1031A800FB63FB6B03F1030323F00303FB63FB6B7C
:1031B8003B611A4B3A691A633A69FB7E4FEA83030B
:1031C800D318BB62BA6A3B6B4FEA8303D3187B629E
:1031D8004FF00003FB635FE0BA68FB6B22FA03F36E
:1031E800BB634FF0000387F82F30FB6B4FEA830374
:1031F8003A69D318BA6A1A604FF0FF33FB60BB6BA9
:103208004FEA53137B63BB6B03F01F03BB63BB6BBA
:10321800002B09D17B6BBB631EE000BF080B0020AD
:10322800E40A0020D42F0008BB6BFA6802FA03F303
:10323800FB607B6B4FEA83037A6AD3187A6B4FEA99
:103248008202796A8A181168FA6841EA02021A60E9
:103258007B6B03F10103BB63BB6A7A6A1A60BB6AC2
:1032680003F10403BB62BB6B4FEA83037A6AD3188A
:103278007B6297F82F3003F1010387F82F30BB6B7F
:10328800012BB9D87A69FB6BD31897F82F201A70DD
:10329800FB6B03F10103FB63FA7EFB6B9A429BD83D
:1032A8004FF00103184607F14007BD4680BD00BF37
:1032B80080B586B000AF78603960334B1B7B002B3C
:1032C80004D17868FFF7C4FB034658E02F483968F3
:1032D80001F02CF80346002B02D14FF000034EE01A
:1032E80002F07AF80346FB74274B1A6A7B689A4205
:1032F80009D23B68002B02D0FB7C002B03D14FF096
:1033080000037B6137E078683968FFF74BFD0346B7
:10331800002B03D14FF000037B612CE07868FFF7A6
:1033280017FD0346BB74BB7C184600F085F80346BE
:10333800FB60154B9A6AF968134B5B68CB1A4FEA26
:1033480093234FEA4303D318BB60BB7C002B04D103
:10335800BB684FF6FD721A800BE0BB684FF6FC7233
:103368001A80BB6803F10203BB60BB7C9AB2BB68DE
:103378001A80FB687B61054800F04CFF7B691846A2
:1033880007F11807BD4680BD080B0020E40A00209D
:1033980080B586B000AF7860264B1B7B002B04D12C
:1033A8007868FFF755FB03463FE0224B1A6A7B68B3
:1033B8009A4203D24FF000037B6135E01D4B1A6A35
:1033C8007B689A4203D24FF000037B612CE0786857
:1033D800FFF7BEFC0346FB74FB7C184600F02CF894
:1033E8000346FB60134B9A6AF968124B5B68CB1A69
:1033F8004FEA93234FEA4303D318BB60FB7C002BAF
:1034080004D1BB684FF6FD721A800BE0BB684FF61B
:10341800FC721A80BB6803F10203BB60FB7C9AB2A2
:10342800BB681A80FB687B617B69184607F118073F
:10343800BD4680BD080B002080B58EB000AF0346A6
:10344800FB71904B1B6BFB61FB794FEA8303FA69B5
:10345800D3181B68BB618B4BDB6A7B61FB797A698C
:10346800D3181B7803F1FF3387F82E30854B9A6900
:10347800FB794FF0010101FA03F3D21A814B9A61EB
:103488004FF000033B6397F82E304FEA8303BA6985
:10349800D3181B683B613B6B4FEA83033A69D31827
:1034A8001B686FEA03031846FFF71AFC0346C3F1CB
:1034B8001F037B633B6B4FEA43127B6BD3183B6361
:1034C80097F82E30002B0CBF00230123DBB297F8AE
:1034D8002E2002F1FF3287F82E20002BD3D1FB7962
:1034E8003A6B02FA03F33B634FF0000387F82F307F
:1034F800A6E097F82F303A6B22FA03F3BB6297F8ED
:103508002F304FEA8303FA69D3181B68BB61FA7935
:1035180097F82F30D31A4FF0010202FA03F37B62B7
:103528004FF000037B6377E07B6B4FEA8303BA6954
:10353800D3181B683B61544B5B69DAB2BB6ADBB2D8
:1035480002EA0303FB73BB6A4FEA5313BB627B6A4D
:103558001F2B1AD97B6A4FEA53137B624FF0000383
:103568003B620DE0BA6A3B6AD3184FEA83033A69B3
:10357800D3184FF0FF321A603B6A03F101033B6234
:103588003A6A7B6A9A42EDD342E07B6A002B23D0E9
:103598003D4B7A6A53F82220FB7B02FA03F3BB60A7
:1035A800BB6A4FEA83033A69D318BA6A4FEA8202C0
:1035B80039698A181168BA6841EA02021A60BB6A56
:1035C8004FEA83033A69D3181B68B3F1FF3F2ED142
:1035D8004FF000037B621BE0BB6A4FEA83033A6942
:1035E800D318BA6A4FEA820239698A181168FA7BD5
:1035F8004FF0010000FA02F241EA02021A60BB6AC7
:103608004FEA83033A69D3181B68B3F1FF3F10D11F
:103618007B6B03F101037B6397F82F307A69D3182A
:103628001B781A467B6B9A423FF67EAF02E000BFDA
:1036380000E000BF97F82F3003F1010387F82F301F
:1036480097F82F20FB799A427FF653AF62E097F8FC
:103658002F303A6B22FA03F3BB620A4B5A6997F888
:103668002F3022FA03F2BB6A9A425BD997F82F30BF
:103678004FEA8303FA69D3181B68BB614FF0000354
:103688007B6336E0080B0020802900087B6B4FEA3B
:103698008303BA69D3181B683B61474B5B69DAB28D
:1036A800BB6ADBB202EA0303FB73BB6A4FEA53133C
:1036B800BB62BB6A4FEA83033A69D318BA6A4FEA16
:1036C800820239698A181168FA7B4FF0010000FA02
:1036D80002F241EA02021A60BB6A4FEA83033A69BE
:1036E800D3181B68B3F1FF3F0DD17B6B03F10103C6
:1036F8007B6397F82F307A69D3181B781A467B6B4F
:103708009A42C3D800E000BF97F82F3003F10103B5
:1037180087F82F30294B93F8243097F82F209A42B6
:1037280095D300E000BF254B93F8243003F1FF3315
:1037380087F82F3097F82F307A69D3181B7887F8D5
:103748002E3097F82F304FEA8303FA69D3181B6895
:10375800BB6197F82E3003F1FF334FEA8303BA6950
:10376800D3181B683B613B691B68B3F1FF3F09D065
:1037780097F82F304FF4806202FA03F31A460F4B82
:103788001A620EE097F82F30002B0CBF002301239C
:10379800DBB297F82F2002F1FF3287F82F20002B99
:1037A800C8D1064B5A683B6B4FEA8323D318184697
:1037B80007F13807BD4680BD80290008080B0020A6
:1037C80080B590B000AF78607B68002B02D14FF0D5
:1037D8000003AEE2A84B1B7B002B04D17868FFF7EF
:1037E8007BF90346A5E2A44B5A687B689A4204D841
:1037F800A14B9A687B689A4207D8A0484FF000010D
:1038080001F04EF84FF0000393E27A689A4B5B6838
:10381800D31A4FEA9323FB6299484FF0FF3100F027
:1038280085FD954B9A6AFB6A4FEA4303D318BB623E
:10383800BB6A1B88A3F57E43A3F5FE73032B23D82D
:1038480001A252F823F000BF833800087938000835
:103858006B380008613800084FF0010387F83530ED
:1038680028E0BB6A03F104031B8887F8353021E0A0
:103878004FF0000387F835301CE0BB6A03F1020300
:103888001B8887F8353015E0BB6A1A8843F6FF7342
:103898009A4204D84FF0000387F835300AE0774899
:1038A8004FF0000100F0FCFF754800F0B3FC4FF04A
:1038B80000033EE2704B1B6B7B626F4BDB6A3B6223
:1038C80097F835303A6AD3181B7803F1FF33FB7742
:1038D800694B9A6997F835304FF0010101FA03F303
:1038E800D218654B9A614FF0000387F83630BAE07A
:1038F80097F83630FA6A22FA03F3BB6397F8363042
:103908004FEA83037A6AD3181B68BB6197F835209E
:1039180097F83630D31A4FF0010202FA03F33B63EB
:103928004FF00003FB638AE0FB6B4FEA8303BA693D
:10393800D3181B687B61534B5B69DAB2BB6BDBB294
:1039480002EA030387F83730BB6B4FEA5313BB63B4
:103958003B6B1F2B1FD93B6B4FEA53133B634FF055
:10396800000387F8373010E097F83720BB6BD3187F
:103978004FEA83037A69D3184FF000021A6097F868
:10398800373003F1010387F8373097F837203B6B5E
:103998009A42E9D34FE03B6B002B26D0394B3A6B68
:1039A80053F8222097F8373002FA03F36FEA03033B
:1039B8003B61BB6B4FEA83037A69D318BA6B4FEA52
:1039C800820279698A1811683A6901EA02021A6062
:1039D800BB6B4FEA83037A69D3181A683B699A422A
:1039E80038D14FF000033B6325E0BB6B4FEA8303FC
:1039F8007A69D318BA6B4FEA820279698A18116812
:103A080097F837204FF0010000FA02F26FEA02023D
:103A180001EA02021A60BB6B4FEA83037A69D31882
:103A28001A6897F837304FF0010101FA03F36FEA8B
:103A380003039A4210D1FB6B03F10103FB6397F870
:103A480036303A6AD3181B781A46FB6B9A423FF60F
:103A58006BAF02E000BF00E000BF97F8363003F11B
:103A6800010387F8363097F8362097F835309A42B0
:103A78007FF63EAFA4E000BF080B00200100000362
:103A8800E40A00208029000897F83630FA6A22FAFA
:103A980003F34FEA4303BB639F4B5B69DAB2BB6B2B
:103AA800DBB202EA030387F83730BB6B4FEA5313E4
:103AB800BB6397F8363003F1FF334FEA83037A6A22
:103AC800D3181B68BB61BB691B687B61BB6B4FEA82
:103AD80083037A69D3181A6897F837304FF00301CF
:103AE80001FA03F302EA0303002B72D197F8363088
:103AF800FA6A22FA03F3BB63884B5A6997F836309F
:103B080022FA03F2BB6B9A4265D997F836304FEA2E
:103B180083037A6AD3181B68BB614FF00003FB6309
:103B28003DE0FB6B4FEA8303BA69D3181B687B61DE
:103B3800794B5B69DAB2BB6BDBB202EA030387F845
:103B48003730BB6B4FEA5313BB63BB6B4FEA83033E
:103B58007A69D318BA6B4FEA820279698A181168B0
:103B680097F837204FF0010000FA02F26FEA0202DC
:103B780001EA02021A60BB6B4FEA83037A69D31821
:103B88001A6897F837304FF0010101FA03F36FEA2A
:103B980003039A420DD1FB6B03F10103FB6397F812
:103BA80036303A6AD3181B781A46FB6B9A42B8D853
:103BB80000E000BF97F8363003F1010387F836308C
:103BC800564B93F8243097F836209A42FFF45CAFAE
:103BD80002E000BF00E000BF504B93F8243003F12F
:103BE800FF3387F8363097F836303A6AD3181B789F
:103BF800FB7797F836304FEA83037A6AD3181B6845
:103C0800BB61FB7F03F1FF334FEA8303BA69D31823
:103C18001B687B617B691B68B3F1FF3F09D097F88C
:103C280036304FF4806202FA03F31A463B4B1A62AD
:103C38000EE097F83630002B0CBF00230123DBB2CF
:103C480097F8362002F1FF3287F83620002BCAD1C8
:103C5800334800F0DFFA334B1B68DA6D02F1FF32AC
:103C6800DA65FDF7CFF92D4B1B69002B5DD02B4B87
:103C78001B69FB60294B1B6AFB63FB689B6C18463E
:103C8800FFF766F803464FEA8323BB63BA6BFB6B07
:103C98009A4249D8FB689B6C1846FFF759F80346C7
:103CA8004FEA8323FA6BD31AFB63FB68B3F84E2001
:103CB800FB68A3F84C20FB684FF000025A62FB68CF
:103CC80093F84E3003F00203DBB2002B02D0F86801
:103CD80001F0ECFBFB684FF00002A3F84E20FB68F4
:103CE8009A68FB68DB689A4204D10C4B4FF00002DB
:103CF8001A611AE0FB689A68084B1A61FB689B68AE
:103D0800FA689268DA60FB68DB68FA68D2689A60D9
:103D1800F86801F06BFBB0E780290008080B002069
:103D2800E40A00202C11002000BFFDF797F94FF09E
:103D38000103184607F14007BD4680BD73656D61F4
:103D480070686F72650000006D757465780000001A
:103D5800CBF8BFD8D6C6BFE9B3D8000080B582B0CB
:103D680000AF78600D484FF028010D4AFEF7D2F9F0
:103D780003461A460B4B1A600B484FF028010B4AB2
:103D8800FEF7C8F903461A46094B1A604FF00103BB
:103D9800184607F10807BD4680BD00BF6C0C00201F
:103DA800443D00083C0B0020940C0020503D0008C6
:103DB800400B002080B586B004AF78604FF0000358
:103DC80000934FF000030193094B029309480A49F5
:103DD8004FF005024FF02803FEF748FC0246074B58
:103DE8001A604FF00103184607F10807BD4680BD69
:103DF800583D00080C0C0020440B0020B80C002093
:103E080080B584B000AFF860B9607A603B60FB6849
:103E1800BA68DA61FB687A681A62FB684FF00002D8
:103E28005A62074B1B681A46FB68104619464FF042
:103E380028023B68FEF7F8F907F11007BD4680BD78
:103E48003C0B002080B584B000AF78607B68002B05
:103E580066D0FDF7D7F87B685B6A002B1DD17B68BD
:103E6800DB69B3F1FF3F0BD17B681B6AB3F1FF3FFE
:103E780053D07B681B6A03F101027B681A624CE02D
:103E88007B681A6A7B68DB699A4246D27B681B6A40
:103E980003F101027B681A623FE07B685B6AFB60A2
:103EA800FB684FF000025A62FB689A68FB689A4206
:103EB80004D17B684FF000025A6215E0FB689A68EB
:103EC8007B685A62FB689B68FA68D268DA60FB68AC
:103ED800DB68FA6892689A60FB684FF000029A60A3
:103EE800FB684FF00002DA60FB68B3F84E20FB680D
:103EF800A3F84C20FB6893F84E3003F00203DBB2C2
:103F0800002B02D0F86801F0D1FAFB684FF00002EC
:103F1800A3F84E20F86801F069FAFDF79FF800E071
:103F280000BF07F11007BD4680BD00BF80B586B051
:103F380000AF786039607B68002B02D14FF0010335
:103F4800EFE0FDF7B5F9F8607B68DB69B3F1FF3F97
:103F58000DD17B681B6A002B05D07B681B6A03F1B7
:103F6800FF327B681A624FF00103FB7410E07B6834
:103F78001B6A002B09D04FF00103FB747B681B6A96
:103F880003F1FF327B681A6202E04FF00003FB7412
:103F9800F868FDF795F9FB7C012B02D14FF001037E
:103FA800BFE001F019FA0346002B02D03B68002B52
:103FB80002D14FF00003B4E0FDF724F85B4B1B6817
:103FC800184600F083FC594B1B684FF000025A60FA
:103FD800564B1B684FF000021A60544B1B687A68F6
:103FE80002F124025A627B685B6A002B0ED14F4BA8
:103FF8001B684E4A12689A604C4B1B684B4A126801
:10400800DA604A4B1A687B685A624DE07B685B6AE3
:104018007B617B681B7E002B34D17B6993F8502031
:10402800424B1B6893F850309A4208D87B699B68CA
:104038007B617B685A6A7B699A42EED100E000BFD7
:104048003A4B1B687A699A60384B1B687A69D26860
:10405800DA607B69DB68354A12689A60334B1A6804
:104068007B69DA607B685B6A93F850202F4B1B688A
:1040780093F850309A4217D97B685B6ADA687B6894
:104088005A6211E0294B1B687A699A60274B1B68B2
:104098007A69D268DA607B69DB68244A12689A60B8
:1040A800224B1A687B69DA60204B1B681F4A12682A
:1040B800B2F84E20A3F84C201C4B1A6892F84E30E8
:1040C80043F0800382F84E303B68B3F1FF3F0AD0DB
:1040D800164B1A6892F84E3043F0020382F84E30BD
:1040E800386801F01BFAFCF7B9FFFCF78BFF0F4BA0
:1040F8001B6893F84E3023F07F03DBB2002B0CD003
:104108000A4B1A6892F84E306FF3C71382F84E3094
:10411800FCF7A4FF4FF0000303E0FCF79FFF4FF00C
:104128000103184607F11807BD4680BD2C11002071
:1041380080B584B000AF78607B68002B02D14FF067
:10414800000313E0FCF75EFF7B685B6A002B07D176
:104158007B681846FEF7BEF84FF00103FB7302E0D8
:104168004FF00003FB73FCF779FFFB7B184607F160
:104178001007BD4680BD00BF80B485B000AF786031
:104188007B68002B02D14FF0000303E07B68DB69FA
:10419800FB60FB68184607F11407BD4680BC7047F2
:1041A80080B485B000AF78607B68002B02D14FF0F7
:1041B800000303E07B681B6AFB60FB68184607F195
:1041C8001407BD4680BC704780B582B000AF7860E8
:1041D80039607B684FF001021A767B684FF0000265
:1041E8001A627B684FF0FF025A767B684FF0000234
:1041F800DA61074B1B681A467B68104619464FF070
:1042080024023B68FEF710F807F10807BD4680BD99
:10421800400B002080B584B000AF78607B68002B2D
:104228007BD07B68DA69404B1B689A4277D1FCF7F0
:10423800E9FE7B681B6A002B08D17B684FF00002FF
:10424800DA617B684FF001021A7663E07B681B6ACB
:10425800FB60FB684FF000025A627B68FA68DA611B
:10426800FB689A68FB689A4204D17B684FF00002A9
:104278001A6215E0FB689A687B681A62FB689B689B
:10428800FA68D268DA60FB68DB68FA6892689A6054
:10429800FB684FF000029A60FB684FF00002DA609A
:1042A800FB68B3F84E20FB68A3F84C20FB6893F832
:1042B8004E3003F00203DBB2002B02D0F86801F0A5
:1042C800F5F8FB684FF00002A3F84E20F86801F0FB
:1042D8008DF87B685B7EFF2B1CD0134B1B6893F813
:1042E8005020FB6893F850309A420FD10E4B1B6850
:1042F800184600F0EBFA0C4B1B687A68527E83F87C
:104308005020094B1B68184601F070F87B684FF085
:10431800FF025A76FCF7A2FE02E000BF00E000BFF1
:1043280007F11007BD4680BD2C11002080B586B06E
:1043380000AF786039607B68002B02D14FF0010331
:10434800FBE07B68DA697F4B1B689A4202D14FF029
:104358000103F2E0FCF7ACFFF8607B681B7E012BE1
:104368000FD14FF00103FB747B684FF000021A76FF
:104378007B684FF0FF025A76724B1A687B68DA61E5
:1043880002E04FF00003FB74F868FCF799FFFB7C30
:10439800012B02D14FF00103CFE001F01DF80346D5
:1043A800002B02D03B68002B02D14FF00003C4E081
:1043B800FCF728FE634B1B68184600F087FA614B30
:1043C8001B684FF000025A605E4B1B684FF00002FA
:1043D8001A605C4B1B687A6802F120025A627B689B
:1043E8001B6A002B0ED1574B1B68564A12689A60FD
:1043F800544B1B68534A1268DA60524B1A687B6840
:104408001A6236E07B681B6A7B617B6993F85020EF
:104418004C4B1B6893F850309A4208D87B699B68CC
:104428007B617B681A6A7B699A42EED100E000BF23
:10443800444B1B687A699A60424B1B687A69D26858
:10444800DA607B69DB683F4A12689A603D4B1A68FC
:104458007B69DA607B681B6A93F85020394B1B68CC
:1044680093F850309A4204D97B681B6ADA687B68F3
:104478001A62344B1B68334A1268B2F84E20A3F80C
:104488004C20304B1A6892F84F3043F0010382F801
:104498004F303B68B3F1FF3F0AD02A4B1A6892F8B5
:1044A8004E3043F0020382F84E30386801F036F897
:1044B8007B68DB697B617B6993F85020214B1B6823
:1044C80093F850309A421AD97B69B3F84E30002BD2
:1044D80015D1786900F0FAF97B685B7EFF2B04D16F
:1044E8007B6993F850207B685A76164B1B6893F8C3
:1044F80050207B6983F85020786900F077FFFCF73B
:10450800ADFDFCF77FFD0F4B1B6893F84F3003F0B0
:104518000103DBB2002B0CD00A4B1A6892F84F301B
:104528006FF3000382F84F30FCF798FD4FF000035B
:1045380003E0FCF793FD4FF00103184607F1180755
:10454800BD4680BD2C11002080B487B000AF034663
:10455800FB804FF064333B61B7F9062044491346AA
:104568004FEA43039B184FEA4313CB1803F1100398
:104578001B68002B02D14FF0010373E0B7F9062046
:104588003B4913464FEA43039B184FEA4313CB18A2
:1045980003F104031A68374B9A4202D14FF0010322
:1045A80060E0B7F90620324913464FEA43039B18E7
:1045B8004FEA4313CB1803F110031B68DB684FEA7B
:1045C8009313BB60B7F90620294913464FEA430302
:1045D8009B184FEA4313CB1803F110031B681B68A1
:1045E8001946B7F90620224813464FEA43039B1899
:1045F8004FEA4313C31803F110031B68CB1A4FEAA1
:10460800A3031A46BB689A4202D24FF0000329E07E
:10461800B7F90620164913464FEA43039B184FEA99
:104628004313CB1803F110031B6803F11403FB6059
:104638004FF000037B610FE07B694FEA8303FA6860
:10464800D3181A683B699A4202D04FF0000309E078
:104658007B6903F101037B61BB687A699A42EBD3FA
:104668004FF00103184607F11C07BD4680BC704790
:10467800101400201C11002080B584B000AF834BBB
:104688001B6803F10102814B1A60814B1B68002BE8
:1046980000F090807E4B1B68FB60FB68DA6B7B4BFD
:1046A8001B689A4240F08580FB685B6A002B36D015
:1046B800FB685B6A1A68FB689A4222D1FB689A68B1
:1046C800FB689A420DD1FB685B6A4FF000021A60E2
:1046D800FB684FF000029A60FB684FF00002DA6056
:1046E80019E0FB685B6AFA6892681A60FB68DB6825
:1046F800FA6892689A60FB689B68FA68D268DA6020
:1047080009E0FB68DB68FA6892689A60FB689B6856
:10471800FA68D268DA60FB684FF000025A62FB68F8
:104728001A68FB689A421BD1594B4FF000021A6075
:10473800FB68B3F84E20FB68A3F84C20FA6892F89F
:104748004E306FF3000382F84E30FA6892F84E301C
:104758006FF3410382F84E30F86800F047FE29E015
:10476800FB681A684A4B1A60FB681B68FA6852684B
:104778005A60FB685B68FA6812681A60FB68B3F8ED
:104788004E20FB68A3F84C20FA6892F84E306FF37D
:10479800000382F84E30FA6892F84E306FF3410306
:1047A80082F84E30F86800F021FE394B1B68FB6038
:1047B80073E700BF374B1B68002B63D0364B1B6871
:1047C80093F85020344B1B681B6893F850309A427A
:1047D80058D1314B1B681A682F4B1B689A4251D02D
:1047E8002A4B1B682B4A1268B3FBF2F102FB01F259
:1047F8009B1A002B46D1284B1B681B68FB60264B75
:104808001B689B68BB60244B1B68DB687B607B680C
:10481800FA689A60FB687A68DA60BB68FA68DA60F6
:10482800FB68BA689A601C4B1B684FF000029A60DC
:10483800194B1B684FF00002DA60184B1A68164BC8
:104848001B689A4202D1154BFA681A60124B1B6812
:104858005B68FA681A60104B1B685A68FB685A60F4
:104868000D4B1B68BA6852685A600B4B1B68BA68D4
:104878001A60BB685B68084A12681A60064B1A68B7
:10488800BB685A6007F11007BD4680BD3011002093
:104898003C110020300700202C1100203811002086
:1048A80080B582B000AF78603960074B1B687A68C2
:1048B8001A643B68002B02D03868FDF7A9FA07F1A3
:1048C8000807BD4680BD00BF2C11002080B485B00C
:1048D80000AF78603C4B1B687A689A423DD07B6891
:1048E8009B68002B0AD17B681B687A6852685A60FB
:1048F8007B685B687A6812681A6060E07B681B688E
:10490800FB607B681B687A6852685A607B685B68E2
:104918007A6812681A60FB6893F850207B6893F8ED
:1049280050309A4210D17B68DB68FA689A607B68DD
:10493800DA68FB68DA607B689B68FA68DA607B682B
:104948009A68FB689A603AE07B68DA68FB68DA6024
:104958007B68DB68FA689A6031E07B681A681A4BF2
:104968001A607B681B68FB607B681B687A68526802
:104978005A607B685B687A6812681A60FB6893F80B
:1049880050207B6893F850309A4210D17B68DB68DE
:10499800FA689A607B68DA68FB68DA607B689B680B
:1049A800FA68DA607B689A68FB689A6007E07B6857
:1049B800DA68FB68DA607B68DB68FA689A6007F196
:1049C8001407BD4680BC70473811002090B583B0ED
:1049D80000AF3BE0224B1B68B3F8523023F480420F
:1049E80013464FEAC3039B184FEAC3031A461D4BED
:1049F800D3187B607B685B68002B0AD0184B1B6858
:104A08007A6852681A617B685B689A687B685A6042
:104A18001CE0134B1C68786802F02EFE03462361E5
:104A28000F4B1B681B69002B09D10D4B1B683B60A2
:104A38003868FFF74BFF3868FEF776FA06E07B68C0
:104A48001B8E03F101039AB27B681A86044B1B681C
:104A58001B69002BBED007F10C07BD4690BD00BFF7
:104A6800381100204011002080B582B000AF00F05E
:104A7800B3FC0346002B02D14FF000032BE0FFF7F5
:104A8800A5FF174B1A68174B1B689A4221D0154B84
:104A98001B687B6003F072F838607B68DA6A124B37
:104AA8001B683968CB1AD2187B68DA620E4B3A68F1
:104AB8001A600B4B1A680B4B1A60094B1B681A6972
:104AC8007B681B691046194603F0B2F84FF00103E2
:104AD80001E04FF00003184607F10807BD4680BD06
:104AE800381100202C1100203411002080B582B02C
:104AF80000AFFFF76BFF144B1A68144B1B689A4200
:104B08001ED0124B1B687B6003F038F838607B6856
:104B1800DA6A0F4B1B683968CB1AD2187B68DA62DD
:104B28000B4B3A681A60084B1A68084B1A60064B18
:104B38001B681A697B681B691046194603F08AF8D6
:104B480007F10807BD4680BD381100202C11002050
:104B580034110020CAC2BCFEC0E0D0CDD3C5CFC836
:104B6800BCB6B7C7B7A80000C3BBD3D0BFD5CFD09A
:104B7800CAC2BCFEBFD8D6C6BFE90000CAC2BCFEC6
:104B8800C0E0D0CDD6D8C3FB00000000B5C7BCC775
:104B9800CAC2BCFEC0E0D0CDCAB1C4DAB4E6B2BB6A
:104BA800D7E30000B4B4BDA8CFDFB3CCCAB1C4DA30
:104BB800B4E6B2BBD7E30000BAC5CAC2BCFED3D0C4
:104BC800D5BBD2E7B3F6B7E7CFD5000090B585B02F
:104BD80000AFF871B971BA807B80BB79F92B02D824
:104BE800BB79002B06D174487449FFF759FE4FF67C
:104BF800FF73D9E1FCF706FA4FF00003BB8112E01E
:104C0800BA896F4913464FEAC3039B184FEAC30397
:104C1800CB181B78C3F34003DBB2002B07D0BB894A
:104C280003F10103BB81BB89092BE9D900E000BF6F
:104C3800BB890A2B08D163486349FFF731FEFCF7AB
:104C48000DFA4FF6FF73AFE1FB6A002B6CD04FF003
:104C58000003FB812DE0FA89594913464FEAC30343
:104C68009B184FEAC303CB181B78C3F34003DBB28E
:104C7800012B1AD1FA8913464FEAC3039B184FEA4E
:104C8800C30303F108024E4BD3181846F96A04F01F
:104C980031FA0346002B08D14C484D49FFF700FE76
:104CA800FCF7DCF94FF6FF737EE1FB8903F10103A2
:104CB800FB81FB89092BCED9F86A4FF0200104F05B
:104CC80095FB03461F2B0FDCBA8913464FEAC30333
:104CD8009B184FEAC30303F10802394BD31818464F
:104CE800F96A04F0F5FA2DE0BA8913464FEAC303CE
:104CF8009B184FEAC30303F10802314BD318184637
:104D0800F96A4FF01F0204F0F3F8BA892C491346E8
:104D18004FEAC3039B184FEAC303CB1803F12703D9
:104D28004FF000021A700DE0BA89254913464FEA80
:104D3800C3039B184FEAC303CB1803F108034FF0D2
:104D480000021A70BA891E4913464FEAC3039B181A
:104D58004FEAC303CB1803F12803BA791A70BA894A
:104D6800174913464FEAC3039B184FEAC303CB18EE
:104D780003F128034FF000025A80BA8910491346FC
:104D88004FEAC3039B184FEAC303CB1803F1280368
:104D98007A88DA80FB79002B1CD1BA890849134636
:104DA8004FEAC3039B184FEAC303CB1803F1280348
:104DB800BA889A801CE000BF060000015C4B00081E
:104DC8004011002003000001704B00080900000199
:104DD800844B0008BA89774913464FEAC3039B18E6
:104DE8004FEAC303CB1803F128034FF000029A805F
:104DF800BA89704913464FEAC3039B184FEAC303A5
:104E0800CB1803F134037A6A1A60BA8969491346E0
:104E18004FEAC3039B184FEAC303CB1803F13803C7
:104E2800BA6A1A60BA89634913464FEAC3039B18E2
:104E38004FEAC303CB1803F13C034FF000021A609A
:104E4800BA895C4913464FEAC3039B184FEAC30368
:104E5800CB1803F140034FF000021A60BA89554994
:104E680013464FEAC3039B184FEAC303CB1803F159
:104E780044034FF000021A60BA894E4913464FEABC
:104E8800C3039B184FEAC303CB1803F130034FF059
:104E980000021A80BA89474913464FEAC3039B1890
:104EA8004FEAC303CB1803F130033A8C5A80BC890C
:104EB800BA8913464FEAC3039B184FEAC3031A463D
:104EC8003C4BD318184602F0D7FB02463949234613
:104ED8004FEAC3031B194FEAC303CB1803F10403BA
:104EE8001A60BA89334913464FEAC3039B184FEA3D
:104EF800C303CB1803F104031B68002B08D12E4809
:104F08002E49FFF7CDFCFCF7A9F84FF6FF734BE0ED
:104F1800BA89284913464FEAC3039B184FEAC303CB
:104F2800CB1803F130034FF001021A80BA89FB79DC
:104F380003F00103D9B21F4813464FEAC3039B1875
:104F48004FEAC303C218137861F300031370BA89D8
:104F5800184913464FEAC3039B184FEAC303CA18FC
:104F6800137843F002031370BA89124913464FEAC3
:104F7800C3039B184FEAC303CA1813786FF382035D
:104F88001370BA890B4913464FEAC3039B184FEABB
:104F9800C303CA1813786FF3C3031370FCF75EF8E2
:104FA800BB8943F480439BB2184607F11407BD46FA
:104FB80090BD00BF4011002003000003944B00087F
:104FC80080B588B000AF0346FB804FF00103FB7546
:104FD800FB8823F48043092B02DD4FF00003AEE089
:104FE800FCF710F8FB8823F4804213464FEAC3030A
:104FF8009B184FEAC3031A46534BD3183B613B69CE
:105008001B7803F00203DBB2002B02D14FF0000340
:10501800FB753B691B6C002B32D03B691B6CBB6179
:105028002BE0BB69B3F84E20BB69A3F84C20BB69E1
:1050380093F84E3003F00203DBB2002B02D0B869BC
:1050480000F034FABB694FF00002A3F84E20BB69A8
:10505800FB60BB699A683B691B6C9A4207D13B6944
:105068004FF000021A644FF00003BB6102E0BB6915
:105078009B68BB61F86800F0B9F9BB69002BD0D117
:105088003B695B6C002B32D03B695B6CBB612BE0EE
:10509800BB69B3F84E20BB69A3F84C20BB6993F8F1
:1050A8004E3003F00203DBB2002B02D0B86900F0E7
:1050B800FDF9BB694FF00002A3F84E20BB69FB6005
:1050C800BB699A683B691B6C9A4207D13B694FF0F0
:1050D80000025A644FF00003BB6102E0BB699B68A1
:1050E800BB61F86800F082F9BB69002BD0D13B693D
:1050F8001B7803F00403DBB2002B05D03A69137860
:1051080043F00803137017E03A6913786FF341030B
:1051180013703B694FF000021A723B695B68FB61D0
:1051280007E0FB69BB60FB699B68FB61B868FEF739
:1051380047FBFB69002BF4D1FBF790FFFB7D18467A
:1051480007F12007BD4680BD4011002080B582B020
:1051580000AF784B4FF000021A604FF00103FB805C
:1051680010E0FA88744913464FEAC3039B184FEAC4
:10517800C303CA1813786FF341031370FB8803F154
:105188000103FB80FB88092BEBD94FF00103FB805F
:1051980043E0FB88092B0CD1FA88684913464FEA8B
:1051A80043039B184FEA4313CB184FF000021A60D1
:1051B80015E0FA88FB8803F101010B464FEA430327
:1051C8005B184FEA431319465C4BC9185B481346F2
:1051D8004FEA43039B184FEA4313C3181960FA8830
:1051E8005749564813464FEA43039B184FEA43135F
:1051F800C31803F104031960FA88504913464FEAAB
:1052080043039B184FEA4313CB1803F15803FA885A
:105218001A80FB8803F10103FB80FB88092BB8D9AE
:10522800474B484A1A604FF00003FB8029E0FB888F
:10523800132B0CD1FA88444913464FEAC3039B1A2F
:105248004FEAC303CB184FF000021A6015E0FA8842
:10525800FB8803F101010B464FEAC3035B1A4FEACF
:10526800C3031946384BC918374813464FEAC303D6
:105278009B1A4FEAC303C3181960FB8803F10103A3
:10528800FB80FB88132BD2D9304B2F4A1A602A4A4D
:10529800137843F001031370274A137843F002038D
:1052A8001370254A137843F004031370224A1378C5
:1052B8006FF3C3031370204B4FF000025A601E4B6C
:1052C8004FF000021A721C4B4FF0FA0283F82820A4
:1052D800194B4FF001025A85174B4FF000029A857F
:1052E800154B4FF00102DA85134B4FF001021A8675
:1052F800114B174A5A63104B4FF480629A630E4B56
:105308000E4ADA630C4B4FF000021A640A4B4FF056
:1053180000025A64084802F0AFF938603B68002B75
:105328001CD10C480C49FFF7BBFA034B4FF00002A5
:105338001A8646E03C11002040110020101400207D
:105348001C11002070140020BC0C0020201100202B
:10535800D566000803000003AC4B00081B4B1A4637
:105368004FF0600310464FF000011A4603F068FE44
:10537800164B164A1A60154B144A5A60134B134AB7
:105388009A60124B114ADA60104B4FF080721A641F
:105398000E4B4FF0FA0283F850200C4B4FF480422A
:1053A800A3F85220094B3A681A61084B4FF00002E3
:1053B800A3F84E20064B054A1A60054B1A68054BA0
:1053C8001A6007F10807BD4680BD00BF1014002011
:1053D800381100202C11002080B400AF024B1B783C
:1053E8001846BD4680BC70472811002080B584B09F
:1053F80000AF7860FBF75CFFB8602B4B1B68FB6065
:10540800FB6893F850207B6893F850309A4208D88C
:10541800FB689B68FB60244B1B68FA689A42EFD1D3
:1054280000E000BF7B68FA681A60FB685A687B680E
:105438005A60FB685B687A681A60FB687A685A6029
:105448007B6893F850207B685B6893F850309A42E9
:105458000ED0FB68DB687A689A60FB68DA687B685C
:10546800DA60FB687A68DA607B68FA689A6007E055
:105478007B684FF000029A607B684FF00002DA60A8
:105488007B6893F85020084B1B6893F850309A4279
:1054980002D2054B7A681A60B868FBF711FF07F16A
:1054A8001007BD4680BD00BF3811002080B582B00E
:1054B80000AF7860184B1B681A68174B1B689A4234
:1054C80004D1154B4FF000021A6013E0124B1B6811
:1054D8007A689A4204D1104B1B681A680E4B1A60FE
:1054E8007B681B687A6852685A607B685B687A6870
:1054F80012681A607B684FF000021A607B684FF0F0
:1055080000025A6002F016FB02467B68DA6307F174
:105518000807BD4680BD00BF3C11002090B587B08C
:1055280000AF78603B4B1C6802F004FB0346A363A2
:105538007B6803F5787303F107033B613A6940F22E
:10554800E7339A4202D84FF0FF333B61314B1B6877
:10555800304A1268916B38692F4AA2FB00C24FEAA1
:1055680092128A18DA632D4B1B68002B0ED1294B37
:105578001B68284A12681A60264B1B68254A12685D
:105588005A60244B1A68254B1A603FE0234B1B686E
:105598007B61204B1B689B6BFB601E4B1B68DA6BA7
:1055A800FB68D31A3B617B69DA6BFB68D21A3B69EB
:1055B8009A4208D87B691B687B61184B1B687A691B
:1055C8009A42F0D100E000BF124B1B687A691A605A
:1055D800104B1B687A6952685A607B695B680D4A90
:1055E80012681A600B4B1A687B695A600B4B1B6870
:1055F800DA6BFB68D21A074B1B68D96BFB68CB1AAE
:105608009A4203D9034B1A68044B1A6007F11C0726
:10561800BD4690BD2C110020D34D62103C110020D6
:1056280090B587B000AF7860FFF7D6FE0346002B31
:1056380007D168484FF00001FFF732F94FF0000337
:10564800C2E0FBF7DFFC7B68002B27D1624B1B68AD
:1056580093F85020604B1B681B6893F850309A42AF
:1056680017D15D4B1B681A685B4B1B689A4210D0B8
:10567800594B1C6802F05EFA0346A363564B1B683D
:105688001846FFF723F9544B1B681846FFF7AEFE80
:105698008DE0FBF7E3FC4FF0000395E04E4B1C68F0
:1056A80002F048FA0346A3637B6803F5787303F1B5
:1056B80007033B613A6940F2E7339A4202D84FF058
:1056C800FF333B61444B1B68434A1268916B38694E
:1056D800424AA2FB00C24FEA92128A18DA633E4B92
:1056E8001B681846FFF7F2F83B4B1B683A4A1268EA
:1056F800B2F84E20A3F84C20374B1A6892F84E3077
:1057080043F0010382F84E30354B1B68002B0ED155
:10571800314B1B68304A12681A602F4B1B682E4A9F
:1057280012685A602C4B1A682D4B1A603FE02C4BBC
:105738001B687B61284B1B689B6BFB60264B1B68B7
:10574800DA6BFB68D31A3B617B69DA6BFB68D21AA8
:105758003B699A4208D87B691B687B61204B1B68B0
:105768007A699A42F0D100E000BF1B4B1B687A6946
:105778001A60194B1B687A6952685A607B695B68C2
:10578800154A12681A60144B1A687B695A60144BE0
:105798001B68DA6BFB68D21A0F4B1B68D96BFB6866
:1057A800CB1A9A4203D90C4B1A680D4B1A60FBF7B7
:1057B80055FC02F0BFF90246074B1B689B6BD31AD6
:1057C8004FF47A7202FB03F3184607F11C07BD4633
:1057D80090BD00BF050000012C110020D34D6210C0
:1057E8003C11002080B58CB000AFB9607A603B6096
:1057F8000346FB814FF00003BB624FF0000387F8BC
:1058080023304FF0000387F822304FF0000387F869
:105818002130FA8943F6FF739A4215D9FB8923F49C
:105828008043FB84FB8C092B2FD993484FF0000150
:10583800FFF736F8BB68002B02D0BB688E4A1A60A7
:105848004FF6FF7300F0B2BCFB89092B0ED98B48C9
:105858004FF00001FFF724F8BB68002B02D0BB68AB
:10586800864A1A604FF6FF7300F0A0BCFA89844993
:1058780013464FEA43039B184FEA4313CB1803F12F
:1058880050035B8823F48043FB84FFF7A5FD0346A0
:1058980087F820307B68002B12D097F82030002B37
:1058A8000ED178484FF00001FEF7FAFFBB68002BD5
:1058B80002D0BB68734A1A604FF6FF7300F076BCDB
:1058C800FA8C13464FEAC3039B184FEAC3031A46E0
:1058D8006D4BD318FB61FB691B7803F00203DBB245
:1058E800002B06D0FB691B7803F00803DBB2002B02
:1058F8000ED066484FF00001FEF7D2FFBB68002BC0
:1059080002D0BB68614A1A604FF6FF7300F04EBCC4
:1059180097F84030F92B0ED95D484FF00001FEF79B
:10592800BFFFBB68002B02D0BB68594A1A604FF60C
:10593800FF7300F03BBC97F83C30002B0CBF0023F2
:105948000123FB76FBF75EFBFB695B6CFB62FB6A82
:10595800002B61D0FB8903F48043002B0CD0FB693A
:105968001B7803F00103DBB2002B05D1FB6AB3F807
:105978005830FA899A424AD1FB6AB3F85430012B5D
:1059880039D1FB6AB3F84E20FB6AA3F84C20FB6AB6
:105998004FF000025A62FB6A93F84E3003F002039C
:1059A800DBB2002B02D0F86AFFF780FDFB6A4FF0EC
:1059B8000002A3F84E20FB6A7B617B699A687B69C9
:1059C8009A4207D14FF00003FB62FB694FF00002D7
:1059D8005A640CE0FB6A9B68FB627B69DB687A6946
:1059E80092689A607B699B687A69D268DA6078699C
:1059F800FFF7FCFC0BE0FB6AB3F8543003F1FF330C
:105A08009AB2FB6AA3F85420FB6A9B68FB62FB69A5
:105A18005A6CFB6A9A429DD1FB691B7803F0040318
:105A2800DBB2002B0DD0FB691B7803F00103DBB25E
:105A3800002B40F07181FB8903F48043002B00F0B8
:105A48006B81144B1B68002B06D0134B1B68002B73
:105A580035D1BB6B002B32D00E4B1B68002B1FD1EE
:105A68000E484FF00001FEF71BFFBB68002B22D049
:105A7800BB680A4A1A601EE00C0000010A00000117
:105A88001014002005000001401100200D00000145
:105A9800060000011C110020201100200200000156
:105AA80091484FF00001FEF7FBFEBB68002B02D0C7
:105AB800BB688D4A1A604FF6FF73BB8473E3FB69BA
:105AC8001B7803F00103DBB2002B17D1FB691A8E98
