:020000040800F2
:10000000E0390020410600084100000841000008D6
:1000100000000000000000000000000000000000E0
:100020000000000000000000000000006D0000085B
:100030000000000000000000000000004500000873
:10004000FEE700BF01B515480068EFF3098020E91D
:10005000F00F80F309880DF081F8BDE80140EFF35F
:100060000980B0E8F00F80F30988704700B500F010
:10007000C3FC5DF804EB1EF0040F0CBFEFF3088027
:10008000EFF30980816911F8021C29B900F1200001
:10009000B0E8F00F80F309887047000010E000E03E
:1000A00080B500AF4FF480704FF001010BF058FAAB
:1000B0004FF001004FF001010BF074FA4FF0030014
:1000C00001F0DAFA4FF0040001F0D6FA4FF0050023
:1000D00001F0D2FA4FF0060001F0CEFA4FF0030023
:1000E0004FF00E014FF00B0201F008FA4FF0030041
:1000F0004FF00F014FF00B0201F000FA4FF0030038
:100100004FF000014FF00B0201F0F8F94FF003003F
:100110004FF001014FF00B0201F0F0F94FF0040035
:100120004FF007014FF00B0201F0E8F94FF0040027
:100130004FF008014FF00B0201F0E0F94FF004001E
:100140004FF009014FF00B0201F0D8F94FF0040015
:100150004FF00A014FF00B0201F0D0F94FF004000C
:100160004FF00B014FF00B0201F0C8F94FF0040003
:100170004FF00C014FF00B0201F0C0F94FF00400FA
:100180004FF00D014FF00B0201F0B8F94FF00400F1
:100190004FF00E014FF00B0201F0B0F94FF00400E8
:1001A0004FF00F014FF00B0201F0A8F94FF00300E0
:1001B0004FF008014FF00B0201F0A0F94FF00300DF
:1001C0004FF009014FF00B0201F098F94FF00300D6
:1001D0004FF00A014FF00B0201F090F94FF00500CB
:1001E0004FF000014FF00B0201F088F94FF00500CD
:1001F0004FF001014FF00B0201F080F94FF00500C4
:100200004FF002014FF00B0201F078F94FF00500BA
:100210004FF003014FF00B0201F070F94FF00500B1
:100220004FF004014FF00B0201F068F94FF00500A8
:100230004FF005014FF00B0201F060F94FF005009F
:100240004FF00C014FF00B0201F058F94FF0050090
:100250004FF00D014FF00B0201F050F94FF0050087
:100260004FF00E014FF00B0201F048F94FF005007E
:100270004FF00F014FF00B0201F040F94FF0060074
:100280004FF000014FF00B0201F038F94FF006007B
:100290004FF001014FF00B0201F030F94FF0060072
:1002A0004FF002014FF00B0201F028F94FF0060069
:1002B0004FF003014FF00B0201F020F94FF0060060
:1002C0004FF004014FF00B0201F018F94FF0060057
:1002D0004FF005014FF00B0201F010F94FF0030051
:1002E0004FF00B014FF00B0201F008F94FF0030043
:1002F0004FF00C014FF00B0201F000F94FF003003A
:100300004FF00D014FF00B0201F0F8F84FF0040030
:100310004FF003014FF00B0201F0F0F84FF0040032
:100320004FF004014FF00B0201F0E8F84FF0040029
:100330004FF005014FF00B0201F0E0F84FF0030021
:100340004FF005014FF00B0201F0D8F84FF0030019
:100350004FF004014FF00B0201F0D0F84FF0030012
:100360004FF007014FF00B0201F0C8F84FF0060004
:100370004FF009014FF00B0201F0C0F84FF00600FA
:100380004FF00A014FF00B0201F0B8F84FF00600F1
:100390004FF00C014FF00B0201F0B0F84FF00400E9
:1003A0004FF000014FF00B0201F0A8F84FF00400ED
:1003B0004FF001014FF00B0201F0A0F880BD00BF2B
:1003C00080B596B000AF4FF001033B604FF00003E3
:1003D0007B604FF00203BB604FF00003FB604FF007
:1003E00000033B614FF001037B614FF00003BB61F1
:1003F0004FF00003FB614FF000033B624FF004033A
:100400007B624FF01003BB624FF00003FB624FF0C2
:1004100000033B634FF000037B634FF00003BB63BB
:100420004FF00003FB634FF480533B644FF0000335
:100430007B644FF00003BB644FF00003FB643B465A
:100440003B653B467B6507F11C0318460AF0B4FE8A
:100450004FF000004FF001010AF0CAFF07F1580702
:10046000BD4680BD80B596B000AF4FF001033B6044
:100470004FF000037B604FF00203BB604FF00003BE
:10048000FB604FF000033B614FF000037B614FF0D6
:100490000003BB614FF00403FB614FF000033B62BC
:1004A0004FF000037B624FF01003BB624FF000037C
:1004B000FB624FF000033B634FF000037B634FF0A0
:1004C0000003BB634FF00003FB634FF480533B64B6
:1004D0004FF000037B644FF00003BB644FF0000358
:1004E000FB643B463B653B467B6507F11C031846B6
:1004F0000AF062FE4FF004004FF001010AF078FFAD
:1005000007F15807BD4680BD80B58EB000AF4FF0F3
:1005100000037B604FF00303BB604FF00903FB60F7
:100520004FF000033B614FF480737B614FF0020397
:10053000BB614FF00003FB614FF040033B624FF49F
:1005400000337B624FF00003BB624FF00003FB629D
:1005500007F104033B6307F104037B6307F1140312
:1005600018460AF0D1FE4FF480704FF001010AF0F6
:1005700069FF07F13807BD4680BD00BF80B596B062
:1005800000AF4FF001033B604FF001037B604FF081
:100590000203BB604FF00103FB604FF001033B61BE
:1005A0004FF001037B614FF00003BB614FF0060386
:1005B000FB614FF000033B624FF004037B624FF09E
:1005C0001003BB624FF00003FB624FF000033B637C
:1005D0004FF000037B634FF00003BB634FF0000359
:1005E000FB634FF480533B644FF000037B644FF098
:1005F0000003BB644FF00003FB643B463B653B4696
:100600007B6507F11C0318460AF0D6FD4FF0060083
:100610004FF001010AF0ECFE07F15807BD4680BD1E
:1006200080B500AFFFF73CFDFFF7CAFEFFF71AFFEA
:10063000FFF76AFFFFF7A2FF80BD00BF00ED00E0FB
:1006400080B500AF524B18460BF044F94FF0010053
:100650000BF044F94FF001000BF04CF94FF00000A3
:100660000BF054F94B4B1B681B684B4A93420BD061
:10067000494A934202D8494A934217E0484A934272
:100680000BD0484A934211E0424B1B68414A126822
:10069000526942F400725A6108E03E4B1B683D4AC1
:1006A0001268526942F400725A6100BF3E4B1B68E7
:1006B0003D4A1268126822F01F021A603A4B1B680A
:1006C000394A1268126842F002021A60364B1B68FF
:1006D000354A1268126842F010021A60334B1B68E8
:1006E0001A68334B02EA0303324A934208D12F4B74
:1006F0001B685A68304B02EA0303304A934241D0E8
:100700002A4B1B68294A1268126842F001021A60DB
:10071000264B1A68254B1B685968294B01EA0303CD
:100720005360224B1A68214B1B681B6823F08473AB
:1007300023F4803313601D4B1B681C4A1268126837
:1007400022F480221A60194B1B68184A12685268FA
:1007500022F4FE025A60154B1B684FF000029A60AB
:10076000124B1B68174A5A60104B1B68114A1A60DB
:1007700000BF154B1B68002BFBD000BF134B1B6841
:10078000002BFBD0FFF74CFF00F022F880BD00BF2C
:10079000E03900203C06000831C20F4130C20F4151
:1007A00031C21F4120C32F4154B9000850B900087D
:1007B00001000F0300000B03FC3F3F0008041F0073
:1007C0000000FFF802C41D07440042426400424298
:1007D00080B586B000AF3F4B7B604FF00003FB60FD
:1007E0006CE03D4AFB684FEA0313D31803F108039A
:1007F0001B687B61384AFB684FEA0313D31803F187
:100800000C031B683B61344AFB6803F101034FEAA8
:100810000313D31803F104031B68012B23D17A6956
:100820003B699A4246D04FF00003BB600FE07B6902
:100830001A683B691A60BB6803F10403BB607B69FB
:1008400003F104037B613B6903F104033B61224A2A
:10085000FB6803F101034FEA0313D3181A68BB685E
:100860009A42E4D826E01C4AFB6803F101034FEAF0
:100870000313D31803F104031B68002B1AD14FF0A4
:100880000003BB600BE03B694FF000021A60BB68DD
:1008900003F10403BB603B6903F104033B610E4AAF
:1008A000FB6803F101034FEA0313D3181A68BB680E
:1008B0009A42E8D8FB6803F10103FB60064B5A68D3
:1008C000FB689A428DD87B68984707F11807BD46A8
:0C08D00080BD00BFDD090008B0EA000890
:1008DC0080B485B000AF4FF000037B606CE03B4A06
:1008EC007B684FEA0313D31803F108031B68FB6002
:1008FC00364A7B684FEA0313D31803F10C031B68C9
:10090C00BB60324A7B6803F101034FEA0313D3182F
:10091C0003F104031B68012B23D1FA68BB689A42CC
:10092C0046D04FF000033B600FE0FB681A68BB68D1
:10093C001A603B6803F104033B60FB6803F104039A
:10094C00FB60BB6803F10403BB60204A7B6803F1C6
:10095C0001034FEA0313D3181A683B689A42E4D890
:10096C0026E01A4A7B6803F101034FEA0313D318FC
:10097C0003F104031B68002B1AD14FF000033B60FA
:10098C000BE0BB684FF000021A603B6803F10403F4
:10099C003B60BB6803F10403BB600C4A7B6803F14A
:1009AC0001034FEA0313D3181A683B689A42E8D83C
:1009BC007B6803F101037B60044B5A687B689A42A5
:1009CC008DD807F11407BD4680BC7047E8EA0008D3
:1009DC0080B500AFFFF77CFF00F062F900F082FDFC
:1009EC0009F0A8FF80BD00BF00E100E080B400AFBB
:1009FC004FF0000080F31188BD4680BC704700BFEB
:100A0C0080B400AF4FF0FF0080F31188BD4680BC6E
:100A1C00704700BF80B400AF62B6BD4680BC704763
:100A2C0080B400AF72B6BD4680BC704780B483B052
:100A3C0000AF0346FB71FB793B2B04D8FB790F4AC3
:100A4C00D35CFF2B02D14FF0000310E00C4B1B6862
:100A5C00FA794FEA5212D2B2F97901F01F014FF034
:100A6C00010000FA01F143F822104FF0010318467F
:100A7C0007F10C07BD4680BC704700BF5001002039
:100A8C00F409000880B483B000AF0346FB71FB7916
:100A9C003B2B04D8FB79104AD35CFF2B02D14FF0CF
:100AAC00000312E00D4B1B68FA794FEA5212D2B2D6
:100ABC00F97901F01F014FF0010000FA01F102F188
:100ACC00200243F822104FF00103184607F10C07DF
:100ADC00BD4680BC704700BF50010020F4090008DF
:100AEC0080B485B000AF0346FB71FB793B2B04D877
:100AFC00FB79124AD35CFF2B02D14FF0000316E0B6
:100B0C00FB794FEA5313DBB2FB60FB7903F01F0355
:100B1C004FF0010202FA03F3BB60094B1B68FA6841
:100B2C0002F16002B96843F822104FF00103184635
:100B3C0007F11407BD4680BC704700BF5001002070
:100B4C00F409000880B485B000AF0346FB71FB7953
:100B5C003B2B04D8FB79124AD35CFF2B02D14FF00C
:100B6C00000316E0FB794FEA5313DBB2FB60FB7911
:100B7C0003F01F034FF0010202FA03F3BB60094BB1
:100B8C001B68FA6802F14002B96843F822104FF072
:100B9C000103184607F11407BD4680BC704700BF1F
:100BAC0050010020F409000880B483B000AF4FF06E
:100BBC000003FB710CE00A4B1B68FA7902F160022E
:100BCC004FF0FF3143F82210FB7903F10103FB7165
:100BDC00FB79012BEFD907F10C07BD4680BC7047A0
:100BEC00F409000880B483B000AF0346FB71FB79B5
:100BFC003B2B04D8FB79214AD35CFF2B02D14FF05D
:100C0C00000335E0FB791D4AD35C1A461C49134698
:100C1C004FEA43039B184FEAC303CB1803F10C03B1
:100C2C004FF000021A60FB794FEA5313DBB21A46FD
:100C3C001946144B53F82110FB7903F01F034FF0A6
:100C4C00010000FA03F36FEA030319400D4B43F85C
:100C5C002210FA790C490D4B43F822100C4B1A68F0
:100C6C00FB79D3184FF0FF0283F800234FF00103F8
:100C7C00184607F10C07BD4680BC70475001002098
:100C8C008C010020300100202514000840000020B9
:100C9C00F409000880B400AF61B6BD4680BC704753
:100CAC0080B582B000AFFFF7BBFEFFF77DFF604B56
:100CBC001B685F4A1268526942F002025A614FF097
:100CCC000003FB710DE0FB795A4A4FF0FF01D15440
:100CDC00FA795949594B43F82210FB7903F1010376
:100CEC00FB71FB793B2BEED94FF00003FB7154E009
:100CFC00FB79534AD35C4F4AF979D154FA7951496B
:100D0C0013464FEA43039B184FEAC303CB1803F176
:100D1C0008034FF001021A60FA794A4913464FEA68
:100D2C0043039B184FEAC303CB1803F10C034FF09A
:100D3C0000021A60FA794449424813464FEA4303C9
:100D4C009B184FEAC303C3181960FA793D4913463F
:100D5C004FEA43039B184FEAC303CB1803F1040378
:100D6C004FF000021A60FA79364913464FEA4303F2
:100D7C009B184FEAC303CB1803F110034FF6FF7215
:100D8C005A80324B1A68FB79D3184FF0FF0283F864
:100D9C000023FB7903F10103FB712D4B1B78FA79CE
:100DAC009A42A5D34FF00003FB7123E0274B1B683D
:100DBC00FA7902F120024FF0FF3143F82210234B55
:100DCC001B68FA7902F160024FF0FF3143F82210F0
:100DDC00FA79204B4FF0000143F82210FA791D4BA1
:100DEC0002F104024FF0000143F82210FB7903F1E9
:100DFC000103FB71FB79012BD8D9164B4FF0000284
:100E0C009A60144B4FF00002DA60124B4FF0010263
:100E1C00DA61FFF7F5FD0F4B4FF000029A61FFF717
:100E2C00F9FDFFF737FF07F10807BD4680BD00BF8E
:100E3C003C0600085001002025140008400000204A
:100E4C00A41400088C010020EDA80008F409000887
:100E5C00E01400083001002080B582B000AF0346DA
:100E6C00FB71324BDB6803F10102304BDA602F4B24
:100E7C009B6903F101022D4B9A61FB792C4AD35CDF
:100E8C001A462C4913464FEA43039B184FEAC303F7
:100E9C00CB1803F110031B78002B01D1FFF7C0FD19
:100EAC00FB791846FFF71CFEFB79214AD35C1A46E6
:100EBC00204913464FEA43039B184FEAC303CB1850
:100ECC001B68002B0FD0FB79194AD35C1A461949C1
:100EDC0013464FEA43039B184FEAC303CB181B6816
:100EEC00FA7910469847FB79114AD35C1A46114996
:100EFC0013464FEA43039B184FEAC303CB1803F185
:100F0C0010031B78002B01D1FFF784FD074BDB6826
:100F1C0003F1FF32054BDA60044B9B6903F1FF329E
:100F2C00024B9A6107F10807BD4680BD30010020D5
:100F3C00500100208C01002080B588B004AF03461E
:100F4C00FB714FF00003FB60574B4FF000021A701F
:100F5C00564B9B6803F10102544B9A60FB7918467F
:100F6C00FFF7BEFDFB79524AD35C1A465149134632
:100F7C004FEA43039B184FEAC303CB181B68002BA3
:100F8C0010D0FB794A4AD35C1A464A4913464FEAB9
:100F9C0043039B184FEAC303CB181B68FA7910461E
:100FAC009847F860FB79424AD35C1A46414913468C
:100FBC004FEA43039B184FEAC303CB1803F1040316
:100FCC001B68BB60BB68002B23D0BB68B3F84E20FA
:100FDC00BB68A3F84C20BA6892F84F306FF341030A
:100FEC0082F84F30BB68FA685A64B86808F0DEF8CB
:100FFC00FB792F4AD35C1A462E4913464FEA43031A
:10100C009B184FEAC303CB1803F104034FF0000203
:10101C001A60FB79264AD35C1A46264913464FEAD6
:10102C0043039B184FEAC303CB1803F110035A88F0
:10103C004FF6FF739A4220D0FB791D4AD35C1A46B7
:10104C001C4913464FEA43039B184FEAC303CB18C2
:10105C0003F110035A8807F107034FF001010091C7
:10106C004FF0000101914FF00001029110464FF03A
:10107C0000014FF0000208F073FB0C4B9B6803F16E
:10108C00FF320A4B9A600C4B1A680C4B1B689A4245
:10109C0001D007F011FC044B4FF001021A7007F15C
:1010AC001007BD4680BD00BF5C1B00203001002036
:1010BC00500100208C0100206C1B0020601B0020C4
:1010CC0080B500AF0C4B9B68002B12D1FFF798FC3E
:1010DC00094BDB69B3F1FF3F05D0074BDB6903F12B
:1010EC000102054BDA61054B4FF000021A7000BF8C
:1010FC0000E000BF80BD00BF300100205C1B002061
:10110C0080B500AFFFF77CFC024B4FF00102DA61B7
:10111C0080BD00BF3001002080B500AF164B9B682E
:10112C00002B27D1144BDB69002B05D0124BDB694C
:10113C0003F1FF32104BDA610F4BDB69002B16D138
:10114C000D4B9B69002B0FD10C4B4FF001021A7009
:10115C000B4B1A680B4B1B689A4202D007F06AFBC8
:10116C0009E0FFF743FC06E0FFF740FC03E0FFF764
:10117C0047FC00E000BF80BD300100205C1B00205C
:10118C00601B00206C1B002080B400AF034B4FF0A1
:10119C000002DA61BD4680BC704700BF3001002000
:1011AC0080B582B000AF0346FB71FB793B2B08D8AE
:1011BC00FB79394AD35CFF2B03D0384BDB68002B0F
:1011CC0002D04FF0000361E0FB79334AD35C1A463E
:1011DC00334913464FEA43039B184FEAC303CB181A
:1011EC0003F10C031B68012B02D14FF000034DE0FF
:1011FC00FB791846FFF746FCFB79274AD35C1A4665
:10120C00274913464FEA43039B184FEAC303CB18F5
:10121C0003F108031B68B3F1FF3F1BD0FB791E4A97
:10122C00D35C1A461E4913464FEA43039B184FEAF8
:10123C00C303CB1803F108031B6803F10101184821
:10124C0013464FEA43039B184FEAC303C31803F139
:10125C0008031960FB794FEA5313DBB21A4619469F
:10126C000E4B01F1040153F82110FB7903F01F031D
:10127C004FF0010000FA03F36FEA03031940074B28
:10128C0002F1040243F822104FF00103184607F153
:10129C000807BD4680BD00BF500100203001002072
:1012AC008C01002080B582B000AF0346FB71FB7946
:1012BC003B2B08D8FB79404AD35CFF2B03D03F4B28
:1012CC00DB68002B02D04FF000036FE0FB793A4A49
:1012DC00D35C1A463A4913464FEA43039B184FEA2C
:1012EC00C303CB1803F10C031B68012B02D14FF085
:1012FC0000035BE0FB79304AD35C1A463049134655
:10130C004FEA43039B184FEAC303CB1803F10803BE
:10131C001B68002B1BD0FB79274AD35C1A46284943
:10132C0013464FEA43039B184FEAC303CB1803F150
:10133C0008031B6803F1FF31214813464FEA4303AE
:10134C009B184FEAC303C31803F108031960FB7918
:10135C00194AD35C1A461A4913464FEA43039B18A1
:10136C004FEAC303CB1803F108031B68002B1BD1F6
:10137C00FB794FEA5313DBB21A4619460F4B01F1B6
:10138C00040153F82110FB7903F01F034FF0010007
:10139C0000FA03F31943094B02F1040243F822103B
:1013AC00FB791846FFF742FB4FF00103184607F193
:1013BC000807BD4680BD00BF500100203001002051
:1013CC008C01002080B483B000AF03463960FB7100
:1013DC00FB793B2B14D8FB790D4AD35CFF2B11D036
:1013EC00FB790B4AD35C1A460A4913464FEA43036E
:1013FC009B184FEAC303CB183A681A6000BF02E08F
:10140C0000BF00E000BF07F10C07BD4680BC704771
:10141C00500100208C01002001B5EFF3098020E978
:10142C00F00F80F30988EFF30580A0F11000FFF7AF
:10143C0083FDBDE80140EFF30980B0E8F00F80F3C5
:10144C000988704701B5EFF3098020E9F00F80F3AC
:10145C000988EFF30580A0F11000FFF7FDFCBDE853
:10146C000140EFF30980B0E8F00F80F30988704772
:10147C00EFF311804FF0FF0181F31188704700BF2B
:10148C0080F31188704700BFEFF3108072B670477D
:10149C0080F31088704700BF0001020304050607A3
:1014AC0008090A0B0C0D0E0F101112131415161738
:1014BC0018191A1B1C1D1E1F202122232425262728
:1014CC0028292A2B2C2D2E2F303132333435363718
:1014DC0038393A3B3C00000080B400AFBD4680BCBC
:1014EC00704700BF80B500AFFFF7F6FF80BD00BFAF
:1014FC0080B485B000AFF860B9607A60FB68062BE9
:10150C005FD8BB68072B1ED8314BFA6853F82230D2
:10151C002F4AF96852F821201168BA684FEA820202
:10152C004FF00F0000FA02F26FEA020211407A68E3
:10153C0002F00F00BA684FEA820200FA02F241EAA6
:10154C0002021A6021E0224BFA6853F82230204A3A
:10155C00F96852F821205168BA68A2F108024FEAE2
:10156C0082024FF00F0000FA02F26FEA0202114001
:10157C007A6802F00F00BA68A2F108024FEA820200
:10158C0000FA02F241EA02025A607B68182B0AD177
:10159C000F4BFA6853F82230BA684FF0010101FA88
:1015AC0002F21A610EE07B68082B0BD1084BFA682B
:1015BC0053F82230BA684FF0010101FA02F25A6175
:1015CC0000E000BF07F11407BD4680BC704700BFA8
:1015DC0030B9000880B483B000AF78607B68062B0C
:1015EC0002D94FF0000304E0054B7A6853F822301F
:1015FC009B68184607F10C07BD4680BC704700BFBE
:10160C0030B9000880B483B000AF786039607B6873
:10161C00062B0AD8084B7A6853F822203B684FEA0D
:10162C0003434FEA1343136100E000BF07F10C07BB
:10163C00BD4680BC704700BF30B9000880B483B091
:10164C0000AF786039607B68062B06D8064B7A6849
:10165C0053F822303A685A6100E000BF07F10C07DA
:10166C00BD4680BC704700BF30B9000880B483B061
:10167C0000AF78607B68062B33D801A252F823F0B8
:10168C00A9160008B3160008BD160008C7160008F6
:10169C00D1160008DB160008E5160008144B4FF0B5
:1016AC0001021A601EE0134B4FF001021A6019E0A0
:1016BC00114B4FF001021A6014E0104B4FF0010275
:1016CC001A600FE00E4B4FF001021A600AE00D4B4E
:1016DC004FF001021A6005E00B4B4FF001021A604B
:1016EC0000E000BF07F10C07BD4680BC704700BF8F
:1016FC00080342420C03424210034242140342428A
:0C170C00180342421C03424220034242E8
:1017180000000000000000000000000000000000C1
:1017280000000000000000000000000000000000B1
:1017380000000000000000000000000000000000A1
:101748000000000000000000000000000000000091
:101758000000000000000000000000000000000081
:101768000000000000000000000000000000000071
:101778000000000000000000000000000000000061
:101788000000000000000000000000000000000051
:101798000000000000000000000000000000000041
:1017A8000000000000000000000000000000000031
:1017B8000000000000000000000000000000000021
:1017C8000000000000000000000000000000000011
:1017D8000000000000000000000000000000000001
:1017E80000000000000000000000000000000000F1
:1017F80000000000000000000000000000000000E1
:1018080000000000000000000000000000000000D0
:1018180000000000000000000000000000000000C0
:1018280000000000000000000000000000000000B0
:1018380000000000000000000000000000000000A0
:1018480080B500AF4FF002004FF4A871FFF7F8FE23
:101858004FF002004FF40071FFF7D6FE184807F06A
:10186800C1FD4FF002004FF41471FFF7E9FE4FF08D
:1018780002004FF48071FFF7C7FE114807F0B2FD70
:101888004FF002004FF45071FFF7DAFE4FF00200FC
:101898004FF01001FFF7B8FE094807F0A3FD4FF01D
:1018A80002004FF44471FFF7CBFE4FF002004FF0F7
:1018B8004001FFF7A9FE024807F094FDC2E700BF08
:1018C80020A1070068656C6C6F206C6564000000DF
:1018D80080B586B004AF4FF00200FFF7C9FE4FF0A5
:1018E80002004FF006014FF00202FFF703FE4FF02F
:1018F80002004FF004014FF00202FFF7FBFD4FF02A
:1019080002004FF008014FF00202FFF7F3FD4FF01D
:1019180002004FF009014FF00202FFF7EBFD4FF014
:1019280001030093174B01934FF064030293164B86
:1019380003934FF001004FF0C8014FF000024FF041
:10194800010306F0EFFF0346FB80FA884FF6FF73AA
:101958009A4212D0FB884FF0000200924FF000022A
:1019680001924FF00002029218464FF000014FF02A
:1019780000024FF0000307F0F5FE07F10807BD4627
:1019880080BD00BF49180008CC18000880B500AF1A
:10199800FFF79EFF80BD00BF80B500AFFFF7F6FFE1
:1019A80080BD00BF75617274310000007465726D8E
:1019B8005F7363616E0000006D61696E2066756E0D
:1019C8006374696F6E00000080B586B004AF4FF095
:1019D800000009F093FA4FF000000AF047F84FF0C2
:1019E800000000F07DF84FF000000AF077FF4FF09C
:1019F80000000AF0AFF84FF0000001F077FE2C4825
:101A08004FF0000105F01EFE78607B68002B21D0A6
:101A180078684FF002014FF000024FF0000305F024
:101A2800E1FE78684FF004014FF461424FF0000383
:101A380005F0D8FE7B68184600F074FC1D4807F0D6
:101A48006BF9034678684FF000011A464FF000031F
:101A580005F0C8FE4FF002030093174B01934FF4B3
:101A680080630293154B03934FF001004FF0C801B8
:101A78004FF000024FF0000306F054FF03467B804E
:101A88007B884FF0000200924FF0000201924FF065
:101A98000002029218464FF000014FF000024FF08A
:101AA800000307F05FFE07F10807BD4680BD00BFD1
:101AB800AC190008B4190008A1190008C0190008D9
:101AC800737464696E20696E7075742064657669D4
:101AD800636500006B6579626F61726400000000E5
:101AE80080B588B004AF7860224803F0C5F9034692
:101AF800002B02D14FF0000337E04FF001030093B1
:101B08001D4B01934FF4007302931C4B03934FF04A
:101B180001004FF0C8014FF000024FF0000306F03B
:101B280001FF0346FB81FB894FF0000200924FF052
:101B3800000201924FF00002029218464FF0000195
:101B48004FF000024FF0000307F00CFE03461A4660
:101B58004FF6FF739A4206D1FB89184607F012F92F
:101B68004FF0000301E04FF00103184607F110079A
:101B7800BD4680BDC81A0008B91B0008DC1A000859
:101B880080B582B000AF7860396078684FF00101A5
:101B98003A6800F0E3FE0346002B02D14FF0FF3312
:101BA80001E04FF00003184607F10807BD4680BD65
:101BB80080B58AB000AF7B4803F05EF90346FB614D
:101BC800FB697B6202E000BF00E000BFFA697B6A44
:101BD8001046194603F0C4F903467B627B6A002B62
:101BE80004D142F2107007F0FDFBE9E77B6A1B7E27
:101BF800012B01D000BFE9E77B6A9B6ABB61BB6927
:101C08001B6898477861BB699A687B699A4207D0D4
:101C1800BB697A699A60BB694FF000021A610BE0F0
:101C2800BB691A69BB69DB689A4205D2BB691B6943
:101C380003F10A02BB691A61BB695A68BB699B68F0
:101C48009A42C0D0BB691A69BB69DB689A42BCD3A7
:101C5800BB695B68DBB23B71BB695B684FEA132306
:101C6800DBB27B71BB695B684FEA1343DBB2BB71C4
:101C7800BB695B684FEA1363DBB2FB714FF000038B
:101C88003B6234E0BB699A683B6A4FEAC30322FAB5
:101C980003F3FB74FB7C002B24D03B79FA7C9A423B
:101CA80021D07B79FA7C9A421DD0BB79FA7C9A4282
:101CB80019D0FB79FA7C9A4215D00BF027F9034624
:101CC800BB604FF000037B73FB7C3B737B6ADB6973
:101CD8001A4607F10803104619464FF0080200F0AB
:101CE800BBFE00E000BF3B6A03F101033B623B6AB5
:101CF800032BC7D9BB699B68DBB23B71BB699B6887
:101D08004FEA1323DBB27B71BB699B684FEA13432D
:101D1800DBB2BB71BB699B684FEA1363DBB2FB7133
:101D28004FF000033B6234E0BB695A683B6A4FEAF4
:101D3800C30322FA03F3FB74FB7C002B24D03B790A
:101D4800FA7C9A4221D07B79FA7C9A421DD0BB79E1
:101D5800FA7C9A4219D0FB79FA7C9A4215D00BF09A
:101D6800D5F80346BB604FF0F0037B73FB7C3B73F5
:101D78007B6ADB691A4607F10803104619464FF0DB
:101D8800080200F069FE00E000BF3B6A03F10103AE
:101D98003B623B6A032BC7D9BB699A68BB695A6027
:101DA80014E700BFC81A000880B48DB000AFF8600F
:101DB800B9607A60BB68BB624FF0000387F82730D0
:101DC8007B68002B1DDA7B68C3F100037B60FB682E
:101DD800002B13DAFB68C3F10003FB6297F8273086
:101DE80007F13001CB184FF02D0203F81C2C97F89F
:101DF800273003F1010387F8273004E0FB68FB6212
:101E080001E0FB68FB627B68102B40F0A18097F82B
:101E18002730FA6AD2B202F00F02D2B207F13001CB
:101E2800CB1803F81C2CFB6A4FEA1313FB6297F8D4
:101E3800273007F13002D31813F81C3C092B11D8AE
:101E480097F8273097F8272007F130018A1812F8F9
:101E58001C2C02F13002D2B207F13001CB1803F882
:101E68001C2C22E097F8273007F13002D31813F81A
:101E78001C3C092B19D997F8273007F13001CB18EA
:101E880013F81C3C0F2B10D897F8273097F8272009
:101E980007F130018A1812F81C2C02F15702D2B24D
:101EA80007F13001CB1803F81C2C97F8273003F101
:101EB800010387F82730FB6A002BA8D197F8273051
:101EC80003F1FF3387F827303B7D2D2B0CD1BB6AFC
:101ED8004FF02D021A70BB6A03F10103BB624FF089
:101EE800010387F8263003E04FF0000387F8263017
:101EF80097F8272097F82630D31A87F8253097F8CF
:101F0800253003F1010387F8253018E097F82730CA
:101F180007F13002D31813F81C2CBB6A1A70BB6A7D
:101F280003F10103BB6297F8273003F1FF3387F809
:101F3800273097F8253003F1FF3387F8253097F8D5
:101F48002530002BE2D1BB6A4FF000021A7073E013
:101F58007B680A2B70D197F82700F96A3A4BA3FBE4
:101F680001234FEAD30213464FEA83039B184FEA33
:101F78004303CA1AD3B203F13003DAB207F13001CE
:101F88000B1803F81C2C97F8273003F1010387F886
:101F98002730FA6A2C4BA3FB02134FEAD303FB62E8
:101FA800FB6A002BD7D197F8273003F1FF3387F866
:101FB80027303B7D2D2B0CD1BB6A4FF02D021A70B8
:101FC800BB6A03F10103BB624FF0010387F82630B7
:101FD80003E04FF0000387F8263097F8272097F89A
:101FE8002630D31A87F8253097F8253003F10103F6
:101FF80087F8253018E097F8273007F13002D31812
:1020080013F81C2CBB6A1A70BB6A03F10103BB628C
:1020180097F8273003F1FF3387F8273097F82530F2
:1020280003F1FF3387F8253097F82530002BE2D1EC
:10203800BB6A4FF000021A70BB68184607F13407F4
:10204800BD4680BC704700BFCDCCCCCC80B485B039
:1020580000AF78604FF00003BB607B681B78302BC3
:102068006FD17B6803F101031B78782B05D07B685F
:1020780003F101031B78582B63D14FF00203FB7364
:1020880003E0FB7B03F10103FB73FB7B7A68D31846
:102098001B78302BF5D04DE0FB7B7A68D3181B7882
:1020A8002F2B11D9FB7B7A68D3181B78392B0BD8C7
:1020B800BB684FEA0312FB7B7968CB181B78D318EF
:1020C800A3F13003BB6031E0FB7B7A68D3181B783F
:1020D800402B11D9FB7B7A68D3181B78462B0BD879
:1020E800BB684FEA0312FB7B7968CB181B78D318BF
:1020F800A3F13703BB6019E0FB7B7A68D3181B7820
:10210800602B11D9FB7B7A68D3181B78662B0BD808
:10211800BB684FEA0312FB7B7968CB181B78D3188E
:10212800A3F15703BB6001E0BB6843E0FB7B03F10D
:102138000103FB73FB7B7A68D3181B78002BABD1A8
:1021480037E04FF00003FB7303E0FB7B03F101036F
:10215800FB73FB7B7A68D3181B78302BF5D022E011
:10216800FB7B7A68D3181B782F2B1AD9FB7B7A68EC
:10217800D3181B78392B14D8BA6813464FEA83034F
:102188009B184FEA43031A46FB7B7968CB181B78E8
:10219800D318A3F13003BB60FB7B03F10103FB738E
:1021A80001E0BB6806E0FB7B7A68D3181B78002B3C
:1021B800D6D1BB68184607F11407BD4680BC7047E6
:1021C80080B489B000AF786039607B681B68FB61B8
:1021D800FB69002B02D14FF0000330E0FB697B6103
:1021E800FB691B783B61FB6903F10103FB613B68F9
:1021F800BB61BB691B78FB60FA683B699A4214BFF4
:1022080000230123DBB2BA6902F10102BA61002B93
:1022180011D03B69002B03D14FF00003FB6105E0AF
:10222800FB6903F1FF334FF000021A707B68FA690B
:102238001A607B6903E0FB68002BDAD1D0E7184607
:1022480007F12407BD4680BC704700BF80B586B043
:1022580000AF164B1A683B4603F1080310464FF0CF
:1022680000011A464FF0100305F054FA03467B604C
:102278007B68002B0CD00AF049FE03463B600C4BF0
:102288001A683B46104619464FF0180200F0E4FB66
:102298007B68102BDDD007F0D1FF034618464FF0BE
:1022A80001014FF0FF3207F07FF9D2E75008002014
:1022B80048080020636861725F7465726D000000F1
:1022C8007465726D5F7363616E0000000D0ABBB6C2
:1022D800D3ADCAB9D3C3B6BCBDADD1DFB2D9D7F778
:1022E800CFB5CDB30D0A00002020B0E6B1BEB1E0F5
:1022F800D2EBCAB1BCE4A3BA25732025730D0A003A
:102308004E6F7620323720323031320030303A305A
:10231800323A3334000000003E0000000D0A00008D
:102328000820080080B588B004AF78607B68002B6F
:1023380002D14FF0FF3378E03E484FF000014FF0F4
:10234800000200F00BFB02463B4B1A603A4B1B683D
:10235800B3F1FF3F66D04FF001004FF001014FF09D
:10236800000204F0EFFB0246344B1A60334B1B6843
:10237800002B50D04FF001030093314B01934FF4E1
:10238800806302932F4B03934FF001004FF08201BB
:102398004FF000024FF0000306F0C4FA0346FB8139
:1023A800FA894FF6FF739A4230D0FA8907F104038D
:1023B8004FF0040100914FF0000101914FF000012E
:1023C800029110464FF000014FF0000207F0CAF9E1
:1023D80003461A464FF6FF739A4211D07B681A4695
:1023E800194B1A60194800F0F9F8194819491A4A9E
:1023F80000F0F4F8194800F0F1F80F4B1B6814E0EE
:1024080000BFFB89184606F0BDFC00E000BF094884
:1024180000F096FB00E000BF084B1B68184604F06C
:1024280089FD00E000BF4FF0FF33184607F11007A1
:10243800BD4680BDBC220008480800205408002082
:1024480055220008C822000850080020D42200089D
:10245800F02200080823000814230008202300089D
:1024680080B584B000AF4FF0000007F065FE03466A
:10247800FB60FB68002B15D100E000BF07F0DEFE13
:10248800034618464FF0010144F6206207F08CF825
:102498004FF0000007F050FE0346FB60FB68002B7E
:1024A800EBD000BFFB6803F10803BB600E4B1B6851
:1024B800BA68D218127A7A6003F101020A4B1A60DC
:1024C800BB685A68084B1B689A4207D1064B4FF005
:1024D80000021A604FF0000008F03AF97B681846CD
:1024E80007F11007BD4680BD4C08002080B584B0B8
:1024F80000AF786039604FF00003FB73274B1B680F
:1025080018464FF0FF3104F0EFFB07F097FE034643
:102518002348194600F080FA02E000BF00E000BF3F
:10252800FFF79EFF0346BB73BB7B0D2B02D0BB7B23
:102538000A2B13D1FB7B3A68D3184FF000021A70AC
:10254800184800F04BF8154B1B68184604F058FB68
:10255800FB7B184607F11007BD4680BDBB7B082BE7
:102568000AD1FB7B002BD8D0FB7B03F1FF33FB7335
:102578000D4800F033F8D3E7FB7BFF2BCFD0BB7BB4
:10258800184600F013F8FB7B3A68D318BA7B1A7028
:10259800FB7B03F10103FB73C2E700BF5408002073
:1025A800BC220008242300082823000880B582B034
:1025B80000AF0346FB71084B1A6807F10703104682
:1025C80019464FF000024FF0010305F0D7F807F164
:1025D8000807BD4680BD00BF500800200FB480B575
:1025E8008AB000AF4FF000033B624FF02003FB7747
:1025F80007F134033B6053E14FF000033B624FF0B7
:102608002003FB773B6B1B78252B09D03B6B1B7892
:102618003A6B02F101023A631846FFF7C7FF3FE140
:102628003B6B03F101033B633B6B1B78202B03D00F
:102638003B6B1B78302B1AD13B6B1B78FB773B6BC2
:1026480003F101033B6313E03A6A13464FEA83033D
:102658009B184FEA43031A463B6B1B78D318A3F128
:1026680030033B623B6B03F101033B6300E000BFB7
:102678003B6B1B78302B03D93B6B1B78392BE3D989
:102688003B6B1B78A3F16403142B00F2FF8001A2BB
:1026980052F823F0B9270008952800089528000863
:1026A800952800089528000895280008952800080E
:1026B80095280008952800089528000895280008FE
:1026C80095280008952800089528000895280008EE
:1026D800F1260008952800084B27000895280008CF
:1026E80095280008272800083B6803F104023A608F
:1026F8001B687B62786A0CF0FFF80346BB61BA6915
:102708003B6A9A4217D207E04FF02000FFF74EFFCE
:102718003B6A03F1FF333B62BA693B6A9A42F3D3DF
:102728000AE07B6A1B781846FFF740FF7B6A03F1D3
:1027380001037B6200E000BF7B6A1B78002BF0D1AD
:10274800AAE03B6803F104023A601B687B6107F169
:102758000403786919464FF00A02FFF725FB07F1D1
:10276800040318460CF0C8F8B861BA693B6A9A4283
:102778000CD207E0FB7F1846FFF718FF3B6A03F10E
:10278800FF333B62BA693B6A9A42F3D307F1040309
:102798007B6208E07B6A1B781846FFF707FF7B6AB5
:1027A80003F101037B627B6A1B78002BF2D173E093
:1027B8003B6803F104023A601B687B6107F104037C
:1027C800786919466FF00902FFF7EEFA07F104037A
:1027D80018460CF091F8B861BA693B6A9A420CD273
:1027E80007E0FB7F1846FFF7E1FE3B6A03F1FF3382
:1027F8003B62BA693B6A9A42F3D307F104037B62EE
:1028080008E07B6A1B781846FFF7D0FE7B6A03F165
:1028180001037B627B6A1B78002BF2D13CE03B68AA
:1028280003F104023A601B687B6107F104037869CD
:1028380019464FF01002FFF7B7FA07F104031846DC
:102848000CF05AF8B861BA693B6A9A420CD207E0B0
:102858004FF03000FFF7AAFE3B6A03F1FF333B62FB
:10286800BA693B6A9A42F3D307F104037B6208E032
:102878007B6A1B781846FFF799FE7B6A03F1010310
:102888007B627B6A1B78002BF2D105E03B6B1B78DF
:102898001846FFF78BFE00BF3B6B03F101033B6358
:1028A8003B6B1B78002B7FF4A7AE4FF00103184653
:1028B80007F12807BD46BDE8804004B0704700BF57
:1028C800737464696E20696E7075742064657669C6
:1028D80063650000CAE4C8EBC9E8B1B8BFD8D6C67A
:1028E800BFE9C4DAB4E6B3D800000000C4DAB4E63D
:1028F800B2BBD7E30000000080B584B002AF7860B7
:1029080010484FF02C01104A02F0C8F903461A4645
:102918000E4B1A604FF0000300930D4B01930D48C6
:102928004FF003014FF02C024FF0000302F08AFC35
:102938000246094B1A604FF00103184607F10807D1
:10294800BD4680BD60080020C82800085C0800203B
:10295800DC280008900800208C08002080B586B08C
:1029680000AFF8600B467A60FB72254B1B6818466F
:10297800F96802F049FB0346002B02D04FF0FF3301
:1029880038E0204B1B6818464FF0000102F004FDA8
:1029980003467B617B69002B26D0194B1B681A46BE
:1029A8007B69104619464FF02C02FB6802F0BAF911
:1029B8007B69FA7A1A767A687B699A627B694FF042
:1029C80000021A62104B1A887B699A840F4B1B68A5
:1029D80003F101020D4B1A600C4B1B681A467B6908
:1029E800DA617B69DB6905E009480A4905F040FEC0
:1029F8004FF0FF33184607F11807BD4680BD00BFEA
:102A08005C0800208C0800202C07002058080020B3
:102A180003000003F428000880B584B000AF786094
:102A28000B467B800B4B1B681846796802F0ECFA62
:102A38000346FB60FB68002B05D0FB687A889A8404
:102A48004FF0010301E04FF00003184607F11007AB
:102A5800BD4680BD5C080020B0B594B004AFF860F6
:102A6800B9607A60344B1B687B63334B1B68FB632C
:102A780006E03B6BDA69FB689A420AD03B6BFB6362
:102A8800786BF96B02F06CFA38633B6B002BF0D172
:102A980000E000BF3B6B002B02D14FF0000345E084
:102AA8003B6B9B8C7B873B6B1A6A02F101021A62B3
:102AB8007A8F4FF6FF739A4202D1204B1B887B878F
:102AC8007A8F4FF6FF739A422ED0BB6807F118042D
:102AD8001D460FCD0FC495E8030084E803003B6B47
:102AE8001B7E3B743B6BDB697B617A8F07F11003BC
:102AF8004FF0200100914FF0020101914FF00001C9
:102B0800029110464FF000014FF0000206F02AFE35
:102B180003461A464FF6FF739A4204D142F21070E8
:102B280006F060FCE1E700BF4FF00103184607F12B
:102B38004007BD46B0BD00BF5C0800202C07002040
:102B480080B584B000AF7860124B1B68184679686E
:102B580002F05AFA0346FB60FB68002B02D14FF0E3
:102B6800000312E0FB68BB60B86802F031F9034665
:102B7800002B08D0084B1B681846F96802F0D2FCF5
:102B88004FF0010301E04FF00003184607F110076A
:102B9800BD4680BD5C0800208C0800207368656C09
:102BA8006C0000003332CEBBD1ADBBB7B1E4C1BFBE
:102BB8002025646E530D0A003136CEBBD1ADBBB7AC
:102BC800B1E4C1BF2025646E530D0A0038CEBBD1D5
:102BD800ADBBB7B1E4C1BF2025646E530D0A000038
:102BE800C3BBD5D2B5BD20257320D7CAD4B4CAF784
:102BF8000D0A00000D0A00002573000025730D0A58
:102C080000000000CEDEC3FBD7CAD4B40D0A000012
:102C1800200000000D0AB8F1CABDB4EDCEF3A3AC94
:102C2800D5FDC8B7B8F1CABDCAC7A3BA0D0A3E6474
:102C380020B5D8D6B720B5A5D4AACAFD20C3BFB53C
:102C4800A5D4AAD7D6BDDACAFD0D0A003078253832
:102C5800783A0000253278200000000025347820DA
:102C68000000000025387820000000002538780092
:102C78000D0AB2CECAFDB4EDCEF30D0A0000000075
:102C88004442585F6E616D655B3A5D2020202020CC
:102C980020202020BDF8C8EBD6B8B6A8CEC4BCFE0C
:102CA800B9F1C3FBB8F9C4BFC2BC0D0A00000000EB
:102CB800202020202020202020202020202020200C
:102CC80020202020C0FDC8E7A3BA44A3BA20BDF83D
:102CD800C8EB44CEC4BCFEB9F1B8F9C4BFC2BC0D40
:102CE8000A00000063642F63686469725BCEC4BC29
:102CF800FEB9F1A3BA5DC2B7BEB620CFD4CABEB57D
:102D0800B1C7B0C4BFC2BCB5C4C3FBB3C6BBF2B87D
:102D1800C4B1E4B5B1C7B0C4BFC2BC0D0A0000005D
:102D2800202020202020202020202020202020209B
:102D380020202020C0FDC8E73A20312963642043C1
:102D48003A5C666F6C64657220BDF8C8EB666F6CA0
:102D5800646572C4BFC2BC0D0A0000002020202098
:102D6800202020202020202020202020202020205B
:102D78002020202020203229636420666F6C64653F
:102D88007220BDF8C8EB666F6C646572C4BFC2BCC4
:102D98000D0A000063642F63686469725B5D28BF75
:102DA800D5D7D6B7FB2920CFD4CABEB5B1C7B0C4D2
:102DB800BFC2BCC3FBB3C60D0A00000063642F6327
:102DC800686469725B5C5D2020202020202020B888
:102DD800FCBBBBB5BDB8F9C4BFC2BC0D0A0000003E
:102DE80063642F63686469725B2E2E5D2020202047
:102DF800202020B8FCBBBBB5BDC9CFD2BBBCB6C474
:102E0800BFC2BC0D0A000000202020202020202066
:102E18002020202020202020202020C0FDC8E73AA4
:102E28002031296364202E2E5C2E2E20BDF8C8EB9D
:102E3800C9CFC1BDBCB6B5C4C4BFC2BC200D0A0051
:102E4800202020202020202020202020202020207A
:102E580020202020202020202032296364202E2EAC
:102E68005C666F6C64657220BDF8C8EBC9CFD2BBD5
:102E7800BCB6C4BFC2BCD6D0BAACD3D0666F6C6483
:102E88006572B5C4C4BFC2BC200D0A00646972096A
:102E98005BCEC4BCFEB9F1A3BA5DC2B7BEB62020F2
:102EA8005BCEC4BCFEB9F1A3BA5DC2B7BEB62E2EC6
:102EB8002E202E2E2E0D0A0020202020202020201B
:102EC80020202020CFD4CABED6B8B6A8C4BFC2BC62
:102ED800CFC2B5C4CEC4BCFEBACDD7D3C4BFC2BC62
:102EE800C1D0B1ED0D0A0000646972095BCEC4BCA3
:102EF800FEB9F1A3BA5D5BBAACD3D0CDA8C5E4B72F
:102F0800FBC2B7BEB65D5BCEC4BCFEB9F1A3BA5D69
:102F18005BBAACD3D0CDA8C5E4B7FBC2B7BEB65D2B
:102F28002E2E2E202E2E2E0D0A00000020202020CE
:102F38002020202020202020CFD4CABED6B8B6A872
:102F4800C4BFC2BCCFC2C6A5C5E4B5C4CEC4BCFE0E
:102F5800BACDD7D3C4BFC2BCC1D0B1ED0D0A0000F1
:102F6800646972095B5C5D5B5C5D2E2E2E202E2EE3
:102F78002E09CFD4CABEB8F9C4BFC2BCCFC2D2BB17
:102F8800BCB6B5C4CEC4BCFEBACDD7D3C4BFC2BCD0
:102F9800C1D0B1ED0D0A0000646972095B2E2E5D87
:102FA8005B2E2E5D2E2E2E202E2E2E09CFD4CABE9D
:102FB800B5B1C7B0C4BFC2BCC9CFD2BBBCB6B5C41B
:102FC800CEC4BCFEBACDD7D3C4BFC2BCC1D0B1ED4C
:102FD8000D0A0000646972095B5D28BFD5D7D6B7B2
:102FE800FB29202020202020CFD4CABEB5B1C7B0ED
:102FF800C4BFC2BCCFC2B5C4CEC4BCFEBACDD7D341
:10300800C4BFC2BCC1D0B1ED0D0A000052656E2F1D
:1030180072656E616D65205BCEC4BCFEB9F13A5D28
:103028005BC2B7BEB65DCEC4BCFEC3FB3120CEC406
:10303800BCFEC3FB320D0A0063686B64627820CE65
:10304800C4BCFEC3FB20CFD4CABEB8C3CEC4BCFE2A
:10305800B9F1CFC2B5C4CEC4BCFEB9F1CAF4D0D45C
:103068000D0A00000D0AD3D0B9D8C4B3B8F6C3FC12
:10307800C1EEB5C4CFEACFB8D0C5CFA2A3ACC7EBD9
:10308800CAE4C8EB68656C70205BC4B3B8F6C3FCCF
:10309800C1EE5D0D0A0000006C6973742D727363D4
:1030A8002020202020202020C1D0B3F6CFB5CDB3DA
:1030B800D6D0B5C4D7CAD4B4C3FBD7D6BACDB2E339
:1030C800B4CEB9D8CFB50D0A00000000737065659D
:1030D800642020202020202020202020B2E2C1BF10
:1030E800D1ADBBB7D4CBD0D0CBD9B6C80D0A000070
:1030F8006576656E74202020202020202020202046
:10310800CFD4CABECAC2BCFEB1ED0D0A0000000091
:103118006576747420202020202020202020202064
:10312800CFD4CABECAC2BCFEC0E0D0CDB1ED0D0A34
:1031380000000000686561702020202020202020E9
:1031480020202020CFD4CABECFB5CDB3B6D1CAB9BE
:10315800D3C3C7E9BFF60D0A0000000073746163AA
:103168006B2020202020202020202020CFD4CABE61
:10317800CFB5CDB3D6D0CBF9D3D0D2D1BEADB7D69B
:10318800C5E4CFDFB3CCB5C4CAC2BCFEB5C4D5BB99
:10319800D0C5CFA20D0A00006C6F636B20202020E1
:1031A8002020202020202020CFD4CABECFB5CDB3E8
:1031B800D6D0CBF9D3D0D0C5BAC5C1BFBACDBBA57F
:1031C800B3E2C1BFB5C4D0C5CFA20D0A000000004C
:1031D80064202020202020202020202020202020A3
:1031E800B6C1C8A1C4DAB4E6C0EFB5C4CAFDBEDD35
:1031F8000D0A0000662020202020202020202020EA
:1032080020202020D0B4CAFDBEDDB5BDC4DAB4E6A6
:103218000D0A000068656C702020202020202020E6
:1032280020202020444A594F53B5C4C3FCC1EEB0F6
:10323800EFD6FAD0C5CFA20D0A000000766572203D
:10324800202020202020202020202020CFD4CABECB
:10325800646A796F73B5C4B0E6B1BE0D0A000000A8
:103268006461746520202020202020202020202038
:10327800CFD4CABEBBF2D5DFC9E8D6C3C8D5C6DA33
:103288000D0A000074696D65202020202020202070
:1032980020202020CFD4CABEB5B1C7B0CAB1BCE483
:1032A800BBF2D5DFC9E8D6C3CAE4C8EBD0C2CAB1FD
:1032B800BCE40D0A000000006364202020202020C8
:1032C8002020202020202020CFD4CABEB5B1C7B0EE
:1032D800C4BFC2BCB5C4C3FBB3C6BBF2BDABC6E476
:1032E800B8FCB8C40D0A00006D64202020202020FE
:1032F8002020202020202020B4B4BDA8D2BBB8F6BE
:10330800C4BFC2BC0D0A00006D6B64697220202026
:103318002020202020202020B4B4BDA8D2BBB8F69D
:10332800C4BFC2BC0D0A00007264202020202020E7
:103338002020202020202020C9BEB3FDD2BBB8F613
:10334800C4BFC2BC0D0A0000726D646972202020DF
:103358002020202020202020C9BEB3FDD2BBB8F6F3
:10336800C4BFC2BC0D0A0000636F70792020202002
:103378002020202020202020B8B4D6C6D2BBB8F602
:10338800CEC4BCFE0D0A00006D6F7665202020209B
:103398002020202020202020BDABD2BBB8F6BBF2D5
:1033A800B6E0B8F6CEC4BCFED2C6B6AFB5BDD6B888
:1033B800B6A8C4BFC2BCCFC20D0A000072656E2099
:1033C800202020202020202020202020D6D8C3FC08
:1033D800C3FBD2BBB8F6CEC4BCFE0D0A0000000089
:1033E80072656E616D65202020202020202020201D
:1033F800D6D8C3FCC3FBD2BBB8F6CEC4BCFE0D0AFC
:103408000000000064656C2020202020202020205F
:1034180020202020C9BEB3FDD6C1C9D9D2BBB8F679
:10342800CEC4BCFE0D0A0000646972202020202052
:103438002020202020202020CFD4CABED6B8B6A86D
:10344800C4BFC2BCCFC2B5C4CEC4BCFEBACDD7D3EC
:10345800C4BFC2BCC1D0B1ED0D0A0000CEC4BCFED1
:10346800CFB5CDB3B2C1B3FDD3EBD6D8BDA8C3FC9D
:10347800C1EEA3A8C9F7D3C3A3A1A3A90D0A00004D
:10348800636869702D657261736520202020202093
:10349800B2C1B3FD4E414E44464C415348D0BEC61E
:1034A800ACD6D0CBF9D3D0C4DAC8DD0D0A00000001
:1034B8006372656174652D64627820202020202065
:1034C800B4B4BDA8CEC4BCFEB9F10D0A000000001A
:1034D800666F726D6174202020202020202020201B
:1034E800B8F1CABDBBAFCEC4BCFECFB5CDB30D0AD3
:1034F8000000000063686B64627820202020202090
:1035080020202020CFD4CABECEC4BCFEB9F1BFD57E
:10351800BCE4B5C4B2CECAFD0D0A00006364000065
:10352800646972007264000072656E006D64000068
:1035380064656C747265650064656C00636F7079AE
:10354800000000006D6F76650000000063686B6422
:10355800627800007665720074696D65000000008D
:103568006461746500000000636863700000000017
:10357800666F726D61740000636C7300B2CECAFD31
:10358800B4EDCEF30D0A00000D0A25730D0A0000F4
:10359800444A594F53A3A8323030342D3230313297
:1035A800A3A920312E302E302E3230313230373030
:1035B800310000000D0AB5B1C7B0C8D5C6DAA3BA44
:1035C80025642F253032642F25303264202573007E
:1035D8000D0ACAE4C8EBD0C2C8D5C6DAA3BA00003F
:1035E8002C0000003A000000C4EAB7DDB4EDCEF3C9
:1035F800A1A30000D4C2B7DDB4EDCEF3A1A30000AF
:10360800C8D5C6DAB4EDCEF3A1A300000D0AB5B152
:10361800C7B0CAB1BCE4A3BA253032643A25303207
:10362800643A2530326400000D0ACAE4C8EBD0C2FF
:10363800CAB1BCE4A3BA00002F000000D0A1CAB1EF
:10364800B4EDCEF3A1A30000B7D6D6D3B4EDCEF334
:10365800A1A30000C3EBD6D3B4EDCEF3A1A3000021
:1036680064656275675F696E666F00006C69737484
:103678002D727363000000007370656564000000BC
:103688006576656E7400000065767474000000004D
:103698006865617000000000737461636B0000006E
:1036A8006C6F636B0000000064000000660000009F
:1036B80068656C7000000000CAE4C8EBD7D6B7FB99
:1036C800B4AECCABB3A40D0A000000006E6F74203A
:1036D80066696C652073797374656D000D0ACEDEBA
:1036E800B4CBC3FCC1EE0D0A0000000080B588B061
:1036F80004AF78604FF0010300931F4B01934FF420
:10370800405302931D4B03934FF001004FF0820189
:103718004FF000024FF0000305F004F90346FB8167
:10372800FA894FF6FF739A4202D14FF000031EE068
:10373800FB894FF0000200924FF0000201924FF017
:103748000002029218464FF000014FF000024FF0BD
:10375800000306F007F803461A464FF6FF739A422D
:1037680003D1FB89184605F00DFB4FF001031846FD
:1037780007F11007BD4680BD3D4B0008A42B00088B
:1037880080B582B000AF78604FF0040009F00CFCFF
:1037980003460E481946FEF721FF4FF0020009F0D4
:1037A80003FC03460A481946FEF718FF4FF00100CC
:1037B80009F0FAFB034607481946FEF70FFF4FF0DA
:1037C8000103184607F10807BD4680BDAC2B000869
:1037D800C02B0008D42B000880B584B000AF7860F7
:1037E8007B68002B02D100F019F80EE0786801F030
:1037F80043FBF860FB68002B04D107487968FEF7A3
:10380800EDFE02E0F86800F017F84FF001031846E3
:1038180007F11007BD4680BDE82B000880B582B0CF
:1038280000AF01F01FFB7860786800F005F807F139
:103838000807BD4680BD00BF80B58AB000AF78607C
:103848007B687B624FF000033B620AE007F10C02E1
:103858003B6AD3184FF02D021A703B6A03F101033B
:103868003B623B6A132BF1D97868796A01F078FBDF
:1038780078627B6A002B06D11648FEF7AFFE07F187
:103888002807BD4680BD786A01F034FB386207F12D
:103898000C023B6AD3184FF000021A7007F10C03B0
:1038A8000D481946FEF79AFE07F10C023B6AD31839
:1038B8004FF02D021A707B6A5B69002B06D07B6A79
:1038C8005B6906481946FEF789FECDE70448FEF70E
:1038D80085FEC9E7FC2B0008002C0008042C000812
:1038E8000C2C000880B58AB000AF786007F104039B
:1038F80018469149FEF764FCF86107F1040318467D
:103908008D49FEF75DFCB86107F1040318468A4942
:10391800FEF756FC786107F1040318468649FEF75E
:103928004FFC3861FB69002B08D0BB69002B05D020
:103938007B69002B02D03B69002B05D07F48FEF73E
:103948004DFE4FF00003F2E0F869FEF77FFB786266
:10395800B869FEF77BFBF8607869FEF777FBB8601B
:10396800BB6803F1FF33072B00F2D68001A252F89F
:1039780023F000BF9D390008F3390008213B0008F7
:10398800513A0008213B0008213B0008213B000870
:10399800AF3A00086A48796AFEF720FE4FF0000344
:1039A8003B621DE07B6A1B7866481946FEF716FEE7
:1039B8007B6A03F101037B627B6A03F00703002B38
:1039C8000AD16148FEF70AFE3A6AFB689A4203D0B8
:1039D8005B48796AFEF702FE3B6A03F101033B622A
:1039E8003A6AFB689A42DDD39CE07B6A23F00103C4
:1039F8007B625348796AFEF7F1FD4FF000033B62A2
:103A08001DE07B6A1B8851481946FEF7E7FD7B6A73
:103A180003F102037B627B6A03F00F03002B0AD1D8
:103A28004948FEF7DBFD3A6AFB689A4203D04448EE
:103A3800796AFEF7D3FD3B6A03F101033B623A6AF8
:103A4800FB689A42DDD36DE07B6A23F003037B6257
:103A58003B48796AFEF7C2FD4FF000033B621DE068
:103A68007B6A1B683A481946FEF7B8FD7B6A03F182
:103A780004037B627B6A03F01F03002B0AD13248E0
:103A8800FEF7ACFD3A6AFB689A4203D02C48796A83
:103A9800FEF7A4FD3B6A03F101033B623A6AFB6847
:103AA8009A42DDD33EE07B6A23F007037B62244819
:103AB800796AFEF793FD4FF000033B6227E07B6ACB
:103AC8001B6824481946FEF789FD7B6A03F1040345
:103AD8007B627B6A1B681E481946FEF77FFD7B6A7E
:103AE80003F104037B627B6A03F03F03002B0AD1D6
:103AF8001548FEF773FD3A6AFB689A4203D01048EE
:103B0800796AFEF76BFD3B6A03F101033B623A6A8F
:103B1800FB689A42D3D305E00F48FEF75FFD4FF0EC
:103B2800000304E00848FEF759FD4FF0010318466A
:103B380007F12807BD4680BD182C00081C2C00087A
:103B4800542C00085C2C0008FC2B0008642C00088E
:103B58006C2C0008742C0008782C000880B588B0FC
:103B680000AF786007F1040318464749FEF728FBC1
:103B780078617869FEF76AFAF86107F10403184674
:103B88004149FEF71DFB78617869FEF75FFA3861F5
:103B980007F1040318463C49FEF712FB786178697F
:103BA800FEF754FAF86007F1040318463649FEF7A1
:103BB80007FB78617869FEF749FAB860FB68022B61
:103BC8001CD0042B37D0012B51D13048F969FEF7AE
:103BD80005FD4FF00003BB610BE0FB69BA68D2B288
:103BE8001A70FB6903F10103FB61BB6903F101036F
:103BF800BB61BA693B699A42EFD33EE0FB6923F0A7
:103C08000103FB612148F969FEF7E8FC4FF0000366
:103C1800BB610BE0FB69BA6892B21A80FB6903F1D9
:103C28000203FB61BB6903F10103BB61BA693B692C
:103C38009A42EFD321E0FB6923F00303FB611348A9
:103C4800F969FEF7CBFC4FF00003BB610AE0FB69A2
:103C5800BA681A60FB6903F10403FB61BB6903F1ED
:103C68000103BB61BA693B699A42F0D305E0084891
:103C7800FEF7B4FC4FF0000301E04FF001031846D3
:103C880007F12007BD4680BD182C0008542C0008F9
:103C9800782C000880B5C6B000AF07F10C03186097
:103CA80007F10803196007F104031A604FF00003D5
:103CB800C7F8143107F10C031B68002B02D14FF031
:103CC800000386E007F104031B684FF000021A6046
:103CD8004FF00003C7F8143117E007F10C031A6816
:103CE800D7F81431D3181B78202B12D007F10C0306
:103CF8001A68D7F81431D3181B78002B09D0D7F8D5
:103D0800143103F10103C7F81431D7F81431FE2B2D
:103D1800E3D907F1140207F10C0310461968D7F824
:103D280014210AF0F1FA07F11402D7F81431D31864
:103D38004FF000021A7007F1140207F10803104649
:103D480019680AF08DFC0346002B36D04FF00003AB
:103D58003FE007F10C031A68D7F81431D3181B7821
:103D6800202B23D007F10C031A68D7F81431D31885
:103D78001B780A2B08D007F10C031A68D7F81431FE
:103D8800D3181B780D2B06D107F104031B684FF0DD
:103D980000021A601BE007F10C031A68D7F8143107
:103DA800D21807F104031B681A6010E0D7F8143121
:103DB80003F10103C7F8143100E000BF07F10C0359
:103DC8001A68D7F81431D3181B78002BC1D14FF0DB
:103DD8000103184607F58C77BD4680BD80B500AF56
:103DE8000F48FEF7FBFB0F48FEF7F8FB0E48FEF7FF
:103DF800F5FB0E48FEF7F2FB0D48FEF7EFFB0D480A
:103E0800FEF7ECFB0C48FEF7E9FB0C48FEF7E6FB77
:103E18000B48FEF7E3FB0B48FEF7E0FB80BD00BF55
:103E2800882C0008B82C0008EC2C0008282D000865
:103E3800642D00089C2D0008C42D0008E82D0008FA
:103E4800102E0008482E000880B500AF0A48FEF77B
:103E5800C5FB0A48FEF7C2FB0948FEF7BFFB094845
:103E6800FEF7BCFB0848FEF7B9FB0848FEF7B6FBAF
:103E78000748FEF7B3FB80BD942E0008C02E00084B
:103E8800F02E0008342F0008682F0008A02F000823
:103E9800DC2F000880B500AF0948FEF79FFB0848F3
:103EA800FEF79CFB0648FEF799FB0548FEF796FBD4
:103EB8000348FEF793FB0248FEF790FB80BD00BF66
:103EC800FC2B000880B500AF0948FEF787FB0848BF
:103ED800FEF784FB0648FEF781FB0548FEF77EFBEC
:103EE8000348FEF77BFB0248FEF778FB80BD00BF66
:103EF800FC2B000880B500AF0948FEF76FFB0848A7
:103F0800FEF76CFB0648FEF769FB0548FEF766FB03
:103F18000348FEF763FB0248FEF760FB80BD00BF65
:103F2800FC2B000880B500AF0948FEF757FB08488E
:103F3800FEF754FB0648FEF751FB0548FEF74EFB1B
:103F48000348FEF74BFB0248FEF748FB80BD00BF65
:103F5800FC2B000880B500AF0948FEF73FFB084876
:103F6800FEF73CFB0648FEF739FB0548FEF736FB33
:103F78000348FEF733FB0248FEF730FB80BD00BF65
:103F8800FC2B000880B500AF0948FEF727FB08485E
:103F9800FEF724FB0648FEF721FB0548FEF71EFB4B
:103FA8000348FEF71BFB0248FEF718FB80BD00BF65
:103FB800FC2B000880B500AF0148FEF70FFB80BD61
:103FC8004030000880B500AF0948FEF707FB0848F5
:103FD800FEF704FB0648FEF701FB0548FEF7FEFA6C
:103FE8000348FEF7FBFA0248FEF7F8FA80BD00BF67
:103FF800FC2B000880B500AF0948FEF7EFFA084827
:10400800FEF7ECFA0648FEF7E9FA0548FEF7E6FA85
:104018000348FEF7E3FA0248FEF7E0FA80BD00BF66
:10402800FC2B000880B500AF0948FEF7D7FA08480E
:10403800FEF7D4FA0648FEF7D1FA0548FEF7CEFA9D
:104048000348FEF7CBFA0248FEF7C8FA80BD00BF66
:10405800FC2B000880B500AF0948FEF7BFFA0848F6
:10406800FEF7BCFA0648FEF7B9FA0548FEF7B6FAB5
:104078000348FEF7B3FA0248FEF7B0FA80BD00BF66
:10408800FC2B000880B500AF0948FEF7A7FA0848DE
:10409800FEF7A4FA0648FEF7A1FA0548FEF79EFACD
:1040A8000348FEF79BFA0248FEF798FA80BD00BF66
:1040B800FC2B000880B500AF0948FEF78FFA0848C6
:1040C800FEF78CFA0648FEF789FA0548FEF786FAE5
:1040D8000348FEF783FA0248FEF780FA80BD00BF66
:1040E800FC2B000880B500AF3148FEF777FA31485D
:1040F800FEF774FA3048FEF771FA3048FEF76EFAA8
:104108002F48FEF76BFA2F48FEF768FA2E48FEF79D
:1041180065FA2E48FEF762FA2D48FEF75FFA2D4839
:10412800FEF75CFA2C48FEF759FA2C48FEF756FAC7
:104138002B48FEF753FA2B48FEF750FA2A48FEF7A9
:104148004DFA1C48FEF74AFA2848FEF747FA28486D
:10415800FEF744FA2748FEF741FA2748FEF73EFAE9
:104168002648FEF73BFA2648FEF738FA2548FEF7B8
:1041780035FA2548FEF732FA2448FEF72FFA244884
:10418800FEF72CFA2348FEF729FA0A48FEF726FA22
:104198002148FEF723FA2148FEF720FA2048FEF7C7
:1041A8001DFA2048FEF71AFA1F48FEF717FA80BDD5
:1041B8006C300008FC2B0008A0300008D430000840
:1041C800F8300008183100083C3100086431000854
:1041D800A0310008D8310008FC3100081C32000862
:1041E80044320008683200088C320008C0320008E7
:1041F800F03200081033000830330008503300084C
:104208007033000890330008C4330008E83300080E
:104218000C3400083034000864340008883400087E
:10422800B8340008D8340008FC34000880B584B0DD
:1042380000AF786007F10C0378686E491A46FFF7FB
:1042480029FD0346012B02D1FFF7C8FDCBE007F19A
:104258000C03786868491A46FFF71CFD0346012BD2
:1042680002D1FFF7F1FDBEE007F10C03786863495E
:104278001A46FFF70FFD0346012B02D1FFF70AFE8E
:10428800B1E007F10C0378685D491A46FFF702FDB3
:104298000346012B02D1FFF7FDFDA4E007F10C0353
:1042A800786858491A46FFF7F5FC0346012B02D1F6
:1042B800FFF708FE97E007F10C03786852491A46A1
:1042C800FFF7E8FC0346012B02D1FFF713FE8AE053
:1042D80007F10C0378684D491A46FFF7DBFC0346E3
:1042E800012B02D1FFF71EFE7DE007F10C03786871
:1042F80047491A46FFF7CEFC0346012B02D1FFF7C8
:1043080029FE70E007F10C03786842491A46FFF766
:10431800C1FC0346012B02D1FFF734FE63E007F12D
:104328000C0378683C491A46FFF7B4FC0346012B96
:1043380002D1FFF73FFE56E007F10C0378683749D2
:104348001A46FFF7A7FC0346012B02D1FFF73AFEF6
:1043580049E007F10C03786831491A46FFF79AFCDF
:104368000346012B02D1FFF775FE3CE007F10C0371
:1043780078682C491A46FFF78DFC0346012B02D1B9
:10438800FFF780FE2FE007F10C03786826491A46EC
:10439800FFF780FC0346012B02D1FFF72BFE22E03A
:1043A80007F10C03786821491A46FFF773FC0346A6
:1043B800012B02D1FFF736FE15E007F10C037868F0
:1043C8001B491A46FFF766FC0346012B02D1FFF78B
:1043D80071FE08E07B68002B02D1FFF783FE02E044
:1043E8001448FEF7FBF84FF00103184607F11007D1
:1043F800BD4680BD24350008283500082C35000846
:1044080030350008343500083835000840350008D4
:10441800443500084C350008543500085C35000860
:1044280060350008683500087035000878350008E0
:10443800803500088435000880B582B000AF786008
:1044480005480649FEF7CAF84FF00103184607F178
:104458000807BD4680BD00BF9035000898350008A4
:1044680090B5D5B002AF07F1040318604FF0000013
:1044780006F050FD07F5A073C3E9000107F58A733C
:10448800184607F5A071D1E9002306F0FDFAD7F820
:104498002811D7F82421D7F82031564CD7F82C0109
:1044A8004FEAC000201800905348FEF797F8534889
:1044B800FEF794F807F114034FF000001946FEF7D1
:1044C80015F8C7F83C01D7F83C31072B40F3878033
:1044D800D7F83C310A2B00F3828007F11403184601
:1044E8000AF00AFA034607F11402D3181846444999
:1044F8004FF0020209F008FFD7F81C2107F10C035E
:10450800104619464FF00A02FDF74EFC07F1140257
:1045180007F10C031046194609F0F8FF07F11403D8
:1045280018460AF0E9F9034607F11402D3181846A9
:1045380034494FF0020209F0E7FED7F8182107F1D5
:104548000C03104619464FF00A02FDF72DFC07F13F
:10455800140207F10C031046194609F0D7FF07F1BA
:10456800140318460AF0C8F9034607F11402D318D1
:10457800184624494FF0020209F0C6FED7F8142164
:1045880007F10C03104619464FF00A02FDF70CFC20
:1045980007F1140207F10C031046194609F0B6FF9B
:1045A80007F11403184606F083FBC7F83801D7F85B
:1045B800383113F1020F0AD0B3F1FF3F03D013F1E2
:1045C800030F08D00BE01048FEF708F807E00F4883
:1045D800FEF704F803E00E48FEF700F800BF0D48A8
:1045E800FDF7FCFF4FF00103184607F5A677BD4617
:1045F80090BD00BF08080020BC350008D835000869
:10460800E8350008EC350008F0350008FC350008EE
:1046180008360008FC2B000880B5D6B000AF07F1BB
:10462800040318604FF0000006F074FC07F5A87347
:10463800C3E9000107F59273184607F5A871D1E997
:10464800002306F021FAD7F82C11D7F82821D7F83B
:1046580024315F48FDF7C2FF5E48FDF7BFFF07F151
:1046680024034FF000001946FDF740FFC7F84C013E
:10467800D7F84C31042B40F3A180D7F84C31082BE4
:1046880000F39C8007F114034FF000021A7007F141
:10469800140207F12403104619460AF0CFF807F16F
:1046A80024034FF000021A70D7F8382107F10C03E1
:1046B800104619464FF00A02FDF776FB07F124026F
:1046C80007F10C031046194609F020FF07F12403EF
:1046D80018460AF011F9034607F12402D3181846C0
:1046E8003D494FF0020209F00FFED7F8342107F1D7
:1046F8000C03104619464FF00A02FDF755FB07F167
:10470800240207F10C031046194609F0FFFE07F1D1
:10471800240318460AF0F0F8034607F12402D318D8
:1047280018462D494FF0020209F0EEFDD7F8302166
:1047380007F10C03104619464FF00A02FDF734FB47
:1047480007F1240207F10C031046194609F0DEFEB2
:1047580007F1240318460AF0CFF8034607F12402AC
:10476800D31818461D494FF0020209F0CDFD07F194
:10477800240207F114031046194609F0C7FE07F191
:104788002403184606F094FAC7F84801D7F84831C8
:1047980013F1050F0AD013F1040F03D013F1060F1C
:1047A80008D00BE00E48FDF719FF07E00D48FDF7AC
:1047B80015FF03E00C48FDF711FF00BF0B48FDF79C
:1047C8000DFF4FF00103184607F5AC77BD4680BDD5
:1047D800143600083036000840360008E83500086E
:1047E80044360008503600085C360008FC2B0008E8
:1047F80080B483B000AF786016E07B681B78402BEC
:104808000AD97B681B785A2B06D87B681B7803F17A
:104818002003DAB27B681A707B6803F101037B60BE
:104828007B681B78202B04D07B681B78002BE4D195
:1048380000E000BF07F10C07BD4680BC704700BF11
:1048480080B588B004AF78604FF00003BB600F48B4
:1048580004F062FA0346FB81FA8907F108034FF076
:10486800040100914FF0000101914FF00001029105
:1048780010464FF000014FF0FF3204F073FF4FF085
:104888000103184607F11007BD4680BD68360008C9
:1048980080B588B004AF78604FF00103BB600F4863
:1048A80004F03AFA0346FB81FA8907F108034FF04E
:1048B800040100914FF0000101914FF000010291B5
:1048C80010464FF000014FF0FF3204F04BFF4FF05D
:1048D8000103184607F11007BD4680BD6836000879
:1048E80080B588B004AF78604FF00203BB600F4812
:1048F80004F012FA0346FB81FA8907F108034FF026
:10490800040100914FF0000101914FF00001029164
:1049180010464FF000014FF0FF3204F023FF4FF034
:104928000103184607F11007BD4680BD6836000828
:1049380080B588B004AF78604FF00303BB600F48C0
:1049480004F0EAF90346FB81FA8907F108034FF0FE
:10495800040100914FF0000101914FF00001029114
:1049680010464FF000014FF0FF3204F0FBFE4FF00D
:104978000103184607F11007BD4680BD68360008D8
:1049880080B588B004AF78604FF00403BB600F486F
:1049980004F0C2F90346FB81FA8907F108034FF0D6
:1049A800040100914FF0000101914FF000010291C4
:1049B80010464FF000014FF0FF3204F0D3FE4FF0E5
:1049C8000103184607F11007BD4680BD6836000888
:1049D80080B584B000AF7860786809F08DFF034631
:1049E800BB604FF00003FB6017E07A68FB68D318E0
:1049F8001B783A2B0DD1FB6803F101037A68D318B1
:104A08001B78002B02D04FF0010313E04FF0000396
:104A180010E0FB6803F10103FB60FA68BB689A4287
:104A2800E3D3FA68BB689A4202D14FF0010301E070
:104A38004FF00003184607F11007BD4680BD00BFC0
:104A480080B586B000AF78604FF00003FB754FF07B
:104A580000033B6178684FF4807109F07DFF0346DD
:104A6800FF2B02DD2E48FDF7B9FD7868FFF7C0FE81
:104A78007868FFF7ADFF0346002B05D12948FDF7FD
:104A8800ADFD4FF0010346E0274B3A6953F8322059
:104A980007F10C03786811461A46FFF7FBF803463E
:104AA800012B0BD1204A3B694FEAC303D3185B683B
:104AB800FA68104698470346FB7509E03B6903F11D
:104AC80001033B61184B3A6953F83230002BDBD1B4
:104AD800154B3A6953F83230002B1BD1134B1B6826
:104AE800002B06D11248FDF779FD4FF00003FB7546
:104AF80010E00E4B1B68786898470346002B06D1D8
:104B08000B48FDF76BFD4FF00003FB7502E04FF01B
:104B18000103FB75FB7D184607F11807BD4680BDEC
:104B2800C0360008D43600083007002014090020D9
:104B3800E436000880B5C0B000AF3B464FF0000037
:104B48001946FDF7D3FC3B461B78002B03D03B46A8
:104B58001846FFF775FF4FF03E00FDF727FDECE71D
:104B68007265736F75636520717565756500000002
:104B780073656D6170686F726520666F722072650B
:104B8800736F7563652071756575650080B483B052
:104B980000AF78600F4B104A5A610E4B4FF000027D
:104BA800DA600C4B0B4A1A600A4B0A4A5A60094BE6
:104BB8004FF000029A60074B4FF018021A61074B3A
:104BC800044A1A604FF00103184607F10C07BD4666
:104BD80080BC704718090020684B00083009002085
:104BE80080B582B000AF786007484FF001014FF000
:104BF8000102064B01F0E2FF4FF00103184607F1EE
:104C08000807BD4680BD00BF34090020784B000866
:104C180080B487B000AFF860B9607A60FB68002B99
:104C280002D14FF0000330E01B4B1A68FB689A6012
:104C3800FB684FF00002DA60FB68BA681A61FB682B
:104C48007A685A61144B1B68DB68002B0AD1124B37
:104C58001B68FA68DA60FB68FA681A60FB68FA6829
:104C68005A6011E00C4B1B68DB687B61FB687A6952
:104C78001A607B695A68FB685A607B695B68FA68E6
:104C88001A607B69FA685A60FB68184607F11C07C6
:104C9800BD4680BC704700BF3009002080B586B093
:104CA80000AFF860B9607A60FB68002B02D14FF062
:104CB80000032EE0194B1A68FB689A60FB684FF0F6
:104CC8000002DA60FB68BA681A61FB687A685A61A0
:104CD80013484FF0FF3102F007F80346002B02D1CA
:104CE8004FF0000315E00D4B1B68DB687B61FB6828
:104CF8007A691A607B695A68FB685A607B695B68E5
:104D0800FA681A607B69FA685A60054801F078FF0A
:104D1800FB68184607F11807BD4680BD300900201A
:104D28003409002080B586B000AFF860B9607A60B9
:104D38003B60FB68002B02D0BB68002B02D14FF010
:104D480000033DE021484FF0FF3101F0CDFF03465D
:104D5800002B02D14FF0000332E0BB687A681A6179
:104D6800BB683A685A61BB684FF00002DA60FB68BA
:104D7800DB68002B0CD1FB68BA68DA60BB68FA689C
:104D88009A60BB68BA681A60BB68BA685A6013E070
:104D9800FB68DB687B61BB687A691A607B695A6863
:104DA800BB685A60BB68FA689A607B695B68BA68D6
:104DB8001A607B69BA685A60044801F021FFBB6831
:104DC800184607F11807BD4680BD00BF340900200A
:104DD80080B584B000AF78607B68002B02D14FF0BB
:104DE800000338E01E484FF0FF3101F07DFF034615
:104DF800002B02D14FF000032DE07B68DB68002B0D
:104E080003D04FF00003FB6021E07B681A687B68E1
:104E18009A4205D17B689B684FF00002DA6014E083
:104E28007B689B68DA687B689A4204D17B689B68D8
:104E38007A681268DA607B685B687A6812681A6058
:104E48007B681B687A6852685A607B68FB60044814
:104E580001F0D6FEFB68184607F11007BD4680BD75
:104E68003409002080B400AF024B1B681846BD46C9
:104E780080BC70473009002080B584B000AF7860EE
:104E88004FF00003BB607B68002B02D14FF000039A
:104E980027E0164B1B68DB68FB6015484FF0FF31B5
:104EA80001F022FF0346002B02D14FF0000318E067
:104EB800FB685B691846796809F0D2FB0346002B4A
:104EC80002D1FB68BB6008E0FB681B68FB60074B0E
:104ED8001B68DA68FB689A42EAD1054801F090FE3F
:104EE800BB68184607F11007BD4680BD3009002091
:104EF8003409002080B584B000AF78604FF000031B
:104F0800FB607B68BB60BB68002B02D14FF0FF33AE
:104F18001DE011484FF0FF3101F0E6FE0346002B7B
:104F28000AD14FF0FF3312E0BB689B68BB60FB6897
:104F380003F10103FB6000E000BFBB689A68074B00
:104F48001B689A42F0D1044801F05AFEFB681846E3
:104F580007F11007BD4680BD340900203009002044
:104F680080B586B000AF786039604FF000037B6190
:104F78004FF00003FB737B68002B02D03B68002BCB
:104F880002D14FF0000338E01E484FF0FF3101F026
:104F9800ABFE0346002B02D14FF000032DE03A6828
:104FA8007B689A4203D17B68DB68002B21D03B6881
:104FB8003B61FB7B002B07D13B69DB68002B03D0EF
:104FC8003B69DB687B6114E03B691A683B699B6855
:104FD800DB689A4203D03B691B687B6109E03B6947
:104FE8009B683B614FF00103FB733A697B689A4207
:104FF800DFD1044801F004FE7B69184607F1180761
:10500800BD4680BD3409002080B584B000AF78600B
:1050180039604FF00003BB603B68002B02D07B680F
:10502800002B02D14FF000032CE019484FF0FF315C
:1050380001F05AFE0346002B02D14FF0000321E095
:105048007B68DB68FB60FB68002B03D14FF0000333
:10505800BB6013E0FB685B691846396809F000FB20
:105068000346002B02D1FB68BB6007E0FB681B68A6
:10507800FB607B68DA68FB689A42EBD1044801F070
:10508800BFFDBB68184607F11007BD4680BD00BFCD
:105098003409002080B588B000AF786039604FF0DF
:1050A8000003FB603B68002B02D07B68002B02D119
:1050B8004FF000037EE042484FF0FF3101F014FE4C
:1050C8000346002B02D14FF0000373E07B68DB68D6
:1050D8003B613B69002B05D1394801F091FD4FF048
:1050E800000367E03B68FB6102E000BF00E000BF2F
:1050F8003B695B69BB604FF00003FB764FF0000330
:105108007B6132E0FA697B69D3181B78002B0DD0DC
:10511800FA697B69D3181B785C2B0AD17B6903F188
:105128000103FA69D3181B78002B02D13B69FB6095
:105138001EE0FA697B69D3181B785C2B03D14FF00A
:105148000103FB7614E0FA697B69D3181A78B96809
:105158007B69CB181B789A4203D04FF00003FB768B
:1051680006E07B6903F101037B617B69FE2BC9D9EA
:10517800FB68002B19D1FB7E012B09D03B691B680A
:105188003B613B699B68DA683B699A42ADD10DE0A7
:105198007B6903F10103FA69D318FB613B69DB689A
:1051A8003B613B69002BA2D100E000BF044801F03D
:1051B80027FDFB68184607F12007BD4680BD00BFE4
:1051C80034090020B9CCB6A8BFE9B7D6C5E4B3D82E
:1051D8000000000080B582B000AF7860134B4FF03C
:1051E8006002DA64114B124A9A61104B4FF00002C8
:1051F800DA61104B1A460D4B9A640F4B0B4A1A6032
:105208000A484FF060010D4AFFF748FD0C484FF07F
:1052180005014FF00502094B01F0D0FC4FF00103E6
:10522800184607F10807BD4680BD00BF400B0020A7
:105238005C0900203C0B00203C0B0020CC510008EE
:10524800600B002080B586B000AFF860B9607A6066
:105258003B60FB68002B05D1BB68002B02D04FF0E8
:10526800000352E07B68072B02D84FF000034CE0A4
:105278007B6803F00303002B04D1FB6803F00303EE
:10528800002B02D04FF000033FE0224B1B6818466A
:105298004FF0000100F080F803467B617B69002B2A
:1052A80002D14FF0000330E07B69FA689A617B69AC
:1052B8004FF00002DA61BB687A6802FB03F2FB6810
:1052C800D2187B699A647B697A68DA647B693A6880
:1052D8001A657B693A6A5A657B694FF00002DA659C
:1052E8000C4B1B681A467B69104619464FF0600242
:1052F8007B6AFFF717FD7B6903F120031846B9683D
:10530800BA687B6A01F05AFC7B69184607F11807EE
:10531800BD4680BD3C0B002080B584B000AFF8606E
:10532800B9607A603B60FB68BA689A61FB684FF0C5
:105338000002DA617B683A6802FB03F2BB68D218A4
:10534800FB689A64FB683A68DA64FB68BA691A65AC
:10535800FB68FA695A65FB684FF00002DA650D4B85
:105368001B681A46FB68104619464FF060023B6AF4
:10537800FFF7D8FCFB6803F12003184679687A68C0
:105388003B6A01F01BFCFB68184607F11007BD4695
:1053980080BD00BF3C0B002080B58CB000AF7860AA
:1053A80039607B68002B02D14FF00003B5E07B68C1
:1053B80003F1200318464FF0000101F095FC034665
:1053C800002B78D1FBF77EFE7B6803F1200318469B
:1053D80001F0DCFD02467B685B6D9A425CD27B681B
:1053E8001B6D7A68D26C02FB03F303F108031846BD
:1053F8004FF0000100F0FEFDB862BB6A002B4BD0F5
:10540800B86A00F01DFA0346A3F108037B627B68C3
:10541800DB6C7A6AB2FBF3F33B627B6803F120032F
:10542800184601F0B3FDF8617B6803F120031846C4
:1054380001F0C0FDB861FA693B6AD3187B617B68EB
:1054480003F120035B693B617B6803F12003184685
:1054580001F04CFD7B6803F12002B9693B6ACB1867
:10546800104679691A463B6901F0A8FBBB6A03F14B
:1054780008031A467B689A617B68DB6C3A6A02FB10
:1054880003F2BB6AD2187B689A64BB6A7A68D26DE9
:105498001A607B68BA6ADA65FBF740FE7B6803F13D
:1054A80020031846396801F01FFC0346002B02D17F
:1054B8004FF0000331E0FBF7DDFFF8607B68DB6944
:1054C800002B1CD07B68DB69FB62FB6A5A68FB6AAD
:1054D8009A4204D17B684FF00002DA6119E07B68D8
:1054E800DB695A687B68DA617B68DB69FA6A12688B
:1054F8001A60FB6A1B687A68D2695A6009E07B689F
:105508009A6C7B68DB6CD21A7B689A647B689B6CAC
:10551800FB62F868FBF7B6FFFB6A184607F130072D
:10552800BD4680BD80B584B000AF786039607B68C7
:10553800002B2ED0FBF79EFFF8607B68DB69002B01
:105548000BD13A687B68DA617B68DB693A685A6034
:105558007B68DB693A681A6011E03B687A68D2694F
:105568005A603B687A68D26912681A607B68DB699E
:105578001B683A685A607B68DB693A681A60F868A1
:10558800FBF780FF7B6803F12003184601F038FB26
:1055980000E000BF07F11007BD4680BD80B582B0AE
:1055A80000AF78607B68002B02D14FF0000306E063
:1055B8007B6803F12003184601F0FCFC03461846FB
:1055C80007F10807BD4680BD08070606050505055D
:1055D800040404040404040403030303030303038B
:1055E800030303030303030302020202020202028B
:1055F8000202020202020202020202020202020283
:10560800020202020202020201010101010101017A
:105618000101010101010101010101010101010172
:105628000101010101010101010101010101010162
:105638000101010101010101010101010101010152
:10564800010101010101010100000000000000004A
:105658000000000000000000000000000000000042
:105668000000000000000000000000000000000032
:105678000000000000000000000000000000000022
:105688000000000000000000000000000000000012
:105698000000000000000000000000000000000002
:1056A80000000000000000000000000000000000F2
:1056B80000000000000000000000000000000000E2
:1056C80000000000000000000000000001000000D1
:1056D80003000000070000000F0000001F0000008A
:1056E8003F0000007F000000FF000000FF010000F5
:1056F800FF030000FF070000FF0F0000FF1F00006E
:10570800FF3F0000FF7F0000FFFF0000FFFF0100D8
:10571800FFFF0300FFFF0700FFFF0F00FFFF1F0051
:10572800FFFF3F00FFFF7F00FFFFFF00FFFFFF01BC
:10573800FFFFFF03FFFFFF07FFFFFF0FFFFFFF1F35
:10574800FFFFFF3FFFFFFF7FFFFFFFFF80B483B036
:1057580000AF78600F4B4FF000021A730E4B1B68B6
:1057680003F1070323F007031A460A4B1A60094B93
:105778001A68084B5A60094B1B6823F007031A463E
:10578800044B9A604FF00103184607F10C07BD4619
:1057980080BC7047C40B002028EB00082CEB0008E5
:1057A80080B485B000AF78601E4B5B68FB601D4B12
:1057B8005B6803F10B0323F007031A46194B5A6081
:1057C800184B9B681A46174B5B68D31A1A467B68B6
:1057D8009A4205D2134BFA685A604FF000031AE058
:1057E800104B5B68A3F10403FB60FB687A681A60DE
:1057F8000C4B5B68FB600B4B5A687B68D218094BF3
:105808005A60084B5B6803F1070323F007031A4645
:10581800044B5A60FB68184607F11407BD4680BC64
:10582800704700BFC40B002080B483B000AF78601D
:105838004FF00103184607F10C07BD4680BC7047BE
:1058480080B586B000AF7860344B1A687B689A429E
:1058580004D8324B9A687B689A4202D84FF000030A
:1058680057E02E4B5A687B689A4206D97B68A3F1A9
:1058780004033B613B691B684BE07A68274B5B6814
:10588800D31A4FEA5313FB60244B9A6AFB684FEA1A
:105898004303D318BB60BB681B88A3F57E43A3F5FD
:1058A800FE73032B1ED801A252F823F0E15800081A
:1058B800D9580008CD580008C55800084FF0010312
:1058C800FB7521E0BB6803F104031B88FB751BE033
:1058D8004FF00003FB7517E0BB6803F102031B8858
:1058E800FB7511E0BB681A8843F6FF739A4203D828
:1058F8004FF00003FB7507E009484FF0000102F084
:10590800B7FE4FF0000304E0FB7D4FF0200202FADF
:1059180003F3184607F11807BD4680BDC40B0020E5
:105928000100000380B485B000AF78600B46FB70BF
:105938004FF00003BB60FB7803F1FF33FB73FB7B85
:105948007A68D3181B78124AD35C082B09D0FB7BE2
:105958007A68D3181B780E4AD35CBA68D318BB6030
:105968000FE0BB6803F10803BB60FB7B002B0CBF97
:1059780000230123DBB2FA7B02F1FF32FA73002B1A
:10598800DDD1BB68184607F11407BD4680BC7047D7
:10599800D055000880B586B000AF786007F10403E1
:1059A80018464FF00401FFF7BDFF0346DBB2C3F111
:1059B8002003BB737B684FEA43033B61BB7B3A69B7
:1059C800D3183B613B6903F1030323F003033B61F5
:1059D800BB7B4FEA83033A69D3183B614FF000035E
:1059E800FB731BE07A68FB7B22FA03F37B617B691C
:1059F80003F11F034FEA53137B617B694FEA83036B
:105A08003A69D3183B613B6903F104033B617B6945
:105A1800012BECD8FB7B03F10103FB73FA7BBB7B07
:105A28009A42DFD33B69184607F11807BD4680BD87
:105A380080B485B000AF78604FF00003BB604FF0D2
:105A48000303FB7307F10402FB7BD3181B78134A8B
:105A5800D35C082B0AD007F10402FB7BD3181B7810
:105A68000E4AD35CBA68D318BB600FE0BB6803F179
:105A78000803BB60FB7B002B0CBF00230123DBB2B8
:105A8800FA7B02F1FF32FA73002BDBD1BB681846B0
:105A980007F11407BD4680BC704700BFD055000809
:105AA80080B584B000AF78607B68202B02D84FF0B7
:105AB800000318E007F1040318464FF00401FFF74C
:105AC80031FFF860FB684FF0004222FA03F27B686E
